:020000040800F2
:1000000080230020B90D0008190E0008190E000801
:10001000190E0008190E0008190E00080000000053
:10002000000000000000000000000000190E0008A1
:10003000190E000800000000AD060008FD060008CB
:10004000190E0008190E0008190E0008190E0008F4
:10005000190E0008190E0008190E0008190E0008E4
:10006000190E0008190E0008190E0008190E0008D4
:10007000190E0008190E0008190E0008190E0008C4
:10008000190E0008190E0008190E0008190E0008B4
:10009000190E0008190E0008190E0008190E0008A4
:1000A000190E0008190E0008190E0008190E000894
:1000B000190E0008190E0008190E0008190E000884
:1000C000190E0008190E0008190E0008190E000874
:1000D000190E0008190E0008410C0008190E00083E
:1000E000190E0008190E0008190E0008190E000854
:1000F000190E0008190E0008190E0008190E000844
:10010000190E0008190E0008190E0008190E000833
:10011000190E0008190E0008190E0008190E000823
:10012000190E0008190E0008190E0008190E000813
:10013000190E0008190E0008190E0008190E000803
:10014000190E0008190E0008190E0008190E0008F3
:10015000190E0008190E0008190E0008190E0008E3
:10016000190E0008190E0008190E0008190E0008D3
:10017000190E0008190E0008190E0008190E0008C3
:10018000190E0008190E000830B585B0684600F059
:10019000F5FE00981E4B186002F068F900221D4B16
:1001A00002F0DAF904460D4600221B4B02F0FEFA7B
:1001B00000221A4B02F0D0F902F0E0FB184B186055
:1001C0000FA3D3E900232046294602F0EFFA0022CC
:1001D000124B02F0C1F902F0D1FB124B18600AA3D6
:1001E000D3E900232046294602F0E0FA00220B4B17
:1001F00002F0B2F902F0C2FB0B4B186005B030BD43
:10020000000000000094C14000000000882A614105
:10021000B00200200000F43F000022400000E03F58
:10022000B4020020BC020020B802002084B001907B
:10023000019B93B10A4B1A6800210391039B9342DF
:1002400005D2039B01330393039B9342F9D3019B94
:10025000013B0193019B002BEFD104B0704700BF1D
:10026000B802002084B00190019B93B10A4B1A6838
:1002700000210391039B934205D2039B0133039317
:10028000039B9342F9D3019B013B0193019B002BFC
:10029000EFD104B0704700BFBC020020124B1B78A6
:1002A00003BB124B1B78EBB9E0B170B5044600F00C
:1002B00083F80F4B1A6892F8381092F839600D4D98
:1002C0006B5C23EA06036B5433B90B4992F83A503E
:1002D0000B7823EA05030B70146300F06FF801F04C
:1002E00045FA70BD704700BFB809002050080020D3
:1002F000BC090020AC090020A8090020F0B585B099
:10030000C2F57E43FB335B1A1B1A9BB27E248DF829
:100310000440FF248DF8054006248DF806408DF832
:10032000070000208DF808008DF809108DF80A20CC
:100330001A0A8DF80B208DF80C30EF238DF80D3054
:1003400001AE0DF10E078025074C2946204600F02E
:1003500093FA0028F9D016F8011B204600F06CFA39
:10036000BE42F2D105B0F0BD0010014008B5024612
:1003700000210620FFF7C2FF6420FFF773FF08BDCE
:1003800008B5002211460C20FFF7B8FF4FF4FA70B1
:10039000FFF768FF08BD00BF08B5FFF7F1FF0022B7
:1003A00011463F20FFF7AAFF4FF47A70FFF75AFF7C
:1003B0000C20FFF7DBFF08BD72B6704762B67047CE
:1003C00072B60E48FF210170002080F309880C48A6
:1003D000016881F308880B48012101700A484FF039
:1003E0008051016062B6FEE707484FF0805101601E
:1003F000704705484FF080510160704722ED00E0E2
:10040000C00200205208002004ED00E0B8B1F8B5A9
:1004100004460B4F4FF480764FF48C7531463846C6
:1004200001F0C6FA2846FFF701FF3146384601F0D1
:10043000BDFA2846FFF7FAFE013CEFD1F8BD704740
:100440000008024040F22B13013B9BB2002BFBD172
:1004500010B500F0DFFB034C0021204600F096FCB5
:10046000204610BD5000002040F22B13013B9BB2F0
:10047000002BFBD110B5034C0021204600F086FC78
:10048000204610BD7C010020F0B583B005460F4822
:1004900000F0C0FB6C1E02350D4F0E4E14F8012FFC
:1004A0000F2A94BF3146394601A800F043FF01A846
:1004B00000F0B0FBAC42F1D1074800F0ABFBFFF716
:1004C000D3FF00F091FB03B0F0BD00BFBC310008CA
:1004D000D0310008CC3100086432000808B5024869
:1004E00000F098FB08BD00BFD431000870B5194E6C
:1004F000194D1A4C304600F077FBFFF7EFFF4FF431
:10050000FA70FFF7AFFE2846FFF79CFF00F06CFB88
:100510002046FFF797FF00F067FB1148FFF792FFB7
:1005200000F062FB0F48FFF78DFF00F05DFB6420D9
:10053000FFF798FE0C4801F051FD0C48FFF782FFD1
:1005400000F052FBFFF790FF094902F0CDFC0028B4
:10055000D0D170BD64320008E031000814320008C8
:10056000383200085C320008683200087432000833
:100570008432000870B58AB04FF400550895012305
:100580008DF8243000268DF826608DF82760022330
:100590008DF82530114C08A9204601F0BFF92946F5
:1005A000204601F003FA2946204601F001FA4FF4F3
:1005B000FA70FFF757FE2946204601F0F7F9314659
:1005C000684600F0E3FB064800F00EFB684600F0CA
:1005D0000BFBFFF78BFF0AB070BD00BF00040240A9
:1005E00090320008064B002103F5007243F8041B0B
:1005F0009342FBD1034B23F00703034A1360704778
:10060000C4020020C4040020C0020020704700BFC4
:10061000704700BF704700BF704700BF704700BF02
:10062000043222F007024FF0807342F8043C42F893
:10063000080C1B4B42F80C3C4FF0123342F8103CB4
:100640004FF0033342F8143C4FF0023342F8183CA9
:100650004FF0013342F81C3C42F8201C4FF011339C
:1006600042F8243C4FF0103342F8283C4FF0093355
:1006700042F82C3C4FF0083342F8303C4FF007333F
:1006800042F8343C4FF0063342F8383C4FF0053323
:1006900042F83C3C10464FF0043340F8403D704770
:1006A0009D1C0008704700BF704700BF72B6EFF393
:1006B000098028B1203880E8F00F0C4909680860EB
:1006C0000B480C490A78027008480B490A68026016
:1006D000106890E8F00F203080F309884EF0040E87
:1006E0007FF0020E62B6704770470000BC09002020
:1006F000AC08002058080020A009002008B572B6F8
:1007000000B5FFF759FE084A137801331370FFF75D
:1007100055FE00F09DFE00F03DFE5DF804EB4EF04E
:10072000040E62B608BD00BFB80900200138084BAE
:100730001860084A136823F07F431360064B1A6859
:1007400042F005021A601A6842F002021A6070470D
:1007500014E000E020ED00E010E000E030B585B0EE
:1007600004460D46038A9BB223F44053CA881343C0
:10077000038283899BB223F4B05323F00C0289884F
:100780002B890B4369890B439BB213438381838A73
:100790009BB223F44073AA8913438382684600F016
:1007A000EDFB1C4B9C4203D003F580639C4201D1BE
:1007B000039B00E0029BA28912F4004F03EB83032A
:1007C00003EB8303296814BF49008900B3FBF1F1EF
:1007D000114BA3FB012358090501642300FB1313EC
:1007E000A28912F4004F09D0D90032310A4AA2FB83
:1007F0000131C1F3421242EA050307E01B01323323
:10080000054AA2FB0323C3F343132B439BB223816B
:1008100005B030BD001001401F85EB5129B183891F
:100820009BB243F4005383817047838923F40053C0
:100830001B041B0C83817047C1F308018180704742
:1008400010B4C1F3421401F01F01012303FA01F1B6
:100850009C4201D10C3003E0022C0CBF103014304C
:100860001AB103681943016003E0036823EA010138
:10087000016010BC704700BF0388194214BF0120FB
:100880000020704710B4C1F3421201F01F0401238D
:10089000A340012A03D1828992B2134005E0022AC3
:1008A0000CBF028A828A92B21340028892B243B18C
:1008B000090A012303FA01F10A4214BF1846002075
:1008C00000E0002010BC7047090A012303FA01F17F
:1008D000C94389B20180704710B50F4C50212046A2
:1008E00000F07CFE04F1100304F1500000210B4ADB
:1008F00003F8101C43F80C3C43F8042C10338342DB
:10090000F6D1054B002283F840205A64034ADA648A
:10091000034A136010BD00BF5C080020AC32000821
:100920007C1A0020426803682AB9C26853602BB160
:1009300000225A6002E0136003B15A60836800220B
:100940009A6270472DE9F04186B001214FF40030E2
:1009500000F074FB0121084600F062FB4FF00C0828
:10096000CDF8108002278DF8147000248DF8164001
:1009700001258DF817508DF81570174E04A93046D3
:1009800000F0CCFF07223946304601F013F8072269
:100990000321304601F00EF84FF4E1330093ADF837
:1009A0000440ADF80640ADF80840ADF80C40ADF895
:1009B0000A800A4C69462046FFF7D0FE2A4640F2DC
:1009C00025512046FFF73CFF29462046FFF726FF2A
:1009D00006B0BDE8F08100BF0000024000440040C6
:1009E00070B586B001214FF4802000F027FB012173
:1009F000022000F015FB4FF44063049302238DF8AE
:100A0000143000248DF8164001258DF817508DF80C
:100A10001530174E04A9304600F080FF07220A2146
:100A2000304600F0C7FF07220B21304600F0C2FF1E
:100A30004FF461430093ADF80440ADF80640ADF8C3
:100A40000840ADF80C400C23ADF80A30094C69465B
:100A50002046FFF783FE2A4640F225512046FFF745
:100A6000EFFE29462046FFF7D9FE06B070BD00BF55
:100A7000000402400048004070B586B001212020EB
:100A800000F0EAFA0121042000F0CAFAC02304931E
:100A900002238DF8143000248DF8164001258DF8BE
:100AA00017508DF81530174E04A9304600F036FF68
:100AB00008220621304600F07DFF0822072130463B
:100AC00000F078FF4FF4E1330093ADF80440ADF847
:100AD0000640ADF80840ADF80C400C23ADF80A30E4
:100AE000094C69462046FFF739FE2A4640F2255157
:100AF0002046FFF7A5FE29462046FFF78FFE06B0E9
:100B000070BD00BF000802400014014070B586B0FF
:100B10000121102000F0A0FA0121022000F080FA4B
:100B2000C023049302238DF8143000248DF816405E
:100B300001258DF817508DF81530184E04A9304650
:100B400000F0ECFE07220621304600F033FF0722BA
:100B50001146304600F02EFF4FF416530093ADF8C7
:100B60000440ADF80640ADF80840ADF80C400C2349
:100B7000ADF80A3004F1804404F588346946204613
:100B8000FFF7ECFD2A4640F225512046FFF758FEBC
:100B900029462046FFF742FE06B070BD0004024021
:100BA00070B50646064D802421462846FFF764FEB0
:100BB0000028F9D031460248FFF73EFE70BD00BF65
:100BC0000044004070B50646064D80242146284664
:100BD000FFF752FE0028F9D031460248FFF72CFEFD
:100BE00070BD00BF0048004010B582B0044600232D
:100BF0000193019BC35C53B1019BE05CFFF7D0FF05
:100C0000019B01330193019BE35C002BF4D102B003
:100C100010BD00BF10B582B0044600230193019BB4
:100C2000C35C53B1019BE05CFFF7CCFF019B013338
:100C30000193019BE35C002BF4D102B010BD00BF17
:100C40002DE9F04140F225512248FFF71BFE002814
:100C50003DD0204C40F225512046FFF735FEB4F838
:100C600004805FFA88F8A8F14103DBB2192B9CBF1E
:100C700008F120085FFA88F8B8F10D0F18D8164B64
:100C80001B68002B0CDD154D0024124F124E15F879
:100C9000011F3846FFF7D0FD01343368A342F6DC6C
:100CA00000220D4B1A6041460A48FFF7C5FD06E0D9
:100CB000094A13680A4901F8038001331360054D9E
:100CC000402421462846FFF7D7FD0028F9D0BDE88B
:100CD000F08100BF00440040A8020020C7040020AB
:100CE000C8040020F0B585B040BB30238DF80F302C
:100CF0000E260FE00E2E2FDC0CE0B3FBF0F200FB13
:100D0000123413462A5D01F8012D013E02D0002B5A
:100D1000F3D1EFE70DEB06078025104C013629468D
:100D20002046FFF7A9FD0028F9D017F9011F89B265
:100D30002046FFF781FD0E2EF0DD0DE0024608464D
:100D4000B2FBF1F301FB1321054A525C04A901F83F
:100D5000012D0E26024DDAE705B0F0BD004400403B
:100D60002833000808B50A21FFF7BCFF08BD00BF03
:100D700008B520210448FFF77FFD012803BF024B7F
:100D80009888C0B2FF2008BD0048004038B504462E
:100D90000D46FFF7EDFF2070FF28FAD00A28F8D0A3
:100DA0000DB1FFF70FFF23780D2B02D10023237025
:100DB00038BD0134EDE700BF08B5114B114A9A4226
:100DC0000CD2581E801A20F0030004300E4B184439
:100DD00053F8041B42F8041B8342F9D10B480C4919
:100DE0004FF000028842B8BF40F8042BFADBDFF86E
:100DF0002400016841F47001016000F09BF808BD17
:100E0000500000200000002028350008500000207D
:100E1000801B002088ED00E008B532254FF4FA74FD
:100E20002846FFF7F3FA2046FFF71CFAF8E700BF61
:100E3000104B1868E0B1F0B587B01C466FF0404722
:100E400000256268E168237ACE19B4F810E0CDF885
:100E500010E0039502910192009302EB860229466D
:100E600000F034FF54F8140F0028EAD107B0F0BDA9
:100E7000704700BF0000002008B50C48FFF7B4FE23
:100E80000B48FFF7B1FE00F041FBFFF76BFF09488D
:100E9000FFF7AAFE084B1B680848A0FB0330800C34
:100EA000FFF760FF0648FFF79FFE08BD48330008C4
:100EB000BC330008D03300083C00002083DE1B4315
:100EC000E833000808B5002001F0FAF8014B18607B
:100ED00008BD00BF4C08002010B50A4C206801F086
:100EE0007DF82068FFF780FE0748FFF77DFEFFF7DB
:100EF000C3FFFFF7E7FFFFF79BFF0448FFF716FC70
:100F000010BD00BF28000020F033000840D10C00C5
:100F100008B5FFF739F9FFF715FDFFF761FDFFF79A
:100F2000ABFDFFF7F3FDFFF737FA00F099FFFFF78E
:100F300021FB08BD08B500F051FDFFF7E9FF00F007
:100F400059FBFFF7C9FF0121082000F069F80A4B9F
:100F50001A6842F080721A601A6842F080621A6061
:100F60001A6842F080521A601A6842F080421A6091
:100F700000F04EFAFEE700BF000C024010B4244B14
:100F80009B6803F00C03042B05D0082B06D00BBB89
:100F9000204B036020E0204B03601DE01C4B5A688F
:100FA0005B6803F03F0312F4800F194A5268C2F3E2
:100FB000881214BF18491749B1FBF3F303FB02F27F
:100FC000134B5B68C3F3014301335B00B2FBF3F3E4
:100FD000036001E00F4B03600D4CA368C3F30313E0
:100FE0000E49CB5CDAB20368D3404360A268C2F317
:100FF00082228A5CD2B223FA02F28260A268C2F331
:1010000042328A5CD2B2D340C36010BC704700BF8A
:10101000003802400024F40000127A002C00002066
:1010200021B1054B1A6B104318637047024A136BCA
:1010300023EA0000106370470038024021B1054BDD
:101040001A6C104318647047024A136C23EA0000BC
:10105000106470470038024021B1054B5A6C1043B0
:1010600058647047024A536C23EA0000506470478A
:101070000038024010B40B7843B1024602F8013B3D
:10108000141A11F8013F002BF8D100E0002420468B
:1010900010BC704770B504461E46501E092B04D87C
:1010A00000280CDC254600200FE00E4BA3FB062396
:1010B000DB0802462046FFF7EDFF251805E0551E28
:1010C000254404F8011BA542FBD1064BA3FB0623D4
:1010D000DB0803EB8303A6EB430330332B700130B3
:1010E00070BD00BFCDCCCCCC70B50446002B04DA6B
:1010F0005D42501E092D05D82FE01D46013A092BEF
:101100000AD825E01D4BA3FB0523DB085B42024602
:101110002046FFF7E9FF06E01848A0FB0303DB08C1
:101120002046FFF7E1FF04441CE01046264606F87F
:10113000011B01380028FADC013A22EAE272501C55
:101140000444002B0EDA2D2304F8013B013009E0A2
:10115000002AD8BF002005DDE7E7023A002AE4DCD8
:101160000020F0E7054BA3FB0523DB0803EB83031B
:10117000A5EB430330332370013070BDCDCCCCCC14
:1011800070B582B004461E46069D501E2B0904D140
:1011900000280ADC234600200DE000933346024677
:1011A0002046FFF7EDFF231805E0531E234404F803
:1011B000011BA342FBD105F00F02092A03D81546F3
:1011C00030351D7009E026B105F00F0537351D706B
:1011D00003E005F00F0557351D70013002B070BDFA
:1011E0002DE9F04F83B00F46064608B1002101708B
:1011F00000254FF0010AA8464FF030097CE0252970
:1012000004D0013231700135013675E0517825295D
:1012100004D131700232013501366DE0302919BF39
:10122000541C2021941C494694F800E0AEF1300291
:10123000D2B2092A0FD8424602EB82020EEB4202DA
:10124000303A02F0FF0214F801EFAEF13000C0B204
:101250000928F1D900E04246501987423CBF7A1B69
:10126000D2B2AEF1580EBEF1200F56D8DFE80EF024
:101270002B555555555555555555553D11555555A4
:1012800055115555555555555555553555195555AE
:10129000210003F1040B1B683046FFF725FF5B4676
:1012A00027E003F1040B1B683046FFF7F3FE5B46B3
:1012B0001FE003F1040B1B68009343463046FFF721
:1012C0005FFF5B4615E003F1040B1B680093534678
:1012D0003046FFF755FF5B460BE003F1040B19683E
:1012E0003046FFF7C7FE5B4603E01A6832700433EE
:1012F0005046621C06440544117819B1BD42FFF402
:101300007EAF05E0AF4203D900233370284606E0E4
:10131000002306F8013C681E01E04FF0FF3003B0E7
:10132000BDE8F08F08B513460A466421FFF758FF61
:1013300008BD00BF0EB400B582B003AA52F8041B6A
:101340000192FFF7EFFF02B05DF804EB03B07047C6
:10135000054B064A12789A5C0549895C5B5C03EB95
:10136000C203044A1370704704340008A80900201F
:10137000AC0900205808002010B5054CFFF71CF8F8
:10138000236801332360FFF719F8FFF745F9F5E704
:1013900054080020164B1B78012B28D110B5FFF7FD
:1013A0000BF80446134B1B7823B1013BDBB2114A07
:1013B0001370C3B9104B1B78ABB9FFF7C9FF0F4BC4
:1013C0001A780F4B53F822300E490B600E490978FA
:1013D000914208D0DA6B0132DA630C4A13680133A8
:1013E0001360FFF706F82046FEF7E8FF10BD7047D0
:1013F00052080020B809002050080020580800209A
:10140000801A0020A0090020AC080020300900202C
:1014100008B5094B1B7873B9FFF79AFF074B1B7888
:10142000074A1370074A52F82330074A1360074AE5
:101430001360FEF7C5FF08BD5208002058080020C1
:10144000AC080020801A0020A0090020BC09002060
:10145000F8B5FFF729F9FEF7AFFF264A1368013305
:101460001360FEF7ABFF244B1B78012B41D1234BBC
:101470001B78012B3DD02BB1022B0CBF0122002287
:101480001E4B1A701E4B1C6894F836303F2B30D020
:101490001C4E1D4D0027FEF78FFF236B13B3013B3E
:1014A0002363FBB994F8343013F0370F07D023F0DF
:1014B000370384F83430012384F8353001E084F8B0
:1014C000357094F8343013F0080F0BD194F83A20AB
:1014D00033781343337094F83820A95C94F839308A
:1014E0000B43AB546469FEF769FF94F836303F2B29
:1014F000D1D1F8BDC0090020520800202C090020DD
:10150000B0080020A8090020AC09002047F21720ED
:10151000704700BF704700BF10B4114B1B68D86103
:1015200093F838200244D47A93F839102143D172C9
:10153000817A93F83A200A43827293F8381093F82C
:1015400039400848425C22EA0402425432B9064A51
:1015500093F83A10137823EA0103137010BC704714
:10156000BC090020AC090020A809002010B490F8A4
:10157000382090F839400A44D37A23EA0403D3721E
:101580002BB990F83A208B7A23EA02038B7210BCB5
:10159000704700BF70B490F8385090F83A6090F8F7
:1015A00039400A686AB1E443F6435019C37A2340CC
:1015B000C37213B9937A3340937251F8042F002AFF
:1015C000F3D170BC704700BF0346002203F80A2F16
:1015D000123003F8012F8342FBD1704741B1431E03
:1015E0004A1E10FA82F0002203F8012F8342FBD139
:1015F000704700BF10B588B0FEF7F4FF0023434AE0
:101600001360434A1370434A1370434A1370434AAA
:101610001370434A1360434A1360434A1370434AAA
:101620001370434B03F10801002203F8012F8B4292
:10163000FBD100233F4A13703F4A13703F4A1360A7
:101640003F4A13603F4C4FF4E7612046FFF7C6FF67
:101650004FF480713C48FFF7C1FF04F1580304F5D3
:10166000E7623A4943F8443C43F8081C58339A422D
:10167000F8D1344B0022C3F8F4263449C3F83017AC
:1016800033490A60334A1360334C4FF4F06120460B
:10169000FFF7A4FF04F1180304F5F06200202B49C2
:1016A00003F8180C43F8143C43F8041C1833934215
:1016B000F6D1294B002483F86847C3F86C47234AC6
:1016C000C3F87C27254A1360FFF706F900F002F9FA
:1016D00000F0FEF9224A032304930394802302932B
:1016E000A2F5FE7301934FF6FF7300933F2321464B
:1016F0001C4800F0EBFA0DF11F021B493F2000F0DF
:101700009FFAFEF783FF08B010BD00BFC00900209C
:10171000B809002050080020380900205208002095
:10172000300900205408002051080020A80900209A
:10173000AB090020AC08002058080020A0090020B8
:10174000BC09002044130020801A0020AC3200089D
:10175000B008002034090020C40B0020B409002088
:10176000C00B0020791300080435000810B5FEF7FF
:1017700023FE04460F4B1B78C3B90F4B1B78ABB944
:10178000FFF7E6FD0D4B1A780D4B53F822300D494B
:101790000B600D490978914208D0DA6B0132DA63A7
:1017A0000A4A136801331360FEF71EFE2046FEF757
:1017B00005FE10BDB8090020500800205808002080
:1017C000801A0020A0090020AC0800203009002069
:1017D0002DE9F04106460D4690461F46FEF7ECFD0A
:1017E000354B1C68002C61D062691A60FEF7E6FD7B
:1017F000256084F83660002584F8345084F835502C
:101800002563079B6360069BE360C4F80880BDF80E
:1018100020302382678284F83B50F20884F8382015
:1018200006F0070184F83710012303FA02F284F866
:101830003A208B4084F83930E5612562A562656203
:10184000E56365642564A564E5641C4B23656565F3
:101850002046FEF727FFFEF7AFFD194B43F8264061
:10186000FEF7ACFD2046FEF7D3FEFEF7A5FD154BB7
:101870001B686361A56103B19C61124B1C60124A35
:1018800094F83A1013780B43137094F838200F49EA
:101890008D5C94F839302B438B540D4A1378013307
:1018A0001370FEF78BFD0020BDE8F081FEF786FD8A
:1018B0004220BDE8F08100BF34090020AC320008AE
:1018C000801A0020B0080020A8090020AC090020E0
:1018D0003809002010B50E4C78212046FFF77EFE17
:1018E00004F1180363600B4B636104F13002E261A1
:1018F000E36204F148026263636404F16002E2643B
:10190000E365002262666367034B1C6010BD00BF85
:10191000B4080020AC3200083C090020F0B50023D8
:101920000125032605FA03F20C68A24339D10268A7
:101930005C0006FA04F7FF433A400260026891F83F
:1019400004E00EFA04FE4EEA020202600A79013A4D
:10195000D2B2012A17D882681740876087684A790F
:10196000A2403A43826047689AB205FA02FE27EA2B
:101970000E074760D0F804E08F7907FA02F292B2BE
:1019800042EA0E024260C7689AB2520006FA02F2B8
:1019900027EA0202C260C268CF7907FA04F414434E
:1019A000C4600133102BBDD1F0BD00BF018370476F
:1019B0004183704710B401F007039B00C90800EB96
:1019C0008100046A0F21994024EA01010162016A41
:1019D0009A400A43026210BC704700BF82B0364B87
:1019E0001A6842F001021A60002199601A6822F018
:1019F000847222F480321A60304A5A601A6822F4E3
:101A000080221A60D960009101911A6842F48032F4
:101A10001A601A46136803F400330193009B0133E4
:101A20000093019B1BB9009BB3F5A06FF2D1224B31
:101A30001B6813F4003F14BF012300230193019B93
:101A4000012B32D11C4B1A6C42F080521A641C4993
:101A50000A6842F480420A609A689A609A6842F47E
:101A600000429A609A6842F4A0529A60154A5A60FD
:101A70001A6842F080721A601A46136813F0007FE9
:101A8000FBD040F20562104B1A60A3F580639A68A0
:101A900022F003029A609A6842F002029A601A46A3
:101AA000936803F00C03082BFAD14FF00062074B48
:101AB0009A6002B0704700BF003802401030002426
:101AC0000070004008544007003C024000ED00E078
:101AD00010B5094C60212046FFF780FD04F1180283
:101AE000234643F8302BA36104F14803236300230A
:101AF000A364024B1C6010BD40090020A409002013
:101B0000F8B5444B1C78002C7ED105463F287DD08B
:101B1000FEF752FC0646FF2D03D13F4B1B6893F89E
:101B200036502F463D4B53F8255025B93046FEF729
:101B300045FC43246BE0012D04D13046FEF73EFC0A
:101B40003D2464E095F8382095F8390034498B5CE1
:101B500023EA00038B5433B9324A95F83A101378CC
:101B600023EA01031370E96911B12846FFF7FEFC6F
:101B7000296A11B12846FFF70DFDA86A08B1FEF7E2
:101B8000D1FE00232B6385F8343085F83530264BA1
:101B90001B78FF2B02D00133234A13703046FEF727
:101BA0000DFCFFF7B7FCFEF707FC06461E4B1B7843
:101BB00013B1013B1C4A13702846FEF72BFD1B4A4C
:101BC0001378013B13700022144B43F82720AB69B4
:101BD0002BB96B699A616A69154B1A6004E06A69EE
:101BE0005A616B69AA699A61124B1A686A611D6031
:101BF000114B2B653046FEF7E1FB104B1B78012B98
:101C000005D1FFF7B3FD02E0402400E03E2420466A
:101C1000F8BD00BFB8090020BC090020801A0020D0
:101C2000AC090020A8090020500800203809002035
:101C3000B008002034090020AC320008520800200F
:101C400070B51446124B1B7813B11223137070BD7C
:101C500005460E46FEF7B0FBFF2D03D10D4B1B686A
:101C600093F836500C4B53F8253023B9FEF7A6FBFA
:101C70004323237070BD012B04D1FEF79FFB432348
:101C8000237070BD1E65FEF799FB0023237070BDA5
:101C9000B8090020BC090020801A002008B5044BB8
:101CA0001868FEF7BBFCFF20FFF72AFF08BD00BF46
:101CB000BC09002002F00302032A05D121B1002350
:101CC00040F8043B0139FBD1704700BF2DE9F043D8
:101CD00085B00746884691461D46BDF84060FEF730
:101CE0006BFB214B1C781CB1FEF768FB3C2436E0F3
:101CF0001E4B53F825307BBB01221C4B43F825209B
:101D0000FEF75CFB32460E990D98FFF7D3FF334682
:101D10004A4641463846FEF783FC02960F9B0193E4
:101D20000E9B0093BDF830300D9A01462846FFF710
:101D30004FFD064630B90E4B1B78012B0FD1FFF734
:101D400015FD0CE0FEF738FB0022084B43F8252078
:101D5000FEF734FB344602E0FEF730FB2824204631
:101D600005B0BDE8F08300BFB8090020801A00204C
:101D70005208002010B5094C08212046FFF718FE34
:101D800010212046FFF714FE20212046FFF710FE09
:101D900040212046FFF70CFE10BD00BF001002409E
:101DA00010B50446FFF7E6FF14F0010F03D0402101
:101DB0000C48FFF7FBFD14F0020F03D02021094867
:101DC000FFF7F4FD14F0040F03D010210548FFF7CE
:101DD000EDFD14F0080F03D008210248FFF7E6FDDF
:101DE00010BD00BF0010024010B582B078230093F0
:101DF00001248DF8044000238DF806308DF807305B
:101E000002238DF8053069460348FFF787FD204619
:101E1000FEF728FA02B010BD0010024038B50546A2
:101E20000E4C01212046FFF7C1FD2809FFF7B8FF3E
:101E300001212046FFF7BCFDFFF7D6FF0121204618
:101E4000FFF7B4FD05F00F00FFF7AAFF01212046C0
:101E5000FFF7AEFDFFF7C8FF38BD00BF000C024022
:101E60002DE9F04182B001211020FFF7D9F80121BE
:101E70000420FFF7D5F801210820FFF7D1F801254C
:101E80008DF8045000238DF806308DF807300227B6
:101E90008DF8057002AC782344F8083D21462848A7
:101EA000FFF73CFD4FF420530093264E2146304669
:101EB000FFF734FD0095DFF8908021464046FFF79C
:101EC0002DFD4FF400513046FFF772FD2946404684
:101ED000FFF76EFD4FF400613046FFF769FD0F20FC
:101EE000FEF7C0F93020FFF799FF3220FEF7BAF96C
:101EF0003020FFF793FF3020FFF790FF3846FFF7C1
:101F00008DFF0520FEF7AEF92C20FFF787FF0F208D
:101F1000FEF7A8F90E20FFF781FF0F20FEF7A2F9C8
:101F20002846FFF77BFF0F20FEF79CF90620FFF7FE
:101F300075FF0F20FEF796F902B0BDE8F08100BFF3
:101F40000010024000080240000C024010B5044698
:101F50004FF400510948FFF729FD2046FFF75EFFC7
:101F6000074B1B780133DBB2202B02D0044A1370DD
:101F700010BD0022024B1A7010BD00BF00080240C5
:101F8000AC02002038B50546007838B10024FFF7D0
:101F9000DDFF0134E4B2285D0028F8D138BD00BF70
:101FA00010B504464FF400510348FFF701FD2046E9
:101FB000FFF734FF10BD00BF0008024008B5012044
:101FC000FFF7EEFF0022044B1A700520FEF74AF9D6
:101FD000FFF70AFF08BD00BFAC02002010B50446A1
:101FE000FFF7ECFF2046FFF7CDFF10BD2DE9F04FC6
:101FF00083B02948FEF7F8FD2848FEF7F5FD28488C
:10200000FEF7F2FDDFF8A8B0DFF8A880DFF8A8A09F
:10201000DFF8A8903C24234F00260DF1070231463B
:10202000386800F073F80546037A062B04D0642064
:10203000FEF734F9013CF0D106232B72C5F800B04D
:10204000194B6B60194D4146286800F0C5FD0146EB
:10205000504600F0B7FC00F00FFF044641466868A8
:1020600000F0BAFD0146484600F0ACFC00F004FF69
:10207000002CB8BF04F580740028B8BF00F580704C
:1020800006238DF804308DF805408DF8060001A870
:10209000FEF7FAF9BEE700BFF03300081435000878
:1020A000203500084C08002008E507002033000810
:1020B000F2774F000050C347E4EF9E4A00A1FC486E
:1020C00038B50F4B1B78ABB90546FEF775F90D4BCC
:1020D0001C688CB162681A60FEF770F901232370E6
:1020E000002323816560084B63612046FFF76CFA8B
:1020F000204638BD002038BDFEF760F9002038BD0D
:10210000B8090020B4090020AC3200082DE9F843DA
:102110000378012B04D0012313700020BDE8F8835D
:102120002E4B1B7823B1022313700020BDE8F883E7
:102130002B4B1B7823B10D2313700020BDE8F883CF
:1021400016460F460446FEF737F9804665683DB1EE
:1021500000276760FEF732F937702846BDE8F8833C
:10216000DFF88090D9F8003093F8342042F0020272
:1021700083F83420002283F835201F632046FFF7C0
:10218000CBF94046FEF71AF9FFF7F0FAFEF714F91B
:102190000746D9F8000090F8353013B1022B04D06F
:1021A00006E0456A0023337007E00E23337004E035
:1021B0002146FFF7DBF90A2333700A4B1B68002224
:1021C00083F8342083F83520DA611A625A6238467F
:1021D000FEF7F4F82846BDE8F88300BFB8090020F0
:1021E00050080020BC09002081F0004102E000BF3F
:1021F00083F0004330B54FEA41044FEA430594EAC7
:10220000050F08BF90EA020F1FBF54EA000C55EA01
:10221000020C7FEA645C7FEA655C00F0E2804FEAD2
:102220005454D4EB5555B8BF6D420CDD2C4480EAB4
:10223000020281EA030382EA000083EA010180EAE4
:10224000020281EA0303362D88BF30BD11F0004F32
:102250004FEA01314FF4801C4CEA113102D0404268
:1022600061EB410113F0004F4FEA03334CEA1333A3
:1022700002D0524263EB430394EA050F00F0A780BB
:10228000A4F10104D5F1200E0DDB02FA0EFC22FAB6
:1022900005F2801841F1000103FA0EF2801843FAAA
:1022A00005F359410EE0A5F120050EF1200E012A9B
:1022B00003FA0EFC28BF4CF0020C43FA05F3C018D9
:1022C00051EBE37101F0004507D54FF0000EDCF152
:1022D000000C7EEB00006EEB0101B1F5801F1BD3FB
:1022E000B1F5001F0CD349085FEA30004FEA3C0CFF
:1022F00004F101044FEA445212F5800F80F09A80F5
:10230000BCF1004F08BF5FEA500C50F1000041EBF8
:10231000045141EA050130BD5FEA4C0C404141EBFC
:10232000010111F4801FA4F10104E9D191F0000F23
:1023300004BF01460020B1FA81F308BF2033A3F1A6
:102340000B03B3F120020CDA0C3208DD02F1140C9D
:10235000C2F10C0201FA0CF021FA02F10CE002F1D8
:102360001402D8BFC2F1200C01FA02F120FA0CFCD1
:10237000DCBF41EA0C019040E41AA2BF01EB04511A
:10238000294330BD6FEA04041F3C1CDA0C340EDC18
:1023900004F11404C4F1200220FA04F001FA02F35B
:1023A00040EA030021FA04F345EA030130BDC4F119
:1023B0000C04C4F1200220FA02F001FA04F340EA0E
:1023C0000300294630BD21FA04F0294630BD94F0BF
:1023D000000F83F4801306BF81F480110134013DA6
:1023E0004EE77FEA645C18BF7FEA655C29D094EA17
:1023F000050F08BF90EA020F05D054EA000C04BF95
:102400001946104630BD91EA030F1EBF002100207F
:1024100030BD5FEA545C05D14000494128BF41F01E
:10242000004130BD14F580043CBF01F5801130BD82
:1024300001F0004545F0FE4141F470014FF000000D
:1024400030BD7FEA645C1ABF194610467FEA655CBE
:102450001CBF0B46024650EA013406BF52EA033560
:1024600091EA030F41F4002130BD00BF90F0000F4E
:1024700004BF0021704730B54FF4806404F132048A
:102480004FF000054FF0000150E700BF90F0000F43
:1024900004BF0021704730B54FF4806404F132046A
:1024A00010F0004548BF40424FF000013EE700BF3A
:1024B00042004FEAE2014FEA31014FEA02701FBFCA
:1024C00012F07F4393F07F4F81F06051704792F09C
:1024D000000F14BF93F07F4F704730B54FF4607416
:1024E00001F0004521F0004120E700BF50EA010261
:1024F00008BF704730B54FF000050AE050EA01020E
:1025000008BF704730B511F0004502D5404261EB7D
:1025100041014FF4806404F132045FEA915C3FF4BE
:10252000DCAE4FF003025FEADC0C18BF03325FEA57
:10253000DC0C18BF033202EBDC02C2F1200300FA0C
:1025400003FC20FA02F001FA03FE40EA0E0021FA31
:1025500002F11444C1E600BF70B54FF0FF0C4CF41B
:10256000E06C1CEA11541DBF1CEA135594EA0C0FD1
:1025700095EA0C0F00F0DEF82C4481EA030621EA0C
:102580004C5123EA4C5350EA013518BF52EA033547
:1025900041F4801143F4801338D0A0FB02CE4FF0F9
:1025A0000005E1FB02E506F00042E0FB03E54FF029
:1025B0000006E1FB03569CF0000F18BF4EF0010E21
:1025C000A4F1FF04B6F5007F64F5407404D25FEA1D
:1025D0004E0E6D4146EB060642EAC62141EA5551D0
:1025E0004FEAC52040EA5E504FEACE2EB4F1FD0C12
:1025F00088BFBCF5E06F1ED8BEF1004F08BF5FEA90
:10260000500E50F1000041EB045170BD06F0004641
:1026100046EA010140EA020081EA0301B4EB5C04EE
:10262000C2BFD4EB0C0541EA045170BD41F48011E6
:102630004FF0000E013C00F3AB8014F1360FDEBF0B
:10264000002001F0004170BDC4F10004203C35DAE7
:102650000C341BDC04F11404C4F1200500FA05F36A
:1026600020FA04F001FA05F240EA020001F000420B
:1026700021F0004110EBD37021FA04F642EB060181
:102680005EEA430E08BF20EAD37070BDC4F10C04AB
:10269000C4F1200500FA04F320FA05F001FA04F26F
:1026A00040EA020001F0004110EBD37041F100015B
:1026B0005EEA430E08BF20EAD37070BDC4F1200566
:1026C00000FA05F24EEA020E20FA04F301FA05F2CE
:1026D00043EA020321FA04F001F0004121FA04F276
:1026E00020EA020000EBD3705EEA430E08BF20EA46
:1026F000D37070BD94F0000F0FD101F00046400080
:1027000041EB010111F4801F08BF013CF7D041EA01
:10271000060195F0000F18BF704703F00046520005
:1027200043EB030313F4801F08BF013DF7D043EAD6
:102730000603704794EA0C0F0CEA135518BF95EA8C
:102740000C0F0CD050EA410618BF52EA4306D1D113
:1027500081EA030101F000414FF0000070BD50EA32
:10276000410606BF1046194652EA430619D094EABC
:102770000C0F02D150EA013613D195EA0C0F05D1A6
:1027800052EA03361CBF104619460AD181EA0301FA
:1027900001F0004141F0FE4141F470014FF00000B2
:1027A00070BD41F0FE4141F4780170BD70B54FF04D
:1027B000FF0C4CF4E06C1CEA11541DBF1CEA1355CD
:1027C00094EA0C0F95EA0C0F00F0A7F8A4EB0504AF
:1027D00081EA030E52EA03354FEA013100F08880A6
:1027E0004FEA03334FF0805545EA131343EA12636F
:1027F0004FEA022245EA111545EA10654FEA002624
:102800000EF000419D4208BF964244F1FD0404F5DC
:10281000407402D25B084FEA3202B61A65EB030538
:102820005B084FEA32024FF480104FF4002CB6EBF5
:10283000020E75EB030E22BFB61A754640EA0C0075
:102840005B084FEA3202B6EB020E75EB030E22BFB5
:10285000B61A754640EA5C005B084FEA3202B6EBF6
:10286000020E75EB030E22BFB61A754640EA9C00B5
:102870005B084FEA3202B6EB020E75EB030E22BF85
:10288000B61A754640EADC0055EA060E18D04FEA43
:10289000051545EA16754FEA06164FEAC30343EAE3
:1028A00052734FEAC2025FEA1C1CC0D111F4801FB0
:1028B0000BD141EA00014FF000004FF0004CB6E7A9
:1028C00011F4801F04BF01430020B4F1FD0C88BF48
:1028D000BCF5E06F3FF6AFAEB5EB030C04BFB6EB53
:1028E000020C5FEA500C50F1000041EB045170BD46
:1028F0000EF0004E4EEA113114EB5C04C2BFD4EB73
:102900000C0541EA045170BD41F480114FF0000EF6
:10291000013C90E645EA060E8DE60CEA135594EA72
:102920000C0F08BF95EA0C0F3FF43BAF94EA0C0F75
:102930000AD150EA01347FF434AF95EA0C0F7FF4EA
:1029400025AF104619462CE795EA0C0F06D152EA3E
:1029500003353FF4FDAE1046194622E750EA410622
:1029600018BF52EA43067FF4C5AE50EA41047FF433
:102970000DAF52EA43057FF4EBAE12E74A0011D2E5
:1029800012F5001211D20DD56FF47873B3EB6252C9
:102990000ED44FEAC12343F0004343EA505323FAD5
:1029A00002F070474FF00000704750EA013002D14A
:1029B0004FF0FF3070474FF00000704780F000404C
:1029C00002E000BF81F0004142001FBF5FEA410307
:1029D00092EA030F7FEA226C7FEA236C6AD04FEA07
:1029E0001262D2EB1363C1BFD2184140484041404C
:1029F000B8BF5B42192B88BF704710F0004F40F4FE
:102A0000000020F07F4018BF404211F0004F41F419
:102A1000000121F07F4118BF494292EA030F3FD0E5
:102A2000A2F1010241FA03FC10EB0C00C3F12003F8
:102A300001FA03F100F0004302D5494260EB400087
:102A4000B0F5000F13D3B0F1807F06D340084FEAF2
:102A5000310102F10102FE2A51D2B1F1004F40EBE7
:102A6000C25008BF20F0010040EA0300704749004F
:102A700040EB000010F4000FA2F10102EDD1B0FA1A
:102A800080FCACF1080CB2EB0C0200FA0CF0AABF0F
:102A900000EBC25052421843BCBFD04018437047AD
:102AA00092F0000F81F4000106BF80F400000132B3
:102AB000013BB5E74FEA41037FEA226C18BF7FEA8A
:102AC000236C21D092EA030F04D092F0000F08BFCC
:102AD0000846704790EA010F1CBF0020704712F0B3
:102AE0007F4F04D1400028BF40F00040704712F1F2
:102AF00000723CBF00F50000704700F0004343F057
:102B0000FE4040F4000070477FEA226216BF08468C
:102B10007FEA23630146420206BF5FEA412390EA4F
:102B2000010F40F4800070474FF0000304E000BF45
:102B300010F0004348BF40425FEA000C08BF7047F6
:102B400043F0964301464FF000001CE050EA0102BA
:102B500008BF70474FF000030AE000BF50EA0102CF
:102B600008BF704711F0004302D5404261EB4101BC
:102B70005FEA010C02BF84460146002043F0B643E1
:102B800008BFA3F18053A3F50003BCFA8CF2083A06
:102B9000A3EBC25310DB01FA02FC634400FA02FC0F
:102BA000C2F12002BCF1004F20FA02F243EB020016
:102BB00008BF20F00100704702F1200201FA02FC78
:102BC000C2F1200250EA4C0021FA02F243EB02006B
:102BD00008BF20EADC7070474FF0FF0C1CEAD052AF
:102BE0001EBF1CEAD15392EA0C0F93EA0C0F6FD070
:102BF0001A4480EA010C400218BF5FEA41211ED04E
:102C00004FF0006343EA501043EA5111A0FB013139
:102C10000CF00040B1F5000F3EBF490041EAD3710E
:102C20005B0040EA010062F17F02FD2A1DD8B3F18A
:102C3000004F40EBC25008BF20F00100704790F0F9
:102C4000000F0CF0004C08BF49024CEA502040EA4B
:102C500051207F3AC2BFD2F1FF0340EAC250704711
:102C600040F400004FF00003013A5DDC12F1190F4F
:102C7000DCBF00F000407047C2F10002410021FAC1
:102C800002F1C2F1200200FA02FC5FEA310040F1D9
:102C9000000053EA4C0308BF20EADC70704792F052
:102CA000000F00F0004C02BF400010F4000F013A8A
:102CB000F9D040EA0C0093F0000F01F0004C02BF85
:102CC000490011F4000F013BF9D041EA0C018FE7F4
:102CD0000CEAD15392EA0C0F18BF93EA0C0F0AD0FA
:102CE00030F0004C18BF31F0004CD8D180EA010020
:102CF00000F00040704790F0000F17BF90F0004FB9
:102D0000084691F0000F91F0004F14D092EA0C0F9A
:102D100001D142020FD193EA0C0F03D14B0218BF2D
:102D2000084608D180EA010000F0004040F0FE4073
:102D300040F40000704740F0FE4040F4400070470F
:102D40004FF0FF0C1CEAD0521EBF1CEAD15392EA8E
:102D50000C0F93EA0C0F69D0A2EB030280EA010C7E
:102D600049024FEA402037D04FF0805343EA111117
:102D700043EA10130CF000408B4238BF5B0042F175
:102D80007D024FF4000C8B4224BF5B1A40EA0C001A
:102D9000B3EB510F24BFA3EB510340EA5C00B3EB4C
:102DA000910F24BFA3EB910340EA9C00B3EBD10F3A
:102DB00024BFA3EBD10340EADC001B0118BF5FEA8C
:102DC0001C1CE0D1FD2A3FF650AF8B4240EBC250B5
:102DD00008BF20F0010070470CF0004C4CEA502076
:102DE0007F32C2BFD2F1FF0340EAC250704740F4C5
:102DF00000004FF00003013A37E792F0000F00F0B7
:102E0000004C02BF400010F4000F013AF9D040EA34
:102E10000C0093F0000F01F0004C02BF490011F4C8
:102E2000000F013BF9D041EA0C0195E70CEAD153C0
:102E300092EA0C0F08D142027FF47DAF93EA0C0FA7
:102E40007FF470AF084676E793EA0C0F04D14B028B
:102E50003FF44CAF08466EE730F0004C18BF31F03D
:102E6000004CCAD130F000427FF45CAF31F0004337
:102E70007FF43CAF5FE700BF4FEA4002B2F1FE4F84
:102E80000FD34FF09E03B3EB12620DD94FEA00232C
:102E900043F0004310F0004F23FA02F018BF404205
:102EA00070474FF00000704712F1610F01D14202EC
:102EB00005D110F0004008BF6FF0004070474FF0A0
:102EC000000070470000000000000000000000004B
:102ED00000000000000000000000000000000000F2
:102EE000A2EB0300704700BF02780B78012A28BFCD
:102EF0009A42F5D16DE9044540EA0104CDE9026743
:102F00006FF0000C4FEA447212B380EA010414F02F
:102F1000070F6AD100F0070420F0070004F0030552
:102F200021F007014FEAC505F0E8042314F0040F6F
:102F3000F1E804670CFA05F462EA040266EA0406A2
:102F40000AD063EA0403624667EA0407664603E0C0
:102F5000F0E80423F1E8046782FA4CF582EA0604FB
:102F6000A4FA8CF46CBB83FA4CF583EA0705A5FA46
:102F70008CF595B950E9022351E9026782FA4CF5C4
:102F800082EA0604A4FA8CF483FA4CF583EA070576
:102F9000A5FA8CF52543DBD09CB92DBAB5FA85F49A
:102FA00024F0070427FA04F1DDE9026723FA04F3A9
:102FB00003F0FF0001F0FF01FDE80445A0EB010074
:102FC000704724BAB4FA84F424F0070426FA04F112
:102FD000DDE9026722FA04F202F0FF0001F0FF01CE
:102FE000FDE80445A0EB0100704714F0030F3CD14D
:102FF00010F0030428D150F8082B51F8083B82FA4E
:103000004CF582EA0305A5FA8CF55DB950F8042C5D
:1030100051F8043C82FA4CF582EA0305A5FA8CF5D6
:10302000002DE8D02DBAB5FA85F424F0070423FA70
:1030300004F122FA04F202F0FF0001F0FF01FDE8C2
:103040000445A0EB010070474FEAC40420F00300E0
:1030500050F8082B21F0030151F8083B0CFA04F456
:1030600062EA040263EA0403C9E710F003041AD019
:10307000A1EB040120F00300E40750F8042B06D074
:103080000FD28B785FFAA2F4E41A06D12BB1CB7879
:103090005FFAB2F4E41A00D11BB920465DF8104B78
:1030A000704701F1040150F8042BCC0721F0030113
:1030B00051F8043B48D824D222F07F4482FA4CF5E0
:1030C00094EA1325A5FA8CF50AD165B951F8043BA9
:1030D00084EA0204B4EB036F0ED150F8042BEBE743
:1030E0004FEA132355E035F07F454DD10878FDE8D0
:1030F0000445C0F1000070474FEA126203F0FF037D
:1031000047E002EA1C4482FA4CF594EA1345A5FA1A
:103110008CF50AD165B951F8043B84EA0204B4EB9A
:10312000034F0CD150F8042BEBE74FEA134330E088
:1031300015EA1C4528D10B884FEA124229E04FEAD4
:10314000124203EA1C4324E002F0FF0482FA4CF529
:1031500094EA1365A5FA8CF50AD165B951F8043BD8
:1031600084EA0204B4EB032F09D150F8042BEBE7F7
:103170004FEA13630DE015F0FF0F05D10B684FEA1E
:10318000122223F07F4304E04FF00000FDE80445E5
:10319000704712BA1BBA82FA4CF482EA0304A4FA0A
:1031A0008CF5B5FA85F402FA04F203FA04F34FEA57
:1031B0001260FDE80445A0EB136070476D61632069
:1031C000747820756E636E6620312000302578009B
:1031D000257800007379732072657365740D0A0099
:1031E0006D616320736574206170706B6579204434
:1031F0003041363135334338393637464330353050
:103200003831353746453030313644444532410D4A
:103210000A0000006D616320736574206170706541
:1032200075692037304233443537454430303232C7
:103230004332410D0A0000006D6163207365742004
:103240006465766575692030303034413330423002
:10325000303230393435300D0A0000006D616320A2
:10326000736176650D0A0000636F6E6E6563746945
:103270006E6700006D6163206A6F696E206F746114
:10328000610D0A006163636570746564000000008D
:103290000D0A524E3234383320496E69743A206F29
:1032A0006E7476616E67656E3A2000003F00000024
:1032B000235350420F89A540815250426189A54055
:1032C000F6515042B892A540EE515042D994A540D3
:1032D0002A5250428397A540B45250421791A540BC
:1032E000185350424696A540235350424696A54057
:1032F0001E515042E076A540AA525042EF8DA540A3
:10330000115350426093A540FF525042E38DA540B7
:10331000305250427795A54038525042A88FA54070
:10332000895250424390A5403031323334353637DC
:1033300038394142434445463031323334353637EB
:103340003839414243444546426C696E642D616E92
:10335000642D7365656B20736F6674776172652C7D
:1033600020455633412C2050726F6A656374677232
:103370006F657020322C2030372D31302D323031B6
:10338000390D0A44697420697320646520736F667F
:103390007477617265206469652068657420656969
:1033A0006E6470726F647563742061616E7374759E
:1033B0007572742E0D0A0D0A00000000095B75433A
:1033C0002F4F532D4949207665727369652000009F
:1033D00020766F6F7220646520434F525445582009
:1033E0004D34206F70200000204D487A5D0A0D009A
:1033F0000A0D0000424C494E442D414E442D534588
:10340000454B000000000100020001000300010024
:10341000020001000400010002000100030001009D
:10342000020001000500010002000100030001008C
:10343000020001000400010002000100030001007D
:10344000020001000600010002000100030001006B
:10345000020001000400010002000100030001005D
:10346000020001000500010002000100030001004C
:10347000020001000400010002000100030001003D
:10348000020001000700010002000100030001002A
:10349000020001000400010002000100030001001D
:1034A000020001000500010002000100030001000C
:1034B00002000100040001000200010003000100FD
:1034C00002000100060001000200010003000100EB
:1034D00002000100040001000200010003000100DD
:1034E00002000100050001000200010003000100CC
:1034F00002000100040001000200010003000100BD
:103500000200010075432F4F532D49492049646C37
:10351000650000004C4F52415461736B0000000085
:083520007374617274656400AC
:10352800ED1F00082C0500200B00000064000000BF
:103538000100000000000000000000000000000082
:103548000000000000000000F43300080000000044
:10355800010203040102030406070809007A030AAA
:10356800000000000000000001020304060708092B
:0400000508000000EF
:00000001FF
