:020000040800F2
:1000000038200020450C0008A50C0008A50C0008AD
:10001000A50C0008A50C0008A50C000800000000B5
:10002000000000000000000000000000A50C000817
:10003000A50C000800000000CD0500081D06000802
:10004000A50C0008A50C0008A50C0008A50C0008CC
:10005000A50C0008A50C0008A50C0008A50C0008BC
:10006000A50C0008A50C0008A50C0008A50C0008AC
:10007000A50C0008A50C0008A50C0008A50C00089C
:10008000A50C0008A50C0008A50C0008A50C00088C
:10009000A50C0008A50C0008A50C0008A50C00087C
:1000A000A50C0008A50C0008A50C0008A50C00086C
:1000B000A50C0008A50C0008A50C0008A50C00085C
:1000C000A50C0008A50C0008A50C0008A50C00084C
:1000D000A50C0008A50C0008CD0A0008A50C000816
:1000E000A50C0008A50C0008A50C0008A50C00082C
:1000F000A50C0008A50C0008A50C0008A50C00081C
:10010000A50C0008A50C0008A50C0008A50C00080B
:10011000A50C0008A50C0008A50C0008A50C0008FB
:10012000A50C0008A50C0008A50C0008A50C0008EB
:10013000A50C0008A50C0008A50C0008A50C0008DB
:10014000A50C0008A50C0008A50C0008A50C0008CB
:10015000A50C0008A50C0008A50C0008A50C0008BB
:10016000A50C0008A50C0008A50C0008A50C0008AB
:10017000A50C0008A50C0008A50C0008A50C00089B
:10018000A50C0008A50C000830B585B0684600F045
:100190000DFE00981E4B186001F038FE00221D4B2A
:1001A00001F0AAFE04460D4600221B4B01F0CEFFD3
:1001B00000221A4B01F0A0FE02F0B0F8184B1860B4
:1001C0000FA3D3E900232046294601F0BFFF0022F8
:1001D000124B01F091FE02F0A1F8124B18600AA335
:1001E000D3E900232046294601F0B0FF00220B4B43
:1001F00001F082FE02F092F80B4B186005B030BDA2
:10020000000000000094C14000000000882A614105
:10021000880200200000F43F000022400000E03F80
:100220008C020020940200209002002084B00190F3
:10023000019B93B10A4B1A6800210391039B9342DF
:1002400005D2039B01330393039B9342F9D3019B94
:10025000013B0193019B002BEFD104B0704700BF1D
:100260009002002084B00190019B93B10A4B1A6860
:1002700000210391039B934205D2039B0133039317
:10028000039B9342F9D3019B013B0193019B002BFC
:10029000EFD104B0704700BF9402002072B67047DF
:1002A00062B6704772B60E48FF210170002080F3DD
:1002B00009880C48016881F308880B480121017006
:1002C0000A484FF08051016062B6FEE707484FF0E0
:1002D00080510160704705484FF0805101607047C0
:1002E00022ED00E0980200200605002004ED00E069
:1002F000F0B583B00121082000F0AAFD00258DF89B
:1003000006508DF8075002278DF8057040F60E064E
:10031000009601238DF804300A4C6946204601F00E
:10032000CBF84FF4707300938DF804508DF807707C
:100330006946204601F0C0F83146204601F006F932
:1003400003B0F0BD000C024000B583B001210220D3
:1003500000F07EFD4FF48073009301238DF804308C
:1003600002238DF8053000238DF806308DF8073014
:100370006946034801F0A0F803B05DF804FB00BF34
:1003800000080240B8B1F8B504460B4F4FF4807630
:100390004FF48C753146384601F0D8F82846FFF7FF
:1003A00045FF3146384601F0CFF82846FFF73EFFBB
:1003B000013CEFD1F8BD70470008024040F22B131A
:1003C000013B9BB2002BFBD110B500F069FB034C45
:1003D0000021204600F020FC204610BD280000200F
:1003E00040F22B13013B9BB2002BFBD110B5034C09
:1003F0000021204600F010FC204610BD54010020D2
:1004000008B5024800F04CFB08BD00BF4C260008B0
:1004100070B5194D6424194E284600F02BFBFFF7E8
:10042000EFFF2046FFF71EFF3046FFF7C7FF00F043
:1004300021FB1348FFF7C2FF00F01CFB1148FFF738
:10044000BDFF00F017FB1048FFF7B8FF00F012FBEC
:100450002046FFF707FF284600F00CFB0B48FFF78C
:10046000ADFF00F007FBFFF7BBFF094901F07CFF80
:100470000028D1D170BD00BFDC2600085826000836
:100480008C260008B0260008D4260008E0260008C4
:10049000F026000870B58AB04FF400550895012386
:1004A0008DF8243000268DF826608DF82760022311
:1004B0008DF82530114C08A9204600F0FDFF294693
:1004C000204601F041F82946204601F03FF84FF45C
:1004D000FA70FFF7C7FE2946204601F035F831468D
:1004E000684600F099FB064800F0C4FA684600F040
:1004F000C1FAFFF78DFF0AB070BD00BF00040240D3
:10050000FC260008064B002103F5007243F8041B8B
:100510009342FBD1034B23F00703034A1360704758
:100520009C0200209C04002098020020704700BF1D
:10053000704700BF704700BF704700BF704700BFE3
:10054000043222F007024FF0807342F8043C42F874
:10055000080C1B4B42F80C3C4FF0123342F8103C95
:100560004FF0033342F8143C4FF0023342F8183C8A
:100570004FF0013342F81C3C42F8201C4FF011337D
:1005800042F8243C4FF0103342F8283C4FF0093336
:1005900042F82C3C4FF0083342F8303C4FF0073320
:1005A00042F8343C4FF0063342F8383C4FF0053304
:1005B00042F83C3C10464FF0043340F8403D704751
:1005C00039180008704700BF704700BF72B6EFF3DC
:1005D000098028B1203880E8F00F0C4909680860CC
:1005E0000B480C490A78027008480B490A680260F7
:1005F000106890E8F00F203080F309884EF0040E68
:100600007FF0020E62B6704770470000700600204F
:10061000600500200C0500205406002008B572B6C5
:1006200000B5FFF73BFE084A137801331370FFF75C
:1006300037FE00F097FC00F057FC5DF804EB4EF03D
:10064000040E62B608BD00BF6C0600200138084BDE
:100650001860084A136823F07F431360064B1A683A
:1006600042F005021A601A6842F002021A607047EE
:1006700014E000E020ED00E010E000E030B585B0CF
:1006800004460D46038A9BB223F44053CA881343A1
:10069000038283899BB223F4B05323F00C02898830
:1006A0002B890B4369890B439BB213438381838A54
:1006B0009BB223F44073AA8913438382684600F0F7
:1006C00075FB1C4B9C4203D003F580639C4201D117
:1006D000039B00E0029BA28912F4004F03EB83030B
:1006E00003EB8303296814BF49008900B3FBF1F1D0
:1006F000114BA3FB012358090501642300FB1313CD
:10070000A28912F4004F09D0D90032310A4AA2FB63
:100710000131C1F3421242EA050307E01B01323303
:10072000054AA2FB0323C3F343132B439BB223814C
:1007300005B030BD001001401F85EB5129B1838900
:100740009BB243F4005383817047838923F40053A1
:100750001B041B0C83817047C1F308018180704723
:1007600010B4C1F3421401F01F01012303FA01F197
:100770009C4201D10C3003E0022C0CBF103014302D
:100780001AB103681943016003E0036823EA010119
:10079000016010BC704700BF0388194214BF0120DC
:1007A0000020704710B4C1F3421201F01F0401236E
:1007B000A340012A03D1828992B2134005E0022AA4
:1007C0000CBF028A828A92B21340028892B243B16D
:1007D000090A012303FA01F10A4214BF1846002056
:1007E00000E0002010BC7047090A012303FA01F160
:1007F000C94389B20180704710B50F4C5021204683
:1008000000F042FC04F1100304F1500000210B4AF7
:1008100003F8101C43F80C3C43F8042C10338342BB
:10082000F6D1054B002283F840205A64034ADA646B
:10083000034A136010BD00BF1005002018270008F0
:1008400030170020426803682AB9C26853602BB190
:1008500000225A6002E0136003B15A6083680022EC
:100860009A6270472DE9F04186B001214FF40030C3
:1008700000F0FCFA0121084600F0EAFA4FF00C08FB
:10088000CDF8108002278DF8147000248DF81640E2
:1008900001258DF817508DF81570174E04A93046B4
:1008A00000F00AFE07223946304600F051FE0722CA
:1008B0000321304600F04CFE4FF4E1330093ADF8D5
:1008C0000440ADF80640ADF80840ADF80C40ADF876
:1008D0000A800A4C69462046FFF7D0FE2A4640F2BD
:1008E00025512046FFF73CFF29462046FFF726FF0B
:1008F00006B0BDE8F08100BF0000024000440040A7
:1009000070B586B001214FF4802000F0AFFA0121CC
:10091000022000F09DFA4FF44063049302238DF807
:10092000143000248DF8164001258DF817508DF8ED
:100930001530174E04A9304600F0BEFD07220A21EB
:10094000304600F005FE07220B21304600F000FE85
:100950004FF461430093ADF80440ADF80640ADF8A4
:100960000840ADF80C400C23ADF80A30094C69463C
:100970002046FFF783FE2A4640F225512046FFF726
:10098000EFFE29462046FFF7D9FE06B070BD00BF36
:10099000000402400048004070B586B001212020CC
:1009A00000F072FA0121042000F052FAC0230493EF
:1009B00002238DF8143000248DF8164001258DF89F
:1009C00017508DF81530174E04A9304600F074FD0D
:1009D00008220621304600F0BBFD082207213046E0
:1009E00000F0B6FD4FF4E1330093ADF80440ADF8EC
:1009F0000640ADF80840ADF80C400C23ADF80A30C5
:100A0000094C69462046FFF739FE2A4640F2255137
:100A10002046FFF7A5FE29462046FFF78FFE06B0C9
:100A200070BD00BF000802400014014070B50646CA
:100A3000064D802421462846FFF7AEFE0028F9D057
:100A400031460248FFF788FE70BD00BF00440040F9
:100A500070B50646064D802421462846FFF79CFEC9
:100A60000028F9D031460248FFF776FE70BD00BF7E
:100A70000048004010B582B0044600230193019B5A
:100A8000C35C53B1019BE05CFFF7D0FF019B0133D6
:100A90000193019BE35C002BF4D102B010BD00BFB9
:100AA00010B582B0044600230193019BC35C53B18F
:100AB000019BE05CFFF7CCFF019B01330193019B9D
:100AC000E35C002BF4D102B010BD00BF2DE9F04172
:100AD00040F225512248FFF765FE00283DD0204C0A
:100AE00040F225512046FFF77FFEB4F804805FFAFC
:100AF00088F8A8F14103DBB2192B9CBF08F120084C
:100B00005FFA88F8B8F10D0F18D8164B1B68002B48
:100B10000CDD154D0024124F124E15F8011F3846FA
:100B2000FFF71AFE01343368A342F6DC00220D4BB6
:100B30001A6041460A48FFF70FFE06E0094A1368AB
:100B40000A4901F8038001331360054D4024214612
:100B50002846FFF721FE0028F9D0BDE8F08100BF4C
:100B600000440040800200209F040020A0040020D8
:100B7000F0B585B040BB30238DF80F300E260FE066
:100B80000E2E2FDC0CE0B3FBF0F200FB1234134608
:100B90002A5D01F8012D013E02D0002BF3D1EFE7D1
:100BA0000DEB06078025104C013629462046FFF73D
:100BB000F3FD0028F9D017F9011F89B22046FFF78D
:100BC000CBFD0E2EF0DD0DE002460846B2FBF1F340
:100BD00001FB1321054A525C04A901F8012D0E26E0
:100BE000024DDAE705B0F0BD004400401C270008C4
:100BF00008B50A21FFF7BCFF08BD00BF08B52021DA
:100C00000448FFF7C9FD012803BF024B9888C0B212
:100C1000FF2008BD0048004038B504460D46FFF7E8
:100C2000EDFF2070FF28FAD00A28F8D00DB1FFF7A9
:100C30000FFF23780D2B02D10023237038BD013420
:100C4000EDE700BF08B5114B114A9A420CD2581E6D
:100C5000801A20F0030004300E4B184453F8041B94
:100C600042F8041B8342F9D10B480C494FF00002B3
:100C70008842B8BF40F8042BFADBDFF82400016893
:100C800041F47001016000F06DF808BD28000020FB
:100C90000000002008290008280000203418002047
:100CA00088ED00E008B532254FF4FA742846FFF7C6
:100CB00069FB2046FFF7D6FAF8E700BF08B50C48F5
:100CC000FFF7D8FE0B48FFF7D5FE00F0A9F9FFF7B4
:100CD0008FFF0948FFF7CEFE084B1B680848A0FBB2
:100CE0000330800CFFF784FF0648FFF7C3FE08BD02
:100CF0002C270008A0270008B427000814000020B3
:100D000083DE1B43CC27000808B5FFF73DFAFFF749
:100D1000A9FDFFF7F5FDFFF73FFE00F06FFE00F0C5
:100D200061FBFFF711FBFFF7E3FAFFF7B3FB08BD29
:100D300010B5FFF7E9FF084C206800F01DFF2068A0
:100D4000FFF798FE0548FFF795FEFFF7B7FF044849
:100D5000FFF77CFC10BD00BF00000020D427000876
:100D600040D10C0008B500F007FCFFF7E1FF00F0F0
:100D700097F90121082000F06BF80A4B1A6842F03D
:100D800080721A601A6842F080621A601A6842F033
:100D900080521A601A6842F080421A60024800F0DD
:100DA000EBFEFEE7000C0240D827000810B4244BED
:100DB0009B6803F00C03042B05D0082B06D00BBB5B
:100DC000204B036020E0204B03601DE01C4B5A6861
:100DD0005B6803F03F0312F4800F194A5268C2F3B4
:100DE000881214BF18491749B1FBF3F303FB02F251
:100DF000134B5B68C3F3014301335B00B2FBF3F3B6
:100E0000036001E00F4B03600D4CA368C3F30313B1
:100E10000E49CB5CDAB20368D3404360A268C2F3E8
:100E200082228A5CD2B223FA02F28260A268C2F302
:100E300042328A5CD2B2D340C36010BC704700BF5C
:100E4000003802400024F40000127A000400002060
:100E500021B1054B1A6B104318637047024A136B9C
:100E600023EA0000106370470038024021B1054BAF
:100E70001A6C104318647047024A136C23EA00008E
:100E8000106470470038024021B1054B5A6C104382
:100E900058647047024A536C23EA0000506470475C
:100EA00000380240054B064A12789A5C0549895C75
:100EB0005B5C03EBC203044A13707047F827000819
:100EC0005C060020600600200C05002010B5054CD3
:100ED000FFF7E4F9236801332360FFF7E1F9FFF737
:100EE0002BFBF5E708050020164B1B78012B28D1BA
:100EF00010B5FFF7D3F90446134B1B7823B1013B20
:100F0000DBB2114A1370C3B9104B1B78ABB9FFF7B2
:100F1000C9FF0F4B1A780F4B53F822300E490B6064
:100F20000E490978914208D0DA6B0132DA630C4A33
:100F3000136801331360FFF7CEF92046FFF7B0F9CD
:100F400010BD7047060500206C0600200405002037
:100F50000C050020341700205406002060050020F6
:100F6000E4050020F8B5FFF72FFBFFF797F9264AB5
:100F7000136801331360FFF793F9244B1B78012B9F
:100F800041D1234B1B78012B3DD02BB1022B0CBF41
:100F9000012200221E4B1A701E4B1C6894F836303A
:100FA0003F2B30D01C4E1D4D0027FFF777F9236BE8
:100FB00013B3013B2363FBB994F8343013F0370FBC
:100FC00007D023F0370384F83430012384F8353018
:100FD00001E084F8357094F8343013F0080F0BD129
:100FE00094F83A2033781343337094F83820A95C8E
:100FF00094F839300B43AB546469FFF751F994F816
:1010000036303F2BD1D1F8BD7406002006050020F4
:10101000E0050020640500205C060020600600203A
:1010200047F21720704700BF704700BF10B490F818
:10103000382090F839400A44D37A23EA0403D37263
:101040002BB990F83A208B7A23EA02038B7210BCFA
:10105000704700BF70B490F8385090F83A6090F83C
:1010600039400A686AB1E443F6435019C37A234011
:10107000C37213B9937A3340937251F8042F002A44
:10108000F3D170BC704700BF41B1431E4A1E10FA35
:1010900082F0002203F8012F8342FBD1704700BF8A
:1010A00010B588B0FFF72EFA0023434A1360434A75
:1010B0001370434A1370434A1370434A1370434AF0
:1010C0001360434A1360434A1370434A1370434BFF
:1010D00003F10801002203F8012F8B42FBD100230A
:1010E0003F4A13703F4A13703F4A13603F4A1360F0
:1010F0003F4C4FF4E7612046FFF7C6FF4FF4807185
:101100003C48FFF7C1FF04F1580304F5E7623A4990
:1011100043F8443C43F8081C58339A42F8D1344B06
:101120000022C3F8F4263449C3F8301733490A6063
:10113000334A1360334C4FF4F0612046FFF7A4FFAD
:1011400004F1180304F5F06200202B4903F8180C91
:1011500043F8143C43F8041C18339342F6D1294B4E
:10116000002483F86847C3F86C47234AC3F87C27F8
:10117000254A1360FFF740FB00F07AF900F076FA99
:10118000224A03230493039480230293A2F5FE735F
:1011900001934FF6FF7300933F2321461C4800F054
:1011A00063FB0DF11F021B493F2000F017FBFFF707
:1011B000BDF908B010BD00BF740600206C06002009
:1011C00004050020EC05002006050020E4050020B1
:1011D00008050020050500205C0600205F060020B1
:1011E000600500200C050020540600207006002039
:1011F000F80F00203417002018270008640500208D
:10120000E805002078080020680600207408002007
:10121000CD0E0008F828000810B5FFF73FF8044687
:101220000F4B1B78C3B90F4B1B78ABB9FFF73AFED6
:101230000D4B1A780D4B53F822300D490B600D49B8
:101240000978914208D0DA6B0132DA630A4A1368EE
:1012500001331360FFF73AF82046FFF721F810BD7D
:101260006C060020040500200C0500203417002027
:101270005406002060050020E40500202DE9F0411F
:1012800006460D4690461F46FFF708F8354B1C688A
:10129000002C61D062691A60FFF702F8256084F8BB
:1012A0003660002584F8345084F835502563079B58
:1012B0006360069BE360C4F80880BDF82030238299
:1012C000678284F83B50F20884F8382006F0070162
:1012D00084F83710012303FA02F284F83A208B4095
:1012E00084F83930E5612562A5626562E56365646D
:1012F0002564A564E5641C4B236565652046FFF7FE
:1013000061F9FEF7CBFF194B43F82640FEF7C8FF03
:101310002046FFF70DF9FEF7C1FF154B1B6863610F
:10132000A56103B19C61124B1C60124A94F83A10FB
:1013300013780B43137094F838200F498D5C94F8A0
:1013400039302B438B540D4A137801331370FEF759
:10135000A7FF0020BDE8F081FEF7A2FF4220BDE814
:10136000F08100BFE805002018270008341700208E
:10137000640500205C06002060060020EC050020CB
:101380002DE9F843814608248025DFF85480134F67
:101390004FF4807619EA050F05D04FF4004140461E
:1013A00000F0D2F804E04FF40041404600F0CEF8DF
:1013B0003146384600F0C8F83146384600F0C6F8E5
:1013C0006D08013CE6D1054C0221204600F0BCF836
:1013D0000221204600F0BAF8BDE8F883000402407C
:1013E000000002402DE9F04782B001210846FFF7D6
:1013F0002FFD01210220FFF72BFD00268DF806604E
:101400008DF8076002278DF8057001238DF80430F0
:101410004FF4004A02AC44F808ADDFF85090214682
:10142000484600F049F84FF48078CDF800800E4D22
:101430002146284600F040F800972146284600F053
:101440003BF85146484600F081F84146284600F0F6
:101450007DF83946284600F077F83046FFF790FFD0
:1014600002B0BDE8F08700BF000402400000024067
:1014700010B50E4C78212046FFF706FE04F1180344
:1014800063600B4B636104F13002E261E36204F1DB
:1014900048026263636404F16002E264E36500226F
:1014A00062666367034B1C6010BD00BF68050020C7
:1014B00018270008F0050020F0B5002301250326B9
:1014C00005FA03F20C68A24339D102685C0006FAFF
:1014D00004F7FF433A400260026891F804E00EFA14
:1014E00004FE4EEA020202600A79013AD2B2012AEF
:1014F00017D882681740876087684A79A2403A43C4
:10150000826047689AB205FA02FE27EA0E07476032
:10151000D0F804E08F7907FA02F292B242EA0E02A2
:101520004260C7689AB2520006FA02F227EA020243
:10153000C260C268CF7907FA04F41443C46001336F
:10154000102BBDD1F0BD00BF0183704741837047B0
:1015500010B401F007039B00C90800EB8100046A86
:101560000F21994024EA01010162016A9A400A436D
:10157000026210BC704700BF82B0364B1A6842F05E
:1015800001021A60002199601A6822F0847222F424
:1015900080321A60304A5A601A6822F480221A6037
:1015A000D960009101911A6842F480321A601A469B
:1015B000136803F400330193009B01330093019BF4
:1015C0001BB9009BB3F5A06FF2D1224B1B6813F43B
:1015D000003F14BF012300230193019B012B32D153
:1015E0001C4B1A6C42F080521A641C490A6842F47F
:1015F00080420A609A689A609A6842F400429A604F
:101600009A6842F4A0529A60154A5A601A6842F0E9
:1016100080721A601A46136813F0007FFBD040F204
:101620000562104B1A60A3F580639A6822F00302EA
:101630009A609A6842F002029A601A46936803F030
:101640000C03082BFAD14FF00062074B9A6002B0EE
:10165000704700BF00380240103000240070004086
:1016600008544007003C024000ED00E010B5094C72
:1016700060212046FFF708FD04F11802234643F8D5
:10168000302BA36104F1480323630023A364024BBE
:101690001C6010BDF405002058060020F8B5444B2E
:1016A0001C78002C7ED105463F287DD0FEF7F6FD44
:1016B0000646FF2D03D13F4B1B6893F836502F464B
:1016C0003D4B53F8255025B93046FEF7E9FD43243C
:1016D0006BE0012D04D13046FEF7E2FD3D2464E0CD
:1016E00095F8382095F8390034498B5C23EA0003DB
:1016F0008B5433B9324A95F83A10137823EA010330
:101700001370E96911B12846FFF790FC296A11B1FD
:101710002846FFF79FFCA86A08B1FFF793F800235B
:101720002B6385F8343085F83530264B1B78FF2B3A
:1017300002D00133234A13703046FEF7B1FDFFF7A4
:1017400073FCFEF7ABFD06461E4B1B7813B1013B45
:101750001C4A13702846FEF7EDFE1B4A1378013B26
:1017600013700022144B43F82720AB692BB96B6927
:101770009A616A69154B1A6004E06A695A616B697B
:10178000AA699A61124B1A686A611D60114B2B6538
:101790003046FEF785FD104B1B78012B05D1FFF776
:1017A0003BFD02E0402400E03E242046F8BD00BF9F
:1017B0006C06002070060020341700206006002010
:1017C0005C06002004050020EC05002064050020D4
:1017D000E8050020182700080605002070B514460B
:1017E000124B1B7813B11223137070BD05460E46C1
:1017F000FEF754FDFF2D03D10D4B1B6893F83650B7
:101800000C4B53F8253023B9FEF74AFD43232370D0
:1018100070BD012B04D1FEF743FD4323237070BD3F
:101820001E65FEF73DFD0023237070BD6C06002091
:10183000700600203417002008B5044B1868FEF726
:101840007DFEFF20FFF72AFF08BD00BF70060020C5
:1018500002F00302032A05D121B1002340F8043B22
:101860000139FBD1704700BF2DE9F04385B0074631
:10187000884691461D46BDF84060FEF70FFD214B9E
:101880001C781CB1FEF70CFD3C2436E01E4B53F8CF
:1018900025307BBB01221C4B43F82520FEF700FDC1
:1018A00032460E990D98FFF7D3FF33464A4641461C
:1018B0003846FEF745FE02960F9B01930E9B009360
:1018C000BDF830300D9A01462846FFF7D7FC064692
:1018D00030B90E4B1B78012B0FD1FFF79DFC0CE0AC
:1018E000FEF7DCFC0022084B43F82520FEF7D8FC6D
:1018F000344602E0FEF7D4FC2824204605B0BDE8BB
:10190000F08300BF6C06002034170020060500207D
:1019100010B5094C08212046FFF718FE102120467B
:10192000FFF714FE20212046FFF710FE402120463D
:10193000FFF70CFE10BD00BF0010024010B50446BA
:10194000FFF7E6FF14F0010F03D040210C48FFF72A
:10195000FBFD14F0020F03D020210948FFF7F4FD2E
:1019600014F0040F03D010210548FFF7EDFD14F02B
:10197000080F03D008210248FFF7E6FD10BD00BFA5
:101980000010024010B582B07823009301248DF836
:10199000044000238DF806308DF8073002238DF8BF
:1019A000053069460348FFF787FD2046FEF75AFCDD
:1019B00002B010BD0010024038B505460E4C0121A2
:1019C0002046FFF7C1FD2809FFF7B8FF0121204697
:1019D000FFF7BCFDFFF7D6FF01212046FFF7B4FD5E
:1019E00005F00F00FFF7AAFF01212046FFF7AEFD2B
:1019F000FFF7C8FF38BD00BF000C02402DE9F041E1
:101A000082B001211020FFF723FA01210420FFF703
:101A10001FFA01210820FFF71BFA01258DF8045059
:101A200000238DF806308DF8073002278DF80570F9
:101A300002AC782344F8083D21462848FFF73CFDD6
:101A40004FF420530093264E21463046FFF734FDD5
:101A50000095DFF8908021464046FFF72DFD4FF4BA
:101A600000513046FFF772FD29464046FFF76EFDF4
:101A70004FF400613046FFF769FD0F20FEF7F2FBDF
:101A80003020FFF799FF3220FEF7ECFB3020FFF704
:101A900093FF3020FFF790FF3846FFF78DFF0520BA
:101AA000FEF7E0FB2C20FFF787FF0F20FEF7DAFBA5
:101AB0000E20FFF781FF0F20FEF7D4FB2846FFF72B
:101AC0007BFF0F20FEF7CEFB0620FFF775FF0F20F0
:101AD000FEF7C8FB02B0BDE8F08100BF0010024075
:101AE00000080240000C024010B504464FF40051BB
:101AF0000948FFF729FD2046FFF75EFF074B1B78DB
:101B00000133DBB2202B02D0044A137010BD002237
:101B1000024B1A7010BD00BF000802408402002072
:101B200038B50546007838B10024FFF7DDFF0134F1
:101B3000E4B2285D0028F8D138BD00BF10B50446D6
:101B40004FF400510348FFF701FD2046FFF734FF33
:101B500010BD00BF0008024008B50120FFF7EEFFEE
:101B60000022044B1A700520FEF77CFBFFF70AFFEA
:101B700008BD00BF8402002010B50446FFF7ECFF4B
:101B80002046FFF7CDFF10BD81F0004102E000BF0D
:101B900083F0004330B54FEA41044FEA430594EA2D
:101BA000050F08BF90EA020F1FBF54EA000C55EA68
:101BB000020C7FEA645C7FEA655C00F0E2804FEA39
:101BC0005454D4EB5555B8BF6D420CDD2C4480EA1B
:101BD000020281EA030382EA000083EA010180EA4B
:101BE000020281EA0303362D88BF30BD11F0004F99
:101BF0004FEA01314FF4801C4CEA113102D04042CF
:101C000061EB410113F0004F4FEA03334CEA133309
:101C100002D0524263EB430394EA050F00F0A78021
:101C2000A4F10104D5F1200E0DDB02FA0EFC22FA1C
:101C300005F2801841F1000103FA0EF2801843FA10
:101C400005F359410EE0A5F120050EF1200E012A01
:101C500003FA0EFC28BF4CF0020C43FA05F3C0183F
:101C600051EBE37101F0004507D54FF0000EDCF1B8
:101C7000000C7EEB00006EEB0101B1F5801F1BD361
:101C8000B1F5001F0CD349085FEA30004FEA3C0C65
:101C900004F101044FEA445212F5800F80F09A805B
:101CA000BCF1004F08BF5FEA500C50F1000041EB5F
:101CB000045141EA050130BD5FEA4C0C404141EB63
:101CC000010111F4801FA4F10104E9D191F0000F8A
:101CD00004BF01460020B1FA81F308BF2033A3F10D
:101CE0000B03B3F120020CDA0C3208DD02F1140C04
:101CF000C2F10C0201FA0CF021FA02F10CE002F13F
:101D00001402D8BFC2F1200C01FA02F120FA0CFC37
:101D1000DCBF41EA0C019040E41AA2BF01EB045180
:101D2000294330BD6FEA04041F3C1CDA0C340EDC7E
:101D300004F11404C4F1200220FA04F001FA02F3C1
:101D400040EA030021FA04F345EA030130BDC4F17F
:101D50000C04C4F1200220FA02F001FA04F340EA74
:101D60000300294630BD21FA04F0294630BD94F025
:101D7000000F83F4801306BF81F480110134013D0C
:101D80004EE77FEA645C18BF7FEA655C29D094EA7D
:101D9000050F08BF90EA020F05D054EA000C04BFFB
:101DA0001946104630BD91EA030F1EBF00210020E6
:101DB00030BD5FEA545C05D14000494128BF41F085
:101DC000004130BD14F580043CBF01F5801130BDE9
:101DD00001F0004545F0FE4141F470014FF0000074
:101DE00030BD7FEA645C1ABF194610467FEA655C25
:101DF0001CBF0B46024650EA013406BF52EA0335C7
:101E000091EA030F41F4002130BD00BF90F0000FB4
:101E100004BF0021704730B54FF4806404F13204F0
:101E20004FF000054FF0000150E700BF90F0000FA9
:101E300004BF0021704730B54FF4806404F13204D0
:101E400010F0004548BF40424FF000013EE700BFA0
:101E500042004FEAE2014FEA31014FEA02701FBF30
:101E600012F07F4393F07F4F81F06051704792F002
:101E7000000F14BF93F07F4F704730B54FF460747C
:101E800001F0004521F0004120E700BF50EA0102C7
:101E900008BF704730B54FF000050AE050EA010274
:101EA00008BF704730B511F0004502D5404261EBE4
:101EB00041014FF4806404F132045FEA915C3FF425
:101EC000DCAE4FF003025FEADC0C18BF03325FEABE
:101ED000DC0C18BF033202EBDC02C2F1200300FA73
:101EE00003FC20FA02F001FA03FE40EA0E0021FA98
:101EF00002F11444C1E600BF70B54FF0FF0C4CF482
:101F0000E06C1CEA11541DBF1CEA135594EA0C0F37
:101F100095EA0C0F00F0DEF82C4481EA030621EA72
:101F20004C5123EA4C5350EA013518BF52EA0335AD
:101F300041F4801143F4801338D0A0FB02CE4FF05F
:101F40000005E1FB02E506F00042E0FB03E54FF08F
:101F50000006E1FB03569CF0000F18BF4EF0010E87
:101F6000A4F1FF04B6F5007F64F5407404D25FEA83
:101F70004E0E6D4146EB060642EAC62141EA555136
:101F80004FEAC52040EA5E504FEACE2EB4F1FD0C78
:101F900088BFBCF5E06F1ED8BEF1004F08BF5FEAF6
:101FA000500E50F1000041EB045170BD06F00046A8
:101FB00046EA010140EA020081EA0301B4EB5C0455
:101FC000C2BFD4EB0C0541EA045170BD41F480114D
:101FD0004FF0000E013C00F3AB8014F1360FDEBF72
:101FE000002001F0004170BDC4F10004203C35DA4E
:101FF0000C341BDC04F11404C4F1200500FA05F3D1
:1020000020FA04F001FA05F240EA020001F0004271
:1020100021F0004110EBD37021FA04F642EB0601E7
:102020005EEA430E08BF20EAD37070BDC4F10C0411
:10203000C4F1200500FA04F320FA05F001FA04F2D5
:1020400040EA020001F0004110EBD37041F10001C1
:102050005EEA430E08BF20EAD37070BDC4F12005CC
:1020600000FA05F24EEA020E20FA04F301FA05F234
:1020700043EA020321FA04F001F0004121FA04F2DC
:1020800020EA020000EBD3705EEA430E08BF20EAAC
:10209000D37070BD94F0000F0FD101F000464000E6
:1020A00041EB010111F4801F08BF013CF7D041EA68
:1020B000060195F0000F18BF704703F0004652006C
:1020C00043EB030313F4801F08BF013DF7D043EA3D
:1020D0000603704794EA0C0F0CEA135518BF95EAF3
:1020E0000C0F0CD050EA410618BF52EA4306D1D17A
:1020F00081EA030101F000414FF0000070BD50EA99
:10210000410606BF1046194652EA430619D094EA22
:102110000C0F02D150EA013613D195EA0C0F05D10C
:1021200052EA03361CBF104619460AD181EA030160
:1021300001F0004141F0FE4141F470014FF0000018
:1021400070BD41F0FE4141F4780170BD70B54FF0B3
:10215000FF0C4CF4E06C1CEA11541DBF1CEA135533
:1021600094EA0C0F95EA0C0F00F0A7F8A4EB050415
:1021700081EA030E52EA03354FEA013100F088800C
:102180004FEA03334FF0805545EA131343EA1263D5
:102190004FEA022245EA111545EA10654FEA00268A
:1021A0000EF000419D4208BF964244F1FD0404F543
:1021B000407402D25B084FEA3202B61A65EB03059F
:1021C0005B084FEA32024FF480104FF4002CB6EB5C
:1021D000020E75EB030E22BFB61A754640EA0C00DC
:1021E0005B084FEA3202B6EB020E75EB030E22BF1C
:1021F000B61A754640EA5C005B084FEA3202B6EB5D
:10220000020E75EB030E22BFB61A754640EA9C001B
:102210005B084FEA3202B6EB020E75EB030E22BFEB
:10222000B61A754640EADC0055EA060E18D04FEAA9
:10223000051545EA16754FEA06164FEAC30343EA49
:1022400052734FEAC2025FEA1C1CC0D111F4801F16
:102250000BD141EA00014FF000004FF0004CB6E70F
:1022600011F4801F04BF01430020B4F1FD0C88BFAE
:10227000BCF5E06F3FF6AFAEB5EB030C04BFB6EBB9
:10228000020C5FEA500C50F1000041EB045170BDAC
:102290000EF0004E4EEA113114EB5C04C2BFD4EBD9
:1022A0000C0541EA045170BD41F480114FF0000E5D
:1022B000013C90E645EA060E8DE60CEA135594EAD9
:1022C0000C0F08BF95EA0C0F3FF43BAF94EA0C0FDC
:1022D0000AD150EA01347FF434AF95EA0C0F7FF451
:1022E00025AF104619462CE795EA0C0F06D152EAA5
:1022F00003353FF4FDAE1046194622E750EA410689
:1023000018BF52EA43067FF4C5AE50EA41047FF499
:102310000DAF52EA43057FF4EBAE12E74A0011D24B
:1023200012F5001211D20DD56FF47873B3EB62522F
:102330000ED44FEAC12343F0004343EA505323FA3B
:1023400002F070474FF00000704750EA013002D1B0
:102350004FF0FF3070474FF0000070470000000062
:10236000A2EB0300704700BF02780B78012A28BF58
:102370009A42F5D16DE9044540EA0104CDE90267CE
:102380006FF0000C4FEA447212B380EA010414F0BB
:10239000070F6AD100F0070420F0070004F00305DE
:1023A00021F007014FEAC505F0E8042314F0040FFB
:1023B000F1E804670CFA05F462EA040266EA04062E
:1023C0000AD063EA0403624667EA0407664603E04C
:1023D000F0E80423F1E8046782FA4CF582EA060487
:1023E000A4FA8CF46CBB83FA4CF583EA0705A5FAD2
:1023F0008CF595B950E9022351E9026782FA4CF550
:1024000082EA0604A4FA8CF483FA4CF583EA070501
:10241000A5FA8CF52543DBD09CB92DBAB5FA85F425
:1024200024F0070427FA04F1DDE9026723FA04F334
:1024300003F0FF0001F0FF01FDE80445A0EB0100FF
:10244000704724BAB4FA84F424F0070426FA04F19D
:10245000DDE9026722FA04F202F0FF0001F0FF0159
:10246000FDE80445A0EB0100704714F0030F3CD1D8
:1024700010F0030428D150F8082B51F8083B82FAD9
:102480004CF582EA0305A5FA8CF55DB950F8042CE9
:1024900051F8043C82FA4CF582EA0305A5FA8CF562
:1024A000002DE8D02DBAB5FA85F424F0070423FAFC
:1024B00004F122FA04F202F0FF0001F0FF01FDE84E
:1024C0000445A0EB010070474FEAC40420F003006C
:1024D00050F8082B21F0030151F8083B0CFA04F4E2
:1024E00062EA040263EA0403C9E710F003041AD0A5
:1024F000A1EB040120F00300E40750F8042B06D000
:102500000FD28B785FFAA2F4E41A06D12BB1CB7804
:102510005FFAB2F4E41A00D11BB920465DF8104B03
:10252000704701F1040150F8042BCC0721F003019E
:1025300051F8043B48D824D222F07F4482FA4CF56B
:1025400094EA1325A5FA8CF50AD165B951F8043B34
:1025500084EA0204B4EB036F0ED150F8042BEBE7CE
:102560004FEA132355E035F07F454DD10878FDE85B
:102570000445C0F1000070474FEA126203F0FF0308
:1025800047E002EA1C4482FA4CF594EA1345A5FAA6
:102590008CF50AD165B951F8043B84EA0204B4EB26
:1025A000034F0CD150F8042BEBE74FEA134330E014
:1025B00015EA1C4528D10B884FEA124229E04FEA60
:1025C000124203EA1C4324E002F0FF0482FA4CF5B5
:1025D00094EA1365A5FA8CF50AD165B951F8043B64
:1025E00084EA0204B4EB032F09D150F8042BEBE783
:1025F0004FEA13630DE015F0FF0F05D10B684FEAAA
:10260000122223F07F4304E04FF00000FDE8044570
:10261000704712BA1BBA82FA4CF482EA0304A4FA95
:102620008CF5B5FA85F402FA04F203FA04F34FEAE2
:102630001260FDE80445A0EB136070476D616320F4
:10264000747820636E662031200000007379732057
:1026500072657365740D0A006D6163207365742083
:102660006170706B657920443041363135334338C1
:1026700039363746433035303831353746453030D6
:10268000313644444532410D0A0000006D6163203B
:10269000736574206170706575692037304233440A
:1026A00035374544303032324332410D0A000000A4
:1026B0006D6163207365742064657665756920308B
:1026C0003030344133304230303230393435300DEF
:1026D0000A0000006D616320736176650D0A0000D9
:1026E0006D6163206A6F696E206F7461610D0A000D
:1026F0006163636570746564000000000D0A524EEA
:102700003234383320496E69743A206F6E747661C2
:102710006E67656E3A2000003F00000030313233B2
:10272000343536373839414243444546426C696E48
:10273000642D616E642D7365656B20736F667477AD
:102740006172652C20455633412C2050726F6A65AA
:10275000637467726F657020322C2030372D3130F2
:102760002D323031390D0A44697420697320646553
:1027700020736F667477617265206469652068658F
:10278000742065696E6470726F6475637420616132
:102790006E7374757572742E0D0A0D0A00000000B8
:1027A000095B75432F4F532D494920766572736934
:1027B0006520000020766F6F7220646520434F52C1
:1027C000544558204D34206F70200000204D487A29
:1027D0005D0A0D000A0D000066756E637469652060
:1027E0007374617274000000424C494E442D414E96
:1027F000442D5345454B000000000100020001003C
:1028000003000100020001000400010002000100B9
:1028100003000100020001000500010002000100A8
:102820000300010002000100040001000200010099
:102830000300010002000100060001000200010087
:102840000300010002000100040001000200010079
:102850000300010002000100050001000200010068
:102860000300010002000100040001000200010059
:102870000300010002000100070001000200010046
:102880000300010002000100040001000200010039
:102890000300010002000100050001000200010028
:1028A0000300010002000100040001000200010019
:1028B0000300010002000100060001000200010007
:1028C00003000100020001000400010002000100F9
:1028D00003000100020001000500010002000100E8
:1028E00003000100020001000400010002000100D9
:1028F000030001000200010075432F4F532D494989
:082900002049646C6500000031
:10290800E827000800000000010203040102030494
:1029180006070809007A030A00000000000000000A
:0829280001020304060708097F
:0400000508000000EF
:00000001FF
