:020000040800F2
:10000000E01D0020210B0008810B0008810B000877
:10001000810B0008810B0008810B00080000000024
:10002000000000000000000000000000810B00083C
:10003000810B000800000000AD040008FD0400086A
:10004000810B0008810B0008810B0008810B000860
:10005000810B0008810B0008810B0008810B000850
:10006000810B0008810B0008810B0008810B000840
:10007000810B0008810B0008810B0008810B000830
:10008000810B0008810B0008810B0008810B000820
:10009000810B0008810B0008810B0008810B000810
:1000A000810B0008810B0008810B0008810B000800
:1000B000810B0008810B0008810B0008810B0008F0
:1000C000810B0008810B0008810B0008810B0008E0
:1000D000810B0008810B0008F1090008810B000862
:1000E000810B0008810B0008810B0008810B0008C0
:1000F000810B0008810B0008810B0008810B0008B0
:10010000810B0008810B0008810B0008810B00089F
:10011000810B0008810B0008810B0008810B00088F
:10012000810B0008810B0008810B0008810B00087F
:10013000810B0008810B0008810B0008810B00086F
:10014000810B0008810B0008810B0008810B00085F
:10015000810B0008810B0008810B0008810B00084F
:10016000810B0008810B0008810B0008810B00083F
:10017000810B0008810B0008810B0008810B00082F
:10018000810B0008810B000830B585B0684600F08F
:1001900071FD00981E4B186001F0AEFC00221D4B53
:1001A00001F020FD04460D4600221B4B01F044FEE9
:1001B00000221A4B01F016FD01F026FF184B1860C3
:1001C0000FA3D3E900232046294601F035FE002283
:1001D000124B01F007FD01F017FF124B18600AA344
:1001E000D3E900232046294601F026FE00220B4BCE
:1001F00001F0F8FC01F008FF0B4B186005B030BDB2
:10020000000000000094C14000000000882A614105
:10021000300000200000F43F000022400000E03FDA
:10022000340000203C0000203800002084B0019001
:10023000019B93B10A4B1A6800210391039B9342DF
:1002400005D2039B01330393039B9342F9D3019B94
:10025000013B0193019B002BEFD104B0704700BF1D
:100260003800002084B00190019B93B10A4B1A68BA
:1002700000210391039B934205D2039B0133039317
:10028000039B9342F9D3019B013B0193019B002BFC
:10029000EFD104B0704700BF3C000020F0B585B03E
:1002A000C2F57E43FB335B1A1B1A9BB27E248DF88A
:1002B0000440FF248DF8054006248DF806408DF893
:1002C000070000208DF808008DF809108DF80A202D
:1002D0001A0A8DF80B208DF80C30EF238DF80D30B5
:1002E00001AE0DF10E078025074C2946204600F08F
:1002F000C3F90028F9D016F8011B204600F09CF93C
:10030000BE42F2D105B0F0BD0010014008B5024672
:1003100000210620FFF7C2FF6420FFF7A3FF08BDFE
:1003200008B5002211460C20FFF7B8FF4FF4FA7011
:10033000FFF798FF08BD00BF08B5FFF7F1FF0022E7
:1003400011463F20FFF7AAFF4FF47A70FFF78AFFAC
:100350000C20FFF7DBFF08BD72B6704762B670472E
:1003600072B60E48FF210170002080F309880C4806
:10037000016881F308880B48012101700A484FF099
:100380008051016062B6FEE707484FF0805101607E
:10039000704705484FF080510160704722ED00E042
:1003A00040000020AE02002004ED00E0B8B1F8B536
:1003B00004460B4F4FF480764FF48C753146384627
:1003C00000F0B0FF2846FFF731FF3146384600F015
:1003D000A7FF2846FFF72AFF013CEFD1F8BD704781
:1003E00000080240064B002103F5007243F8041B8D
:1003F0009342FBD1034B23F00703034A136070477A
:10040000440000204402002040000020704700BF4C
:10041000704700BF704700BF704700BF704700BF04
:10042000043222F007024FF0807342F8043C42F895
:10043000080C1B4B42F80C3C4FF0123342F8103CB6
:100440004FF0033342F8143C4FF0023342F8183CAB
:100450004FF0013342F81C3C42F8201C4FF011339E
:1004600042F8243C4FF0103342F8283C4FF0093357
:1004700042F82C3C4FF0083342F8303C4FF0073341
:1004800042F8343C4FF0063342F8383C4FF0053325
:1004900042F83C3C10464FF0043340F8403D704772
:1004A00011160008704700BF704700BF72B6EFF327
:1004B000098028B1203880E8F00F0C4909680860ED
:1004C0000B480C490A78027008480B490A68026018
:1004D000106890E8F00F203080F309884EF0040E89
:1004E0007FF0020E62B670477047000018040020CB
:1004F00008030020B4020020FC03002008B572B6F7
:1005000000B5FFF729FF084A137801331370FFF78E
:1005100025FF00F08BFC00F04BFC5DF804EB4EF087
:10052000040E62B608BD00BF140400200138084B59
:100530001860084A136823F07F431360064B1A685B
:1005400042F005021A601A6842F002021A6070470F
:1005500014E000E020ED00E010E000E030B585B0F0
:1005600004460D46038A9BB223F44053CA881343C2
:10057000038283899BB223F4B05323F00C02898851
:100580002B890B4369890B439BB213438381838A75
:100590009BB223F44073AA8913438382684600F018
:1005A00069FB1C4B9C4203D003F580639C4201D144
:1005B000039B00E0029BA28912F4004F03EB83032C
:1005C00003EB8303296814BF49008900B3FBF1F1F1
:1005D000114BA3FB012358090501642300FB1313EE
:1005E000A28912F4004F09D0D90032310A4AA2FB85
:1005F0000131C1F3421242EA050307E01B01323325
:10060000054AA2FB0323C3F343132B439BB223816D
:1006100005B030BD001001401F85EB5129B1838921
:100620009BB243F4005383817047838923F40053C2
:100630001B041B0C83817047C1F308018180704744
:1006400010B4C1F3421401F01F01012303FA01F1B8
:100650009C4201D10C3003E0022C0CBF103014304E
:100660001AB103681943016003E0036823EA01013A
:10067000016010BC704700BF0388194214BF0120FD
:100680000020704710B4C1F3421201F01F0401238F
:10069000A340012A03D1828992B2134005E0022AC5
:1006A0000CBF028A828A92B21340028892B243B18E
:1006B000090A012303FA01F10A4214BF1846002077
:1006C00000E0002010BC7047090A012303FA01F181
:1006D000C94389B20180704710B50F4C50212046A4
:1006E00000F036FC04F1100304F1500000210B4A25
:1006F00003F8101C43F80C3C43F8042C10338342DD
:10070000F6D1054B002283F840205A64034ADA648C
:10071000034A136010BD00BFB80200204820000843
:10072000D8140020426803682AB9C26853602BB10C
:1007300000225A6002E0136003B15A60836800220D
:100740009A6270472DE9F04186B001214FF40030E4
:1007500000F0F0FA0121084600F0DEFA4FF00C0834
:10076000CDF8108002278DF8147000248DF8164003
:1007700001258DF817508DF81570174E04A93046D5
:1007800000F086FD07223946304600F0CDFD0722F5
:100790000321304600F0C8FD4FF4E1330093ADF87B
:1007A0000440ADF80640ADF80840ADF80C40ADF897
:1007B0000A800A4C69462046FFF7D0FE2A4640F2DE
:1007C00025512046FFF73CFF29462046FFF726FF2C
:1007D00006B0BDE8F08100BF0000024000440040C8
:1007E00070B586B001214FF4802000F0A3FA0121FA
:1007F000022000F091FA4FF44063049302238DF835
:10080000143000248DF8164001258DF817508DF80E
:100810001530174E04A9304600F03AFD07220A2190
:10082000304600F081FD07220B21304600F07CFDB0
:100830004FF461430093ADF80440ADF80640ADF8C5
:100840000840ADF80C400C23ADF80A30094C69465D
:100850002046FFF783FE2A4640F225512046FFF747
:10086000EFFE29462046FFF7D9FE06B070BD00BF57
:10087000000402400048004070B586B001212020ED
:1008800000F066FA0121042000F046FAC023049328
:1008900002238DF8143000248DF8164001258DF8C0
:1008A00017508DF81530174E04A9304600F0F0FCB3
:1008B00008220621304600F037FD08220721304685
:1008C00000F032FD4FF4E1330093ADF80440ADF891
:1008D0000640ADF80840ADF80C400C23ADF80A30E6
:1008E000094C69462046FFF739FE2A4640F2255159
:1008F0002046FFF7A5FE29462046FFF78FFE06B0EB
:1009000070BD00BF000802400014014070B586B001
:100910000121102000F01CFA0121022000F0FCF956
:10092000C023049302238DF8143000248DF8164060
:1009300001258DF817508DF81530184E04A9304652
:1009400000F0A6FC07220621304600F0EDFC07224D
:100950001146304600F0E8FC4FF416530093ADF812
:100960000440ADF80640ADF80840ADF80C400C234B
:10097000ADF80A3004F1804404F588346946204615
:10098000FFF7ECFD2A4640F225512046FFF758FEBE
:1009900029462046FFF742FE06B070BD0004024023
:1009A00070B50646064D802421462846FFF764FEB2
:1009B0000028F9D031460248FFF73EFE70BD00BF67
:1009C0000044004010B582B0044600230193019B0F
:1009D000C35C53B1019BE05CFFF7E2FF019B013375
:1009E0000193019BE35C002BF4D102B010BD00BF6A
:1009F0002DE9F04140F225512248FFF743FE00283F
:100A00003DD0204C40F225512046FFF75DFEB4F862
:100A100004805FFA88F8A8F14103DBB2192B9CBF70
:100A200008F120085FFA88F8B8F10D0F18D8164BB6
:100A30001B68002B0CDD154D0024124F124E15F8CB
:100A4000011F3846FFF7F8FD01343368A342F6DC96
:100A500000220D4B1A6041460A48FFF7EDFD06E003
:100A6000094A13680A4901F8038001331360054DF0
:100A7000402421462846FFF7FFFD0028F9D0BDE8B5
:100A8000F08100BF00440040280000204702002001
:100A900048020020F0B585B040BB30238DF80F3000
:100AA0000E260FE00E2E2FDC0CE0B3FBF0F200FB65
:100AB000123413462A5D01F8012D013E02D0002BAD
:100AC000F3D1EFE70DEB06078025104C01362946E0
:100AD0002046FFF7D1FD0028F9D017F9011F89B290
:100AE0002046FFF7A9FD0E2EF0DD0DE00246084678
:100AF000B2FBF1F301FB1321054A525C04A901F892
:100B0000012D0E26024DDAE705B0F0BD004400408D
:100B10004C20000808B50A21FFF7BCFF08BD00BF44
:100B200008B5114B114A9A420CD2581E801A20F077
:100B3000030004300E4B184453F8041B42F8041B06
:100B40008342F9D10B480C494FF000028842B8BFEC
:100B500040F8042BFADBDFF82400016841F470014F
:100B6000016000F065F808BD2800002000000020AA
:100B70003822000828000020DC15002088ED00E065
:100B800008B532254FF4FA742846FFF70FFC2046CB
:100B9000FFF768FBF8E700BF08B50C48FFF712FF46
:100BA0000B48FFF70FFF00F09FF9FFF7B3FF09486D
:100BB000FFF708FF084B1B680848A0FB0330800CB8
:100BC000FFF7A8FF0648FFF7FDFE08BD6C200008F0
:100BD000E0200008F42000081400002083DE1B43FE
:100BE0000C21000810B5084C206800F03BFE20687E
:100BF000FFF7E8FE0548FFF7E5FEFFF7CDFF0448E5
:100C0000FFF794FC10BD00BF000000201421000875
:100C100040D10C0008B5FFF7B7FAFFF793FDFFF7D7
:100C2000DFFDFFF729FEFFF771FEFFF785FB08BD2B
:100C300008B500F08DFBFFF7EDFF00F095F9FFF729
:100C4000D1FF0121082000F067F8094B1A6842F033
:100C500080721A601A6842F080621A601A6842F064
:100C600080521A601A6842F080421A60FEE700BFA4
:100C7000000C024010B4244B9B6803F00C03042BBF
:100C800005D0082B06D00BBB204B036020E0204B87
:100C900003601DE01C4B5A685B6803F03F0312F4CD
:100CA000800F194A5268C2F3881214BF18491749B5
:100CB000B1FBF3F303FB02F2134B5B68C3F3014395
:100CC00001335B00B2FBF3F3036001E00F4B036001
:100CD0000D4CA368C3F303130E49CB5CDAB203686F
:100CE000D3404360A268C2F382228A5CD2B223FA64
:100CF00002F28260A268C2F342328A5CD2B2D3406E
:100D0000C36010BC704700BF003802400024F400EC
:100D100000127A000400002021B1054B1A6B104329
:100D200018637047024A136B23EA00001063704790
:100D30000038024021B1054B1A6C1043186470470B
:100D4000024A136C23EA0000106470470038024026
:100D500021B1054B5A6C104358647047024A536CDA
:100D600023EA00005064704700380240054B064AF1
:100D700012789A5C0549895C5B5C03EBC203044A08
:100D80001370704728210008040400200804002084
:100D9000B402002010B5054CFFF7DEFA23680133DA
:100DA0002360FFF7DBFAFFF737FBF5E7B00200201F
:100DB000164B1B78012B28D110B5FFF7CDFA04464E
:100DC000134B1B7823B1013BDBB2114A1370C3B93B
:100DD000104B1B78ABB9FFF7C9FF0F4B1A780F4BBD
:100DE00053F822300E490B600E490978914208D021
:100DF000DA6B0132DA630C4A136801331360FFF7D0
:100E0000C8FA2046FFF7AAFA10BD7047AE020020CC
:100E100014040020AC020020B4020020DC140020E6
:100E2000FC030020080300208C030020F8B5FFF726
:100E30003BFBFFF791FA264A136801331360FFF773
:100E40008DFA244B1B78012B41D1234B1B78012BAE
:100E50003DD02BB1022B0CBF012200221E4B1A7079
:100E60001E4B1C6894F836303F2B30D01C4E1D4D65
:100E70000027FFF771FA236B13B3013B2363FBB920
:100E800094F8343013F0370F07D023F0370384F889
:100E90003430012384F8353001E084F8357094F85B
:100EA000343013F0080F0BD194F83A203378134301
:100EB000337094F83820A95C94F839300B43AB5464
:100EC0006469FFF74BFA94F836303F2BD1D1F8BD67
:100ED0001C040020AE020020880300200C03002028
:100EE000040400200804002047F21720704700BFC8
:100EF000704700BF10B490F8382090F839400A4489
:100F0000D37A23EA0403D3722BB990F83A208B7A70
:100F100023EA02038B7210BC704700BF70B490F8D4
:100F2000385090F83A6090F839400A686AB1E44362
:100F3000F6435019C37A2340C37213B9937A3340EE
:100F4000937251F8042F002AF3D170BC704700BF90
:100F500041B1431E4A1E10FA82F0002203F8012F0D
:100F60008342FBD1704700BF10B588B0FFF73AFA53
:100F70000023434A1360434A1370434A1370434AA1
:100F80001370434A1370434A1360434A1360434A41
:100F90001370434A1370434B03F10801002203F816
:100FA000012F8B42FBD100233F4A13703F4A13703D
:100FB0003F4A13603F4A13603F4C4FF4E7612046BD
:100FC000FFF7C6FF4FF480713C48FFF7C1FF04F103
:100FD000580304F5E7623A4943F8443C43F8081CD7
:100FE00058339A42F8D1344B0022C3F8F4263449DE
:100FF000C3F8301733490A60334A1360334C4FF457
:10100000F0612046FFF7A4FF04F1180304F5F06235
:1010100000202B4903F8180C43F8143C43F8041C37
:1010200018339342F6D1294B002483F86847C3F85C
:101030006C47234AC3F87C27254A1360FFF74CFB13
:1010400000F002F900F0FEF9224A0323049303940E
:1010500080230293A2F5FE7301934FF6FF73009372
:101060003F2321461C4800F0EBFA0DF11F021B49FB
:101070003F2000F09FFAFFF7C9F908B010BD00BF8C
:101080001C04002014040020AC0200209403002063
:10109000AE0200208C030020B0020020AD02002030
:1010A000040400200704002008030020B4020020EC
:1010B000FC03002018040020A00D0020DC140020F8
:1010C000482000080C030020900300202006002088
:1010D000100400201C060020950D0008282200089E
:1010E00010B5FFF739F904460F4B1B78C3B90F4B06
:1010F0001B78ABB9FFF73AFE0D4B1A780D4B53F83E
:1011000022300D490B600D490978914208D0DA6B05
:101110000132DA630A4A136801331360FFF734F9C6
:101120002046FFF71BF910BD14040020AC0200207C
:10113000B4020020DC140020FC030020080300207F
:101140008C0300202DE9F04106460D4690461F46CF
:10115000FFF702F9354B1C68002C61D062691A60F8
:10116000FFF7FCF8256084F83660002584F83450D9
:1011700084F835502563079B6360069BE360C4F8E1
:101180000880BDF820302382678284F83B50F20843
:1011900084F8382006F0070184F83710012303FA99
:1011A00002F284F83A208B4084F83930E5612562F8
:1011B000A5626562E56365642564A564E5641C4B0E
:1011C000236565652046FFF76DF9FFF7C5F8194BF4
:1011D00043F82640FFF7C2F82046FFF719F9FFF75A
:1011E000BBF8154B1B686361A56103B19C61124B91
:1011F0001C60124A94F83A1013780B43137094F859
:1012000038200F498D5C94F839302B438B540D4AAC
:10121000137801331370FFF7A1F80020BDE8F081C7
:10122000FFF79CF84220BDE8F08100BF900300204A
:1012300048200008DC1400200C03002004040020D7
:10124000080400209403002010B50E4C782120469D
:10125000FFF77EFE04F1180363600B4B636104F13A
:101260003002E261E36204F148026263636404F104
:101270006002E264E365002262666367034B1C6000
:1012800010BD00BF10030020482000089803002074
:10129000F0B500230125032605FA03F20C68A243EA
:1012A00039D102685C0006FA04F7FF433A40026055
:1012B000026891F804E00EFA04FE4EEA02020260AF
:1012C0000A79013AD2B2012A17D88268174087609A
:1012D00087684A79A2403A43826047689AB205FA21
:1012E00002FE27EA0E074760D0F804E08F7907FA7C
:1012F00002F292B242EA0E024260C7689AB252000B
:1013000006FA02F227EA0202C260C268CF7907FA3F
:1013100004F41443C4600133102BBDD1F0BD00BFF1
:10132000018370474183704710B401F007039B00AD
:10133000C90800EB8100046A0F21994024EA0101E9
:101340000162016A9A400A43026210BC704700BF02
:1013500082B0364B1A6842F001021A60002199608F
:101360001A6822F0847222F480321A60304A5A607D
:101370001A6822F480221A60D960009101911A68DB
:1013800042F480321A601A46136803F40033019362
:10139000009B01330093019B1BB9009BB3F5A06F29
:1013A000F2D1224B1B6813F4003F14BF012300232A
:1013B0000193019B012B32D11C4B1A6C42F08052DD
:1013C0001A641C490A6842F480420A609A689A606A
:1013D0009A6842F400429A609A6842F4A0529A6075
:1013E000154A5A601A6842F080721A601A461368E9
:1013F00013F0007FFBD040F20562104B1A60A3F59A
:1014000080639A6822F003029A609A6842F00202AE
:101410009A601A46936803F00C03082BFAD14FF038
:101420000062074B9A6002B0704700BF003802406C
:10143000103000240070004008544007003C024077
:1014400000ED00E010B5094C60212046FFF780FD5B
:1014500004F11802234643F8302BA36104F148033A
:1014600023630023A364024B1C6010BD9C03002077
:1014700000040020F8B5444B1C78002C7ED10546B2
:101480003F287DD0FEF768FF0646FF2D03D13F4B76
:101490001B6893F836502F463D4B53F8255025B91D
:1014A0003046FEF75BFF43246BE0012D04D130464C
:1014B000FEF754FF3D2464E095F8382095F8390094
:1014C00034498B5C23EA00038B5433B9324A95F8D4
:1014D0003A10137823EA01031370E96911B1284621
:1014E000FFF708FD296A11B12846FFF717FDA86A22
:1014F00008B1FFF717F900232B6385F8343085F81E
:101500003530264B1B78FF2B02D00133234A137052
:101510003046FEF723FFFFF7EBFCFEF71DFF064604
:101520001E4B1B7813B1013B1C4A13702846FEF773
:1015300071FF1B4A1378013B13700022144B43F8D0
:101540002720AB692BB96B699A616A69154B1A60E0
:1015500004E06A695A616B69AA699A61124B1A6858
:101560006A611D60114B2B653046FEF7F7FE104B8C
:101570001B78012B05D1FFF7B3FD02E0402400E00A
:101580003E242046F8BD00BF1404002018040020AB
:10159000DC1400200804002004040020AC02002019
:1015A000940300200C030020900300204820000832
:1015B000AE02002070B51446124B1B7813B11223F3
:1015C000137070BD05460E46FEF7C6FEFF2D03D113
:1015D0000D4B1B6893F836500C4B53F8253023B94C
:1015E000FEF7BCFE4323237070BD012B04D1FEF730
:1015F000B5FE4323237070BD1E65FEF7AFFE0023CA
:10160000237070BD1404002018040020DC14002096
:1016100008B5044B1868FEF701FFFF20FFF72AFF0B
:1016200008BD00BF1804002002F00302032A05D100
:1016300021B1002340F8043B0139FBD1704700BFC2
:101640002DE9F04385B00746884691461D46BDF812
:101650004060FEF781FE214B1C781CB1FEF77EFE38
:101660003C2436E01E4B53F825307BBB01221C4B3B
:1016700043F82520FEF772FE32460E990D98FFF7CB
:10168000D3FF33464A4641463846FEF7C9FE029626
:101690000F9B01930E9B0093BDF830300D9A0146CD
:1016A0002846FFF74FFD064630B90E4B1B78012B3D
:1016B0000FD1FFF715FD0CE0FEF74EFE0022084BA0
:1016C00043F82520FEF74AFE344602E0FEF746FEC8
:1016D0002824204605B0BDE8F08300BF1404002094
:1016E000DC140020AE02002010B5094C0821204671
:1016F000FFF718FE10212046FFF714FE2021204698
:10170000FFF710FE40212046FFF70CFE10BD00BF82
:101710000010024010B50446FFF7E6FF14F0010F79
:1017200003D040210C48FFF7FBFD14F0020F03D05B
:1017300020210948FFF7F4FD14F0040F03D0102115
:101740000548FFF7EDFD14F0080F03D0082102480B
:10175000FFF7E6FD10BD00BF0010024010B582B0DB
:101760007823009301248DF8044000238DF806307F
:101770008DF8073002238DF8053069460348FFF7DE
:1017800087FD2046FEF76EFD02B010BD001002403E
:1017900038B505460E4C01212046FFF7C1FD28094A
:1017A000FFF7B8FF01212046FFF7BCFDFFF7D6FF8A
:1017B00001212046FFF7B4FD05F00F00FFF7AAFF57
:1017C00001212046FFF7AEFDFFF7C8FF38BD00BF7F
:1017D000000C024010B504464FF400510948FFF7D1
:1017E0009FFD2046FFF7D4FF074B1B780133DBB288
:1017F000202B02D0044A137010BD0022024B1A7035
:1018000010BD00BF000802402C00002038B505467E
:10181000007838B10024FFF7DDFF0134E4B2285D21
:101820000028F8D138BD00BF10B504464FF4005170
:101830000348FFF777FD2046FFF7AAFF10BD00BF62
:101840000008024008B50120FFF7EEFF0022044B1C
:101850001A700520FEF706FDFFF780FF08BD00BFE8
:101860002C00002010B50446FFF7ECFF2046FFF7E0
:10187000CDFF10BD81F0004102E000BF83F00043C6
:1018800030B54FEA41044FEA430594EA050F08BF1B
:1018900090EA020F1FBF54EA000C55EA020C7FEADF
:1018A000645C7FEA655C00F0E2804FEA5454D4EB5C
:1018B0005555B8BF6D420CDD2C4480EA020281EA26
:1018C000030382EA000083EA010180EA020281EA5E
:1018D0000303362D88BF30BD11F0004F4FEA0131B0
:1018E0004FF4801C4CEA113102D0404261EB4101BF
:1018F00013F0004F4FEA03334CEA133302D0524245
:1019000063EB430394EA050F00F0A780A4F1010400
:10191000D5F1200E0DDB02FA0EFC22FA05F280183A
:1019200041F1000103FA0EF2801843FA05F3594120
:101930000EE0A5F120050EF1200E012A03FA0EFC9F
:1019400028BF4CF0020C43FA05F3C01851EBE371C9
:1019500001F0004507D54FF0000EDCF1000C7EEBE6
:1019600000006EEB0101B1F5801F1BD3B1F5001F24
:101970000CD349085FEA30004FEA3C0C04F1010443
:101980004FEA445212F5800F80F09A80BCF1004F6C
:1019900008BF5FEA500C50F1000041EB045141EAEE
:1019A000050130BD5FEA4C0C404141EB010111F4EF
:1019B000801FA4F10104E9D191F0000F04BF01469A
:1019C0000020B1FA81F308BF2033A3F10B03B3F178
:1019D00020020CDA0C3208DD02F1140CC2F10C0208
:1019E00001FA0CF021FA02F10CE002F11402D8BF66
:1019F000C2F1200C01FA02F120FA0CFCDCBF41EA32
:101A00000C019040E41AA2BF01EB0451294330BD00
:101A10006FEA04041F3C1CDA0C340EDC04F11404DD
:101A2000C4F1200220FA04F001FA02F340EA0300B4
:101A300021FA04F345EA030130BDC4F10C04C4F1FA
:101A4000200220FA02F001FA04F340EA03002946DA
:101A500030BD21FA04F0294630BD94F0000F83F424
:101A6000801306BF81F480110134013D4EE77FEA07
:101A7000645C18BF7FEA655C29D094EA050F08BF53
:101A800090EA020F05D054EA000C04BF1946104634
:101A900030BD91EA030F1EBF0021002030BD5FEA78
:101AA000545C05D14000494128BF41F0004130BDA0
:101AB00014F580043CBF01F5801130BD01F00045F4
:101AC00045F0FE4141F470014FF0000030BD7FEA67
:101AD000645C1ABF194610467FEA655C1CBF0B4662
:101AE000024650EA013406BF52EA033591EA030F79
:101AF00041F4002130BD00BF90F0000F04BF002171
:101B0000704730B54FF4806404F132044FF00005A3
:101B10004FF0000150E700BF90F0000F04BF00211C
:101B2000704730B54FF4806404F1320410F0004582
:101B300048BF40424FF000013EE700BF42004FEA7D
:101B4000E2014FEA31014FEA02701FBF12F07F43FA
:101B500093F07F4F81F06051704792F0000F14BFF7
:101B600093F07F4F704730B54FF4607401F000453B
:101B700021F0004120E700BF50EA010208BF704792
:101B800030B54FF000050AE050EA010208BF704787
:101B900030B511F0004502D5404261EB41014FF4F0
:101BA000806404F132045FEA915C3FF4DCAE4FF0F4
:101BB00003025FEADC0C18BF03325FEADC0C18BFDB
:101BC000033202EBDC02C2F1200300FA03FC20FA2C
:101BD00002F001FA03FE40EA0E0021FA02F1144479
:101BE000C1E600BF70B54FF0FF0C4CF4E06C1CEA8E
:101BF00011541DBF1CEA135594EA0C0F95EA0C0F03
:101C000000F0DEF82C4481EA030621EA4C5123EA75
:101C10004C5350EA013518BF52EA033541F48011A4
:101C200043F4801338D0A0FB02CE4FF00005E1FB57
:101C300002E506F00042E0FB03E54FF00006E1FBA1
:101C400003569CF0000F18BF4EF0010EA4F1FF04E4
:101C5000B6F5007F64F5407404D25FEA4E0E6D4124
:101C600046EB060642EAC62141EA55514FEAC52035
:101C700040EA5E504FEACE2EB4F1FD0C88BFBCF5B1
:101C8000E06F1ED8BEF1004F08BF5FEA500E50F162
:101C9000000041EB045170BD06F0004646EA010128
:101CA00040EA020081EA0301B4EB5C04C2BFD4EB5A
:101CB0000C0541EA045170BD41F480114FF0000E53
:101CC000013C00F3AB8014F1360FDEBF002001F0C1
:101CD000004170BDC4F10004203C35DA0C341BDC3B
:101CE00004F11404C4F1200500FA05F320FA04F00D
:101CF00001FA05F240EA020001F0004221F0004141
:101D000010EBD37021FA04F642EB06015EEA430EB3
:101D100008BF20EAD37070BDC4F10C04C4F12005E3
:101D200000FA04F320FA05F001FA04F240EA020096
:101D300001F0004110EBD37041F100015EEA430E67
:101D400008BF20EAD37070BDC4F1200500FA05F287
:101D50004EEA020E20FA04F301FA05F243EA020306
:101D600021FA04F001F0004121FA04F220EA020015
:101D700000EBD3705EEA430E08BF20EAD37070BD5B
:101D800094F0000F0FD101F00046400041EB01013B
:101D900011F4801F08BF013CF7D041EA060195F01D
:101DA000000F18BF704703F00046520043EB0303D7
:101DB00013F4801F08BF013DF7D043EA06037047C4
:101DC00094EA0C0F0CEA135518BF95EA0C0F0CD0CF
:101DD00050EA410618BF52EA4306D1D181EA030115
:101DE00001F000414FF0000070BD50EA410606BF0F
:101DF0001046194652EA430619D094EA0C0F02D154
:101E000050EA013613D195EA0C0F05D152EA033698
:101E10001CBF104619460AD181EA030101F00041B6
:101E200041F0FE4141F470014FF0000070BD41F0FF
:101E3000FE4141F4780170BD70B54FF0FF0C4CF4D9
:101E4000E06C1CEA11541DBF1CEA135594EA0C0FF8
:101E500095EA0C0F00F0A7F8A4EB050481EA030E45
:101E600052EA03354FEA013100F088804FEA03332C
:101E70004FF0805545EA131343EA12634FEA0222FA
:101E800045EA111545EA10654FEA00260EF00041BB
:101E90009D4208BF964244F1FD0404F5407402D20D
:101EA0005B084FEA3202B61A65EB03055B084FEA9E
:101EB00032024FF480104FF4002CB6EB020E75EB9B
:101EC000030E22BFB61A754640EA0C005B084FEAC3
:101ED0003202B6EB020E75EB030E22BFB61A754640
:101EE00040EA5C005B084FEA3202B6EB020E75EB8B
:101EF000030E22BFB61A754640EA9C005B084FEA03
:101F00003202B6EB020E75EB030E22BFB61A75460F
:101F100040EADC0055EA060E18D04FEA051545EAFE
:101F200016754FEA06164FEAC30343EA52734FEAA7
:101F3000C2025FEA1C1CC0D111F4801F0BD141EA20
:101F400000014FF000004FF0004CB6E711F4801F85
:101F500004BF01430020B4F1FD0C88BFBCF5E06F65
:101F60003FF6AFAEB5EB030C04BFB6EB020C5FEA75
:101F7000500C50F1000041EB045170BD0EF0004ECA
:101F80004EEA113114EB5C04C2BFD4EB0C0541EAFC
:101F9000045170BD41F480114FF0000E013C90E6F9
:101FA00045EA060E8DE60CEA135594EA0C0F08BFBD
:101FB00095EA0C0F3FF43BAF94EA0C0F0AD150EABC
:101FC00001347FF434AF95EA0C0F7FF425AF10464F
:101FD00019462CE795EA0C0F06D152EA03353FF477
:101FE000FDAE1046194622E750EA410618BF52EAF4
:101FF00043067FF4C5AE50EA41047FF40DAF52EAC8
:1020000043057FF4EBAE12E74A0011D212F500123D
:1020100011D20DD56FF47873B3EB62520ED44FEA40
:10202000C12343F0004343EA505323FA02F07047C0
:102030004FF00000704750EA013002D14FF0FF30FE
:1020400070474FF0000070473F00000030313233DE
:1020500034353637383941424344454630313233DE
:10206000343536373839414243444546426C696E0F
:10207000642D616E642D7365656B20736F66747774
:102080006172652C20455633412C2050726F6A6571
:10209000637467726F657020322C2030372D3130B9
:1020A0002D323031390D0A4469742069732064651A
:1020B00020736F6674776172652064696520686556
:1020C000742065696E6470726F64756374206161F9
:1020D0006E7374757572742E0D0A0D0A000000007F
:1020E000095B75432F4F532D4949207665727369FB
:1020F0006520000020766F6F7220646520434F5288
:10210000544558204D34206F70200000204D487AEF
:102110005D0A0D000A0D0000424C494E442D414E0F
:10212000442D5345454B0000000001000200010012
:102130000300010002000100040001000200010090
:10214000030001000200010005000100020001007F
:102150000300010002000100040001000200010070
:10216000030001000200010006000100020001005E
:102170000300010002000100040001000200010050
:10218000030001000200010005000100020001003F
:102190000300010002000100040001000200010030
:1021A000030001000200010007000100020001001D
:1021B0000300010002000100040001000200010010
:1021C00003000100020001000500010002000100FF
:1021D00003000100020001000400010002000100F0
:1021E00003000100020001000600010002000100DE
:1021F00003000100020001000400010002000100D0
:1022000003000100020001000500010002000100BE
:1022100003000100020001000400010002000100AF
:10222000030001000200010075432F4F532D49495F
:082230002049646C6500000008
:102238001821000800000000010203040102030441
:1022480006070809007A030A0000000000000000E1
:08225800010203040607080956
:0400000508000000EF
:00000001FF
