:020000040800F2
:10000000E867002091130008F1130008F1130008BD
:10001000F1130008F1130008F113000800000000BC
:10002000000000000000000000000000F1130008C4
:10003000F113000800000000ED0900083D0A000867
:10004000F1130008F1130008F1130008F113000880
:10005000F1130008F1130008F1130008F113000870
:10006000F1130008F1130008F1130008F113000860
:10007000F1130008F1130008F1130008F113000850
:10008000F1130008F1130008F1130008F113000840
:10009000F1130008F1130008F1130008F113000830
:1000A000F1130008F1130008F1130008F113000820
:1000B000F1130008F1130008F1130008F113000810
:1000C000F1130008F1130008F1130008F113000800
:1000D000F1130008F1130008D1110008F113000812
:1000E000F1130008F1130008F1130008F1130008E0
:1000F000F1130008F1130008F1130008F1130008D0
:10010000F1130008F1130008F1130008F1130008BF
:10011000F1130008F1130008F1130008F1130008AF
:10012000F1130008F1130008F1130008F11300089F
:10013000F1130008F1130008F1130008F11300088F
:10014000F1130008F1130008F1130008F11300087F
:10015000F1130008F1130008F1130008F11300086F
:10016000F1130008F1130008F1130008F11300085F
:10017000F1130008F1130008F1130008F11300084F
:10018000F1130008F113000830B585B0684601F09E
:100190009DFA00981E4B186004F05CF900221D4B7C
:1001A00004F0CEF904460D4600221B4B04F0F2FA8F
:1001B00000221A4B04F0C4F904F084FC184B1860B8
:1001C0000FA3D3E900232046294604F0E3FA0022D6
:1001D000124B04F0B5F904F075FC124B18600AA339
:1001E000D3E900232046294604F0D4FA00220B4B21
:1001F00004F0A6F904F066FC0B4B186005B030BDA6
:10020000000000000094C14000000000882A614105
:10021000900B00200000F43F000022400000E03F6F
:10022000940B0020A40B0020980B002084B00190B8
:10023000019B93B10A4B1A6800210391039B9342DF
:1002400005D2039B01330393039B9342F9D3019B94
:10025000013B0193019B002BEFD104B0704700BF1D
:10026000980B002084B00190019B93B10A4B1A684F
:1002700000210391039B934205D2039B0133039317
:10028000039B9342F9D3019B013B0193019B002BFC
:10029000EFD104B0704700BFA40B0020124B1B78B5
:1002A00003BB124B1B78EBB9E0B170B5044600F00C
:1002B00089F80F4B1A6892F8381092F839600D4D92
:1002C0006B5C23EA06036B5433B90B4992F83A503E
:1002D0000B7823EA05030B70146300F075F801F046
:1002E000BDFE70BD704700BF184E0020B04C00200E
:1002F0001C4E00200C4E0020084E0020F0B585B0AA
:10030000C2F57E43FB335B1A1B1A9BB27E248DF829
:100310000440FF248DF8054006248DF806408DF832
:10032000070000208DF808008DF809108DF80A20CC
:100330001A0A8DF80B208DF80C30EF238DF80D3054
:1003400001AE0DF10E078025074C2946204600F02E
:1003500033FC0028F9D016F8011B204600F00CFCF5
:10036000BE42F2D105B0F0BD0010014008B5024612
:1003700000210620FFF7C2FF08BD00BF08B501221B
:1003800000211120FFF7BAFF08BD00BF08B5002209
:1003900011460C20FFF7B2FF4FF4FA70FFF762FF2F
:1003A00008BD00BF08B5FFF7F1FF002211463F204E
:1003B000FFF7A4FF4FF47A70FFF754FF0C20FFF70C
:1003C000D5FF08BD72B6704762B6704772B60E4868
:1003D000FF210170002080F309880C48016881F337
:1003E00008880B48012101700A484FF080510160D4
:1003F00062B6FEE707484FF080510160704705483C
:100400004FF080510160704722ED00E0B00B0020FA
:10041000B24C002004ED00E0F0B587B001214FF4AC
:10042000000001F0B3F902238DF8043001248DF8A7
:1004300006408DF8074003238DF8053021462046FD
:1004400001F096F92146042001F092F91C4F042294
:100450000821384601F026FF1A4E042209213046B1
:1004600001F020FF06AD4FF4807345F8183D294692
:10047000384601F0CBFE4FF4007300932946304616
:1004800001F0C4FE104B02934FF48043ADF81430DA
:100490000023ADF80C30ADF810404FF48063ADF898
:1004A00012304BF6FF73ADF80E30084D02A9284606
:1004B00002F0AEF92146284602F01AFA07B0F0BD64
:1004C0000000024000080240A0860100005C0040DD
:1004D0002DE9F8430546884617469946012102F062
:1004E00015FA284A284B1A60284E1C4603E0013BA7
:1004F0002360002B3DD03146284602F04FFA10B958
:100500002368002BF3D1B9F1000F03D00121284655
:1005100002F022FA3A464146284602F013FA8FB911
:10052000184A194B1A601A4E1C4602E0013B236020
:1005300013B33146284602F031FAB0B92368002BD4
:10054000F4D112E0012F10D10E4A0F4B1A60114E58
:100550001C4602E0013B23608BB13146284602F085
:100560000FFA10B92368002BF4D12B8B0020BDE8C3
:10057000F8830120BDE8F8830220BDE8F88303205A
:10058000BDE8F883400D0300AC0B00200100001013
:100590000200001002000300F8B505460F460A4AA3
:1005A0000A4B1A600A4E1C4601E0013B23603146AB
:1005B000284602F0F3F910B92368002BF5D139462B
:1005C000284602F0D7F9F8BD400D0300AC0B00201F
:1005D00080000010F8B505460F4A104B1A60104E07
:1005E000104F1C4602E0013B236093B13146284680
:1005F00002F0D4F920B13946284602F0CFF910B9FB
:100600002368002BEFD10121284602F08DF900204C
:10061000F8BD0120F8BD00BF400D0300AC0B002069
:10062000800000100400001070B5044616461D46F8
:1006300000231A46FFF74CFF31462046FFF7ACFF78
:1006400029462046FFF7A8FF2046FFF7C3FF70BDED
:1006500070B50546002102F07FF90121284602F01D
:1006600063F90A4A0A4B1A600A4E1C4601E0013B34
:1006700023603146284602F083F910B92368002B25
:10068000F5D1284602F078F970BD00BF400D030097
:10069000AC0B00204000030070B504460D46164622
:1006A00000231A46FFF714FF31462046FFF774FF78
:1006B0002046FFF78FFF0023012229462046FFF73F
:1006C00007FF2046FFF7C4FF70BD00BF70B584B0C0
:1006D0000121082001F04CF84023029300268DF8F8
:1006E0000C6002258DF80F50084C02A9204601F03D
:1006F0008DFD802300938DF804608DF807506946C6
:10070000204601F083FD04B070BD00BF000C024024
:1007100000B583B00121022001F02AF84FF4807364
:10072000009301238DF8043002238DF80530002357
:100730008DF806308DF807306946034801F066FDF4
:1007400003B05DF804FB00BF00080240B8B1F8B583
:1007500004460B4F4FF480764FF48C753146384683
:1007600001F09EFD2846FFF761FD3146384601F055
:1007700095FD2846FFF75AFD013CEFD1F8BD7047C3
:100780000008024040F22B13013B9BB2002BFBD12F
:1007900010B500F007FD034C0021204600F0CCFD11
:1007A000204610BDF808002040F22B13013B9BB2FD
:1007B000002BFBD110B5034C0021204600F0BCFDFE
:1007C000204610BD240A0020F0B583B005460F482E
:1007D00000F0E8FC6C1E02350D4F0E4E14F8012F90
:1007E0000F2A94BF3146394601A801F0DFF901A86C
:1007F00000F0D8FCAC42F1D1074800F0D3FCFFF781
:10080000D3FF00F0B9FC03B0F0BD00BFC087000803
:10081000D4870008D0870008588B000808B5024824
:1008200000F0C0FC08BD00BFD887000870B51A4EA4
:100830001A4D1B4C304600F09FFCFFF7EFFF4FF4C2
:10084000FA70FFF70FFD2846FFF79CFF00F094FCBD
:100850002046FFF797FF00F08FFC1248FFF792FF4A
:1008600000F08AFC1048FFF78DFF00F085FC642043
:10087000FFF7F8FC0D48FFF785FF00F07DFC40F224
:10088000DC50FFF7EFFCFFF78FFF094904F0ACFCE9
:100890000028CFD170BD00BF588B0008E487000846
:1008A000188800083C880008608800086C880008E8
:1008B0007C88000870B58AB04FF400550895012374
:1008C0008DF8243000268DF826608DF827600223ED
:1008D0008DF82530114C08A9204601F097FC2946D7
:1008E000204601F0DBFC2946204601F0D9FC4FF4FC
:1008F000FA70FFF7B7FC2946204601F0CFFC3146DD
:10090000684600F019FD064800F036FC684600F025
:1009100033FCFFF78BFF0AB070BD00BF000402403C
:1009200088880008064B002103F5007243F8041B79
:100930009342FBD1034B23F00703034A1360704734
:10094000B40B0020B40D0020B00B0020704700BF96
:10095000704700BF704700BF704700BF704700BFBF
:10096000043222F007024FF0807342F8043C42F850
:10097000080C1B4B42F80C3C4FF0123342F8103C71
:100980004FF0033342F8143C4FF0023342F8183C66
:100990004FF0013342F81C3C42F8201C4FF0113359
:1009A00042F8243C4FF0103342F8283C4FF0093312
:1009B00042F82C3C4FF0083342F8303C4FF00733FC
:1009C00042F8343C4FF0063342F8383C4FF00533E0
:1009D00042F83C3C10464FF0043340F8403D70472D
:1009E000AD250008704700BF704700BF72B6EFF337
:1009F000098028B1203880E8F00F0C4909680860A8
:100A00000B480C490A78027008480B490A680260D2
:100A1000106890E8F00F203080F309884EF0040E43
:100A20007FF0020E62B67047704700001C4E002037
:100A30000C4D0020B84C0020004E002008B572B6C6
:100A400000B5FFF7BFFC084A137801331370FFF7B6
:100A5000BBFC01F039F901F0D9F85DF804EB4EF078
:100A6000040E62B608BD00BF184E00200138084BC6
:100A70001860084A136823F07F431360064B1A6816
:100A800042F005021A601A6842F002021A607047CA
:100A900014E000E020ED00E010E000E030B585B0AB
:100AA00004460D46038A9BB223F44053CA8813437D
:100AB000038283899BB223F4B05323F00C0289880C
:100AC0002B890B4369890B439BB213438381838A30
:100AD0009BB223F44073AA8913438382684600F0D3
:100AE000F5FD1C4B9C4203D003F580639C4201D171
:100AF000039B00E0029BA28912F4004F03EB8303E7
:100B000003EB8303296814BF49008900B3FBF1F1AB
:100B1000114BA3FB012358090501642300FB1313A8
:100B2000A28912F4004F09D0D90032310A4AA2FB3F
:100B30000131C1F3421242EA050307E01B013233DF
:100B4000054AA2FB0323C3F343132B439BB2238128
:100B500005B030BD001001401F85EB5129B18389DC
:100B60009BB243F4005383817047838923F400537D
:100B70001B041B0C83817047C1F3080181807047FF
:100B800010B4C1F3421401F01F01012303FA01F173
:100B90009C4201D10C3003E0022C0CBF1030143009
:100BA0001AB103681943016003E0036823EA0101F5
:100BB000016010BC704700BF0388194214BF0120B8
:100BC0000020704710B4C1F3421201F01F0401234A
:100BD000A340012A03D1828992B2134005E0022A80
:100BE0000CBF028A828A92B21340028892B243B149
:100BF000090A012303FA01F10A4214BF1846002032
:100C000000E0002010BC7047090A012303FA01F13B
:100C1000C94389B201807047114B1B781BB1102367
:100C20000B700020704770B50E460546FFF7CAFBF3
:100C30000C4B1C686CB162681A6005232370258117
:100C400000256560084BE360FFF7BEFB357020466A
:100C500070BDFFF7B9FB72233370002070BD00BF79
:100C6000184E0020DC5E0020A488000810B50F4C50
:100C70005021204601F02AF904F1100304F150003C
:100C800000210B4A03F8101C43F80C3C43F8042CD9
:100C900010338342F6D1054B002283F840205A647A
:100CA000034ADA64034A136010BD00BFBC4C002045
:100CB000A4880008DC5E0020426803682AB9C26884
:100CC00053602BB100225A6002E0136003B15A60F6
:100CD000836800229A6270472DE9F84F0C46164649
:100CE0001F4604F019F803F0D7FB3BA3D3E9002318
:100CF00003F026FC03F006FF0546304604F00CF82E
:100D000003F0CAFB34A3D3E9002303F019FC03F07A
:100D1000F9FE0646381B03F0FFFF03F0BDFB2EA3D0
:100D2000D3E9002303F00CFC03F0ECFE834602F051
:100D30005BF88046304602F01BF80446284602F075
:100D400017F88146304602F04FF88246284602F0F6
:100D50004BF80746584602F00BF8064651464846FF
:100D600004F02EF805463946204604F029F83146AD
:100D700004F026F80146284603F018FF03F08CFB28
:100D800006460F462146404604F01AF803F084FB5D
:100D900032463B4602F066F803F0B4FE03F07CFBFB
:100DA0000DA3D3E9002303F0F5FC03F0ABFE04F040
:100DB000E3F900F5B4730A4883FB00015818DA1709
:100DC000C2EB20224FF4B47000FB123003F052FB50
:100DD00003F098FEBDE8F88F399D52A246DF913F9F
:100DE000B7600BB610B5121A591A01FB01F102FBDC
:100DF0000214204603F090FF02F036F804F0BCF92C
:100E000010BD00BF00000000D0B504F0DBF90646BD
:100E10000F460022164B03F0BDFC01F021FF03F04A
:100E200029FE0446642000FB04F003F023FB024685
:100E30000B463046394603F0CFF900220D4B03F044
:100E4000A9FC06460F46204603F014FB02460B465B
:100E50003046394603F0C2F903A3D3E9002303F077
:100E60006FFB03F007FED0BD00000000006AF840F1
:100E70000000594000004E4010B50A4C6269013232
:100E8000094BA3FB02E39B0803EB4303A2EB4303E1
:100E90006361064A02EBC3035A6C1B6C0360426039
:100EA00010BD00BF00000020ABAAAAAAA8880008B5
:100EB0002DE9F04186B001214FF4003000F066FCCE
:100EC0000121084600F054FC4FF00C08CDF81080CA
:100ED00002278DF8147000248DF8164001258DF836
:100EE00017508DF81570174E04A9304601F08EF991
:100EF00007223946304601F0D5F907220321304652
:100F000001F0D0F94FF4E1330093ADF80440ADF8AF
:100F10000640ADF80840ADF80C40ADF80A800A4C28
:100F200069462046FFF7BAFD2A4640F22551204681
:100F3000FFF726FE29462046FFF710FE06B0BDE863
:100F4000F08100BF000002400044004070B586B050
:100F500001214FF4802000F019FC0121022000F053
:100F600007FC4FF44063049302238DF814300024EF
:100F70008DF8164001258DF817508DF81530174E55
:100F800004A9304601F042F907220A21304601F057
:100F900089F907220B21304601F084F94FF46143AF
:100FA0000093ADF80440ADF80640ADF80840ADF848
:100FB0000C400C23ADF80A30094C69462046FFF777
:100FC0006DFD2A4640F225512046FFF7D9FD2946FE
:100FD0002046FFF7C3FD06B070BD00BF000402400D
:100FE0000048004070B586B00121202000F0DCFBF5
:100FF0000121042000F0BCFBC023049302238DF8E0
:10100000143000248DF8164001258DF817508DF806
:101010001530174E04A9304601F0F8F808220621D1
:10102000304601F03FF908220721304601F03AF935
:101030004FF416530093ADF80440ADF80640ADF8F8
:101040000840ADF80C400C23ADF80A30094C694655
:101050002046FFF723FD2A4640F225512046FFF7A0
:101060008FFD29462046FFF779FD06B070BD00BF11
:10107000000802400014014070B586B00121102024
:1010800000F092FB0121022000F072FBC0230493C8
:1010900002238DF8143000248DF8164001258DF8B8
:1010A00017508DF81530184E04A9304601F0AEF8EF
:1010B00007220621304601F0F5F807221146304696
:1010C00001F0F0F84FF416530093ADF80440ADF87A
:1010D0000640ADF80840ADF80C400C23ADF80A30DE
:1010E00004F1804404F5883469462046FFF7D6FCB5
:1010F0002A4640F225512046FFF742FD2946204668
:10110000FFF72CFD06B070BD0004024070B5064626
:10111000064D802421462846FFF74EFD0028F9D0D1
:1011200031460248FFF728FD70BD00BF0044004073
:1011300070B50646064D802421462846FFF73CFD43
:101140000028F9D031460248FFF716FD70BD00BFF8
:101150000048004070B50646064D802421462846CA
:10116000FFF72AFD0028F9D031460248FFF704FDB9
:1011700070BD00BF0014014010B582B004460023CA
:101180000193019BC35C53B1019BE05CFFF7BEFF81
:10119000019B01330193019BE35C002BF4D102B06E
:1011A00010BD00BF10B582B0044600230193019B1F
:1011B000C35C53B1019BE05CFFF7BAFF019B0133B5
:1011C0000193019BE35C002BF4D102B010BD00BF82
:1011D0002DE9F04140F225512248FFF7F3FC0028A9
:1011E0003DD0204C40F225512046FFF70DFDB4F8CC
:1011F00004805FFA88F8A8F14103DBB2192B9CBF89
:1012000008F120085FFA88F8B8F10D0F18D8164BCE
:101210001B68002B0CDD154D0024124F124E15F8E3
:10122000011F3846FFF7A8FC01343368A342F6DCFF
:1012300000220D4B1A6041460A48FFF79DFC06E06C
:10124000094A13680A4901F8038001331360054D08
:10125000402421462846FFF7AFFC0028F9D0BDE81E
:10126000F08100BF00440040500B0020BF0D002063
:10127000C00D0020F0B585B040BB30238DF80F3095
:101280000E260FE00E2E2FDC0CE0B3FBF0F200FB7D
:10129000123413462A5D01F8012D013E02D0002BC5
:1012A000F3D1EFE70DEB06078025104C01362946F8
:1012B0002046FFF781FC0028F9D017F9011F89B2F9
:1012C0002046FFF759FC0E2EF0DD0DE002460846E1
:1012D000B2FBF1F301FB1321054A525C04A901F8AA
:1012E000012D0E26024DDAE705B0F0BD00440040A6
:1012F0002089000808B50A21FFF7BCFF08BD00BF20
:1013000008B520210448FFF757FC012803BF024B12
:101310009888C0B2FF2008BD0048004008B52021D1
:101320000448FFF749FC012803BF024B9888C0B26C
:10133000FF2008BD0014014038B504460D46FFF7F4
:10134000DFFF2070FF28FAD00A28F8D00DB1FFF790
:10135000EFFE23780D2B02D10023237038BD01341A
:10136000EDE700BF38B504460D46FFF7D7FF207004
:10137000FF28FAD00A28F8D00DB1FFF7EBFE23784A
:101380000D2B02D10023237038BD0134EDE700BFDF
:1013900008B5114B114A9A420CD2581E801A20F0FF
:1013A000030004300E4B184453F8041B42F8041B8E
:1013B0008342F9D10B480C494FF000028842B8BF74
:1013C00040F8042BFADBDFF82400016841F47001D7
:1013D000016000F057F908BDF80800200000002067
:1013E000E4910008F8080020E45F002088ED00E0A8
:1013F00008B532254FF4FA742846FFF7A7F92046BE
:10140000FEF730FFF8E700BF104B1868E0B1F0B509
:1014100087B01C466FF0404700256268E168237A78
:10142000CE19B4F810E0CDF810E0039502910192C6
:10143000009302EB8602294601F0D0F854F8140F0D
:101440000028EAD107B0F0BD704700BF18000020A7
:1014500008B50B4602463C210148FFF7E5F808BDF8
:10146000005C004008B502463C210248FFF714F931
:1014700008BD00BF005C004008B5072824D8DFE89D
:1014800000F004080C1014181C20134A134B1A60A7
:101490001AE0134A114B1A6016E0124A0F4B1A60F9
:1014A00012E0114A0D4B1A600EE0104A0B4B1A6005
:1014B0000AE00F4A094B1A6006E00E4A074B1A6011
:1014C00002E00D4A054B1A60410101F0E0010120E4
:1014D000FFF7BEFF08BD00BF0681953DA00B0020B1
:1014E0001F856B3FF6289C3F5C8FC23FAE47114083
:1014F0000AD7234085EB414033338B4010B5044677
:101500000220FFF7AFFF00F0FC0121430220FFF7AC
:101510009FFF10BD10B504460020FFF7A3FF20F089
:101520001C0040EA8401C9B20020FFF791FF10BD02
:1015300010B504460020FFF795FF20F0600040EA58
:101540004411C9B20020FFF783FF10BD08B5012088
:10155000FFF792FF0020FFF7D1FF0520FFF7DAFF2A
:101560000320FFF7E5FF6FF03202034B1A606FF0C4
:101570008502024B1A6008BD9C0B0020A80B0020BE
:1015800008B50C48FFF7F8FD0B48FFF7F5FD00F034
:10159000F9FBFFF7AFFE0948FFF7EEFD084B1B68AC
:1015A0000848A0FB0330800CFFF7A4FE0648FFF7B5
:1015B000E3FD08BD40890008B4890008C889000817
:1015C0009804002083DE1B43E089000800B583B047
:1015D000002001F089FA084B1860002001F084FA1D
:1015E000064B18600DF107010020FFF715FB044BB7
:1015F000186003B05DF804FBA84C0020AC4C002040
:10160000A44C002010B50A4C206801F0F9F82068BD
:10161000FFF7B2FD0748FFF7AFFDFFF7B1FFFFF798
:10162000D5FFFFF7F1FE0448FFF720FA10BD00BF19
:10163000540000200C8A000840D10C0008B5FEF7C9
:10164000A3FDFFF735FCFFF781FCFFF7CBFCFFF7AD
:1016500013FDFFF75DF8FEF7A5FEFEF7DDFEFFF7D1
:1016600075FFFFF733F8FEF789FEFFF723F94FF414
:101670007A60FEF7F7FD01F0E7F94FF47A60FEF7C4
:10168000F1FD08BD08B500F021FEFFF7D7FF00F01F
:1016900029FCFFF7B7FF0121082000F069F80A4B89
:1016A0001A6842F080721A601A6842F080621A600A
:1016B0001A6842F080521A601A6842F080421A603A
:1016C00000F0E2FAFEE700BF000C024010B4244B29
:1016D0009B6803F00C03042B05D0082B06D00BBB32
:1016E000204B036020E0204B03601DE01C4B5A6838
:1016F0005B6803F03F0312F4800F194A5268C2F38B
:10170000881214BF18491749B1FBF3F303FB02F227
:10171000134B5B68C3F3014301335B00B2FBF3F38C
:10172000036001E00F4B03600D4CA368C3F3031388
:101730000E49CB5CDAB20368D3404360A268C2F3BF
:1017400082228A5CD2B223FA02F28260A268C2F3D9
:1017500042328A5CD2B2D340C36010BC704700BF33
:10176000003802400024F40000127A0058000020E3
:1017700021B1054B1A6B104318637047024A136B73
:1017800023EA0000106370470038024021B1054B86
:101790001A6C104318647047024A136C23EA000065
:1017A000106470470038024021B1054B5A6C104359
:1017B00058647047024A536C23EA00005064704733
:1017C0000038024070B582B00D4602A92C2321F8E2
:1017D000043D05F0CFF8012D08DD0124002601A904
:1017E000304605F0C7F80134A542F8D102B070BD0B
:1017F0002DE9F04FBBB03548FFF7BEFC3448FFF78A
:10180000BBFC00230193DFF8DCA0324FDFF8D8B037
:10181000002121A8FFF7A6FD514621A804F008F8F1
:1018200000284ED0D7F80090D7F8048021A908A846
:1018300003F044FE042121A8FFF7C4FF044606215B
:1018400008A8FFF7BFFF06462046FFF7DDFA04466B
:101850003046FFF7D9FA054676B11F48FFF78CFCF2
:101860002046FFF747FD1D48FFF786FC2846FFF797
:1018700041FD1B48FFF780FC484603F07DFC06460F
:10188000404603F079FC80460394049503463246B3
:1018900029462046FFF7A6FA0590434632462946D8
:1018A0002046FFF719FA03F067FC0690059B2BB161
:1018B00003A9DBF8000001F0ABF901900198FFF7F4
:1018C00019FD1E20FEF7EAFCA2E700BFF889000818
:1018D000008A0008B80D0020188A00082C8A000829
:1018E000588B0008108A0008AC4C002010B40B780C
:1018F00043B1024602F8013B141A11F8013F002BD4
:10190000F8D100E00024204610BC704770B50446B2
:101910001E46501E092B04D800280CDC254600204A
:101920000FE00E4BA3FB0623DB0802462046FFF721
:10193000EDFF251805E0551E254404F8011BA542BE
:10194000FBD1064BA3FB0623DB0803EB8303A6EBCB
:10195000430330332B70013070BD00BFCDCCCCCCF5
:1019600070B50446002B04DA5D42501E092D05D8DF
:101970002FE01D46013A092B0AD825E01D4BA3FB99
:101980000523DB085B4202462046FFF7E9FF06E03D
:101990001848A0FB0303DB082046FFF7E1FF0444DF
:1019A0001CE01046264606F8011B01380028FADC28
:1019B000013A22EAE272501C0444002B0EDA2D2375
:1019C00004F8013B013009E0002AD8BF002005DD02
:1019D000E7E7023A002AE4DC0020F0E7054BA3FB2E
:1019E0000523DB0803EB8303A5EB430330332370AC
:1019F000013070BDCDCCCCCC70B582B004461E4653
:101A0000069D501E2B0904D100280ADC2346002025
:101A10000DE00093334602462046FFF7EDFF231802
:101A200005E0531E234404F8011BA342FBD105F03B
:101A30000F02092A03D8154630351D7009E026B17A
:101A400005F00F0537351D7003E005F00F0557351C
:101A50001D70013002B070BD2DE9F04F83B00F460C
:101A6000064608B10021017000254FF0010AA84682
:101A70004FF030097CE0252904D001323170013566
:101A8000013675E05178252904D1317002320135D3
:101A900001366DE0302919BF541C2021941C4946A1
:101AA00094F800E0AEF13002D2B2092A0FD84246D3
:101AB00002EB82020EEB4202303A02F0FF0214F80F
:101AC00001EFAEF13000C0B20928F1D900E0424682
:101AD000501987423CBF7A1BD2B2AEF1580EBEF10C
:101AE000200F56D8DFE80EF02B5555555555555556
:101AF0005555553D11555555551155555555555536
:101B00005555553555195555210003F1040B1B68E2
:101B10003046FFF725FF5B4627E003F1040B1B6807
:101B20003046FFF7F3FE5B461FE003F1040B1B6832
:101B3000009343463046FFF75FFF5B4615E003F135
:101B4000040B1B68009353463046FFF755FF5B4676
:101B50000BE003F1040B19683046FFF7C7FE5B4644
:101B600003E01A68327004335046621C0644054490
:101B7000117819B1BD42FFF47EAF05E0AF4203D941
:101B800000233370284606E0002306F8013C681E57
:101B900001E04FF0FF3003B0BDE8F08F08B5134609
:101BA0000A466421FFF758FF08BD00BF0EB400B518
:101BB00082B003AA52F8041B0192FFF7EFFF02B0B4
:101BC0005DF804EB03B07047054B064A12789A5C47
:101BD0000549895C5B5C03EBC203044A13707047E0
:101BE000308A0008084E00200C4E0020B84C00201F
:101BF00010B5054CFEF7E6FB236801332360FEF7C2
:101C0000E3FBFEF7A9FEF5E7B44C0020164B1B786A
:101C1000012B28D110B5FEF7D5FB0446134B1B78DA
:101C200023B1013BDBB2114A1370C3B9104B1B78CF
:101C3000ABB9FFF7C9FF0F4B1A780F4B53F822309F
:101C40000E490B600E490978914208D0DA6B0132D7
:101C5000DA630C4A136801331360FEF7D0FB2046A9
:101C6000FEF7B2FB10BD7047B24C0020184E0020AA
:101C7000B04C0020B84C0020E05E0020004E002058
:101C80000C4D0020904D002008B5094B1B7873B90E
:101C9000FFF79AFF074B1B78074A1370074A52F861
:101CA0002330074A1360074A1360FEF78FFB08BD15
:101CB000B24C0020B84C00200C4D0020E05E00200B
:101CC000004E00201C4E0020F8B5FEF78DFEFEF7FA
:101CD00079FB264A136801331360FEF775FB244B2A
:101CE0001B78012B41D1234B1B78012B3DD02BB10D
:101CF000022B0CBF012200221E4B1A701E4B1C68C7
:101D000094F836303F2B30D01C4E1D4D0027FEF787
:101D100059FB236B13B3013B2363FBB994F83430B5
:101D200013F0370F07D023F0370384F83430012342
:101D300084F8353001E084F8357094F8343013F0CD
:101D4000080F0BD194F83A2033781343337094F88A
:101D50003820A95C94F839300B43AB546469FEF722
:101D600033FB94F836303F2BD1D1F8BD204E002004
:101D7000B24C00208C4D0020104D0020084E002059
:101D80000C4E002047F21720704700BF704700BF7D
:101D900010B4114B1B68D86193F838200244D47AF0
:101DA00093F839102143D172817A93F83A200A438B
:101DB000827293F8381093F839400848425C22EA5E
:101DC0000402425432B9064A93F83A10137823EACF
:101DD0000103137010BC70471C4E00200C4E0020F5
:101DE000084E002010B490F8382090F839400A448A
:101DF000D37A23EA0403D3722BB990F83A208B7A72
:101E000023EA02038B7210BC704700BF70B490F8D5
:101E1000385090F83A6090F839400A686AB1E44363
:101E2000F6435019C37A2340C37213B9937A3340EF
:101E3000937251F8042F002AF3D170BC704700BF91
:101E4000F8B50646184C807A205C3518ED7A655D49
:101E500005EBC005EDB2154C54F82540002727636B
:101E6000616294F8341021EA020284F8342084F884
:101E7000353012F0080F0BD10D4A94F83A10137850
:101E80000B4313700B4A115C94F839300B43135415
:101E900031462046FFF7A6FF216A19B12046FFF719
:101EA000B5FFE6612846F8BD308A0008E05E0020F4
:101EB000084E00200C4E00200346002203F80A2F93
:101EC000123003F8012F8342FBD1704741B1431E0A
:101ED0004A1E10FA82F0002203F8012F8342FBD140
:101EE000704700BF10B588B0FEF71CFD0023434AC1
:101EF0001360434A1370434A1370434A1370434AB2
:101F00001370434A1360434A1360434A1370434AB1
:101F10001370434B03F10801002203F8012F8B4299
:101F2000FBD100233F4A13703F4A13703F4A1360AE
:101F30003F4A13603F4C4FF4E7612046FFF7C6FF6E
:101F40004FF480713C48FFF7C1FF04F1580304F5DA
:101F5000E7623A4943F8443C43F8081C58339A4234
:101F6000F8D1344B0022C3F8F4263449C3F83017B3
:101F700033490A60334A1360334C4FF4F061204612
:101F8000FFF7A4FF04F1180304F5F06200202B49C9
:101F900003F8180C43F8143C43F8041C183393421C
:101FA000F6D1294B002483F86847C3F86C47234ACD
:101FB000C3F87C27254A1360FEF758FE00F002F9AB
:101FC00000F00EFA224A0323049303948023029321
:101FD000A2F5FE7301934FF6FF7300933F23214652
:101FE0001C4800F0FBFA0DF11F021B493F2000F0D6
:101FF000AFFAFEF7ABFC08B010BD00BF204E0020CA
:10200000184E0020B04C0020984D0020B24C00200B
:10201000904D0020B44C0020B14C0020084E002010
:102020000B4E00200C4D0020B84C0020004E00202C
:102030001C4E0020A4570020E05E0020A488000869
:10204000104D0020944D002024500020144E0020FC
:1020500020500020F11B0008308B000810B5FEF75F
:10206000B1F904460F4B1B78C3B90F4B1B78ABB9C2
:10207000FFF7AAFD0D4B1A780D4B53F822300D498E
:102080000B600D490978914208D0DA6B0132DA63AE
:102090000A4A136801331360FEF7ACF92046FEF7D5
:1020A00093F910BD184E0020B04C0020B84C002011
:1020B000E05E0020004E00200C4D0020904D0020DE
:1020C0002DE9F04106460D4690461F46FEF77AF987
:1020D000354B1C68002C61D062691A60FEF774F9F8
:1020E000256084F83660002584F8345084F8355033
:1020F0002563079B6360069BE360C4F80880BDF816
:1021000020302382678284F83B50F20884F838201C
:1021100006F0070184F83710012303FA02F284F86D
:102120003A208B4084F83930E5612562A56265620A
:10213000E56365642564A564E5641C4B23656565FA
:102140002046FEF74FFCFEF73DF9194B43F82640B9
:10215000FEF73AF92046FEF7FBFBFEF733F9154B85
:102160001B686361A56103B19C61124B1C60124A3C
:1021700094F83A1013780B43137094F838200F49F1
:102180008D5C94F839302B438B540D4A137801330E
:102190001370FEF719F90020BDE8F081FEF714F97D
:1021A0004220BDE8F08100BF944D0020A4880008C3
:1021B000E05E0020104D0020084E00200C4E002054
:1021C000984D002010B50E4C78212046FFF77EFE7A
:1021D00004F1180363600B4B636104F13002E261A8
:1021E000E36204F148026263636404F16002E26442
:1021F000E365002262666367034B1C6010BD00BF8D
:10220000144D0020A48800089C4D0020F0B5002348
:102210000125032605FA03F20C68A24339D10268AE
:102220005C0006FA04F7FF433A400260026891F846
:1022300004E00EFA04FE4EEA020202600A79013A54
:10224000D2B2012A17D882681740876087684A7916
:10225000A2403A43826047689AB205FA02FE27EA32
:102260000E074760D0F804E08F7907FA02F292B2C5
:1022700042EA0E024260C7689AB2520006FA02F2BF
:1022800027EA0202C260C268CF7907FA04F4144355
:10229000C4600133102BBDD1F0BD00BF0183704776
:1022A0004183704710B401F007039B00C90800EB9D
:1022B0008100046A0F21994024EA01010162016A48
:1022C0009A400A43026210BC704700BF82B0364B8E
:1022D0001A6842F001021A60002199601A6822F01F
:1022E000847222F480321A60304A5A601A6822F4EA
:1022F00080221A60D960009101911A6842F48032FC
:102300001A601A46136803F400330193009B0133EB
:102310000093019B1BB9009BB3F5A06FF2D1224B38
:102320001B6813F4003F14BF012300230193019B9A
:10233000012B32D11C4B1A6C42F080521A641C499A
:102340000A6842F480420A609A689A609A6842F485
:1023500000429A609A6842F4A0529A60154A5A6004
:102360001A6842F080721A601A46136813F0007FF0
:10237000FBD040F20562104B1A60A3F580639A68A7
:1023800022F003029A609A6842F002029A601A46AA
:10239000936803F00C03082BFAD14FF00062074B4F
:1023A0009A6002B0704700BF00380240103000242D
:1023B0000070004008544007003C024000ED00E07F
:1023C0000346054A126812B90449034A1160024AD9
:1023D0001068034413607047540B0020E45F002032
:1023E00010B5094C60212046FFF770FD04F118027A
:1023F000234643F8302BA36104F1480323630023F1
:10240000A364024B1C6010BDA04D0020044E0020B0
:10241000F8B5444B1C78002C7ED105463F287DD072
:10242000FDF7D0FF0646FF2D03D13F4B1B6893F805
:1024300036502F463D4B53F8255025B93046FDF711
:10244000C3FF43246BE0012D04D13046FDF7BCFFF0
:102450003D2464E095F8382095F8390034498B5CC8
:1024600023EA00038B5433B9324A95F83A101378B3
:1024700023EA01031370E96911B12846FFF7B2FCA2
:10248000296A11B12846FFF7C1FCA86A08B1FEF716
:1024900013FC00232B6385F8343085F83530264B48
:1024A0001B78FF2B02D00133234A13703046FDF70F
:1024B0008BFFFFF76BFCFDF785FF06461E4B1B7875
:1024C00013B1013B1C4A13702846FEF743FA1B4A1E
:1024D0001378013B13700022144B43F82720AB699B
:1024E0002BB96B699A616A69154B1A6004E06A69D5
:1024F0005A616B69AA699A61124B1A686A611D6018
:10250000114B2B653046FDF75FFF104B1B78012BFD
:1025100005D1FFF7A3FD02E0402400E03E24204661
:10252000F8BD00BF184E00201C4E0020E05E0020C9
:102530000C4E0020084E0020B04C0020984D00208A
:10254000104D0020944D0020A4880008B24C0020BB
:1025500070B51446124B1B7813B11223137070BD63
:1025600005460E46FDF72EFFFF2D03D10D4B1B68D0
:1025700093F836500C4B53F8253023B9FDF724FF60
:102580004323237070BD012B04D1FDF71DFF4323AE
:10259000237070BD1E65FDF717FF0023237070BD0B
:1025A000184E00201C4E0020E05E002008B5044BB1
:1025B0001868FEF7D3F9FF20FFF72AFF08BD00BF18
:1025C0001C4E002002F00302032A05D121B1002392
:1025D00040F8043B0139FBD1704700BF2DE9F043BF
:1025E00085B00746884691461D46BDF84060FDF718
:1025F000E9FE214B1C781CB1FDF7E6FE3C2436E0D9
:102600001E4B53F825307BBB01221C4B43F8252081
:10261000FDF7DAFE32460E990D98FFF7D3FF3346E9
:102620004A4641463846FEF79BF902960F9B0193B6
:102630000E9B0093BDF830300D9A01462846FFF7F7
:102640003FFD064630B90E4B1B78012B0FD1FFF72B
:1026500005FD0CE0FDF7B6FE0022084B43F82520EF
:10266000FDF7B2FE344602E0FDF7AEFE2824204618
:1026700005B0BDE8F08300BF184E0020E05E0020EA
:10268000B24C002010B5094C08212046FFF708FE87
:1026900010212046FFF704FE20212046FFF700FE10
:1026A00040212046FFF7FCFD10BD00BF0010024096
:1026B00010B50446FFF7E6FF14F0010F03D04021E8
:1026C0000C48FFF7EBFD14F0020F03D0202109485E
:1026D000FFF7E4FD14F0040F03D010210548FFF7C5
:1026E000DDFD14F0080F03D008210248FFF7D6FDE6
:1026F00010BD00BF0010024010B582B078230093D7
:1027000001248DF8044000238DF806308DF8073041
:1027100002238DF8053069460348FFF777FD204610
:10272000FDF7A0FD02B010BD0010024038B505460F
:102730000E4C01212046FFF7B1FD2809FFF7B8FF35
:1027400001212046FFF7ACFDFFF7D6FF012120460F
:10275000FFF7A4FD05F00F00FFF7AAFF01212046B7
:10276000FFF79EFDFFF7C8FF38BD00BF000C024019
:1027700010B504464FF400510948FFF78FFD20467D
:10278000FFF7D4FF074B1B780133DBB2202B02D0BD
:10279000044A137010BD0022024B1A7010BD00BF16
:1027A00000080240580B002038B50546007838B1C3
:1027B0000024FFF7DDFF0134E4B2285D0028F8D1E2
:1027C00038BD00BF10B504464FF400510348FFF771
:1027D00067FD2046FFF7AAFF10BD00BF00080240BA
:1027E00008B50120FFF7EEFF0022044B1A70052008
:1027F000FDF738FDFFF780FF08BD00BF580B002034
:1028000010B50446FFF7ECFF2046FFF7CDFF10BDE3
:10281000F0B585B004460D46868826F03F0636049E
:10282000360C6846FEF752FF029B2E48A0FB0320A1
:10283000800C87B23E43A680218821F00101090463
:10284000090C21802A6828498A4209D85200B3FB22
:10285000F2F39BB2032B98BF04230137278427E0B0
:10286000EE884BF6FF718E4205D102EB4201B3FBBD
:10287000F1F39BB208E002EB820202EB8202B3FBAF
:10288000F2F39BB243F48043C3F30B020AB943F063
:10289000010343F400434FF4967200FB02F0134A25
:1028A00082FB0012C017C0EBA210013080B220845E
:1028B000A38323889BB243F00103238023889BB228
:1028C00023F4816323F00201AB886A8913430B432D
:1028D0009BB22380AA892B8913439BB2238105B025
:1028E000F0BD00BF83DE1B43A0860100D34D621004
:1028F00029B103889BB243F001030380704703882A
:1029000023F001031B041B0C0380704729B10388CB
:102910009BB243F4807303807047038823F4807371
:102920001B041B0C0380704729B103889BB243F43E
:10293000007303807047038823F400731B041B0C8F
:102940000380704712B141F0010101E001F0FE0186
:1029500089B20182704700BF29B103889BB243F45A
:10296000806303807047038823F480631B041B0C7F
:102970000380704701827047008AC0B2704700BF71
:10298000838A9BB2008B43EA004321F07F4203EA33
:102990000200884214BF00200120704782B000234B
:1029A0000193009300900B0F019321F07F41019B55
:1029B0001BB1009B1433009303E0090C009B1833F8
:1029C0000093009B1B68194214BF0120002002B035
:1029D000704700BFF0B583B006461746084602F0C0
:1029E0009BF90446164D1749286802F0E9F901469B
:1029F000204602F0DBF802F0BFFB0446384602F046
:102A00008BF907460F49686802F0DAF90146384643
:102A100002F0CCF802F0B0FB002CB8BF04F58074D3
:102A20000028B8BF00F580708DF804608DF805406F
:102A30008DF8060001A8FDF7C7FE03B0F0BD00BF8A
:102A4000188900080050C34730B583B00D4C684664
:102A5000FEF712FA9DE8030084E803000A49606863
:102A600002F0AEF902F088FB05460749206802F043
:102A7000A7F902F081FB2A4601462A20FFF7AAFFA8
:102A800003B030BDB80D00200050C34770B582B010
:102A90001248FEF771FB1248FEF76EFB114E00253F
:102AA0000DF107022946306800F044F804469DF80D
:102AB0000700FEF71FFC62682168207CFFF78AFF91
:102AC0003C240DF107022946306800F033F8037CFE
:102AD000062BE5D0013CF4D1E2E700BF408B0008B3
:102AE0004C8B0008AC4C002038B50F4B1B78ABB9B1
:102AF0000546FDF767FC0D4B1C688CB162681A60D7
:102B0000FDF762FC01232370002323816560084BDD
:102B100063612046FFF7D0F9204638BD002038BD5C
:102B2000FDF752FC002038BD184E0020144E002046
:102B3000A48800082DE9F8430378012B04D0012371
:102B400013700020BDE8F8832E4B1B7823B10223BD
:102B500013700020BDE8F8832B4B1B7823B10D23A5
:102B600013700020BDE8F88316460F460446FDF7B3
:102B700029FC804665683DB100276760FDF724FCAD
:102B800037702846BDE8F883DFF88090D9F8003028
:102B900093F8342042F0020283F83420002283F8B4
:102BA00035201F632046FFF7F3F84046FDF70CFC85
:102BB000FFF754FAFDF706FC0746D9F8000090F835
:102BC000353013B1022B04D006E0456A0023337080
:102BD00007E00E23337004E02146FFF703F90A23D0
:102BE00033700A4B1B68002283F8342083F83520A9
:102BF000DA611A625A623846FDF7E6FB2846BDE8FC
:102C0000F88300BF184E0020B04C00201C4E00205E
:102C1000F8B50378012B1DD10E460446FDF7D2FB13
:102C20000746A57A65B10023022231462046FFF708
:102C300007F93846FDF7C8FBFFF710FA00250AE050
:102C400063681BB1FDF7C0FB142504E06660FDF767
:102C5000BBFB00E001252846F8BD00BF00000000D6
:102C6000C1F30A522DE9F843A2F2FF36132E0B46A8
:102C70000D460446884607461CDC002E3FDB3A4AD8
:102C800042FA06F901EA09020243864617D034A344
:102C9000D3E9002301F0A2FA0022002301F0E0FEB4
:102CA00020B1002D40DB28EA0905002738462946D7
:102CB000BDE8F883332E06DDB6F5806F2FD02046B1
:102CC0001946BDE8F883A2F213424FF0FF3929FA02
:102CD00002F910EA090FF2D021A3D3E9002301F091
:102CE0007DFA0022002301F0BBFE0028DED0002D7B
:102CF00020DB454627EA090738462946D8E718A3C6
:102D0000D3E9002301F06AFA0022002301F0A8FEB3
:102D10000028CBD0002D18DB00273D46C6E7024631
:102D20000B4601F05BFACCE74FF4801343FA06F64A
:102D3000B044B8E7142E10D00123C6F1340603FACC
:102D400006F6371928BF9844D3E725F00042074B11
:102D5000224318BF1D460027A8E705F10108C8E770
:102D60009C7500883CE4377EFFFF0F000000F0BF39
:102D700000B51C4A20F00043934283B018DDB3F144
:102D8000FF4F05DB014601F011FF03B05DF804FBC6
:102D9000694600F083F900F00302012A15D0022AE7
:102DA0000CD0CAB101220199009800F04FFFECE766
:102DB000002100F039FB03B05DF804FB0199009895
:102DC00000F032FB00F10040DFE70199009800F0CD
:102DD0003DFF00F10040D8E70199009800F024FB86
:102DE000D3E700BFD80F493F00B51D4A20F000438C
:102DF000934283B019DDB3F1FF4F05DB014601F0CB
:102E0000D5FE03B05DF804FB694600F047F900F019
:102E10000300012818D002280ED0D0B101990098E3
:102E200000F002FB00F10040EBE70022002100F07F
:102E30000DFF03B05DF804FB01220199009800F03A
:102E400005FF00F10040DCE70199009800F0ECFA82
:102E5000D7E701220199009800F0F8FED1E700BF02
:102E6000D80F493F00F050B8F0B58BB0054600F0E0
:102E700087FA224B93F90060731C04460AD0294656
:102E8000284602F063F9074620B90021284602F0DF
:102E900035F910B920460BB0F0BD194B0897012247
:102EA00028468DE80C0001F0F7FA0022CDE9040174
:102EB000CDE9020100239EB11046194601F06AFCDB
:102EC000022ECDE906010DD102F080F92123036025
:102ED000089B6BB9DDE9060101F014FE0BB0F0BDF3
:102EE000CDE90623684601F0C9F80028F0D1EBE7E8
:102EF00002F06CF9089B0360ECE700BFAC04002013
:102F00005C8B0008000000002DE9F84F5442144388
:102F100023F00049DFF880E149EAD474744506469D
:102F20000D463ED84442044321F0004B4BEAD47492
:102F300074458A4635D803F1404404F5801414439F
:102F400044D09C1704F0020444EAD17450EA0B0107
:102F50002FD052EA090133D0F14546D0F3452FD0A6
:102F6000C9EB0B094FEA2959B9F13C0F34DC002BAE
:102F700057DB3046294601F00DFC01F07BF800F0EC
:102F8000DBFE012C4AD0022C3BD084B132A3D3E922
:102F9000002301F021F932A3D3E9002301F01CF949
:102FA00005E01046194632462B4601F017F9BDE8F8
:102FB000F88F022C14D0032C0CD12D482D49F6E7A4
:102FC000BAF1000F2A480EDB2B49F0E7BDE8F84FB5
:102FD00000F0B2BE2946EAE723A1D1E90001D0E71B
:102FE00023482649E3E72649E1E7CB451FD0022CD9
:102FF000F6D0032CE1D0012C4FF0000020D0014688
:10300000D5E715A3D3E9002301F0E6F802460B4605
:1030100013A1D1E9000101F0DFF8C8E701F1004197
:10302000C5E719F13C0FA4DA00200021A9E7022C22
:103030000ED0032C09D0012C0D4804D01149B6E75D
:103040004FF00041B3E71049B1E710481049AEE72F
:103050000E481049ABE700BF075C143326A6A13C1D
:10306000182D4454FB210940182D4454FB21F93FED
:10307000182D4454FB2109C0FB21F93FFB210940D5
:10308000FB21F9BFFB21E93FFB21E9BFD221337FBF
:103090007CD902C07CD902400000F07F2DE9F04FBE
:1030A000AA4A20F00044944289B067DDA84A9442BD
:1030B0000D46074601461CDC0028A64940F3EC807B
:1030C00001F074FDA44B24F00F049C42064663D02B
:1030D000A24901F06BFD01462860304601F066FD13
:1030E0009E4901F063FD01236860184609B0BDE800
:1030F000F08F9B4A944261DDB4F1FF4F46DAE6154A
:10310000863EA4EBC654204602F036F801F004FED9
:10311000034601462046059301F048FD4FF08741E4
:1031200001F04EFE804602F027F801F0F5FD014661
:1031300004464046069401F039FD4FF0874101F006
:103140003FFE0021079001F0CFFF002800F0C5806E
:103150002046002101F0C8FF002814BF01230223EC
:10316000804A0192022100913246294605A800F0CA
:103170001FFA002FC0F2A780034603E00022086078
:103180004A600023184609B0BDE8F08F01F00EFD3B
:10319000002368602860F5E7734901F007FD734973
:1031A000044601F003FD01462860204601F0FEFCC4
:1031B0006E4901F0FBFC01236860E3E700F060FF6B
:1031C0006B49804601F0FCFD4FF07C5101F0F0FCB2
:1031D00001F0D2FF064601F09FFD5E49834601F0F3
:1031E000EFFD0146404601F0E1FC5C49814658464E
:1031F00001F0E6FD1F2E82461ADC5E4A711E24F0A5
:10320000FF0352F82120934212D05146484601F064
:10321000CDFC8046C5F800804146484601F0C6FC1A
:10322000514601F0C3FC002F686058DB3346A9E724
:103230005146484601F0BAFCE215C0F3C753D31A11
:10324000082B8046E6DD48490392584601F0B8FD58
:1032500080460146484601F0A9FC0146044648461E
:1032600001F0A4FC414601F0A1FC404980465846CB
:1032700001F0A6FD414601F099FC01468246204638
:1032800001F094FC039AC0F3C753D21A192A80465E
:1032900041DC2860A146BFE701F08AFC2E4B24F0F8
:1032A0000F049C42064623D02C4901F081FC0146C4
:1032B0002860304601F07AFC284901F079FC4FF093
:1032C000FF3368605EE795E80C0002F1004103F10E
:1032D0000042296043426A6054E7032340E708F153
:1032E000004800F10040C5F800806860734249E77B
:1032F0001D4901F05DFC1D49044601F059FC0146E1
:103300002860204601F052FC184901F051FC4FF0B2
:10331000FF33686036E71849584601F051FD014611
:103320008046204601F042FC01468146204601F0DD
:103330003DFC414601F03AFC10490446584601F074
:103340003FFD214601F032FC82465EE7D80F493F3F
:10335000E3CB1640800FC93FD00FC93F43443537F8
:10336000800F4943E48B00080044353708A3852EBD
:1033700084F9223F648B000800A3852E32318D240E
:1033800020F00042B2F1FF4F70B504462ED262B376
:10339000002803463DDBB2F5000F4FEAE0502CD386
:1033A0007F38C3F31603C20743F4000348BF5B0032
:1033B000002640105B00314619244FF080728D18B2
:1033C0009D4202DC5B1BA9181644013C4FEA4303F3
:1033D0004FEA5202F3D113B106F001031E447610F6
:1033E00006F17C5606EBC05070BD70BD014601F081
:1033F000E7FC214601F0DCFB70BD14F4000201D0B3
:103400000EE00A465B001C0202F10101F9D5801AA8
:10341000C6E7014601F0CAFB014601F085FD70BD1B
:103420004FF0FF32F3E700BF2DE9F84320F00044EE
:10343000B4F1485F06460F4649DA01F09DFE0028C8
:1034400000F09D803146304601F0BAFC4E490546F9
:1034500001F0B6FC4D4901F0ABFB294601F0B0FC90
:103460004B4901F0A3FB294601F0AAFC494901F0B0
:103470009FFB294601F0A4FC474901F097FB294630
:1034800001F09EFC454901F093FB294601F098FCB0
:1034900080464FF07C51284601F092FC414604469C
:1034A000284601F08DFC39460546304601F088FC7F
:1034B0000146284601F07AFB0146204601F076FBE2
:1034C00001464FF07E5001F071FBBDE8F8830146E4
:1034D00001F076FC2C49054601F072FC2B4901F005
:1034E00067FB294601F06CFC294901F05FFB294686
:1034F00001F066FC274901F05BFB294601F060FC06
:10350000254901F053FB294601F05AFC234901F0FB
:103510004FFB294601F054FC214B9C428046B8DD0C
:10352000204B9C4227DC04F17F4421464FF07E5023
:1035300001F03CFB81464FF07C51284601F040FCF5
:10354000214601F033FB41460446284601F038FC91
:1035500039460546304601F033FC0146284601F065
:1035600025FB0146204601F021FB0146484601F0BB
:103570001DFBBDE8F883DFF834900B4CDBE74FF020
:103580007E50BDE8F88300BF4ED747ADF6740F31CB
:103590007CF29334010DD037610BB63AABAA2A3DC9
:1035A0009999993E0000483F0000903E0000383F46
:1035B0002DE9F04FDFB0BE4C0A93013B0193D31EBF
:1035C00048BF131D689D0891DB1023EAE37354F88C
:1035D00025400B9319460133A2EBC3030794019ACC
:1035E0000693079B02909C18A1EB020515D42C446E
:1035F000013421AE699F08E057F8250001F08CFBEB
:103600000135A54246F8040F07D0002DF4DA013544
:103610000020A54246F8040FF7D1079B002B2ADBB8
:10362000079B0A9A019E194649AF01EB020893468F
:10363000019B002BC0F2A18122ABCBEB060503EB73
:103640008505029BA3F1040A22AB03EB86044FF02D
:1036500000095AF8041F54F8040901F0B1FB0146AF
:10366000484601F0A5FAAC428146F2D10136464502
:1036700047F8049FDCD1079E06F18043023B9B0084
:103680001A1D0EA90A440B440D920C935EAB03EB7A
:103690008603002E53F8508C23DD5EAB03EB8604CB
:1036A000543C0DAD49AF4FF06E51404601F088FBE0
:1036B00001F062FD01F030FB4FF08741814601F0DF
:1036C0007FFB0146404601F071FA01F055FD54F8C8
:1036D000041945F8040F484601F06AFABC428046D6
:1036E000E1D14046DDF81880414600F013FD4FF06F
:1036F0007851044601F064FB00F0C6FC4FF08241B3
:1037000001F05EFB0146204601F050FA044601F04C
:1037100033FD074601F000FB0146204601F046FA62
:103720004446002C054640F30F81711E0EAAC8F1D5
:10373000080352F8212042FA03F000FA03F3D31AE7
:103740000EAAC8F1070A42F82130074443FA0AFAE0
:10375000BAF1000F30DD002E07F1010740F34D8272
:10376000002214460DA907E0C3F580700BB1086074
:103770000124013296420BDD51F8043F002CF3D0B6
:103780000132C3F1FF0396420B604FF00104F3DCFA
:10379000069B002B0DDD012B00F0DE80022B08D1F3
:1037A000721E0EAB0EA953F8223003F03F0341F80E
:1037B0002230BAF1020F7DD00021284601F094FC9E
:1037C000002800F09180079B741EA34210DC06F1D4
:1037D00080430EAA013B0D9802EB8303002253F8AD
:1037E0000419834242EA0102F9D1002A40F0DF8045
:1037F000079B0EAA013B52F82330002B40F0FB81BF
:103800000C9B012753F804290137002AFAD0F2193A
:10381000731C9342099240DC0B9AB90003EB020837
:103820000A9A039108F180486999164408F1FF3813
:10383000B20001EB880822A99B00049201EB020A66
:103840004AAA02EB0309043B0593002658F8040F2B
:1038500001F062FA019B4AF8040B002B1FDB049B6A
:10386000F418059BF51822AB1C441D44029B00274D
:10387000A3F1040B5BF8041F54F8040901F0A0FA4B
:103880000146384601F094F9AC420746F2D1039B59
:1038900049F8047B04369E42D8D1099EF6E6039B84
:1038A000043600279E4249F8047BCFD1F5E700BFDC
:1038B000FC8E000829464FF07E5001F077F905464E
:1038C000002C3FF479AF06994FF07E5000F022FCB7
:1038D0000146284601F06AF905460021284601F014
:1038E00003FC00287FF46FAF0297069F28467942B9
:1038F00000F010FC4FF08741044601F013FC002853
:1039000000F080814FF06E51204601F059FA01F02D
:1039100033FC01F001FA4FF08741054601F050FAFF
:103920000146204601F042F901F026FC0EAB741C62
:1039300043F82600284601F01FFC3B460833069357
:103940000EAB43F8240047E010D1731E0EAA52F8C4
:1039500023304FEA232AFBE6721E0EAB0EA953F862
:10396000223003F07F0341F8223022E74FF07C51F0
:1039700001F0D8FB50B982461EE701364FF000092E
:10398000464547F8049F7FF453AE74E6002E07F1D6
:103990000107C8BF4FF0020A3FF7E2AE29464FF0D9
:1039A0007E5001F003F94FF0020A054604E70EAB22
:1039B000069A53F824300297083A069263B904F144
:1039C0008043013B0EA901EB830353F80419013C2A
:1039D000083A0029F9D0069206994FF07E5000F07F
:1039E00099FB002C0546C0F21781A3004AAA1F1DAF
:1039F00002EB030801930EAB1F4408F1040657F8CD
:103A0000040D01F089F9294601F0DAF94FF06E5101
:103A100046F8040D284601F0D3F90EAB9F42054647
:103A2000EDD1DDF81C90CDF80CA0A8F1040800271A
:103A3000A346B9F1000FB8BF002615DB814C8248C0
:103A40000026C246002503E0AF420DDB54F8040F08
:103A50005AF8041F01F0B4F90146304601F0A8F805
:103A60000135A9450646EFDA5EAB03EB8703A8F103
:103A7000040843F8A06C48AB984507F10107D8D17A
:103A8000689BDDF80CA05C46032B59D8DFE803F0F7
:103A90008C5E5E02002C40F3BD80019A5EA98B18FB
:103AA00036AD53F8A07CAE1856F8049C394648460B
:103AB00001F07EF880460146484601F077F8394625
:103AC00001F076F8306046F8048DB5424746EBD1F8
:103AD000012C40F39F80019A5EA98B18AC1853F813
:103AE000A06C25460DF1DC0955F8048C30464146A2
:103AF00001F05EF807460146404601F057F83146AE
:103B000001F056F8286045F8047DA9453E46EBD102
:103B10000020043438AD54F8041D01F049F8A542E2
:103B2000F9D1BAF1000F6AD0369A379B00F1004004
:103B300002F1004203F10043089CA0602260636030
:103B4000029B03F007005FB0BDE8F08F019D36AE29
:103B500004353544002055F8041D01F029F8B5421C
:103B6000F9D1BAF1000F39D0089A00F100430146AB
:103B70001360369801F01AF8002C0BDD36AE0125E3
:103B8000013556F8041F01F013F8AC42F8DABAF127
:103B9000000F4FD0089A00F100435360029B03F0DE
:103BA00007005FB0BDE8F08F019B5EAA13440020C0
:103BB000A3F19C05013C55F8041D00F0F9FF631CBE
:103BC000F8D1BAF1000F01D000F10040089B186055
:103BD000029B03F007005FB0BDE8F08F089B014631
:103BE0001860369800F0E2FF002CD8BF0346C5DC11
:103BF000089A5360D2E7012709E60024C8E5369AFF
:103C0000379B99E7204601F0B7FA0EAB344643F8EC
:103C10002600E1E6002084E7689B032B90D801A2F0
:103C200052F823F0413C00083D3C00083D3C0008B0
:103C3000153C0008089A03465360AFE7002090E760
:103C40000020BEE7088F00080000C93F2DE9F843B7
:103C500020F00043B3F1485F04460F46904603DA74
:103C600001F08AFA002858D02146204601F0A8F831
:103C700005460146204601F0A3F829490646284694
:103C800001F09EF8274900F091FF294601F098F8CD
:103C9000254900F08DFF294601F092F8234900F0F4
:103CA00085FF294601F08CF8214900F081FF81460B
:103CB000B8F1000F22D04FF07C51384601F080F867
:103CC00049468046304601F07BF80146404600F008
:103CD0006DFF294601F074F8394600F067FF154979
:103CE0000546304601F06CF80146284600F060FFBA
:103CF0000146204600F05AFFBDE8F88301462846F9
:103D000001F05EF80B4900F051FF314601F058F820
:103D1000214600F04DFFBDE8F8832046BDE8F8835A
:103D2000D3C92E2F342FD7321BEF3836010D50391F
:103D30008988083CABAA2A3E2DE9F84FC04B21F0F8
:103D400000469E420D468A4604460FDDBD4B9E420C
:103D500000F3B28000F0AD80BB4BBC49BC4CBAF163
:103D6000000FC8BF19462046BDE8F88FB94B9E42E8
:103D700000F3BC80A3F1DE739E4240F3A7804FF0B6
:103D8000FF3B22462B462046294600F0D9FB02463F
:103D90000B468046894600F0D3FB91A3D3E900236C
:103DA00006460F4600F0CCFB8FA3D3E9002300F0BA
:103DB00015FA32463B4600F0C3FB8DA3D3E900233E
:103DC00000F00CFA32463B4600F0BAFB8AA3D3E976
:103DD000002300F003FA32463B4600F0B1FB88A313
:103DE000D3E9002300F0FAF932463B4600F0A8FB85
:103DF00085A3D3E9002300F0F1F942464B4600F0D9
:103E00009FFB83A3D3E90023804689463046394689
:103E100000F096FB80A3D3E9002300F0DDF93246E1
:103E20003B4600F08DFB7EA3D3E9002300F0D4F9DC
:103E300032463B4600F084FB7BA3D3E9002300F02D
:103E4000CBF932463B4600F07BFB79A3D3E9002354
:103E500000F0C2F932463B4600F072FBBBF1FF3F77
:103E600002460B4669D04046494600F0B7F9224663
:103E70002B4600F065FB784E784B4FEACB0B5E4447
:103E80009B44DBE9002300F0A7F922462B4600F013
:103E9000A3F902460B46D6E9000100F09DF9BAF1FC
:103EA000000F0446BFF65FAF01F100412046BDE8B8
:103EB000F88F00283FF450AF224620462B46294673
:103EC00000F08CF904462046BDE8F88F5AA3D3E9E8
:103ED000002300F083F90022614B00F0C1FD0028AF
:103EE0003FF44DAF29462046BDE8F88F00F0C2F8F8
:103EF0005C4B9E4204460D462FDCA3F550239E42A8
:103F000054DC02460B4600F069F90022544B00F0E5
:103F100063F9002206460F464FF0804320462946AB
:103F200000F05CF902460B463046394600F032FCA0
:103F30004FF0000B04460D4623E74046494600F08B
:103F40004DF922462B4600F0FBFA02460B4620466E
:103F5000294600F041F9044605E7434B9E421ADC2E
:103F60000022424B00F038F9002206460F463F4B34
:103F70002046294600F0E4FA0022394B00F02EF9E1
:103F800002460B463046394600F004FC4FF0020B67
:103F900004460D46F5E602460B460020344900F083
:103FA000F9FB4FF0030B04460D46EAE600222C4BCA
:103FB00000F012F9002206460F46294B20462946FA
:103FC00000F00CF902460B463046394600F0E2FBA1
:103FD0004FF0010B04460D46D3E600BFAFF300805F
:103FE00011DA22E33AAD903FEB0D76244B7BA93FEB
:103FF000513DD0A0660DB13F6E204CC5CD45B73FB9
:10400000FF8300922449C23F0D5555555555D53F64
:104010002F6C6A2C44B4A2BF9AFDDE522DDEAD3F58
:104020006D9A74AFF2B0B33F711623FEC671BC3FF8
:10403000C4EB98999999C93F9C7500883CE4377EF8
:10404000FFFF0F440000F07FFB21F93FFB21F9BF88
:10405000182D4454FFFFDB3F588F0008388F0008AD
:104060000000F03FFFFFF23FFF7F03400000F83FFA
:104070000000F0BF21F00041704700BF00207047F2
:1040800020F00040704700BF2DE9F04120F00047CC
:10409000FC0D7F3C162C054613DC002C80461BDBF8
:1040A000194F2741384214D0184900F081FD0021F2
:1040B00001F042F868B1002D1BDB28EA0700BDE8DB
:1040C000F081B7F1FF4F04D3014600F071FDBDE868
:1040D000F0812846BDE8F0810C4900F069FD00211F
:1040E00001F02AF80028F4D0002D08DB0020BDE8FC
:1040F000F0814FF4000343FA04F4A044DDE7002FFD
:10410000E7D00348BDE8F081FFFF7F00CAF24971A4
:10411000000080BF30F0004238B5034616D0B2F13F
:10412000FF4F0FD2B2F5000F0D4610D30446D20D4B
:104130002A44FE2A2EDC002A1DDD24F0FF4444EA36
:10414000C25038BD014600F033FD38BD38BD4FF0D8
:10415000984100F035FE184A9542034607DBC0F34C
:10416000C7520446193AE3E7144800F02BF8134904
:1041700000F026FE38BD12F1160F13DA4CF2503261
:1041800095421946F0DD0E4800F01CF80C4900F08D
:1041900017FE38BD19460A4800F014F8084900F027
:1041A0000FFE38BD193224F0FF4040EAC2504FF0F4
:1041B0004C5100F005FE38BDB03CFFFF6042A20D3F
:1041C000CAF2497101F0004120F0004008437047F5
:1041D00081F0004102E000BF83F0004330B54FEAB8
:1041E00041044FEA430594EA050F08BF90EA020F25
:1041F0001FBF54EA000C55EA020C7FEA645C7FEAB8
:10420000655C00F0E2804FEA5454D4EB5555B8BFDA
:104210006D420CDD2C4480EA020281EA030382EA4B
:10422000000083EA010180EA020281EA0303362DDD
:1042300088BF30BD11F0004F4FEA01314FF4801CB0
:104240004CEA113102D0404261EB410113F0004FC2
:104250004FEA03334CEA133302D0524263EB430379
:1042600094EA050F00F0A780A4F10104D5F1200E17
:104270000DDB02FA0EFC22FA05F2801841F1000172
:1042800003FA0EF2801843FA05F359410EE0A5F146
:1042900020050EF1200E012A03FA0EFC28BF4CF077
:1042A000020C43FA05F3C01851EBE37101F000452D
:1042B00007D54FF0000EDCF1000C7EEB00006EEB3A
:1042C0000101B1F5801F1BD3B1F5001F0CD34908C4
:1042D0005FEA30004FEA3C0C04F101044FEA44521B
:1042E00012F5800F80F09A80BCF1004F08BF5FEAA2
:1042F000500C50F1000041EB045141EA050130BD82
:104300005FEA4C0C404141EB010111F4801FA4F124
:104310000104E9D191F0000F04BF01460020B1FA79
:1043200081F308BF2033A3F10B03B3F120020CDAB1
:104330000C3208DD02F1140CC2F10C0201FA0CF08F
:1043400021FA02F10CE002F11402D8BFC2F1200CF4
:1043500001FA02F120FA0CFCDCBF41EA0C019040AA
:10436000E41AA2BF01EB0451294330BD6FEA0404F3
:104370001F3C1CDA0C340EDC04F11404C4F12002DE
:1043800020FA04F001FA02F340EA030021FA04F3F0
:1043900045EA030130BDC4F10C04C4F1200220FA47
:1043A00002F001FA04F340EA0300294630BD21FA85
:1043B00004F0294630BD94F0000F83F4801306BF4B
:1043C00081F480110134013D4EE77FEA645C18BF3F
:1043D0007FEA655C29D094EA050F08BF90EA020FD6
:1043E00005D054EA000C04BF1946104630BD91EACE
:1043F000030F1EBF0021002030BD5FEA545C05D1D1
:104400004000494128BF41F0004130BD14F580040F
:104410003CBF01F5801130BD01F0004545F0FE4183
:1044200041F470014FF0000030BD7FEA645C1ABFB8
:10443000194610467FEA655C1CBF0B46024650EAEF
:10444000013406BF52EA033591EA030F41F400211B
:1044500030BD00BF90F0000F04BF0021704730B5A1
:104460004FF4806404F132044FF000054FF0000176
:1044700050E700BF90F0000F04BF0021704730B537
:104480004FF4806404F1320410F0004548BF40420C
:104490004FF000013EE700BF42004FEAE2014FEA61
:1044A00031014FEA02701FBF12F07F4393F07F4F3C
:1044B00081F06051704792F0000F14BF93F07F4F6E
:1044C000704730B54FF4607401F0004521F00041B1
:1044D00020E700BF50EA010208BF704730B54FF037
:1044E00000050AE050EA010208BF704730B511F03C
:1044F000004502D5404261EB41014FF4806404F174
:1045000032045FEA915C3FF4DCAE4FF003025FEAF5
:10451000DC0C18BF03325FEADC0C18BF033202EB7D
:10452000DC02C2F1200300FA03FC20FA02F001FAD7
:1045300003FE40EA0E0021FA02F11444C1E600BF76
:1045400070B54FF0FF0C4CF4E06C1CEA11541DBF29
:104550001CEA135594EA0C0F95EA0C0F00F0DEF8F4
:104560002C4481EA030621EA4C5123EA4C5350EAD9
:10457000013518BF52EA033541F4801143F480132A
:1045800038D0A0FB02CE4FF00005E1FB02E506F0BB
:104590000042E0FB03E54FF00006E1FB03569CF010
:1045A000000F18BF4EF0010EA4F1FF04B6F5007F16
:1045B00064F5407404D25FEA4E0E6D4146EB060688
:1045C00042EAC62141EA55514FEAC52040EA5E5011
:1045D0004FEACE2EB4F1FD0C88BFBCF5E06F1ED8BB
:1045E000BEF1004F08BF5FEA500E50F1000041EBF2
:1045F000045170BD06F0004646EA010140EA02009F
:1046000081EA0301B4EB5C04C2BFD4EB0C0541EAC0
:10461000045170BD41F480114FF0000E013C00F3D5
:10462000AB8014F1360FDEBF002001F0004170BDF9
:10463000C4F10004203C35DA0C341BDC04F1140412
:10464000C4F1200500FA05F320FA04F001FA05F29E
:1046500040EA020001F0004221F0004110EBD3706B
:1046600021FA04F642EB06015EEA430E08BF20EA97
:10467000D37070BDC4F10C04C4F1200500FA04F33A
:1046800020FA05F001FA04F240EA020001F00041CC
:1046900010EBD37041F100015EEA430E08BF20EA3F
:1046A000D37070BDC4F1200500FA05F24EEA020E87
:1046B00020FA04F301FA05F243EA020321FA04F0B6
:1046C00001F0004121FA04F220EA020000EBD3706D
:1046D0005EEA430E08BF20EAD37070BD94F0000F6D
:1046E0000FD101F00046400041EB010111F4801FA1
:1046F00008BF013CF7D041EA060195F0000F18BF52
:10470000704703F00046520043EB030313F4801F8D
:1047100008BF013DF7D043EA0603704794EA0C0F47
:104720000CEA135518BF95EA0C0F0CD050EA41065D
:1047300018BF52EA4306D1D181EA030101F00041DA
:104740004FF0000070BD50EA410606BF1046194602
:1047500052EA430619D094EA0C0F02D150EA01360E
:1047600013D195EA0C0F05D152EA03361CBF10464F
:1047700019460AD181EA030101F0004141F0FE41EE
:1047800041F470014FF0000070BD41F0FE4141F472
:10479000780170BD70B54FF0FF0C4CF4E06C1CEA72
:1047A00011541DBF1CEA135594EA0C0F95EA0C0F27
:1047B00000F0A7F8A4EB050481EA030E52EA0335E2
:1047C0004FEA013100F088804FEA03334FF0805503
:1047D00045EA131343EA12634FEA022245EA111530
:1047E00045EA10654FEA00260EF000419D4208BFE1
:1047F000964244F1FD0404F5407402D25B084FEA8E
:104800003202B61A65EB03055B084FEA32024FF439
:1048100080104FF4002CB6EB020E75EB030E22BF96
:10482000B61A754640EA0C005B084FEA3202B6EB56
:10483000020E75EB030E22BFB61A754640EA5C0005
:104840005B084FEA3202B6EB020E75EB030E22BF95
:10485000B61A754640EA9C005B084FEA3202B6EB96
:10486000020E75EB030E22BFB61A754640EADC0055
:1048700055EA060E18D04FEA051545EA16754FEAB7
:1048800006164FEAC30343EA52734FEAC2025FEAD5
:104890001C1CC0D111F4801F0BD141EA00014FF064
:1048A00000004FF0004CB6E711F4801F04BF014335
:1048B0000020B4F1FD0C88BFBCF5E06F3FF6AFAE51
:1048C000B5EB030C04BFB6EB020C5FEA500C50F1E1
:1048D000000041EB045170BD0EF0004E4EEA113164
:1048E00014EB5C04C2BFD4EB0C0541EA045170BD6B
:1048F00041F480114FF0000E013C90E645EA060EAF
:104900008DE60CEA135594EA0C0F08BF95EA0C0FDC
:104910003FF43BAF94EA0C0F0AD150EA01347FF424
:1049200034AF95EA0C0F7FF425AF104619462CE7FB
:1049300095EA0C0F06D152EA03353FF4FDAE10465E
:10494000194622E750EA410618BF52EA43067FF4AF
:10495000C5AE50EA41047FF40DAF52EA43057FF43F
:10496000EBAE12E74FF0FF3C06E000BF4FF0010C4A
:1049700002E000BF4FF0010C4DF804CD4FEA410CAE
:104980007FEA6C5C4FEA430C18BF7FEA6C5C1BD07B
:1049900001B050EA410C0CBF52EA430C91EA030FFC
:1049A00002BF90EA020F0020704710F1000F91EA59
:1049B000030F58BF994208BF90422CBFD8176FEA27
:1049C000E37040F0010070474FEA410C7FEA6C5CF5
:1049D00002D150EA013C07D14FEA430C7FEA6C5CFC
:1049E000D6D152EA033CD3D05DF8040B704700BF28
:1049F0008446104662468C461946634600E000BF76
:104A000001B5FFF7B7FF002848BF10F1000F01BD47
:104A10004DF808EDFFF7F4FF0CBF012000205DF812
:104A200008FB00BF4DF808EDFFF7EAFF34BF012097
:104A300000205DF808FB00BF4DF808EDFFF7E0FF30
:104A400094BF012000205DF808FB00BF4DF808ED81
:104A5000FFF7CEFF94BF012000205DF808FB00BFE8
:104A60004DF808EDFFF7C4FF34BF012000205DF8CA
:104A700008FB00BF4FEA410212F5001215D211D512
:104A80006FF47873B3EB625212D94FEAC12343F04B
:104A9000004343EA505311F0004F23FA02F018BFCD
:104AA000404270474FF00000704750EA013005D196
:104AB00011F0004008BF6FF0004070474FF0000059
:104AC000704700BF4A0011D212F5001211D20DD565
:104AD0006FF47873B3EB62520ED44FEAC12343F004
:104AE000004343EA505323FA02F070474FF00000AE
:104AF000704750EA013002D14FF0FF3070474FF05D
:104B0000000070474FEA4102B2F1E04324BFB3F521
:104B1000001CDCF1FE5C0DD901F0004C4FEAC00234
:104B20004CEA5070B2F1004F40EB830008BF20F018
:104B30000100704711F0804F21D113F13872BCBFD2
:104B400001F00040704741F480114FEA5252C2F127
:104B50001802C2F1200C10FA0CF320FA02F018BF70
:104B600040F001004FEAC1234FEAD32303FA0CFCC3
:104B700040EA0C0023FA02F34FEA4303CCE77FEA52
:104B8000625307D150EA01331EBF4FF0FE4040F49C
:104B90004000704701F0004040F0FE4040F400004B
:104BA000704700BF80F0004002E000BF81F000418C
:104BB00042001FBF5FEA410392EA030F7FEA226CC3
:104BC0007FEA236C6AD04FEA1262D2EB1363C1BF53
:104BD000D218414048404140B8BF5B42192B88BFC2
:104BE000704710F0004F40F4000020F07F4018BFE5
:104BF000404211F0004F41F4000121F07F4118BF05
:104C0000494292EA030F3FD0A2F1010241FA03FCAC
:104C100010EB0C00C3F1200301FA03F100F0004394
:104C200002D5494260EB4000B0F5000F13D3B0F15C
:104C3000807F06D340084FEA310102F10102FE2ACB
:104C400051D2B1F1004F40EBC25008BF20F001003B
:104C500040EA03007047490040EB000010F4000FE9
:104C6000A2F10102EDD1B0FA80FCACF1080CB2EB7C
:104C70000C0200FA0CF0AABF00EBC25052421843DB
:104C8000BCBFD0401843704792F0000F81F4000180
:104C900006BF80F400000132013BB5E74FEA410353
:104CA0007FEA226C18BF7FEA236C21D092EA030FBF
:104CB00004D092F0000F08BF0846704790EA010F39
:104CC0001CBF0020704712F07F4F04D1400028BF66
:104CD00040F00040704712F100723CBF00F5000048
:104CE000704700F0004343F0FE4040F4000070477E
:104CF0007FEA226216BF08467FEA2363014642022A
:104D000006BF5FEA412390EA010F40F4800070473C
:104D10004FF0000304E000BF10F0004348BF4042E2
:104D20005FEA000C08BF704743F0964301464FF01E
:104D300000001CE050EA010208BF70474FF000037A
:104D40000AE000BF50EA010208BF704711F00043BB
:104D500002D5404261EB41015FEA010C02BF84468B
:104D60000146002043F0B64308BFA3F18053A3F5EA
:104D70000003BCFA8CF2083AA3EBC25310DB01FA31
:104D800002FC634400FA02FCC2F12002BCF1004FB5
:104D900020FA02F243EB020008BF20F00100704746
:104DA00002F1200201FA02FCC2F1200250EA4C009A
:104DB00021FA02F243EB020008BF20EADC707047E0
:104DC0004FF0FF0C1CEAD0521EBF1CEAD15392EAEE
:104DD0000C0F93EA0C0F6FD01A4480EA010C4002CA
:104DE00018BF5FEA41211ED04FF0006343EA501024
:104DF00043EA5111A0FB01310CF00040B1F5000F66
:104E00003EBF490041EAD3715B0040EA010062F114
:104E10007F02FD2A1DD8B3F1004F40EBC25008BFFE
:104E200020F00100704790F0000F0CF0004C08BF1C
:104E300049024CEA502040EA51207F3AC2BFD2F1E9
:104E4000FF0340EAC250704740F400004FF00003F7
:104E5000013A5DDC12F1190FDCBF00F00040704731
:104E6000C2F10002410021FA02F1C2F1200200FA6F
:104E700002FC5FEA310040F1000053EA4C0308BF36
:104E800020EADC70704792F0000F00F0004C02BF87
:104E9000400010F4000F013AF9D040EA0C0093F002
:104EA000000F01F0004C02BF490011F4000F013B5C
:104EB000F9D041EA0C018FE70CEAD15392EA0C0FCA
:104EC00018BF93EA0C0F0AD030F0004C18BF31F035
:104ED000004CD8D180EA010000F00040704790F00B
:104EE000000F17BF90F0004F084691F0000F91F0AF
:104EF000004F14D092EA0C0F01D142020FD193EA75
:104F00000C0F03D14B0218BF084608D180EA0100FC
:104F100000F0004040F0FE4040F40000704740F0D8
:104F2000FE4040F4400070474FF0FF0C1CEAD052A6
:104F30001EBF1CEAD15392EA0C0F93EA0C0F69D002
:104F4000A2EB030280EA010C49024FEA402037D06D
:104F50004FF0805343EA111143EA10130CF0004064
:104F60008B4238BF5B0042F17D024FF4000C8B4254
:104F700024BF5B1A40EA0C00B3EB510F24BFA3EB34
:104F8000510340EA5C00B3EB910F24BFA3EB910304
:104F900040EA9C00B3EBD10F24BFA3EBD10340EA5E
:104FA000DC001B0118BF5FEA1C1CE0D1FD2A3FF6A4
:104FB00050AF8B4240EBC25008BF20F00100704759
:104FC0000CF0004C4CEA50207F32C2BFD2F1FF03FC
:104FD00040EAC250704740F400004FF00003013A2D
:104FE00037E792F0000F00F0004C02BF400010F4D1
:104FF000000F013AF9D040EA0C0093F0000F01F0E5
:10500000004C02BF490011F4000F013BF9D041EA06
:105010000C0195E70CEAD15392EA0C0F08D1420239
:105020007FF47DAF93EA0C0F7FF470AF084676E70C
:1050300093EA0C0F04D14B023FF44CAF08466EE7E5
:1050400030F0004C18BF31F0004CCAD130F00042B3
:105050007FF45CAF31F000437FF43CAF5FE700BF0B
:105060004FF0FF3C06E000BF4FF0010C02E000BF34
:105070004FF0010C4DF804CD4FEA40024FEA4103D6
:105080007FEA226C18BF7FEA236C11D001B052EA8C
:10509000530C18BF90EA010F58BFB2EB030088BF52
:1050A000C81738BF6FEAE17018BF40F001007047C1
:1050B0007FEA226C02D15FEA402C05D17FEA236CA3
:1050C000E4D15FEA412CE1D05DF8040B704700BFEA
:1050D000844608466146FFE70FB5FFF7C9FF002881
:1050E00048BF10F1000F0FBD4DF808EDFFF7F4FFBA
:1050F0000CBF012000205DF808FB00BF4DF808ED53
:10510000FFF7EAFF34BF012000205DF808FB00BF75
:105110004DF808EDFFF7E0FF94BF012000205DF897
:1051200008FB00BF4DF808EDFFF7D2FF94BF012048
:1051300000205DF808FB00BF4DF808EDFFF7C8FF41
:1051400034BF012000205DF808FB00BF4FEA400299
:105150004FEA41037FEA226C02D15FEA402C08D17A
:105160007FEA236C02D15FEA412C02D14FF00000AC
:1051700070474FF0010070474FEA4002B2F1FE4F16
:105180000FD34FF09E03B3EB12620DD94FEA002309
:1051900043F0004310F0004F23FA02F018BF4042E2
:1051A00070474FF00000704712F1610F01D14202C9
:1051B00005D110F0004008BF6FF0004070474FF07D
:1051C00000007047002101F0CDBB00BF014B186803
:1051D000704700BF680000200000000000000000D1
:1051E000A2EB0300704700BF02780B78012A28BFAA
:1051F0009A42F5D16DE9044540EA0104CDE9026720
:105200006FF0000C4FEA447212B380EA010414F00C
:10521000070F6AD100F0070420F0070004F003052F
:1052200021F007014FEAC505F0E8042314F0040F4C
:10523000F1E804670CFA05F462EA040266EA04067F
:105240000AD063EA0403624667EA0407664603E09D
:10525000F0E80423F1E8046782FA4CF582EA0604D8
:10526000A4FA8CF46CBB83FA4CF583EA0705A5FA23
:105270008CF595B950E9022351E9026782FA4CF5A1
:1052800082EA0604A4FA8CF483FA4CF583EA070553
:10529000A5FA8CF52543DBD09CB92DBAB5FA85F477
:1052A00024F0070427FA04F1DDE9026723FA04F386
:1052B00003F0FF0001F0FF01FDE80445A0EB010051
:1052C000704724BAB4FA84F424F0070426FA04F1EF
:1052D000DDE9026722FA04F202F0FF0001F0FF01AB
:1052E000FDE80445A0EB0100704714F0030F3CD12A
:1052F00010F0030428D150F8082B51F8083B82FA2B
:105300004CF582EA0305A5FA8CF55DB950F8042C3A
:1053100051F8043C82FA4CF582EA0305A5FA8CF5B3
:10532000002DE8D02DBAB5FA85F424F0070423FA4D
:1053300004F122FA04F202F0FF0001F0FF01FDE89F
:105340000445A0EB010070474FEAC40420F00300BD
:1053500050F8082B21F0030151F8083B0CFA04F433
:1053600062EA040263EA0403C9E710F003041AD0F6
:10537000A1EB040120F00300E40750F8042B06D051
:105380000FD28B785FFAA2F4E41A06D12BB1CB7856
:105390005FFAB2F4E41A00D11BB920465DF8104B55
:1053A000704701F1040150F8042BCC0721F00301F0
:1053B00051F8043B48D824D222F07F4482FA4CF5BD
:1053C00094EA1325A5FA8CF50AD165B951F8043B86
:1053D00084EA0204B4EB036F0ED150F8042BEBE720
:1053E0004FEA132355E035F07F454DD10878FDE8AD
:1053F0000445C0F1000070474FEA126203F0FF035A
:1054000047E002EA1C4482FA4CF594EA1345A5FAF7
:105410008CF50AD165B951F8043B84EA0204B4EB77
:10542000034F0CD150F8042BEBE74FEA134330E065
:1054300015EA1C4528D10B884FEA124229E04FEAB1
:10544000124203EA1C4324E002F0FF0482FA4CF506
:1054500094EA1365A5FA8CF50AD165B951F8043BB5
:1054600084EA0204B4EB032F09D150F8042BEBE7D4
:105470004FEA13630DE015F0FF0F05D10B684FEAFB
:10548000122223F07F4304E04FF00000FDE80445C2
:10549000704712BA1BBA82FA4CF482EA0304A4FAE7
:1054A0008CF5B5FA85F402FA04F203FA04F34FEA34
:1054B0001260FDE80445A0EB1360704780EA01022A
:1054C000844612F0030F4FD111F0030F32D14DF883
:1054D000044D11F0040F51F8043B0BD0A3F101323D
:1054E0009A4312F0803F04BF4CF8043B51F8043B50
:1054F00016D100BF51F8044BA3F101329A4312F0C8
:10550000803FA4F101320BD14CF8043BA24312F0CE
:10551000803F04BF51F8043B4CF8044BEAD02346CB
:105520000CF8013B13F0FF0F4FEA3323F8D15DF87D
:10553000044B704711F0010F06D011F8012B0CF845
:10554000012B002A08BF704711F0020FBFD031F8BD
:10555000022B12F0FF0F16BF2CF8022B8CF8002044
:1055600012F47F4FB3D1704711F8012B0CF8012BC7
:10557000002AF9D1704700BF2DE9F0414FF0010E2C
:10558000744600254FF0FF362B198B4200EB0607BF
:105590000DD23F5D10F803C0BC452DD21D4601243D
:1055A000C6EB030E2B198B4200EB0607F1D34FF02D
:1055B0000108C2F800E0444600254FF0FF372B19E0
:1055C000994200EB070E0ED91EF804E010F803C054
:1055D000F44518D91D460124C7EB03082B1999423D
:1055E00000EB070EF0D80137701C874224BFC2F8C9
:1055F00000803846BDE8F0810CD04FF0010E2E46F9
:1056000074467544C0E70CD04FF001082F4644465D
:105610004544D4E7744509BFA64601341D4601241C
:10562000B2E7444509BFA04601341D460124C6E740
:105630002DE9F04FADF2144D164605468B46104647
:10564000194603AA1C46FFF797FF03AB81460DF2EC
:105650000C4243F8044F9342FBD14CB1631E3246D7
:1056600004A812F8011B40F8213013F1FF33F8D2DF
:1056700003994A463144304601F0C2FD002871D1F9
:1056800009F1FF330093F3188246019323468046C5
:10569000544658469A4608EB0A073A1A002128440D
:1056A00001F05EFD002858D1002F56D0EB1904AA56
:1056B00013F8013C52F823304BB124B1039A9342C2
:1056C00001D2C2EB0A03984400243846E3E74C4574
:1056D00023460AF1FF3E38BF4B46734513D208EB11
:1056E000030216F803C0A85C84452A4406EB0301B4
:1056F00006D02EE011F801CF12F8010F844528D111
:1057000001337345F6D34C45009980F08B80009BA4
:10571000019808EB03020378A85C83422A4440F016
:105720008180019B06EB040B06E013F801ED12F8F3
:10573000010D864504D161469B4501F1FF3CF4D142
:1057400001348C4270D8039C3846A044C4EB0A0450
:10575000A1E7C9F101029044B5E700200DF2144D14
:10576000BDE8F08FC9EB04034B4538BF4B4601330E
:1057700009F1FF38039306EB080358464FF0000A7F
:10578000CB4699460AEB04073A1A0021284401F057
:10579000E7FC0028E1D1002FDFD0EB1904AA13F8B1
:1057A000013C52F82330A3BB611E8B4515D20AEB96
:1057B0000B0216F80B3015F802E09E452A4406EB62
:1057C0000B005B4606D027E010F801CF12F801EF7E
:1057D000F44521D101338B42F6D3B8F1FF3F11D00C
:1057E0000AEB080299F80010AB5C99422A440FD1E9
:1057F0004B4605E013F8010D12F8011D884207D150
:10580000B342F7D105EB0A000DF2144DBDE8F08F5D
:10581000039B9A443846B5E7CBF1010292449A447F
:105820003846AFE749468BE705EB080096E700BF2F
:105830000378002B00F004812DE9F04F91F80080EF
:1058400085B04446B8F1000F16D0864601F1010C30
:10585000012703E012F8014B6CB194469C4214BF3F
:10586000002707F001071EF8013F6246002BF1D127
:105870009CF800300BBB17B105B0BDE8F08F0E46A9
:10588000054641460130C6EB0C0402F0E7F9074635
:1058900098B1012CF0D02819874294BFC7EB000BB8
:1058A0004FF0010B1F2C0CD923463246594638467F
:1058B000FFF7BEFE05B0BDE8F08F002005B0BDE8E3
:1058C000F08F03AA21463046FFF756FE0399804623
:1058D00002463144304601F093FC002858D108F1CB
:1058E000FF330193F3188146054600935846B246AC
:1058F0006619321A0021384401F032FC0028DCD14C
:10590000002EDAD0C845434638BF4B469C4212D9D8
:105910005A191AF80310B85C88423A440AEB030E8D
:1059200006D02DE01EF8010F12F8011F884227D182
:1059300001339C42F6D8019BC845194640F283804A
:10594000EA1800980378B85C83423A447BD1009B04
:105950000AEB090B06E013F801CD12F801EDF4454E
:1059600004D101465B4501F1FF30F4D109F1010991
:10597000894557D8039B30461D44C3EB0409B7E75C
:10598000C8F1010215441D444FF000093046AFE74D
:10599000C8EB0403434538BF4346013308F1FF39E0
:1059A000039306EB090358460025BB469A46671940
:1059B0003A1A0021584401F0D3FB00287FF47DAF50
:1059C000002F3FF47AAF444515D908EB050216F8CD
:1059D00008301BF8020098425A4406EB080143467F
:1059E00006D023E011F801EF12F8010F86451DD112
:1059F00001339C42F6D8B9F1FF3F12D005EB090202
:105A00009AF800101BF8023099425A4414D15346B8
:105A100005E013F8010D12F8011D88420CD1B342C4
:105A2000F7D15F46781905B0BDE8F08FC8F10102E3
:105A300015441D443846BAE7039B38461D44B6E773
:105A40000B7813B97047414690E70020704700BFBC
:105A50002DE9F0410F46904601F09CFF04460D46AB
:105A6000B8F1000F11D0C7F30A53C3F16B03002B39
:105A70000BDD1B0503F17F55002405F5401522467B
:105A80002B46FEF75DFDBDE8F08120462946BDE8C6
:105A9000F08100BF000000002DE9F04F9FB00E46DE
:105AA000002105921A9100220021CDE902121996D7
:105AB000834633461A4613F8017B2D2F00F2EE8001
:105AC000DFE817F02E00EC00EC00EC00EC00EC003E
:105AD000EC00EC00EC00DB00DB00DB00DB00DB00BB
