:020000040800F2
:1000000010680020011C0008611C0008611C000829
:10001000611C0008611C0008611C00080000000051
:10002000000000000000000000000000611C00084B
:10003000611C000800000000250B0008750B00087B
:10004000611C0008611C0008611C0008611C00089C
:10005000611C0008611C0008611C0008611C00088C
:10006000611C0008611C0008611C0008611C00087C
:10007000611C0008611C0008611C0008611C00086C
:10008000611C0008611C0008611C0008611C00085C
:10009000611C0008611C0008611C0008611C00084C
:1000A000611C0008611C0008611C0008611C00083C
:1000B000611C0008611C0008611C0008611C00082C
:1000C000611C0008611C0008611C0008611C00081C
:1000D000611C0008611C0008411A0008611C00082E
:1000E000611C0008611C0008611C0008611C0008FC
:1000F000611C0008611C0008611C0008611C0008EC
:10010000611C0008611C0008611C0008611C0008DB
:10011000611C0008611C0008611C0008611C0008CB
:10012000611C0008611C0008611C0008611C0008BB
:10013000611C0008611C0008611C0008611C0008AB
:10014000611C0008611C0008611C0008611C00089B
:10015000611C0008611C0008611C0008611C00088B
:10016000611C0008611C0008611C0008611C00087B
:10017000611C0008611C0008611C0008611C00086B
:10018000611C0008611C000830B585B0684601F0AC
:1001900041FF00981E4B186004F0EEFF00221D4B3B
:1001A00005F060F804460D4600221B4B05F084F96B
:1001B00000221A4B05F056F805F016FB184B186094
:1001C0000FA3D3E900232046294605F075F9002244
:1001D000124B05F047F805F007FB124B18600AA315
:1001E000D3E900232046294605F066F900220B4B8F
:1001F00005F038F805F0F8FA0B4B186005B030BD83
:10020000000000000094C14000000000882A614105
:10021000B80B00200000F43F000022400000E03F47
:10022000BC0B0020CC0B0020C00B002084B0019040
:10023000019B93B10A4B1A6800210391039B9342DF
:1002400005D2039B01330393039B9342F9D3019B94
:10025000013B0193019B002BEFD104B0704700BF1D
:10026000C00B002084B00190019B93B10A4B1A6827
:1002700000210391039B934205D2039B0133039317
:10028000039B9342F9D3019B013B0193019B002BFC
:10029000EFD104B0704700BFCC0B0020124B1B788D
:1002A00003BB124B1B78EBB9E0B170B5044600F00C
:1002B00089F80F4B1A6892F8381092F839600D4D92
:1002C0006B5C23EA06036B5433B90B4992F83A503E
:1002D0000B7823EA05030B70146300F075F802F045
:1002E00091FB70BD704700BF404E0020D84C0020ED
:1002F000444E0020344E0020304E0020F0B585B032
:10030000C2F57E43FB335B1A1B1A9BB27E248DF829
:100310000440FF248DF8054006248DF806408DF832
:10032000070000208DF808008DF809108DF80A20CC
:100330001A0A8DF80B208DF80C30EF238DF80D3054
:1003400001AE0DF10E078025074C2946204600F02E
:10035000CFFC0028F9D016F8011B204600F0A8FCBD
:10036000BE42F2D105B0F0BD0010014008B5024612
:1003700000210620FFF7C2FF08BD00BF08B500221C
:1003800011460C20FFF7BAFF4FF4FA70FFF76AFF2F
:1003900008BD00BF08B5FFF7F1FF002211463F205E
:1003A000FFF7ACFF4FF47A70FFF75CFF0C20FFF70C
:1003B000DDFF08BD08B5C2B200210320FFF79EFF94
:1003C00008BD00BF72B6704762B6704772B60E487D
:1003D000FF210170002080F309880C48016881F337
:1003E00008880B48012101700A484FF080510160D4
:1003F00062B6FEE707484FF080510160704705483C
:100400004FF080510160704722ED00E0D80B0020D2
:10041000DA4C002004ED00E0F0B587B001214FF484
:10042000000001F057FE02238DF8043001248DF8FE
:1004300006408DF8074003238DF8053021462046FD
:1004400001F03AFE2146042001F036FE1C4F042242
:100450000821384602F000FC1A4E042209213046D9
:1004600002F0FAFB06AD4FF4807345F8183D2946BB
:10047000384602F09FFB4FF4007300932946304644
:1004800002F098FB104B02934FF48043ADF8143008
:100490000023ADF80C30ADF810404FF48063ADF898
:1004A00012304BF6FF73ADF80E30084D02A9284606
:1004B00002F088FE2146284602F0F4FE07B0F0BDA7
:1004C0000000024000080240A0860100005C0040DD
:1004D0002DE9F8430546884617469946012102F062
:1004E000EFFE284A284B1A60284E1C4603E0013BC9
:1004F0002360002B3DD03146284602F029FF10B979
:100500002368002BF3D1B9F1000F03D00121284655
:1005100002F0FCFE3A464146284602F0EDFE8FB955
:10052000184A194B1A601A4E1C4602E0013B236020
:1005300013B33146284602F00BFFB0B92368002BF5
:10054000F4D112E0012F10D10E4A0F4B1A60114E58
:100550001C4602E0013B23608BB13146284602F085
:10056000E9FE10B92368002BF4D12B8B0020BDE8E5
:10057000F8830120BDE8F8830220BDE8F88303205A
:10058000BDE8F883400D0300D40B002001000010EB
:100590000200001002000300F8B505460F460A4AA3
:1005A0000A4B1A600A4E1C4601E0013B23603146AB
:1005B000284602F0CDFE10B92368002BF5D139464C
:1005C000284602F0B1FEF8BD400D0300D40B002018
:1005D00080000010F8B505460F4A104B1A60104E07
:1005E000104F1C4602E0013B236093B13146284680
:1005F00002F0AEFE20B13946284602F0A9FE10B93D
:100600002368002BEFD10121284602F067FE00206D
:10061000F8BD0120F8BD00BF400D0300D40B002041
:10062000800000100400001070B5044616461D46F8
:1006300000231A46FFF74CFF31462046FFF7ACFF78
:1006400029462046FFF7A8FF2046FFF7C3FF70BDED
:1006500070B50546012102F059FE0A4A0A4B1A609C
:100660000A4E1C4601E0013B23603146284602F059
:1006700061FE10B92368002BF5D1284602F056FE22
:1006800070BD00BF400D0300D40B002040000300EC
:1006900070B50546002102F039FE0121284602F01E
:1006A0001DFE0A4A0A4B1A600A4E1C4601E0013B35
:1006B00023603146284602F03DFE10B92368002B26
:1006C000F5D1284602F032FE70BD00BF400D030098
:1006D000D40B00204000030070B504460D461646BA
:1006E00000231A46FFF7F4FE31462046FFF754FF79
:1006F0002046FFF76FFF0023012229462046FFF71F
:10070000E7FE2046FFF7C4FF70BD00BF2DE9F041B2
:1007100005460C4690461F46BDF81860012300228E
:10072000FFF7D6FE41462846FFF736FF2846FFF77B
:1007300051FF01231A4621462846FFF7C9FE96B10C
:10074000002406F1FF38444504D12846FFF7A0FFF6
:10075000385503E02846FFF77BFF38550134E4B2F3
:10076000A3B2B342EFD3BDE8F08100BF70B584B04F
:100770000121082001F0A0FC4023029300268DF8FF
:100780000C6002258DF80F50084C02A9204602F09B
:1007900011FA802300938DF804608DF807506946A4
:1007A000204602F007FA04B070BD00BF000C024002
:1007B000F0B585B01F4801F017F91F4801F014F992
:1007C0001E4C1F4D1F4F4021204602F03BFA0128CE
:1007D00012D10DF10F06334601220621286800F0E0
:1007E00049FC0096002382224FF47041286800F0F3
:1007F000C5FC384601F0F8F88021204602F022FAC4
:10080000012812D10DF10F06334601225521286827
:1008100000F030FC0096002382224FF470412868DB
:1008200000F0ACFC384601F0DFF81E20FFF736FD83
:10083000C9E700BF409500084C950008000C024035
:10084000CC4C00205C95000800B583B0012102204B
:1008500001F032FC4FF48073009301238DF80430D3
:1008600002238DF8053000238DF806308DF807300F
:100870006946034802F09EF903B05DF804FB00BF2F
:1008800000080240B8B1F8B504460B4F4FF480762B
:100890004FF48C753146384602F0DCF92846FFF7F4
:1008A000C5FC3146384602F0D3F92846FFF7BEFCB6
:1008B000013CEFD1F8BD70470008024040F22B1315
:1008C000013B9BB2002BFBD110B501F0A3F8034C08
:1008D0000021204601F068F9204610BD20090020C3
:1008E00040F22B13013B9BB2002BFBD110B5034C04
:1008F0000021204601F058F9204610BD4C0A002086
:10090000F0B583B005460F4801F084F86C1E02353F
:100910000D4F0E4E14F8012F0F2A94BF3146394661
:1009200001A801F017FE01A801F074F8AC42F1D162
:10093000074801F06FF8FFF7D3FF01F055F803B057
:10094000F0BD00BF90950008A4950008A095000890
:10095000F096000808B5024801F05CF808BD00BF39
:10096000A895000870B51A4E1A4D1B4C304601F080
:100970003BF8FFF7EFFF4FF4FA70FFF773FC2846E0
:10098000FFF79CFF01F030F82046FFF797FF01F0DA
:100990002BF81248FFF792FF01F026F81048FFF7F6
:1009A0008DFF01F021F86420FFF75CFC0D48FFF794
:1009B00085FF01F019F840F2DC50FFF753FCFFF718
:1009C0008FFF094905F0C0FA0028CFD170BD00BFE4
:1009D000F0960008B4950008E89500080C96000809
:1009E000309600083C9600084C96000870B58AB016
:1009F0004FF40055089501238DF8243000268DF81A
:100A000026608DF8276002238DF82530114C08A947
:100A1000204602F0CFF82946204602F019F929466F
:100A2000204602F017F94FF4FA70FFF71BFC294635
:100A3000204602F00DF93146684601F0B5F8064847
:100A400000F0D2FF684600F0CFFFFFF78BFF0AB03F
:100A500070BD00BF0004024058960008064B0021FC
:100A600003F5007243F8041B9342FBD1034B23F0C0
:100A70000703034A13607047DC0B0020DC0D0020E5
:100A8000D80B0020704700BF704700BF704700BF01
:100A9000704700BF704700BF043222F007024FF0DA
:100AA000807342F8043C42F8080C1B4B42F80C3CA3
:100AB0004FF0123342F8103C4FF0033342F8143C2D
:100AC0004FF0023342F8183C4FF0013342F81C3C1F
:100AD00042F8201C4FF0113342F8243C4FF0103301
:100AE00042F8283C4FF0093342F82C3C4FF00833D1
:100AF00042F8303C4FF0073342F8343C4FF00633B5
:100B000042F8383C4FF0053342F83C3C10464FF079
:100B1000043340F8403D7047612F0008704700BF24
:100B2000704700BF72B6EFF3098028B1203880E823
:100B3000F00F0C49096808600B480C490A780270EC
:100B400008480B490A680260106890E8F00F2030EE
:100B500080F309884EF0040E7FF0020E62B67047F3
:100B600070470000444E0020344D0020E04C00202F
:100B7000284E002008B572B600B5FFF723FC084ADE
:100B8000137801331370FFF71FFC01F071FD01F0C2
:100B900011FD5DF804EB4EF0040E62B608BD00BF17
:100BA000404E00200138084B1860084A136823F0B3
:100BB0007F431360064B1A6842F005021A601A68F8
:100BC00042F002021A60704714E000E020ED00E0FD
:100BD00010E000E030B585B004460D46038A9BB2B4
:100BE00023F44053CA881343038283899BB223F4BE
:100BF000B05323F00C0289882B890B4369890B437E
:100C00009BB213438381838A9BB223F44073AA89E6
:100C100013438382684601F0FDF91C4B9C4203D0CC
:100C200003F580639C4201D1039B00E0029BA289F3
:100C300012F4004F03EB830303EB8303296814BF13
:100C400049008900B3FBF1F1114BA3FB01235809C3
:100C50000501642300FB1313A28912F4004F09D08D
:100C6000D90032310A4AA2FB0131C1F3421242EAF1
:100C7000050307E01B013233054AA2FB0323C3F33C
:100C800043132B439BB2238105B030BD00100140BC
:100C90001F85EB5129B183899BB243F400538381B3
:100CA0007047838923F400531B041B0C8381704716
:100CB000C1F308018180704710B4C1F3421401F000
:100CC0001F01012303FA01F19C4201D10C3003E022
:100CD000022C0CBF103014301AB1036819430160A4
:100CE00003E0036823EA0101016010BC704700BF04
:100CF0000388194214BF01200020704710B4C1F3CB
:100D0000421201F01F040123A340012A03D182896A
:100D100092B2134005E0022A0CBF028A828A92B284
:100D20001340028892B243B1090A012303FA01F188
:100D30000A4214BF1846002000E0002010BC704793
:100D4000090A012303FA01F1C94389B201807047FE
:100D50002DE9F04F85B0564800F046FE554800F0AA
:100D600043FE4FF0000B544F0026DFF88081DFF880
:100D70008091DFF880A10DF10F020021386802F0A8
:100D8000C3FB04468368092B08DC4C4800F02CFEAA
:100D900002F034FB0320FFF70DFBECE701F028F82D
:100DA0000546E06804F04AFE0146284604F090FD3E
:100DB0000546314605F034F840B1414800F014FED4
:100DC00005F1004005F06AF800F0CCFE31462846F7
:100DD00005F044F838B13B4800F006FE284605F01F
:100DE00083F800F0BFFE384800F0FEFD414628467B
:100DF00005F016F850B15146284605F02FF828B1F5
:100E0000324800F0F1FD4FF0010B1EE0414628464C
:100E100005F024F850B14946284605F001F828B1FC
:100E20002B4800F0E1FD4FF0050B0EE04946284647
:100E300005F014F848B12749284604F0F1FF20B125
:100E4000254800F0D1FD4FF0020B244B18680DF13E
:100E50000F0300930223832240F6FF7100F08EF906
:100E60009DF80F30C3B9552808D11D4800F0BCFDCE
:100E7000022323745846FFF79DFA04E0062802D1A6
:100E8000184800F0B1FD0DF10F0301224FF470413D
:100E90001248006800F0EEF8022323742146124B3A
:100EA000186802F09FFB1E20FFF7F8F963E700BF08
:100EB000749600084C950008D04C002080960008DD
:100EC00098960008A4960008F0960008B0960008CE
:100ED000C896000800003443DC960008CC4C002083
:100EE000F496000808970008D44C00200000F0C1D8
:100EF0000000F041000034C370B4174C246894F82B
:100F0000345045F0200584F83450002584F83550DD
:100F1000039E2663A1620A828B748C6043680B6017
:100F20004D60C860436803B1596041600A4B1A685C
:100F300092F8381092F839400848435C23EA0403D9
:100F4000435433B9064992F83A200B7823EA020356
:100F50000B7070BC704700BF444E0020344E002020
:100F6000304E0020114B1B781BB110230B7000205A
:100F7000704770B50E460546FFF724FA0C4B1C6807
:100F80006CB162681A6005232370258100256560B5
:100F9000084BE360FFF718FA3570204670BDFFF785
:100FA00013FA72233370002070BD00BF404E002042
:100FB000045F00201497000810B50F4C5021204604
:100FC00001F058FC04F1100304F1500000210B4A19
:100FD00003F8101C43F80C3C43F8042C10338342F4
:100FE000F6D1054B002283F840205A64034ADA64A4
:100FF000034A136010BD00BFE44C002014970008A2
:10100000045F0020426803682AB9C26853602BB1AC
:1010100000225A6002E0136003B15A608368002224
:101020009A62704710B5836800241C63998593F811
:10103000341001F0DF0183F8341083F8352079B9DA
:101040000A4993F83A400A7822430A7093F8382004
:1010500007498C5C93F8393023438B54012400E01A
:101060000024FFF7CFFF204610BD00BF304E002008
:10107000344E00202DE9F8430478052C04D00122D9
:101080001A700020BDE8F8831E4614460F46054638
:10109000FFF798F9804614B1012C05D008E02989A2
:1010A00021EA070129810AE029893943298106E0DB
:1010B000FFF78AF9712333700020BDE8F8836C686C
:1010C000002C56D00027B946A37C032B35D8DFE887
:1010D00003F01B27020F218A2B8931EA030334D145
:1010E0004A462046FFF79EFF012808BF01272CE053
:1010F000218A2B89194028D04A462046FFF792FFC3
:10110000012808BF012720E0218A2B8919421CD120
:101110004A462046FFF786FF012808BF012714E052
:101120002989238A33EA01010FD04A462046FFF776
:1011300079FF012808BF012707E04046FFF744F97F
:101140006F2333700020BDE8F8832468002CBBD1E6
:101150004046FFF739F9012F01D101F053FCFFF7A9
:1011600031F92C89FFF730F9002333702046BDE8B0
:10117000F8834046FFF728F9F1E700BF2DE9F04773
:1011800088B098467E4B1B7823B10223109A1370C7
:101190000020F2E006460F4615467A4B1B7823B135
:1011A0000D23109A13700020E7E00378052B04D07C
:1011B0000123109A13700020DFE012F0800F1ABF95
:1011C00002F07F054FF001094FF00009FFF7FAF830
:1011D0008246032D00F28680DFE805F04463022397
:1011E000338937EA030210D1B9F1000F02D023EAA4
:1011F00007033381644B1B689F855046FFF7E4F873
:101200000023109A13703846B7E0CDF8008002230F
:101210003A4603A93046FFF76FFE5046FFF7D4F871
:1012200067E0338917EA030410D0B9F1000F02D048
:1012300023EA04033381544B1B689C855046FFF717
:10124000C3F80023109A1370204696E0CDF8008072
:1012500003233A4603A93046FFF74EFE5046FFF7F8
:10126000B3F846E033893B420FD1B9F1000F01D00A
:101270003B433381444B1B689F855046FFF7A4F8DE
:101280000023109A1370384677E0CDF800800023D1
:101290003A4603A93046FFF72FFE5046FFF794F871
:1012A00027E0338937EA030410D0B9F1000F02D0E8
:1012B00047EA03003081344B1B689C855046FFF79A
:1012C00083F80023109A1370204656E0CDF8008072
:1012D00001233A4603A93046FFF70EFE5046FFF7BA
:1012E00073F806E0FFF770F86F23109A1370002070
:1012F00043E001F087FBFFF765F80746224B1B68C8
:1013000093F83540C4B1002583F8355003A8FFF7A2
:1013100079FE1D4B1B6883F834503846FFF754F8AC
:10132000022C04D10E23109A1370284625E00A23BC
:10133000109A1370002020E09C8DB9F1000F15D099
:10134000032D0CD8DFE805F007070202338923EAF2
:10135000040333810AE033892343338106E0FFF736
:1013600033F86F23109A1370002006E03846FFF719
:101370002BF80023109A1370204608B0BDE8F087C0
:10138000404E0020D84C0020444E002000000000B9
:101390002DE9F84F0C4616461F4604F04FFB03F0AC
:1013A0000DFF3BA3D3E9002303F05CFF04F03CFAFC
:1013B0000546304604F042FB03F000FF34A3D3E9B6
:1013C000002303F04FFF04F02FFA0646381B04F009
:1013D00035FB03F0F3FE2EA3D3E9002303F042FF15
:1013E00004F022FA834602F0E7F98046304602F024
:1013F000A7F90446284602F0A3F98146304602F0D8
:10140000DBF98246284602F0D7F90746584602F033
:1014100097F906465146484604F064FB05463946AE
:10142000204604F05FFB314604F05CFB0146284691
:1014300004F04EFA03F0C2FE06460F46214640462F
:1014400004F050FB03F0BAFE32463B4602F0F2F9DC
:1014500004F0EAF903F0B2FE0DA3D3E9002304F08F
:101460002BF804F0E1F904F019FD00F5B4730A4813
:1014700083FB00015818DA17C2EB20224FF4B47036
:1014800000FB123003F088FE04F0CEF9BDE8F88FBF
:10149000399D52A246DF913FB7600BB610B5121AC4
:1014A000591A01FB01F102FB0214204604F0C6FAAE
:1014B00002F0C4F904F0F2FC10BD00BF000000000F
:1014C000D0B504F031FD06460F460022164B03F05E
:1014D000F3FF02F0ADF804F05FF90446642000FB6E
:1014E00004F003F059FE02460B463046394603F03D
:1014F00005FD00220D4B03F0DFFF06460F46204698
:1015000003F04AFE02460B463046394603F0F8FC2B
:1015100003A3D3E9002303F0A5FE04F03DF9D0BDF9
:1015200000000000006AF8400000594000004E40F2
:10153000002800F0C8802DE9F04F87B08246684B44
:101540001B68002B4DD0664A002313605768D16892
:101550000091D2F8088012690192624C04F1400BAC
:1015600003930593029304934FF0010926462568DF
:101570003946284604F054FC40B92946009804F046
:101580004FFC30B10095CDF8149002E02F46CDF815
:101590000C9075684146284604F042FC40B9019918
:1015A000284604F05BFC30B10195CDF8109002E0C4
:1015B000A846CDF8089008345C45D7D1049B13B1F8
:1015C000474B019A1A61029B13B1454BC3F808803F
:1015D000059B13B1424B009ADA60039B0BB1404B61
:1015E0005F60DAF800903E4B5968484604F018FCFA
:1015F00000286AD13A4BD968484604F02FFC0028ED
:1016000065D1DAF80440364B9968204604F008FCAE
:1016100000285ED1324B1969204604F01FFC0028D7
:1016200059D1DFF8C08007270025AB46C246CDF868
:10163000049000E01D46D8F804603146204604F0CE
:101640000DFC30B10AEBC7035968204604F0F2FBE9
:1016500058B90AEBC7035968204604F0FFFB48B3AA
:101660003146204604F0E6FB20B35AF83590314667
:10167000204604F02DF900900AEBC7033146586864
:1016800004F026F90146009804F0E0FA06464946BF
:101690005AF8370004F01CF90146304604F022FAEB
:1016A000494604F017F90146019804F0D7FB08B148
:1016B0000BF1010B6B1C08F108082F46082BB9D160
:1016C0000BF0010008E000207047002004E000203B
:1016D00002E0002000E0002007B0BDE8F08F00BF6E
:1016E000000000201897000810B50A4C626901320A
:1016F000094BA3FB02E39B0803EB4303A2EB430369
:101700006361064A02EBC3035A6C1B6C03604260C0
:1017100010BD00BF00000020ABAAAAAA18970008BD
:101720002DE9F04186B001214FF4003000F0D2FCE9
:101730000121084600F0C0FC4FF00C08CDF81080E5
:1017400002278DF8147000248DF8164001258DF8BD
:1017500017508DF81570174E04A9304601F02AFA7B
:1017600007223946304601F077FA07220321304636
:1017700001F072FA4FF4E1330093ADF80440ADF894
:101780000640ADF80840ADF80C40ADF80A800A4CB0
:1017900069462046FFF71EFA2A4640F225512046A8
:1017A000FFF78AFA29462046FFF774FA06B0BDE82B
:1017B000F08100BF000002400044004070B586B0D8
:1017C00001214FF4802000F085FC0121022000F06F
:1017D00073FC4FF44063049302238DF8143000240B
:1017E0008DF8164001258DF817508DF81530174EDD
:1017F00004A9304601F0DEF907220A21304601F043
:101800002BFA07220B21304601F026FA4FF46143F0
:101810000093ADF80440ADF80640ADF80840ADF8CF
:101820000C400C23ADF80A30094C69462046FFF7FE
:10183000D1F92A4640F225512046FFF73DFA2946C4
:101840002046FFF727FA06B070BD00BF0004024033
:101850000048004070B586B00121202000F048FC0F
:101860000121042000F028FCC023049302238DF8FA
:10187000143000248DF8164001258DF817508DF88E
:101880001530174E04A9304601F094F908220621BC
:10189000304601F0E1F908220721304601F0DCF979
:1018A0004FF416530093ADF80440ADF80640ADF880
:1018B0000840ADF80C400C23ADF80A30094C6946DD
:1018C0002046FFF787F92A4640F225512046FFF7C8
:1018D000F3F929462046FFF7DDF906B070BD00BFD9
:1018E000000802400014014070B586B001211020AC
:1018F00000F0FEFB0121022000F0DEFBC023049378
:1019000002238DF8143000248DF8164001258DF83F
:1019100017508DF81530184E04A9304601F04AF9D9
:1019200007220621304601F097F90722114630467A
:1019300001F092F94FF416530093ADF80440ADF85E
:101940000640ADF80840ADF80C400C23ADF80A3065
:1019500004F1804404F5883469462046FFF73AF9DB
:101960002A4640F225512046FFF7A6F9294620468F
:10197000FFF790F906B070BD0004024070B506464E
:10198000064D802421462846FFF7B2F90028F9D0F9
:1019900031460248FFF78CF970BD00BF004400409B
:1019A00070B50646064D802421462846FFF7A0F96B
:1019B0000028F9D031460248FFF77AF970BD00BF20
:1019C0000048004070B50646064D80242146284652
:1019D000FFF78EF90028F9D031460248FFF768F981
:1019E00070BD00BF0014014010B582B00446002352
:1019F0000193019BC35C53B1019BE05CFFF7BEFF09
:101A0000019B01330193019BE35C002BF4D102B0F5
:101A100010BD00BF10B582B0044600230193019BA6
:101A2000C35C53B1019BE05CFFF7BAFF019B01333C
:101A30000193019BE35C002BF4D102B010BD00BF09
:101A40002DE9F04140F225512248FFF757F90028CF
:101A50003DD0204C40F225512046FFF771F9B4F8F3
:101A600004805FFA88F8A8F14103DBB2192B9CBF10
:101A700008F120085FFA88F8B8F10D0F18D8164B56
:101A80001B68002B0CDD154D0024124F124E15F86B
:101A9000011F3846FFF70CF901343368A342F6DC26
:101AA00000220D4B1A6041460A48FFF701F906E093
:101AB000094A13680A4901F8038001331360054D90
:101AC000402421462846FFF713F90028F9D0BDE845
:101AD000F08100BF00440040780B0020E70D00209B
:101AE000E80D0020F0B585B040BB30238DF80F30F5
:101AF0000E260FE00E2E2FDC0CE0B3FBF0F200FB05
:101B0000123413462A5D01F8012D013E02D0002B4C
:101B1000F3D1EFE70DEB06078025104C013629467F
:101B20002046FFF7E5F80028F9D017F9011F89B220
:101B30002046FFF7BDF80E2EF0DD0DE00246084608
:101B4000B2FBF1F301FB1321054A525C04A901F831
:101B5000012D0E26024DDAE705B0F0BD004400402D
:101B60009097000808B50A21FFF7BCFF08BD00BF29
:101B700008B520210448FFF7BBF8012803BF024B3A
:101B80009888C0B2FF2008BD0048004008B5202159
:101B90000448FFF7ADF8012803BF024B9888C0B294
:101BA000FF2008BD0014014038B504460D46FFF77C
:101BB000DFFF2070FF28FAD00A28F8D00DB1FFF718
:101BC000EFFE23780D2B02D10023237038BD0134A2
:101BD000EDE700BF38B504460D46FFF7D7FF20708C
:101BE000FF28FAD00A28F8D00DB1FFF7EBFE2378D2
:101BF0000D2B02D10023237038BD0134EDE700BF67
:101C000008B5114B114A9A420CD2581E801A20F086
:101C1000030004300E4B184453F8041B42F8041B15
:101C20008342F9D10B480C494FF000028842B8BFFB
:101C300040F8042BFADBDFF82400016841F470015E
:101C4000016000F0C3F908BD200900200000002059
:101C5000A4A00008200900200C60002088ED00E00E
:101C600008B532254FF4FA742846FEF70BFE2046DD
:101C7000FEF7F8FAF8E700BF104B1868E0B1F0B5CE
:101C800087B01C466FF0404700256268E168237A00
:101C9000CE19B4F810E0CDF810E00395029101924E
:101CA000009302EB8602294601F072F954F8140FF2
:101CB0000028EAD107B0F0BD704700BF180000202F
:101CC00008B50B4602463C210148FEF7ADFC08BDB5
:101CD000005C004008B502463C210248FEF7FCFCCF
:101CE00008BD00BF005C004008B5072824D8DFE825
:101CF00000F004080C1014181C20134A134B1A602F
:101D00001AE0134A114B1A6016E0124A0F4B1A6080
:101D100012E0114A0D4B1A600EE0104A0B4B1A608C
:101D20000AE00F4A094B1A6006E00E4A074B1A6098
:101D300002E00D4A054B1A60410101F0E00101206B
:101D4000FFF7BEFF08BD00BF0681953DC80B002010
:101D50001F856B3FF6289C3F5C8FC23FAE4711400A
:101D60000AD7234085EB414033338B4010B50446FE
:101D70000220FFF7AFFF00F0FC0121430220FFF734
:101D80009FFF10BD10B504460020FFF7A3FF20F011
:101D90001C0040EA8401C9B20020FFF791FF10BD8A
:101DA00010B504460020FFF795FF20F0600040EAE0
:101DB0004411C9B20020FFF783FF10BD08B5012010
:101DC000FFF792FF0020FFF7D1FF0520FFF7DAFFB2
:101DD0000320FFF7E5FF6FF03202034B1A606FF04C
:101DE0008502024B1A6008BDC40B0020D00B0020F6
:101DF000F0B585B00623009302AB03223C213048A6
:101E0000FEF784FC2F4B1C689DF808309DF80900F4
:101E10004E3000EB032000B203F010FE214603F029
:101E200061FE05469DF80C309DF80D00213800EB51
:101E3000032000B203F002FE214603F053FE2946C0
:101E400001F0FAFC204903F045FD0446002103F0AF
:101E5000E7FF50B1204603F0B1F915A3D3E9002301
:101E600003F04EF803F0E0FC0446204603F0A6F928
:101E700006460F460EA3D3E9002303F083FC48B1C6
:101E80000BA3D3E900233046394603F037F803F0BB
:101E9000CBFC0446204603F091F907A3D3E90023C5
:101EA00003F0E0F903F0C0FC05B0F0BDAFF3008033
:101EB000182D4454FB211940F8C1631ADCA54C408D
:101EC000005C0040C80B00203DB3D13C08B50C4875
:101ED000FFF78AFD0B48FFF787FD00F027FCFFF7AF
:101EE00041FE0948FFF780FD084B1B680848A0FB2E
:101EF0000330800CFFF736FE0648FFF775FD08BD7E
:101F0000B09700082498000838980008C004002002
:101F100083DE1B435098000800B583B0002001F019
:101F2000CDFA084B1860002001F0C8FA064B186083
:101F30000DF107010020FFF715F8044B186003B0FE
:101F40005DF804FBD04C0020D44C0020CC4C002089
:101F500010B50A4C206801F02DF92068FFF744FD08
:101F60000748FFF741FDFFF7B1FFFFF7D5FFFFF788
:101F700083FE0448FEF716FE10BD00BF7C00002063
:101F80005895000840D10C0008B5FEF7FDF8FFF7A2
:101F9000C7FBFFF713FCFFF75DFCFFF7A5FCFEF79F
:101FA00053FCFEF7F7F9FEF737FAFFF707FFFEF7E6
:101FB000DDFBFEF71BFD4FF47A60FEF753F901F0ED
:101FC0001DFA4FF47A60FEF74DF908BD08B500F030
:101FD00057FEFFF7D9FF00F059FCFFF7B9FF0121C9
:101FE000082000F069F80A4B1A6842F080721A6003
:101FF0001A6842F080621A601A6842F080521A60D1
:102000001A6842F080421A6000F012FBFEE700BF3F
:10201000000C024010B4244B9B6803F00C03042B0B
:1020200005D0082B06D00BBB204B036020E0204BD3
:1020300003601DE01C4B5A685B6803F03F0312F419
:10204000800F194A5268C2F3881214BF1849174901
:10205000B1FBF3F303FB02F2134B5B68C3F30143E1
:1020600001335B00B2FBF3F3036001E00F4B03604D
:102070000D4CA368C3F303130E49CB5CDAB20368BB
:10208000D3404360A268C2F382228A5CD2B223FAB0
:1020900002F28260A268C2F342328A5CD2B2D340BA
:1020A000C36010BC704700BF003802400024F40039
:1020B00000127A008000002021B1054B1A6B1043FA
:1020C00018637047024A136B23EA000010637047DD
:1020D0000038024021B1054B1A6C10431864704758
:1020E000024A136C23EA0000106470470038024073
:1020F00021B1054B5A6C104358647047024A536C27
:1021000023EA0000506470470038024070B582B086
:102110000D4602A92C2321F8043D05F0DBFA012D20
:1021200008DD0124002601A9304605F0D3FA013468
:10213000A542F8D102B070BD2DE9F04FBBB04948BF
:10214000FFF752FC4848FFF74FFC00230193DFF8EC
:102150003CB1DFF83C81454F002121A8FFF73AFD53
:10216000594621A804F014FA002876D0D8F800A027
:10217000D8F8049021A908A804F050F8042121A857
:10218000FFF7C4FF0446062108A8FFF7BFFF064675
:102190002046FFF795F904463046FFF791F90546CA
:1021A00076B13348FFF720FC2046FFF7DBFC3148CF
:1021B000FFF71AFC2846FFF7D5FC2F48FFF714FC61
:1021C0003946504603F08EFC03F068FE0646394659
:1021D000484603F087FC03F061FE814603940495B2
:1021E0000346324629462046FFF758F905904B46EC
:1021F000324629462046FFF7CBF803F04FFE069003
:1022000002238DF81C301D48FFF7EEFB0598FFF701
:10221000A9FC1B48FFF7E8FB0698FFF7A3FC164C48
:102220002046FFF7E1FB2046FFF7DEFB1548FFF7EE
:10223000DBFBFFF7DDFD03F057FEFFF793FC2046C5
:10224000FFF7D2FB059B2BB103A90F4B186801F0D8
:10225000C9F901900198FFF785FC1E20FEF71EF8D2
:102260007AE700BF689800084C9500080050C34703
:10227000789800088C980008F0960008909800085C
:102280009C980008AC980008D04C0020709800087A
:10229000E00D002010B40B7843B1024602F8013B78
:1022A000141A11F8013F002BF8D100E00024204659
:1022B00010BC704770B504461E46501E092B04D84A
:1022C00000280CDC254600200FE00E4BA3FB062364
:1022D000DB0802462046FFF7EDFF251805E0551EF6
:1022E000254404F8011BA542FBD1064BA3FB0623A2
:1022F000DB0803EB8303A6EB430330332B70013081
:1023000070BD00BFCDCCCCCC70B50446002B04DA38
:102310005D42501E092D05D82FE01D46013A092BBC
:102320000AD825E01D4BA3FB0523DB085B420246D0
:102330002046FFF7E9FF06E01848A0FB0303DB088F
:102340002046FFF7E1FF04441CE01046264606F84D
:10235000011B01380028FADC013A22EAE272501C23
:102360000444002B0EDA2D2304F8013B013009E070
:10237000002AD8BF002005DDE7E7023A002AE4DCA6
:102380000020F0E7054BA3FB0523DB0803EB8303E9
:10239000A5EB430330332370013070BDCDCCCCCCE2
:1023A00070B582B004461E46069D501E2B0904D10E
:1023B00000280ADC234600200DE000933346024645
:1023C0002046FFF7EDFF231805E0531E234404F8D1
:1023D000011BA342FBD105F00F02092A03D81546C1
:1023E00030351D7009E026B105F00F0537351D7039
:1023F00003E005F00F0557351D70013002B070BDC8
:102400002DE9F04F83B00F46064608B10021017058
:1024100000254FF0010AA8464FF030097CE025293D
:1024200004D0013231700135013675E0517825292B
:1024300004D131700232013501366DE0302919BF07
:10244000541C2021941C494694F800E0AEF130025F
:10245000D2B2092A0FD8424602EB82020EEB4202A8
:10246000303A02F0FF0214F801EFAEF13000C0B2D2
:102470000928F1D900E04246501987423CBF7A1B37
:10248000D2B2AEF1580EBEF1200F56D8DFE80EF0F2
:102490002B555555555555555555553D1155555572
:1024A000551155555555555555555535551955557C
:1024B000210003F1040B1B683046FFF725FF5B4644
:1024C00027E003F1040B1B683046FFF7F3FE5B4681
:1024D0001FE003F1040B1B68009343463046FFF7EF
:1024E0005FFF5B4615E003F1040B1B680093534646
:1024F0003046FFF755FF5B460BE003F1040B19680C
:102500003046FFF7C7FE5B4603E01A6832700433BB
:102510005046621C06440544117819B1BD42FFF4CF
:102520007EAF05E0AF4203D900233370284606E0B2
:10253000002306F8013C681E01E04FF0FF3003B0B5
:10254000BDE8F08F08B513460A466421FFF758FF2F
:1025500008BD00BF0EB400B582B003AA52F8041B38
:102560000192FFF7EFFF02B05DF804EB03B0704794
:10257000054B064A12789A5C0549895C5B5C03EB63
:10258000C203044A13707047B8980008304E002008
:10259000344E0020E04C002010B5054CFDF712FF32
:1025A000236801332360FDF70FFFFEF771FAF5E7AB
:1025B000DC4C0020164B1B78012B28D110B5FDF701
:1025C00001FF0446134B1B7823B1013BDBB2114AD8
:1025D0001370C3B9104B1B78ABB9FFF7C9FF0F4B92
:1025E0001A780F4B53F822300E490B600E490978C8
:1025F000914208D0DA6B0132DA630C4A1368013376
:102600001360FDF7FCFE2046FDF7DEFE10BD7047AF
:10261000DA4C0020404E0020D84C0020E04C002036
:10262000085F0020284E0020344D0020B84D0020C7
:1026300008B5094B1B7873B9FFF79AFF074B1B7856
:10264000074A1370074A52F82330074A1360074AB3
:102650001360FDF7BBFE08BDDA4C0020E04C002003
:10266000344D0020085F0020284E0020444E0020FA
:10267000F8B5FEF755FAFDF7A5FE264A13680133B3
:102680001360FDF7A1FE244B1B78012B41D1234B96
:102690001B78012B3DD02BB1022B0CBF0122002255
:1026A0001E4B1A701E4B1C6894F836303F2B30D0EE
:1026B0001C4E1D4D0027FDF785FE236B13B3013B18
:1026C0002363FBB994F8343013F0370F07D023F0AD
:1026D000370384F83430012384F8353001E084F87E
:1026E000357094F8343013F0080F0BD194F83A2079
:1026F00033781343337094F83820A95C94F8393058
:102700000B43AB546469FDF75FFE94F836303F2B02
:10271000D1D1F8BD484E0020DA4C0020B44D002045
:10272000384D0020304E0020344E002047F2172054
:10273000704700BF704700BF10B4114B1B68D861D1
:1027400093F838200244D47A93F839102143D17297
:10275000817A93F83A200A43827293F8381093F8FA
:1027600039400848425C22EA0402425432B9064A1F
:1027700093F83A10137823EA0103137010BC7047E2
:10278000444E0020344E0020304E002010B490F80B
:10279000382090F839400A44D37A23EA0403D372EC
:1027A0002BB990F83A208B7A23EA02038B7210BC83
:1027B000704700BF70B490F8385090F83A6090F8C5
:1027C00039400A686AB1E443F6435019C37A23409A
:1027D000C37213B9937A3340937251F8042F002ACD
:1027E000F3D170BC704700BFF8B50646184C807A2C
:1027F000205C3518ED7A655D05EBC005EDB2154C32
:1028000054F8254000272763616294F8341021EAC8
:10281000020284F8342084F8353012F0080F0BD10E
:102820000D4A94F83A1013780B4313700B4A115C5D
:1028300094F839300B43135431462046FFF7A6FF76
:10284000216A19B12046FFF7B5FFE6612846F8BDB9
:10285000B8980008085F0020304E0020344E002059
:102860000346002203F80A2F123003F8012F834297
:10287000FBD1704741B1431E4A1E10FA82F000227C
:1028800003F8012F8342FBD1704700BF10B588B019
:10289000FEF7E4F80023434A1360434A1370434AA7
:1028A0001370434A1370434A1370434A1360434AF8
:1028B0001360434A1370434A1370434B03F10801FA
:1028C000002203F8012F8B42FBD100233F4A1370F3
:1028D0003F4A13703F4A13603F4A13603F4C4FF426
:1028E000E7612046FFF7C6FF4FF480713C48FFF7D1
:1028F000C1FF04F1580304F5E7623A4943F8443C48
:1029000043F8081C58339A42F8D1344B0022C3F8DC
:10291000F4263449C3F8301733490A60334A136048
:10292000334C4FF4F0612046FFF7A4FF04F1180385
:1029300004F5F06200202B4903F8180C43F8143C0E
:1029400043F8041C18339342F6D1294B002483F832
:102950006847C3F86C47234AC3F87C27254A1360AD
:10296000FEF72AFB00F002F900F014FA224A0323D2
:102970000493039480230293A2F5FE7301934FF610
:10298000FF7300933F2321461C4800F001FB0DF12B
:102990001F021B493F2000F0B5FAFEF773F808B09C
:1029A00010BD00BF484E0020404E0020D84C0020F3
:1029B000C04D0020DA4C0020B84D0020DC4C002037
:1029C000D94C0020304E0020334E0020344D0020E2
:1029D000E04C0020284E0020444E0020CC57002020
:1029E000085F002014970008384D0020BC4D0020DF
:1029F0004C5000203C4E00204850002099250008F3
:102A0000B899000810B5FDF7DDFC04460F4B1B78A4
:102A1000C3B90F4B1B78ABB9FFF7AAFD0D4B1A7862
:102A20000D4B53F822300D490B600D490978914246
:102A300008D0DA6B0132DA630A4A13680133136093
:102A4000FDF7D8FC2046FDF7BFFC10BD404E00202E
:102A5000D84C0020E04C0020085F0020284E0020C9
:102A6000344D0020B84D00202DE9F04106460D46BA
:102A700090461F46FDF7A6FC354B1C68002C61D024
:102A800062691A60FDF7A0FC256084F836600025B5
:102A900084F8345084F835502563079B6360069BA7
:102AA000E360C4F80880BDF820302382678284F890
:102AB0003B50F20884F8382006F0070184F83710FC
:102AC000012303FA02F284F83A208B4084F839306B
:102AD000E5612562A5626562E56365642564A564B8
:102AE000E5641C4B236565652046FEF717F8FDF786
:102AF00069FC194B43F82640FDF766FC2046FDF7BC
:102B0000C3FFFDF75FFC154B1B686361A56103B153
:102B10009C61124B1C60124A94F83A1013780B43D4
:102B2000137094F838200F498D5C94F839302B439A
:102B30008B540D4A137801331370FDF745FC0020C8
:102B4000BDE8F081FDF740FC4220BDE8F08100BF08
:102B5000BC4D002014970008085F0020384D00206D
:102B6000304E0020344E0020C04D002010B50E4CD9
:102B700078212046FFF77EFE04F1180363600B4BBB
:102B8000636104F13002E261E36204F148026263CE
:102B9000636404F16002E264E365002262666367D5
:102BA000034B1C6010BD00BF3C4D00201497000873
:102BB000C44D0020F0B500230125032605FA03F2D9
:102BC0000C68A24339D102685C0006FA04F7FF439F
:102BD0003A400260026891F804E00EFA04FE4EEA00
:102BE000020202600A79013AD2B2012A17D8826839
:102BF0001740876087684A79A2403A4382604768F5
:102C00009AB205FA02FE27EA0E074760D0F804E000
:102C10008F7907FA02F292B242EA0E024260C76866
:102C20009AB2520006FA02F227EA0202C260C268B1
:102C3000CF7907FA04F41443C4600133102BBDD1DB
:102C4000F0BD00BF0369194214BF01200020704786
:102C5000018370474183704710B401F007039B0064
:102C6000C90800EB8100046A0F21994024EA0101A0
:102C70000162016A9A400A43026210BC704700BFB9
:102C800082B0364B1A6842F001021A600021996046
:102C90001A6822F0847222F480321A60304A5A6034
:102CA0001A6822F480221A60D960009101911A6892
:102CB00042F480321A601A46136803F40033019319
:102CC000009B01330093019B1BB9009BB3F5A06FE0
:102CD000F2D1224B1B6813F4003F14BF01230023E1
:102CE0000193019B012B32D11C4B1A6C42F0805294
:102CF0001A641C490A6842F480420A609A689A6021
:102D00009A6842F400429A609A6842F4A0529A602B
:102D1000154A5A601A6842F080721A601A4613689F
:102D200013F0007FFBD040F20562104B1A60A3F550
:102D300080639A6822F003029A609A6842F0020265
:102D40009A601A46936803F00C03082BFAD14FF0EF
:102D50000062074B9A6002B0704700BF0038024023
:102D6000103000240070004008544007003C02402E
:102D700000ED00E00346054A126812B90449034A0F
:102D80001160024A10680344136070477C0B0020F6
:102D90000C60002010B5094C60212046FFF76AFD49
:102DA00004F11802234643F8302BA36104F14803D1
:102DB00023630023A364024B1C6010BDC84D002098
:102DC0002C4E0020F8B5444B1C78002C7ED10546D3
:102DD0003F287DD0FDF7F6FA0646FF2D03D13F4B85
:102DE0001B6893F836502F463D4B53F8255025B9B4
:102DF0003046FDF7E9FA43246BE0012D04D130465B
:102E0000FDF7E2FA3D2464E095F8382095F83900A2
:102E100034498B5C23EA00038B5433B9324A95F86A
:102E20003A10137823EA01031370E96911B12846B7
:102E3000FFF7ACFC296A11B12846FFF7BBFCA86A72
:102E400008B1FEF7DFF800232B6385F8343085F8EE
:102E50003530264B1B78FF2B02D00133234A1370E9
:102E60003046FDF7B1FAFFF765FCFDF7ABFA064611
:102E70001E4B1B7813B1013B1C4A13702846FDF70B
:102E800005FE1B4A1378013B13700022144B43F8D4
:102E90002720AB692BB96B699A616A69154B1A6077
:102EA00004E06A695A616B69AA699A61124B1A68EF
:102EB0006A611D60114B2B653046FDF785FA104B9A
:102EC0001B78012B05D1FFF79DFD02E0402400E0B7
:102ED0003E242046F8BD00BF404E0020444E002056
:102EE000085F0020344E0020304E0020D84C0020D7
:102EF000C04D0020384D0020BC4D00201497000824
:102F0000DA4C002070B51446124B1B7813B1122313
:102F1000137070BD05460E46FDF754FAFF2D03D120
:102F20000D4B1B6893F836500C4B53F8253023B9E2
:102F3000FDF74AFA4323237070BD012B04D1FDF73E
:102F400043FA4323237070BD1E65FDF73DFA00234D
:102F5000237070BD404E0020444E0020085F0020CA
:102F600008B5044B1868FDF795FDFF20FFF72AFF11
:102F700008BD00BF444E002002F00302032A05D121
:102F800021B1002340F8043B0139FBD1704700BF59
:102F90002DE9F04385B00746884691461D46BDF8A9
:102FA0004060FDF70FFA214B1C781CB1FDF70CFABD
:102FB0003C2436E01E4B53F825307BBB01221C4BD2
:102FC00043F82520FDF700FA32460E990D98FFF7D9
:102FD000D3FF33464A4641463846FDF75DFD02962B
:102FE0000F9B01930E9B0093BDF830300D9A014664
:102FF0002846FFF739FD064630B90E4B1B78012BEA
:103000000FD1FFF7FFFC0CE0FDF7DCF90022084BC5
:1030100043F82520FDF7D8F9344602E0FDF7D4F94E
:103020002824204605B0BDE8F08300BF404E0020B4
:10303000085F0020DA4C002010B5094C082120461A
:10304000FFF708FE10212046FFF704FE202120464E
:10305000FFF700FE40212046FFF7FCFD10BD00BF3A
:103060000010024010B50446FFF7E6FF14F0010F10
:1030700003D040210C48FFF7EBFD14F0020F03D002
:1030800020210948FFF7E4FD14F0040F03D01021BC
:103090000548FFF7DDFD14F0080F03D008210248B2
:1030A000FFF7D6FD10BD00BF0010024010B582B082
:1030B0007823009301248DF8044000238DF8063016
:1030C0008DF8073002238DF8053069460348FFF775
:1030D00071FD2046FDF7C6F802B010BD0010024099
:1030E00038B505460E4C01212046FFF7B1FD2809F1
:1030F000FFF7B8FF01212046FFF7ACFDFFF7D6FF31
:1031000001212046FFF7A4FD05F00F00FFF7AAFFFD
:1031100001212046FFF79EFDFFF7C8FF38BD00BF25
:10312000000C024010B504464FF400510948FFF767
:103130008FFD2046FFF7D4FF074B1B780133DBB22E
:10314000202B02D0044A137010BD0022024B1A70CB
:1031500010BD00BF00080240800B002038B50546B6
:10316000007838B10024FFF7DDFF0134E4B2285DB8
:103170000028F8D138BD00BF10B504464FF4005107
:103180000348FFF767FD2046FFF7AAFF10BD00BF09
:103190000008024008B50120FFF7EEFF0022044BB3
:1031A0001A700520FDF75EF8FFF780FF08BD00BF2D
:1031B000800B002010B50446FFF7ECFF2046FFF718
:1031C000CDFF10BDF0B585B004460D46868826F0CB
:1031D0003F063604360C6846FEF71CFF029B2E485D
:1031E000A0FB0320800C87B23E43A680218821F0FB
:1031F00001010904090C21802A6828498A4209D85A
:103200005200B3FBF2F39BB2032B98BF04230137A8
:10321000278427E0EE884BF6FF718E4205D102EB42
:103220004201B3FBF1F39BB208E002EB820202EB36
:103230008202B3FBF2F39BB243F48043C3F30B026D
:103240000AB943F0010343F400434FF4967200FBC4
:1032500002F0134A82FB0012C017C0EBA21001302B
:1032600080B22084A38323889BB243F00103238090
:1032700023889BB223F4816323F00201AB886A891F
:1032800013430B439BB22380AA892B8913439BB220
:10329000238105B0F0BD00BF83DE1B43A086010083
:1032A000D34D621029B103889BB243F00103038020
:1032B0007047038823F001031B041B0C0380704735
:1032C00029B103889BB243F480730380704703885D
:1032D00023F480731B041B0C0380704729B10388FF
:1032E0009BB243F4007303807047038823F4007398
:1032F0001B041B0C0380704712B141F0010101E077
:1033000001F0FE0189B20182704700BF29B1038834
:103310009BB243F4806303807047038823F4806387
:103320001B041B0C0380704701827047008AC0B2E7
:10333000704700BF838A9BB2008B43EA004321F0B1
:103340007F4203EA0200884214BF00200120704738
:1033500082B000230193009300900B0F019321F0A2
:103360007F41019B1BB1009B1433009303E0090CC8
:10337000009B18330093009B1B68194214BF012067
:10338000002002B0704700BFF0B583B00646174674
:10339000084602F053FB0446164D1749286802F010
:1033A000A1FB0146204602F093FA02F077FD0446A5
:1033B000384602F043FB07460F49686802F092FB6B
:1033C0000146384602F084FA02F068FD002CB8BFCE
:1033D00004F580740028B8BF00F580708DF8046093
:1033E0008DF805408DF8060001A8FDF789FA03B0B5
:1033F000F0BD00BF889700080050C34730B583B0C8
:10340000114D6C462046FEF76FF994E8030085E8FD
:1034100003002846FEF78CF80028F3D00A4C0B492D
:10342000606802F05FFB02F039FD0546074920683D
:1034300002F058FB02F032FD2A4601462A20FFF72F
:10344000A3FF03B030BD00BFE00D00200050C34714
:10345000F0B583B01548FEF7C7FA1548FEF7C4FA71
:10346000144E0025144F0DF107022946306800F074
:103470004BF804469DF80700FEF774FB3846FEF74C
:10348000B3FA62682168207CFFF77EFF1E240DF1ED
:1034900007022946306800F037F8037C062BE2D09B
:1034A0001420FCF7FBFE013CF1D1DCE7C8990008D1
:1034B000D4990008D44C0020E499000838B50F4B8B
:1034C0001B78ABB90546FCF77DFF0D4B1C688CB132
:1034D00062681A60FCF778FF0123237000232381C0
:1034E0006560084B63612046FFF7BAF9204638BD96
:1034F000002038BDFCF768FF002038BD404E00209A
:103500003C4E0020149700082DE9F8430378012B66
:1035100004D0012313700020BDE8F8832E4B1B78E4
:1035200023B1022313700020BDE8F8832B4B1B78D6
:1035300023B10D2313700020BDE8F88316460F4613
:103540000446FCF73FFF804665683DB10027676091
:10355000FCF73AFF37702846BDE8F883DFF8809023
:10356000D9F8003093F8342042F0020283F8342076
:10357000002283F835201F632046FFF7DDF8404620
:10358000FCF722FFFFF73EFAFCF71CFF0746D9F8CD
:10359000000090F8353013B1022B04D006E0456AE4
:1035A0000023337007E00E23337004E02146FFF759
:1035B000EDF80A2333700A4B1B68002283F834208D
:1035C00083F83520DA611A625A623846FCF7FCFE4D
:1035D0002846BDE8F88300BF404E0020D84C0020AC
:1035E000444E0020F8B50378012B1DD10E46044649
:1035F000FCF7E8FE0746A57A65B1002302223146B2
:103600002046FFF7F1F83846FCF7DEFEFFF7FAF93F
:1036100000250AE063681BB1FCF7D6FE142504E020
:103620006660FCF7D1FE00E001252846F8BD00BF2A
:10363000C1F30A522DE9F843A2F2FF36132E0B46CE
:103640000D460446884607461CDC002E3FDB3A4AFE
:1036500042FA06F901EA09020243864617D034A36A
:10366000D3E9002301F04CFC0022002302F08AF889
:1036700020B1002D40DB28EA0905002738462946FD
:10368000BDE8F883332E06DDB6F5806F2FD02046D7
:103690001946BDE8F883A2F213424FF0FF3929FA28
:1036A00002F910EA090FF2D021A3D3E9002301F0B7
:1036B00027FC0022002302F065F80028DED0002D50
:1036C00020DB454627EA090738462946D8E718A3EC
:1036D000D3E9002301F014FC0022002302F052F889
:1036E0000028CBD0002D18DB00273D46C6E7024658
:1036F0000B4601F005FCCCE74FF4801343FA06F6C5
:10370000B044B8E7142E10D00123C6F1340603FAF2
:1037100006F6371928BF9844D3E725F00042074B37
:10372000224318BF1D460027A8E705F10108C8E796
:103730009C7500883CE4377EFFFF0F000000F0BF5F
:1037400000B51C4A20F00043934283B018DDB3F16A
:10375000FF4F05DB014602F0BBF803B05DF804FB48
:10376000694600F015FA00F00302012A15D0022A7A
:103770000CD0CAB101220199009800F0E1FFECE7FA
:10378000002100F0CBFB03B05DF804FB0199009829
:1037900000F0C4FB00F10040DFE70199009800F061
:1037A000CFFF00F10040D8E70199009800F0B6FB88
:1037B000D3E700BFD80F493F00B51D4A20F00043B2
:1037C000934283B019DDB3F1FF4F05DB014602F0F0
:1037D0007FF803B05DF804FB694600F0D9F900F00A
:1037E0000300012818D002280ED0D0B1019900980A
:1037F00000F094FB00F10040EBE70022002100F014
:103800009FFF03B05DF804FB01220199009800F0CE
:1038100097FF00F10040DCE70199009800F07EFB83
:10382000D7E701220199009800F08AFFD1E700BF95
:10383000D80F493F00F050B800F018B9F0B58BB080
:10384000054600F017FB224B93F90060731C0446F9
:103850000AD02946284602F00BFB074620B9002172
:10386000284602F0DDFA10B920460BB0F0BD194B26
:103870000897012228468DE80C0001F09FFC0022E9
:10388000CDE90401CDE9020100239EB1104619469D
:1038900001F012FE022ECDE906010DD102F048FB27
:1038A00021230360089B6BB9DDE9060101F0BCFF31
:1038B0000BB0F0BDCDE90623684601F05BF90028A6
:1038C000F0D1EBE702F034FB089B0360ECE700BFAC
:1038D000D4040020FC9900082DE9F84F5442144309
:1038E00023F00049DFF880E149EAD47474450646C4
:1038F0000D463ED84442044321F0004B4BEAD474B9
:1039000074458A4635D803F1404404F580141443C5
:1039100044D09C1704F0020444EAD17450EA0B012D
:103920002FD052EA090133D0F14546D0F3452FD0CC
:10393000C9EB0B094FEA2959B9F13C0F34DC002BD4
:1039400057DB3046294601F0B7FD01F00FF900F0D2
:103950006FFF012C4AD0022C3BD084B132A3D3E9B3
:10396000002301F0CBFA32A3D3E9002301F0C6FA19
:1039700005E01046194632462B4601F0C1FABDE873
:10398000F88F022C14D0032C0CD12D482D49F6E7CA
:10399000BAF1000F2A480EDB2B49F0E7BDE8F84FDB
:1039A00000F046BF2946EAE723A1D1E90001D0E7AC
:1039B00023482649E3E72649E1E7CB451FD0022CFF
:1039C000F6D0032CE1D0012C4FF0000020D00146AE
:1039D000D5E715A3D3E9002301F090FA02460B4680
:1039E00013A1D1E9000101F089FAC8E701F1004112
:1039F000C5E719F13C0FA4DA00200021A9E7022C49
:103A00000ED0032C09D0012C0D4804D01149B6E783
:103A10004FF00041B3E71049B1E710481049AEE755
:103A20000E481049ABE700BF075C143326A6A13C43
:103A3000182D4454FB210940182D4454FB21F93F13
:103A4000182D4454FB2109C0FB21F93FFB210940FB
:103A5000FB21F9BFFB21E93FFB21E9BFD221337FE5
:103A60007CD902C07CD902400000F07FF8B50C463A
:103A700021F00041B1F1FF4F034614DC20F0004675
:103A8000B6F1FF4F07460EDCB4F17E5F3DD0A517BF
:103A900005F0020545EAD07556B9022D31D0032D47
:103AA0002CD13248F8BD1946204601F013FFF8BD6D
:103AB00001B3B1F1FF4F2CD0B6F1FF4F1AD0711AFC
:103AC000C9153C291BDC002C39DB2146184602F0C5
:103AD000BDF801F067F901F04FF8012D2CD0022D4F
:103AE00022D0002D2FD0224901F0F4FE214901F00F
:103AF000EFFEF8BD002F06DB1F48F8BDF8BD1E48DD
:103B0000EBE71C48F8BD1D48F8BDBDE8F84001F0E2
:103B100033B8B6F1FF4F17D0022DF2D0032DC0D02D
:103B2000012D19D00020F8BD114901F0D3FE014646
:103B3000104801F0CDFEF8BD00F10040F8BD3C3169
:103B4000C3DA0020C9E7F8BD022D0CD0032D08D040
:103B5000012D04D00A48F8BD4FF00040F8BD0948D7
:103B6000F8BD0948F8BD0948F8BD00BFDB0F49C0E2
:103B70002EBDBB33DB0F4940DB0FC93FDB0FC9BF95
:103B8000DB0F493FDB0F49BFE4CB16C0E4CB164047
:103B90002DE9F04FAA4A20F00044944289B067DD35
:103BA000A84A94420D46074601461CDC0028A64957
:103BB00040F3EC8001F08CFEA44B24F00F049C42F7
:103BC000064663D0A24901F083FE014628603046D4
:103BD00001F07EFE9E4901F07BFE012368601846DD
:103BE00009B0BDE8F08F9B4A944261DDB4F1FF4F0C
:103BF00046DAE615863EA4EBC654204602F04EF99E
:103C000001F01CFF034601462046059301F060FECB
:103C10004FF0874101F066FF804602F03FF901F066
:103C20000DFF014604464046069401F051FE4FF058
:103C3000874101F057FF0021079002F0E7F80028C4
:103C400000F0C5802046002102F0E0F8002814BFF3
:103C500001230223804A0192022100913246294623
:103C600005A800F01FFA002FC0F2A780034603E06A
:103C7000002208604A600023184609B0BDE8F08FB2
:103C800001F026FE002368602860F5E7734901F023
:103C90001FFE7349044601F01BFE014628602046C2
:103CA00001F016FE6E4901F013FE01236860E3E7A0
:103CB00001F078F86B49804601F014FF4FF07C5119
:103CC00001F008FE02F0EAF8064601F0B7FE5E4990
:103CD000834601F007FF0146404601F0F9FD5C49CB
:103CE0008146584601F0FEFE1F2E82461ADC5E4ACF
:103CF000711E24F0FF0352F82120934212D0514646
:103D0000484601F0E5FD8046C5F80080414648463A
:103D100001F0DEFD514601F0DBFD002F686058DB4D
:103D20003346A9E75146484601F0D2FDE215C0F3FB
:103D3000C753D31A082B8046E6DD484903925846FC
:103D400001F0D0FE80460146484601F0C1FD014623
:103D50000446484601F0BCFD414601F0B9FD40492A
:103D60008046584601F0BEFE414601F0B1FD0146D5
:103D70008246204601F0ACFD039AC0F3C753D21A25
:103D8000192A804641DC2860A146BFE701F0A2FD68
:103D90002E4B24F00F049C42064623D02C4901F000
:103DA00099FD01462860304601F092FD284901F056
:103DB00091FD4FF0FF3368605EE795E80C0002F17B
:103DC000004103F10042296043426A6054E7032343
:103DD00040E708F1004800F10040C5F80080686045
:103DE000734249E71D4901F075FD1D49044601F084
:103DF00071FD01462860204601F06AFD184901F076
:103E000069FD4FF0FF33686036E71849584601F006
:103E100069FE01468046204601F05AFD0146814672
:103E2000204601F055FD414601F052FD104904467F
:103E3000584601F057FE214601F04AFD82465EE7F2
:103E4000D80F493FE3CB1640800FC93FD00FC93F81
:103E500043443537800F4943849A0008004435377E
:103E600008A3852E84F9223F049A000800A3852E1A
:103E700032318D2420F00042B2F1FF4F70B504467C
:103E80002ED262B3002803463DDBB2F5000F4FEAA5
:103E9000E0502CD37F38C3F31603C20743F400036A
:103EA00048BF5B00002640105B00314619244FF0EC
:103EB00080728D189D4202DC5B1BA9181644013CE0
:103EC0004FEA43034FEA5202F3D113B106F0010364
:103ED0001E44761006F17C5606EBC05070BD70BDD6
:103EE000014601F0FFFD214601F0F4FC70BD14F421
:103EF000000201D00EE00A465B001C0202F1010143
:103F0000F9D5801AC6E7014601F0E2FC014601F04E
:103F10009DFE70BD4FF0FF32F3E700BF2DE9F8437F
:103F200020F00044B4F1485F06460F4649DA01F03C
:103F3000B5FF002800F09D803146304601F0D2FDEB
:103F40004E49054601F0CEFD4D4901F0C3FC29461E
:103F500001F0C8FD4B4901F0BBFC294601F0C2FD50
:103F6000494901F0B7FC294601F0BCFD474901F081
:103F7000AFFC294601F0B6FD454901F0ABFC2946EE
:103F800001F0B0FD80464FF07C51284601F0AAFDBB
:103F900041460446284601F0A5FD3946054630460F
:103FA00001F0A0FD0146284601F092FC01462046A2
:103FB00001F08EFC01464FF07E5001F089FCBDE817
:103FC000F883014601F08EFD2C49054601F08AFD7B
:103FD0002B4901F07FFC294601F084FD294901F0BD
:103FE00077FC294601F07EFD274901F073FC294644
:103FF00001F078FD254901F06BFC294601F072FDC6
:10400000234901F067FC294601F06CFD214B9C42DD
:104010008046B8DD204B9C4227DC04F17F442146DA
:104020004FF07E5001F054FC81464FF07C51284601
:1040300001F058FD214601F04BFC4146044628465C
:1040400001F050FD39460546304601F04BFD014672
:10405000284601F03DFC0146204601F039FC0146AE
:10406000484601F035FCBDE8F883DFF834900B4C8E
:10407000DBE74FF07E50BDE8F88300BF4ED747AD79
:10408000F6740F317CF29334010DD037610BB63AE0
:10409000ABAA2A3D9999993E0000483F0000903E06
:1040A0000000383F2DE9F04FDFB0BE4C0A93013BD2
:1040B0000193D31E48BF131D689D0891DB1023EAAE
:1040C000E37354F825400B9319460133A2EBC30365
:1040D0000794019A0693079B02909C18A1EB020596
:1040E00015D42C44013421AE699F08E057F825000F
:1040F00001F0A4FC0135A54246F8040F07D0002DBD
:10410000F4DA01350020A54246F8040FF7D1079BE9
:10411000002B2ADB079B0A9A019E194649AF01EB47
:1041200002089346019B002BC0F2A18122ABCBEB8E
:10413000060503EB8505029BA3F1040A22AB03EB02
:1041400086044FF000095AF8041F54F8040901F0DE
:10415000C9FC0146484601F0BDFBAC428146F2D1A4
:104160000136464547F8049FDCD1079E06F180439F
:10417000023B9B001A1D0EA90A440B440D920C939E
:104180005EAB03EB8603002E53F8508C23DD5EAB51
:1041900003EB8604543C0DAD49AF4FF06E514046E1
:1041A00001F0A0FC01F07AFE01F048FC4FF08741DD
:1041B000814601F097FC0146404601F089FB01F081
:1041C0006DFE54F8041945F8040F484601F082FBCF
:1041D000BC428046E1D14046DDF81880414600F0FF
:1041E0002BFE4FF07851044601F07CFC00F0DEFD20
:1041F0004FF0824101F076FC0146204601F068FB59
:10420000044601F04BFE074601F018FC014620462B
:1042100001F05EFB4446002C054640F30F81711E01
:104220000EAAC8F1080352F8212042FA03F000FA5E
:1042300003F3D31A0EAAC8F1070A42F82130074443
:1042400043FA0AFABAF1000F30DD002E07F1010738
:1042500040F34D82002214460DA907E0C3F580709B
:104260000BB108600124013296420BDD51F8043F86
:10427000002CF3D00132C3F1FF0396420B604FF0E4
:104280000104F3DC069B002B0DDD012B00F0DE802A
:10429000022B08D1721E0EAB0EA953F8223003F088
:1042A0003F0341F82230BAF1020F7DD000212846A9
:1042B00001F0ACFD002800F09180079B741EA34222
:1042C00010DC06F180430EAA013B0D9802EB83033C
:1042D000002253F80419834242EA0102F9D1002A6C
:1042E00040F0DF80079B0EAA013B52F82330002BE1
:1042F00040F0FB810C9B012753F804290137002A69
:10430000FAD0F219731C9342099240DC0B9AB9005F
:1043100003EB02080A9A039108F180486999164450
:1043200008F1FF38B20001EB880822A99B00049233
:1043300001EB020A4AAA02EB0309043B059300269B
:1043400058F8040F01F07AFB019B4AF8040B002B8C
:104350001FDB049BF418059BF51822AB1C441D447D
:10436000029B0027A3F1040B5BF8041F54F8040917
:1043700001F0B8FB0146384601F0ACFAAC42074602
:10438000F2D1039B49F8047B04369E42D8D1099EA2
:10439000F6E6039B043600279E4249F8047BCFD102
:1043A000F5E700BF9C9D000829464FF07E5001F0C4
:1043B0008FFA0546002C3FF479AF06994FF07E50F6
:1043C00000F03AFD0146284601F082FA0546002138
:1043D000284601F01BFD00287FF46FAF0297069F6F
:1043E0002846794200F028FD4FF08741044601F04D
:1043F0002BFD002800F080814FF06E51204601F027
:1044000071FB01F04BFD01F019FB4FF087410546B0
:1044100001F068FB0146204601F05AFA01F03EFD2A
:104420000EAB741C43F82600284601F037FD3B46CE
:10443000083306930EAB43F8240047E010D1731EF7
:104440000EAA52F823304FEA232AFBE6721E0EAB67
:104450000EA953F8223003F07F0341F8223022E7FF
:104460004FF07C5101F0F0FC50B982461EE7013656
:104470004FF00009464547F8049F7FF453AE74E6B9
:10448000002E07F10107C8BF4FF0020A3FF7E2AE66
:1044900029464FF07E5001F01BFA4FF0020A054604
:1044A00004E70EAB069A53F824300297083A0692B6
:1044B00063B904F18043013B0EA901EB830353F878
:1044C0000419013C083A0029F9D0069206994FF0E8
:1044D0007E5000F0B1FC002C0546C0F21781A3000D
:1044E0004AAA1F1D02EB030801930EAB1F4408F1FB
:1044F000040657F8040D01F0A1FA294601F0F2FA7A
:104500004FF06E5146F8040D284601F0EBFA0EAB61
:104510009F420546EDD1DDF81C90CDF80CA0A8F126
:1045200004080027A346B9F1000FB8BF002615DB29
:10453000814C82480026C246002503E0AF420DDBD5
:1045400054F8040F5AF8041F01F0CCFA0146304623
:1045500001F0C0F90135A9450646EFDA5EAB03EB81
:104560008703A8F1040843F8A06C48AB984507F10D
:104570000107D8D1689BDDF80CA05C46032B59D805
:10458000DFE803F08C5E5E02002C40F3BD80019AF0
:104590005EA98B1836AD53F8A07CAE1856F8049C73
:1045A0003946484601F096F980460146484601F0F2
:1045B0008FF9394601F08EF9306046F8048DB54226
:1045C0004746EBD1012C40F39F80019A5EA98B18DE
:1045D000AC1853F8A06C25460DF1DC0955F8048C95
:1045E0003046414601F076F907460146404601F063
:1045F0006FF9314601F06EF9286045F8047DA94550
:104600003E46EBD10020043438AD54F8041D01F0CF
:1046100061F9A542F9D1BAF1000F6AD0369A379BF9
:1046200000F1004002F1004203F10043089CA06049
:1046300022606360029B03F007005FB0BDE8F08F6B
:10464000019D36AE04353544002055F8041D01F0B7
:1046500041F9B542F9D1BAF1000F39D0089A00F109
:10466000004301461360369801F032F9002C0BDD4F
:1046700036AE0125013556F8041F01F02BF9AC4286
:10468000F8DABAF1000F4FD0089A00F100435360F6
:10469000029B03F007005FB0BDE8F08F019B5EAAAC
:1046A00013440020A3F19C05013C55F8041D01F0C2
:1046B00011F9631CF8D1BAF1000F01D000F10040EC
:1046C000089B1860029B03F007005FB0BDE8F08F05
:1046D000089B01461860369801F0FAF8002CD8BF04
:1046E0000346C5DC089A5360D2E7012709E6002497
:1046F000C8E5369A379B99E7204601F0CFFB0EAB11
:10470000344643F82600E1E6002084E7689B032B4B
:1047100090D801A252F823F035470008314700082D
:104720003147000809470008089A03465360AFE77D
:10473000002090E70020BEE7A89D00080000C93FC8
:104740002DE9F84320F00043B3F1485F04460F46DB
:10475000904603DA01F0A2FB002858D021462046FB
:1047600001F0C0F905460146204601F0BBF9294990
:104770000646284601F0B6F9274901F0A9F829466E
:1047800001F0B0F9254901F0A5F8294601F0AAF990
:10479000234901F09DF8294601F0A4F9214901F0CF
:1047A00099F88146B8F1000F22D04FF07C5138467D
:1047B00001F098F949468046304601F093F90146E8
:1047C000404601F085F8294601F08CF9394601F0A0
:1047D0007FF815490546304601F084F90146284620
:1047E00001F078F80146204601F072F8BDE8F88340
:1047F0000146284601F076F90B4901F069F8314687
:1048000001F070F9214601F065F8BDE8F883204613
:10481000BDE8F883D3C92E2F342FD7321BEF38369B
:10482000010D50398988083CABAA2A3E00000000DF
:104830002DE9F84FC04B21F000469E420D468A46B6
:1048400004460FDDBD4B9E4200F3B28000F0AD8008
:10485000BB4BBC49BC4CBAF1000FC8BF194620463F
:10486000BDE8F88FB94B9E4200F3BC80A3F1DE7324
:104870009E4240F3A7804FF0FF3B22462B46204646
:10488000294600F0EFFC02460B468046894600F0C0
:10489000E9FC91A3D3E9002306460F4600F0E2FCB1
:1048A0008FA3D3E9002300F02BFB32463B4600F0F8
:1048B000D9FC8DA3D3E9002300F022FB32463B460E
:1048C00000F0D0FC8AA3D3E9002300F019FB3246A4
:1048D0003B4600F0C7FC88A3D3E9002300F010FB9F
:1048E00032463B4600F0BEFC85A3D3E9002300F02E
:1048F00007FB42464B4600F0B5FC83A3D3E90023F7
:10490000804689463046394600F0ACFC80A3D3E9A6
:10491000002300F0F3FA32463B4600F0A3FC7EA3EE
:10492000D3E9002300F0EAFA32463B4600F09AFC55
:104930007BA3D3E9002300F0E1FA32463B4600F0C6
:1049400091FC79A3D3E9002300F0D8FA32463B4624
:1049500000F088FCBBF1FF3F02460B4669D04046A1
:10496000494600F0CDFA22462B4600F07BFC784EFB
:10497000784B4FEACB0B5E449B44DBE9002300F00D
:10498000BDFA22462B4600F0B9FA02460B46D6E99C
:10499000000100F0B3FABAF1000F0446BFF65FAFB2
:1049A00001F100412046BDE8F88F00283FF450AFE8
:1049B000224620462B46294600F0A2FA044620460D
:1049C000BDE8F88F5AA3D3E9002300F099FA00223A
:1049D000614B00F0D7FE00283FF44DAF294620463A
:1049E000BDE8F88F00F0C2F85C4B9E4204460D46CD
:1049F0002FDCA3F550239E4254DC02460B4600F008
:104A00007FFA0022544B00F079FA002206460F4646
:104A10004FF080432046294600F072FA02460B46CA
:104A20003046394600F048FD4FF0000B04460D4675
:104A300023E74046494600F063FA22462B4600F041
:104A400011FC02460B462046294600F057FA044660
:104A500005E7434B9E421ADC0022424B00F04EFA1F
:104A6000002206460F463F4B2046294600F0FAFB3F
:104A70000022394B00F044FA02460B4630463946D4
:104A800000F01AFD4FF0020B04460D46F5E6024613
:104A90000B460020344900F00FFD4FF0030B044695
:104AA0000D46EAE600222C4B00F028FA00220646CA
:104AB0000F46294B2046294600F022FA02460B46B3
:104AC0003046394600F0F8FC4FF0010B04460D4625
:104AD000D3E600BFAFF3008011DA22E33AAD903F96
:104AE000EB0D76244B7BA93F513DD0A0660DB13F25
:104AF0006E204CC5CD45B73FFF8300922449C23F8D
:104B00000D5555555555D53F2F6C6A2C44B4A2BF51
:104B10009AFDDE522DDEAD3F6D9A74AFF2B0B33F19
:104B2000711623FEC671BC3FC4EB98999999C93F91
:104B30009C7500883CE4377EFFFF0F440000F07F47
:104B4000FB21F93FFB21F9BF182D4454FFFFDB3F48
:104B5000F89D0008D89D00080000F03FFFFFF23FDD
:104B6000FF7F03400000F83F0000F0BF21F000414C
:104B7000704700BF002070472DE9F04120F000454C
:104B8000B5F1A14F0446064608DBB5F1FF4F6FDCD7
:104B9000002840F3A0806F48BDE8F0816E4B9D4235
:104BA00077DCB5F1445F68DB4FF0FF3721462046E4
:104BB00000F098FF0146804600F094FF67490546E3
:104BC00000F090FF664900F085FE294600F08AFF5C
:104BD000644900F07FFE294600F084FF624900F03E
:104BE00079FE294600F07EFF604900F073FE2946F9
:104BF00000F078FF5E4900F06DFE414600F072FF64
:104C00005C498046284600F06DFF5B4900F060FE7D
:104C1000294600F067FF594900F05AFE294600F086
:104C200061FF574900F054FE294600F05BFF5549EB
:104C300000F04EFE294600F055FF7B1C0146404621
:104C40004CD000F047FE214600F04CFF4E4B4F4D3C
:104C500053F8271000F03CFE214600F039FE0146D3
:104C600055F8270000F034FE002E30DBBDE8F0815F
:104C7000014600F02FFEBDE8F081454900F02AFE14
:104C80004FF07E5101F0EAF800288DD02046BDE8B3
:104C9000F08100F087F83F4B9D42044629DCA3F5E4
:104CA000D0039D4244DC014600F014FE4FF07E51DB
:104CB00000F00EFE4FF080410546204600F00AFE4F
:104CC0000146284600F0C2FF002704466EE700F1C7
:104CD0000040BDE8F0813048BDE8F08100F0FAFD09
:104CE000214600F0FFFE0146204600F0F1FDBDE840
:104CF000F0812A4B9D4214DC4FF07F5100F0E8FD1B
:104D00004FF07F510546204600F0ECFE4FF07E51FB
:104D100000F0E0FD0146284600F098FF0227044617
:104D200044E701461E4800F091FF032704463DE793
:104D30004FF07E5100F0CCFD4FF07E5105462046ED
:104D400000F0C8FD0146284600F080FF0127044618
:104D50002CE700BFDB0FC93FFFFFDF3ED769853C73
:104D600059DA4B3D356B883D6E2EBA3D2549123ED2
:104D7000ABAAAA3E21A215BD6BF16E3D95879D3D64
:104D8000388EE33DCDCC4C3E189E0008289E00088E
:104D9000CAF24971FFFF973FDB0FC9BFFFFF1B40FE
:104DA000000080BF20F00040704700BF2DE9F041B7
:104DB00020F00047FC0D7F3C162C054613DC002C30
:104DC00080461BDB194F2741384214D0184900F0A8
:104DD00081FD002101F042F868B1002D1BDB28EABB
:104DE0000700BDE8F081B7F1FF4F04D3014600F0A2
:104DF00071FDBDE8F0812846BDE8F0810C4900F066
:104E000069FD002101F02AF80028F4D0002D08DB0C
:104E10000020BDE8F0814FF4000343FA04F4A044FD
:104E2000DDE7002FE7D00348BDE8F081FFFF7F00FA
:104E3000CAF24971000080BF30F0004238B5034625
:104E400016D0B2F1FF4F0FD2B2F5000F0D4610D3BE
:104E50000446D20D2A44FE2A2EDC002A1DDD24F051
:104E6000FF4444EAC25038BD014600F033FD38BD6E
:104E700038BD4FF0984100F035FE184A9542034680
:104E800007DBC0F3C7520446193AE3E7144800F0C1
:104E90002BF8134900F026FE38BD12F1160F13DA75
:104EA0004CF2503295421946F0DD0E4800F01CF8E5
:104EB0000C4900F017FE38BD19460A4800F014F8F6
:104EC000084900F00FFE38BD193224F0FF4040EAD7
:104ED000C2504FF04C5100F005FE38BDB03CFFFF12
:104EE0006042A20DCAF2497101F0004120F0004079
:104EF0000843704781F0004102E000BF83F00043A7
:104F000030B54FEA41044FEA430594EA050F08BF64
:104F100090EA020F1FBF54EA000C55EA020C7FEA28
:104F2000645C7FEA655C00F0E2804FEA5454D4EBA5
:104F30005555B8BF6D420CDD2C4480EA020281EA6F
:104F4000030382EA000083EA010180EA020281EAA7
:104F50000303362D88BF30BD11F0004F4FEA0131F9
:104F60004FF4801C4CEA113102D0404261EB410108
:104F700013F0004F4FEA03334CEA133302D052428E
:104F800063EB430394EA050F00F0A780A4F101044A
:104F9000D5F1200E0DDB02FA0EFC22FA05F2801884
:104FA00041F1000103FA0EF2801843FA05F359416A
:104FB0000EE0A5F120050EF1200E012A03FA0EFCE9
:104FC00028BF4CF0020C43FA05F3C01851EBE37113
:104FD00001F0004507D54FF0000EDCF1000C7EEB30
:104FE00000006EEB0101B1F5801F1BD3B1F5001F6E
:104FF0000CD349085FEA30004FEA3C0C04F101048D
:105000004FEA445212F5800F80F09A80BCF1004FB5
:1050100008BF5FEA500C50F1000041EB045141EA37
:10502000050130BD5FEA4C0C404141EB010111F438
:10503000801FA4F10104E9D191F0000F04BF0146E3
:105040000020B1FA81F308BF2033A3F10B03B3F1C1
:1050500020020CDA0C3208DD02F1140CC2F10C0251
:1050600001FA0CF021FA02F10CE002F11402D8BFAF
:10507000C2F1200C01FA02F120FA0CFCDCBF41EA7B
:105080000C019040E41AA2BF01EB0451294330BD4A
:105090006FEA04041F3C1CDA0C340EDC04F1140427
:1050A000C4F1200220FA04F001FA02F340EA0300FE
:1050B00021FA04F345EA030130BDC4F10C04C4F144
:1050C000200220FA02F001FA04F340EA0300294624
:1050D00030BD21FA04F0294630BD94F0000F83F46E
:1050E000801306BF81F480110134013D4EE77FEA51
:1050F000645C18BF7FEA655C29D094EA050F08BF9D
:1051000090EA020F05D054EA000C04BF194610467D
:1051100030BD91EA030F1EBF0021002030BD5FEAC1
:10512000545C05D14000494128BF41F0004130BDE9
:1051300014F580043CBF01F5801130BD01F000453D
:1051400045F0FE4141F470014FF0000030BD7FEAB0
:10515000645C1ABF194610467FEA655C1CBF0B46AB
:10516000024650EA013406BF52EA033591EA030FC2
:1051700041F4002130BD00BF90F0000F04BF0021BA
:10518000704730B54FF4806404F132044FF00005ED
:105190004FF0000150E700BF90F0000F04BF002166
:1051A000704730B54FF4806404F1320410F00045CC
:1051B00048BF40424FF000013EE700BF42004FEAC7
:1051C000E2014FEA31014FEA02701FBF12F07F4344
:1051D00093F07F4F81F06051704792F0000F14BF41
:1051E00093F07F4F704730B54FF4607401F0004585
:1051F00021F0004120E700BF50EA010208BF7047DC
:1052000030B54FF000050AE050EA010208BF7047D0
:1052100030B511F0004502D5404261EB41014FF439
:10522000806404F132045FEA915C3FF4DCAE4FF03D
:1052300003025FEADC0C18BF03325FEADC0C18BF24
:10524000033202EBDC02C2F1200300FA03FC20FA75
:1052500002F001FA03FE40EA0E0021FA02F11444C2
:10526000C1E600BF70B54FF0FF0C4CF4E06C1CEAD7
:1052700011541DBF1CEA135594EA0C0F95EA0C0F4C
:1052800000F0DEF82C4481EA030621EA4C5123EABF
:105290004C5350EA013518BF52EA033541F48011EE
:1052A00043F4801338D0A0FB02CE4FF00005E1FBA1
:1052B00002E506F00042E0FB03E54FF00006E1FBEB
:1052C00003569CF0000F18BF4EF0010EA4F1FF042E
:1052D000B6F5007F64F5407404D25FEA4E0E6D416E
:1052E00046EB060642EAC62141EA55514FEAC5207F
:1052F00040EA5E504FEACE2EB4F1FD0C88BFBCF5FB
:10530000E06F1ED8BEF1004F08BF5FEA500E50F1AB
:10531000000041EB045170BD06F0004646EA010171
:1053200040EA020081EA0301B4EB5C04C2BFD4EBA3
:105330000C0541EA045170BD41F480114FF0000E9C
:10534000013C00F3AB8014F1360FDEBF002001F00A
:10535000004170BDC4F10004203C35DA0C341BDC84
:1053600004F11404C4F1200500FA05F320FA04F056
:1053700001FA05F240EA020001F0004221F000418A
:1053800010EBD37021FA04F642EB06015EEA430EFD
:1053900008BF20EAD37070BDC4F10C04C4F120052D
:1053A00000FA04F320FA05F001FA04F240EA0200E0
:1053B00001F0004110EBD37041F100015EEA430EB1
:1053C00008BF20EAD37070BDC4F1200500FA05F2D1
:1053D0004EEA020E20FA04F301FA05F243EA020350
:1053E00021FA04F001F0004121FA04F220EA02005F
:1053F00000EBD3705EEA430E08BF20EAD37070BDA5
:1054000094F0000F0FD101F00046400041EB010184
:1054100011F4801F08BF013CF7D041EA060195F066
:10542000000F18BF704703F00046520043EB030320
:1054300013F4801F08BF013DF7D043EA060370470D
:1054400094EA0C0F0CEA135518BF95EA0C0F0CD018
:1054500050EA410618BF52EA4306D1D181EA03015E
:1054600001F000414FF0000070BD50EA410606BF58
:105470001046194652EA430619D094EA0C0F02D19D
:1054800050EA013613D195EA0C0F05D152EA0336E2
:105490001CBF104619460AD181EA030101F0004100
:1054A00041F0FE4141F470014FF0000070BD41F049
:1054B000FE4141F4780170BD70B54FF0FF0C4CF423
:1054C000E06C1CEA11541DBF1CEA135594EA0C0F42
:1054D00095EA0C0F00F0A7F8A4EB050481EA030E8F
:1054E00052EA03354FEA013100F088804FEA033376
:1054F0004FF0805545EA131343EA12634FEA022244
:1055000045EA111545EA10654FEA00260EF0004104
:105510009D4208BF964244F1FD0404F5407402D256
:105520005B084FEA3202B61A65EB03055B084FEAE7
:1055300032024FF480104FF4002CB6EB020E75EBE4
:10554000030E22BFB61A754640EA0C005B084FEA0C
:105550003202B6EB020E75EB030E22BFB61A754689
:1055600040EA5C005B084FEA3202B6EB020E75EBD4
:10557000030E22BFB61A754640EA9C005B084FEA4C
:105580003202B6EB020E75EB030E22BFB61A754659
:1055900040EADC0055EA060E18D04FEA051545EA48
:1055A00016754FEA06164FEAC30343EA52734FEAF1
:1055B000C2025FEA1C1CC0D111F4801F0BD141EA6A
:1055C00000014FF000004FF0004CB6E711F4801FCF
:1055D00004BF01430020B4F1FD0C88BFBCF5E06FAF
:1055E0003FF6AFAEB5EB030C04BFB6EB020C5FEABF
:1055F000500C50F1000041EB045170BD0EF0004E14
:105600004EEA113114EB5C04C2BFD4EB0C0541EA45
:10561000045170BD41F480114FF0000E013C90E642
:1056200045EA060E8DE60CEA135594EA0C0F08BF06
:1056300095EA0C0F3FF43BAF94EA0C0F0AD150EA05
:1056400001347FF434AF95EA0C0F7FF425AF104698
:1056500019462CE795EA0C0F06D152EA03353FF4C0
:10566000FDAE1046194622E750EA410618BF52EA3D
:1056700043067FF4C5AE50EA41047FF40DAF52EA11
:1056800043057FF4EBAE12E74FF0FF3C06E000BFAE
:105690004FF0010C02E000BF4FF0010C4DF804CDBB
:1056A0004FEA410C7FEA6C5C4FEA430C18BF7FEA7B
:1056B0006C5C1BD001B050EA410C0CBF52EA430CA9
:1056C00091EA030F02BF90EA020F0020704710F129
:1056D000000F91EA030F58BF994208BF90422CBFB8
:1056E000D8176FEAE37040F0010070474FEA410CB1
:1056F0007FEA6C5C02D150EA013C07D14FEA430CCF
:105700007FEA6C5CD6D152EA033CD3D05DF8040B3F
:10571000704700BF8446104662468C461946634671
:1057200000E000BF01B5FFF7B7FF002848BF10F148
:10573000000F01BD4DF808EDFFF7F4FF0CBF01208D
:1057400000205DF808FB00BF4DF808EDFFF7EAFF09
:1057500034BF012000205DF808FB00BF4DF808EDC4
:10576000FFF7E0FF94BF012000205DF808FB00BFB9
:105770004DF808EDFFF7CEFF94BF012000205DF843
:1057800008FB00BF4DF808EDFFF7C4FF34BF012050
:1057900000205DF808FB00BF4FEA410212F500123D
:1057A00015D211D56FF47873B3EB625212D94FEA68
:1057B000C12343F0004343EA505311F0004F23FA52
:1057C00002F018BF404270474FF00000704750EAA7
:1057D000013005D111F0004008BF6FF00040704764
:1057E0004FF00000704700BF4A0011D212F50012BE
:1057F00011D20DD56FF47873B3EB62520ED44FEA29
:10580000C12343F0004343EA505323FA02F07047A8
:105810004FF00000704750EA013002D14FF0FF30E6
:1058200070474FF0000070474FEA4102B2F1E04389
:1058300024BFB3F5001CDCF1FE5C0DD901F0004C77
:105840004FEAC0024CEA5070B2F1004F40EB8300C7
:1058500008BF20F00100704711F0804F21D113F1F3
:105860003872BCBF01F00040704741F480114FEA2C
:105870005252C2F11802C2F1200C10FA0CF320FAB5
:1058800002F018BF40F001004FEAC1234FEAD323D2
:1058900003FA0CFC40EA0C0023FA02F34FEA43033C
:1058A000CCE77FEA625307D150EA01331EBF4FF0C5
:1058B000FE4040F44000704701F0004040F0FE40E0
:1058C00040F40000704700BF80F0004002E000BFDD
:1058D00081F0004142001FBF5FEA410392EA030FDB
:1058E0007FEA226C7FEA236C6AD04FEA1262D2EB25
:1058F0001363C1BFD218414048404140B8BF5B422A
:10590000192B88BF704710F0004F40F4000020F0C2
:105910007F4018BF404211F0004F41F4000121F0D8
:105920007F4118BF494292EA030F3FD0A2F1010222
:1059300041FA03FC10EB0C00C3F1200301FA03F160
:1059400000F0004302D5494260EB4000B0F5000F83
:1059500013D3B0F1807F06D340084FEA310102F142
:105960000102FE2A51D2B1F1004F40EBC25008BFF4
:1059700020F0010040EA03007047490040EB0000BE
:1059800010F4000FA2F10102EDD1B0FA80FCACF1ED
:10599000080CB2EB0C0200FA0CF0AABF00EBC250EC
:1059A00052421843BCBFD0401843704792F0000FDA
:1059B00081F4000106BF80F400000132013BB5E72D
:1059C0004FEA41037FEA226C18BF7FEA236C21D0A3
:1059D00092EA030F04D092F0000F08BF0846704708
:1059E00090EA010F1CBF0020704712F07F4F04D1D6
:1059F000400028BF40F00040704712F100723CBFE9
:105A000000F50000704700F0004343F0FE4040F412
:105A1000000070477FEA226216BF08467FEA2363D0
:105A20000146420206BF5FEA412390EA010F40F4BB
:105A3000800070474FF0000304E000BF10F0004307
:105A400048BF40425FEA000C08BF704743F09643EE
:105A500001464FF000001CE050EA010208BF704709
:105A60004FF000030AE000BF50EA010208BF704790
:105A700011F0004302D5404261EB41015FEA010CA5
:105A800002BF84460146002043F0B64308BFA3F19D
:105A90008053A3F50003BCFA8CF2083AA3EBC2537F
:105AA00010DB01FA02FC634400FA02FCC2F120029E
:105AB000BCF1004F20FA02F243EB020008BF20F0D5
:105AC0000100704702F1200201FA02FCC2F120023B
:105AD00050EA4C0021FA02F243EB020008BF20EA30
