:020000040800F2
:10000000603700204D110008A5110008A511000857
:10001000A5110008A5110008A511000800000000A6
:10002000000000000000000000000000A511000812
:10003000A51100080000000095060008E50600086C
:10004000A5110008A5110008A5110008A5110008B8
:10005000A5110008A5110008A5110008A5110008A8
:10006000A5110008A5110008A5110008A511000898
:10007000A5110008A5110008A5110008A511000888
:10008000A5110008A5110008A5110008A511000878
:10009000A5110008A5110008A5110008A511000868
:1000A000A5110008A5110008A5110008A511000858
:1000B000E9280008A5110008A5110008A5110008ED
:1000C000A5110008A5110008A5110008A511000838
:1000D000A5110008A51100080D0F0008A5110008C2
:1000E000A5110008A5110008A5110008A511000818
:1000F000A5110008A5110008A5110008A511000808
:10010000A5110008A5110008A5110008A5110008F7
:10011000A5110008A5110008A5110008A5110008E7
:10012000A5110008A5110008A5110008A5110008D7
:10013000A5110008A5110008A5110008A5110008C7
:10014000A5110008A5110008A5110008A5110008B7
:10015000A5110008A5110008A5110008A5110008A7
:10016000A5110008A5110008A5110008A511000897
:10017000A5110008A5110008A5110008A511000887
:10018000A5110008A511000870B584B0684601F0FB
:1001900065FA1F4B0098186004F028FC00221D4BE4
:1001A0001D4E04F099FC00221C4B04460D4604F041
:1001B000BDFD00221A4B04F08FFC04F09FFE10A33B
:1001C000D3E9002330602946204604F0AFFD002229
:1001D000134B144E04F080FC04F090FE124B2946A1
:1001E000186009A3D3E90023204604F09FFD0022F4
:1001F0000B4B04F071FC04F081FE306004B070BD64
:10020000000000000094C14000000000882A614105
:10021000100100200000F43F1401002000002240E3
:100220000000E03F180100201C01002084B0019074
:10023000019B93B10A4B1A6800210391039B9A42D8
:1002400005D9039B01330393039B9342F9D3019B8D
:10025000013B0193019B002BEFD104B0704700BF1D
:100260001801002084B00190019B93B10A4B1A68D9
:1002700000210391039B9A4205D9039B0133039309
:10028000039B9342F9D3019B013B0193019B002BFC
:10029000EFD104B0704700BF1C010020124B1B7847
:1002A0001BB9124B1B7803B900B9704770B50446EF
:1002B00000F024F80E4B0F4D1A6892F8381092F89F
:1002C00039606B5C23EA06036B5433B90A4992F830
:1002D0003A500B7823EA05030B70146300F010F812
:1002E000BDE8704002F08CB9941D00202C1C002049
:1002F000981D0020881D0020841D002072B67047C4
:1003000062B6704772B60E48FF210170002080F37C
:1003100009880C48016881F308880B4801210170A5
:100320000A484FF08051016062B6FEE707484FF07F
:1003300080510160704705484FF08051016070475F
:1003400022ED00E0200100202E1C002004ED00E042
:10035000F0B5144C83B00121082001F0CBF9002541
:1003600020466946022740F60E0601238DF8043028
:100370008DF806508DF807508DF80570009602F044
:100380004BFB4FF470736946204600938DF8045080
:100390008DF8077002F040FB3146204602F096FBD4
:1003A00003B0F0BD000C024038B54FF4006168485E
:1003B00002F08CFB0821664802F086FB402164486D
:1003C00002F07CFB80210446614802F077FB0128A3
:1003D0001CBF013CB4FA84F44FF480715C4814BF34
:1003E0006409022402F06AFB01284FF400715848A6
:1003F00000F0968002F062FB012800F09580002C4E
:1004000040F0A4800821524802F060FB04215048CB
:1004100002F05AFB40214E4802F050FB8021054675
:100420004B4802F04BFB01281CBF013DB5FA85F596
:100430004FF48071464814BF6D09022502F03EFB5F
:1004400001284FF40071424864D002F037FB0128C4
:1004500064D0002D76D104213D4802F037FB022103
:100460003B4802F031FB4021394802F027FB802154
:100470000546374802F022FB01281CBF013DB5FAB2
:1004800085F54FF48071324814BF6D09022502F0E2
:1004900015FB01284FF400712D4835D002F00EFBFA
:1004A000012835D0002D4AD10221294802F00EFB47
:1004B0004FF40061264802F007FB4021244802F077
:1004C000FDFA80210546224802F0F8FA01281CBFF7
:1004D000013DB5FA85F54FF480711D4814BF6D09D3
:1004E000022502F0EBFA01284FF4007118481DD0E4
:1004F00002F0E4FA012804D0002D18BF2C46204653
:1005000038BD0424204638BD02F0D8FA012815D1A0
:100510000824C9E702F0D2FA012812D10C249AE784
:1005200002F0CCFA012810D110246BE702F0C6FAD1
:1005300001280CBF04240324204638BD03252C1DAC
:10054000B2E7032505F1080485E703240C3459E7D5
:10055000000C024030B5012183B0022001F0CAF83E
:100560004FF4807500230222012469460648009555
:100570008DF804408DF805208DF806308DF8073091
:1005800002F04AFA03B030BD00080240B0B110B525
:1005900004464FF480710A4802F098FA4FF48C70C8
:1005A000FFF744FE4FF48071054802F08DFA4FF4D6
:1005B0008C70FFF73BFE013CEBD110BD704700BFD4
:1005C0000008024010B5074C4FF40072204600218D
:1005D00004F04EFD04F50073034A23F00703136093
:1005E00010BD00BF2401002020010020704700BF83
:1005F000704700BF704700BF704700BF704700BF23
:10060000043222F00702F0B5134642F8080C42F813
:10061000201C4FF012374FF003364FF002354FF0E9
:1006200001344FF011304FF0103142F8107C42F895
:10063000146C42F8185C42F81C4C42F8240C42F846
:10064000281C4FF0807CDFF840E042F804CC4FF0EB
:1006500009374FF008364FF007354FF006344FF0AA
:1006600005304FF0043142F83C0C42F80CEC42F8F3
:100670002C7C42F8306C42F8345C42F8384C43F839
:10068000401D1846F0BD00BF6D310008704700BF27
:10069000704700BF72B6EFF3098028B1203880E8B8
:1006A000F00F0C49096808600B480C490A78027081
:1006B00008480B490A680260106890E8F00F203083
:1006C00080F309884EF0040E7FF0020E62B6704788
:1006D00070470000981D0020881C0020341C00205A
:1006E0007C1D002008B572B600B5FFF707FE084A6A
:1006F000137801331370FFF703FE01F055FE01F08C
:10070000D3FD5DF804EB4EF0040E62B608BD00BFE9
:10071000941D0020084A0949094B013810600A68F5
:1007200022F07F420A601A6842F005021A601A68D5
:1007300042F002021A60704714E000E020ED00E091
:1007400010E000E0028A0B89F0B592B2CF888E8863
:10075000044622F440523A4348890D468989228250
:10076000A289334392B2034322F4B05222F00C0226
:100770009BB21343A381A38A9BB223F440730B4320
:1007800085B0A382684600F069FF1D4B9C4228D0CB
:1007900003F580639C4224D0029AA389A18913F4B3
:1007A000004F2B6802EB820214BF5B009B0002EB40
:1007B0008202B2FBF3F0134AA2FB00356D096423F9
:1007C000090405FB13034FEA05150CD41B01323352
:1007D000A2FB0323C3F343132B439BB2238105B036
:1007E000F0BD039AD9E7D9003231A2FB0131C1F340
:1007F000421242EA05039BB2238105B0F0BD00BF5F
:10080000001001401F85EB51838929B923F400535F
:100810001B041B0C838170479BB243F400538381FC
:10082000704700BFC1F308018180704710B401F028
:100830001F04C1F342110123012903FA04F30FD06D
:1008400002290CBF103014302AB9026810BC22EA09
:10085000030303607047026810BC134303607047D2
:100860000C30F1E70388194214BF012000207047C3
:10087000C1F3421210B4012301F01F04012A03FA4C
:1008800004F315D0022A0CBF028A828A92B2134066
:10089000028892B24BB10123090A03FA01F10A421C
:1008A00014BF1846002010BC7047184610BC704793
:1008B000828992B21340EBE7090A012303FA01F19E
:1008C000C94389B201807047F8B5104B1D789DB9B6
:1008D0000F460646FFF712FD0D4B1C6884B1616898
:1008E0000C4A26810526196065602670E260FFF7D4
:1008F00007FD3D702046F8BD10230B700020F8BDA9
:10090000FFF7FEFC72233B702046F8BD941D0020CB
:10091000582E00200C5100082DE9F041984C247805
:1009200088B0A4B91746974A0646107840B932787D
:10093000052A13D00E9A0123137008B0BDE8F08188
:100940000E9A0D232046137008B0BDE8F0810E9A70
:1009500002230020137008B0BDE8F08127F07F0269
:1009600002F0FF081AB107F07F074FF001088DE889
:100970000A00FFF7C3FC9DE80A00032F42D8DFE816
:1009800007F0382D1702328911EA020500F0E080E5
:10099000B8F1010F02D122EA050232817A4B1B68BD
:1009A0009D85FFF7ADFC0E9A002328461370C4E71F
:1009B000328931EA02042CD1B8F1010F02D122EAC6
:1009C00001023281704B1B6899850091FFF798FCFA
:1009D00000990E9A002308461370AEE7328931EA77
:1009E000020500F09A80B8F1010F04BF0A4332817A
:1009F000D4E732890A4275D1B8F1010F04BF0A4326
:100A00003281DFE7FFF77CFC0E9A6F231370002022
:100A100093E75D4CADF81C102168069691F83420E0
:100A20000B63002542F0200381F8343081F8355003
:100A30007368059103AA4FF0020E049503938A622E
:100A40008DF81EE003B15A60726091F838204F4D66
:100A500091F839E0AB5C23EA0E03AB5433B94C4A4E
:100A600091F83A10137823EA01031370FFF748FC5A
:100A700001F0C6FDFFF742FC236893F83550C5B17D
:100A80000499039A002483F83540002973D00A6042
:100A900002B15160059A0024946283F83440FFF754
:100AA0002FFC022D0E9A0CBF0E230A232046137032
:100AB00043E7B8F1010F9C8D09D1032FA2D8DFE8DD
:100AC00007F00D0D0202338923EA04033381FFF797
:100AD00017FC0E9A0023204613702EE73389234318
:100AE0003381F4E7284CADF81C102168069691F884
:100AF00034200B6342F02002002381F8342081F877
:100B000035307568059103AA8DF81E30049303955E
:100B10008A62002D98D06A6096E71B4CADF81C10D5
:100B20002168049591F8342081F8355042F0200274
:100B300081F834207568069603AA4FF0010E0B6306
:100B4000059103958A628DF81EE0002DE3D17BE7C5
:100B50000D4CADF81C102168049591F8342081F8F3
:100B6000355042F0200281F834207568069603AAB9
:100B70004FF0030EE3E7069C6260002A89D189E703
:100B8000941D00202C1C0020981D0020881D002092
:100B9000841D00202DE9F84F0478052C04D0012293
:100BA0001A700020BDE8F88F1D4617468846044697
:100BB000FFF7A4FB0646002F75D0012F6CD12189C9
:100BC00048EA010121816268002A00F08880DFF88C
:100BD00028E1DFF828819EF800C0002189460846F8
:100BE000937C032B4FD8DFE803F049441C02178A9B
:100BF00023893B401AD113681A46002BF0D10029F3
:100C000077D13046FFF77CFBB9F1000F6BD1FFF7CE
:100C100075FB2489FFF774FB00232B702046BDE889
:100C2000F88F138A278933EA0707E4D1976897F882
:100C300034A038630AF0DF0ABB8587F8350087F8EF
:100C400034A0BAF1000F33D04FF0000B92E8080443
:100C5000BAF1000F3CD0CAF800300BB1C3F804A0C1
:100C6000136892689062BBF1000FC5D04FF0010984
:100C7000C2E72789138ABB43BDD0D7E7138A2789E8
:100C80003B42B8D1D2E789BB3046FFF739FB6F232F
:100C90002B700020BDE8F88FFFF732FB71232B701B
:100CA0000020BDE8F88F218921EA080121818AE727
:100CB00097F838A097F8393018F80A1097F83A7072
:100CC0000B43012108F80A304CEA070C8B46BDE7BC
:100CD000D7687B60002BC4D0C3F804A0C1E73046BE
:100CE000FFF70EFB93E701F08BFC90E78EF800C056
:100CF000CAE78EF800C084E7841D0020881D00200C
:100D0000F8B5124C5021204601F072FC2146002318
:100D100001F8103B0E4A0F48616004F1200704F10E
:100D2000300604F14005676166626563237484F8E8
:100D3000203084F8303084F840306364E260E2614F
:100D4000E262E263E2640460F8BD00BF381C002088
:100D50000C510008582E00204268036832B113601D
:100D600003B15A60836800229A627047C1684B6081
:100D7000002BF6D1F6E700BF2DE9F043012187B043
:100D80004FF4003000F0C4FC204F214D01210846F3
:100D900000F0B0FC00244FF0020801264FF00C09CF
:100DA00038466946CDF800908DF804808DF80580AE
:100DB0008DF806408DF8076001F02EFE414638465A
:100DC000072201F085FE38460722032101F080FE4C
:100DD0004FF4E133284602A90293ADF80C40ADF878
:100DE0000E40ADF81040ADF81440ADF81290FFF78A
:100DF000A9FC3246284640F22551FFF717FD31463F
:100E00002846FFF701FD07B0BDE8F083000002406F
:100E100000440040F0B5012187B0224F224D4FF42D
:100E2000802000F075FC0121022000F063FC00240A
:100E30000223012638464FF4406269468DF804309B
:100E40008DF8053000928DF806408DF8076001F0AE
:100E5000E3FD384607220A2101F03AFE3846072210
:100E60000B2101F035FE0C2328464FF4614202A904
:100E7000ADF812300292ADF80C40ADF80E40ADF86E
:100E80001040ADF81440FFF75DFC3246284640F2B2
:100E90002551FFF7CBFC31462846FFF7B5FC07B0DC
:100EA000F0BD00BF000402400048004010B50446F9
:100EB00080210548FFF7D6FC0028F9D021460248DA
:100EC000BDE81040FFF7AEBC0044004030B583B031
:100ED00000230193019BC35C9BB10446019BE55C2D
:100EE00009488021FFF7BEFC0028F9D029460648B2
:100EF000FFF798FC019B01330193019BE35C002BFE
:100F0000ECD103B030BD00BF00440040F8B51D4C2B
:100F100040F225512046FFF7ABFC00B9F8BD40F286
:100F200025512046FFF7C8FCA388DBB2A3F141029C
:100F3000192A1F4617D90D2B17D8134E3368002BCB
:100F40000ADD124D002415F8011F0E48FFF76AFC58
:100F500033680134A342F6DC002339460948336084
:100F6000FFF760FC07E02033DBB2074A084C11684A
:100F7000481C6354106040210248FFF773FC0028AE
:100F8000F9D0F8BD004400400801002027030020EC
:100F90002803002030B585B0B0B930238DF80F306C
:100FA0000E240DEB0405013480215648FFF75AFC4E
:100FB0000028F9D015F9011F524889B2FFF732FC19
:100FC0000F2CF0D105B030BD4F4B5049A3FB00248E
:100FD000E40804EB8402A0EB42028A5C8DF80F2047
:100FE000002CDDD0A3FB0452D20802EB8202A4EB5A
:100FF0004204474A0C5D8DF80E40A2FB00425209A4
:101000006FD0A3FB0254E40804EB8404A2EB440475
:10101000404A0C5D8DF80D40A2FB004292096ED053
:10102000A3FB0254E40804EB8404A2EB44043A4A10
:101030000C5D8DF80C40A2FB0042520B5DD0A3FB6F
:101040000254E40804EB8404A2EB4404334D0A5D2B
:101050008DF80B204209A5FB0242D2094BD0A3FB1D
:101060000254E40804EB8404A2EB44042C4A0C5D13
:101070008DF80A40A2FB0042920C3AD0A3FB025426
:10108000E40804EB8404A2EB4404264A0C5D8DF8CA
:101090000940A2FB0042920D29D0A3FB0254E408B0
:1010A00004EB8404A2EB44041F4A0C5D8DF8084055
:1010B000A2FB0042520E18D0A3FB0243DB0803EB55
:1010C0008303A2EB4303194ACB5C8DF80730400A37
:1010D000A2FB0023DB0906D0CB5C8DF8063005248B
:1010E0005FE70D245DE706245BE7072459E7082442
:1010F00057E7092455E70A2453E70B2451E70C244A
:101100004FE700BF00440040CDCCCCCC10510008CC
:101110001F85EB51D34D62105917B7D1C55A7C0AC0
:1011200083DE1B436BCA5F6B893BE655834B040030
:1011300010B5054C20212046FFF794FB012806BF7F
:10114000A088C0B2FF2010BD0044004008B50F4881
:101150000F4B984207D2C2431A4422F003020432D2
:101160000C4903F0EBFE0C480C494FF0000288429A
:10117000B8BF40F8042BFADBDFF82400016841F423
:1011800070010160BDE8084000F030BA00000020A6
:10119000080100205A590008080100205C2F002097
:1011A00088ED00E008B53220FFF7F0F94FF4FA704F
:1011B000FFF758F8F7E700BFF0B50E4C206887B08E
:1011C000A8B10027E5686168237A268A019105F1B4
:1011D0008042013A01EB8202039702950093049644
:1011E000002101F0F1FE54F8140F0028EAD107B0F5
:1011F000F0BD00BF0000002030B5174C236883B05D
:101200001BB927E054F8143F23B3257A69462846D2
:1012100001F070FF0028F5D11048FFF757FE28466F
:10122000FFF7B8FE0E48FFF751FE01980028B8BF3F
:1012300003308010FFF7AEFE0A48FFF747FE009824
:101240000028B8BF03308010FFF7A4FE54F8143F05
:10125000002BDAD103B030BD00000020205100087F
:101260003C510008485100082DE9F0412F48304F0B
:10127000304DDFF8DC808AB0FFF728FE2E48FFF7FC
:1012800025FE2E48FFF722FE012602E01E20FFF772
:1012900005F80DF107020021386803F029F92B68E1
:1012A0009A06044628D42368013B012BEED80DF1A1
:1012B00007020021D8F8000002F0EEF89DF8073090
:1012C0000BBB0024E0B201F0BBFA01341420FEF79E
:1012D000E5FF102CF6D1D8F8000002F0F7F93246FD
:1012E000174902A800F010FE2B689B0616D402A82E
:1012F00002F0D6FD0136C9E71248FFF7E7FD206886
:10130000FFF748FECFE71048FFF7E0FD9DF8070024
:10131000FFF740FE0548FFF7D9FDD2E70B48FFF77E
:10132000D5FD02A8FFF7D2FDE1E700BF1459000880
:10133000241C0020E0000020545100087C510008CB
:10134000C451000884510008AC510008D051000875
:101350006C190020F0B52648264E274D274F83B044
:10136000FFF7B4FD2648FFF7B1FD2648FFF7AEFDB5
:1013700007E0236823F00203012B17D01E20FEF79D
:101380008DFF0DF107020021306803F0B1F82B68E2
:101390009B060446EDD51C48FFF798FD2068FFF733
:1013A000F9FD236823F00203012BE7D10DF10702B9
:1013B0000021386802F070F89DF807306BB90024FE
:1013C000E0B201F03DFA10341420FEF767FFF02C74
:1013D000F6D1386802F07AF9D0E70C48FFF776FDCD
:1013E0009DF80700FFF7D6FD0148FFF76FFDE6E720
:1013F00014590008241C0020E00000206C19002073
:1014000060510008D4510008E0510008AC510008B8
:10141000F0B51848184E194D83B0FFF757FD02ACD0
:101420001748FFF753FD01271648FFF74FFD44F813
:10143000047D07E001222146286803F0E7F81E201A
:10144000FEF72CFF0121104801F038FB0128F1D1F3
:1014500033689B0607D4019B032B03F1010314BFE0
:1014600001930197E6E70948FFF730FD0198FFF780
:1014700091FDF0E714590008E0000020241C002032
:101480006C51000808520008000002402C5200086D
:1014900000B583B00DF10701082001F0B3FF264A23
:1014A0009DF807301060002B3BD1002002F0FAFFBE
:1014B000224B1860002002F0F5FF214B0DF10701CF
:1014C00018600020FFF700FA1E4A9DF807301060F0
:1014D000E3B90DF107010020FFF7F6F91A4A9DF86C
:1014E000073010604BB11948FFF7F0FC9DF807007A
:1014F000FFF750FD1648FFF7E9FC0A21154801F0F7
:101500009DFB154B186003B05DF804FB1348FFF713
:10151000DDFC9DF80700FFF73DFD0D48FFF7D6FC09
:10152000D7E70F48FFF7D2FC9DF80700FFF732FD21
:101530000748FFF7CBFCB8E76C1900208C1A002095
:10154000241C0020201C0020281C0020845500089A
:101550001459000870190020881A002070550008DE
:101560005855000810B572B6174C206802F098FC68
:101570002068FFF7ABFC1548FFF7A8FC1448FFF7FD
:10158000A5FC1448FFF7A2FC00F066FFFFF702FD80
:101590001148FFF79BFC114B11481B68A0FB03305F
:1015A000800CFFF7F7FC0F48FFF790FCFFF770FF88
:1015B000FFF702FE0C48FFF7ADF862B6FF20BDE86A
:1015C000104001F05FBD00BFDC000020145900088E
:1015D000585200082455000838550008040100201E
:1015E00083DE1B435055000840D10C0008B501F0C4
:1015F00083FAFEF7C9FDFFF7BFFBFFF70BFC02F014
:101600001DF901F0C7F8FEF7A5FFFEF7A1FE00F0F7
:1016100093FD0121082000F06DF80D4B0D4A19686B
:101620000D4841F080711960196841F080611960BE
:10163000196841F080511960196841F080411960C2
:101640000523002101F076FC00F07EFEFEE700BFDE
:10165000000C02401C1C00206515000810B4214C31
:10166000A36803F00C03042B1AD0082B1BD01E4BCD
:1016700003601C4A1D499468C4F303140C5DE340E5
:1016800043609468C4F382240C5D23FA04F48460FC
:10169000926810BCC2F342328A5CD340C360704788
:1016A000134B0360E5E76368616813F4800F6368B8
:1016B00018BF0F4C01F03F020CBF0B49B4FBF2F115
:1016C000C3F3881308BFB1FBF2F101FB03F2054B32
:1016D0005B68C3F3014301335B00B2FBF3F30360C8
:1016E000C7E700BF003802400024F400E4000020F7
:1016F00000127A0029B9054A136B23EA000010632F
:101700007047024B1A6B1043186370470038024051
:1017100029B9054A136C23EA000010647047024B94
:101720001A6C10431864704700380240092B2DE9E9
:10173000F84316461C4602F1FF37054614D8002F21
:10174000D8BF012004DD3A4603F092FC3D44304608
:101750001D4BA3FB0423DB0803EB8303A4EB430330
:1017600030332B70BDE8F883174BA3FB04384FEAE6
:10177000D808B8F1090FA2F1020914D8B9F1000F85
:101780001DDD4A4603F074FCA94430460E4BA3FB12
:101790000823DB0803EB8303A8EB430330333D440A
:1017A00089F80030D4E7094BA3FB04235B094A46C0
:1017B000FFF7BCFF05EB0009471C0230E6E7814656
:1017C00001270220E2E700BFCDCCCCCC1F85EB5136
:1017D0002DE9F843002B144605463ADB092B1E463B
:1017E0001EDD554FA7FB0637FF08092F59D8A2F178
:1017F0000208B8F1000F40F38F80424603F038FC36
:1018000005EB0802611E20464B4BA3FB0743DB0898
:1018100003EB8303A7EB4303303313700D440CE059
:10182000541E002CD8BF012007DD012CB8BF0124B5
:10183000224603F01DFC2544601C3F49A1FB0631F4
:10184000C90801EB8101A6EB410130312970BDE8E7
:10185000F8835E42092E15DD374FA7FB0637FF08D8
:10186000092F40D8A2F10308B8F1000F5DDD424610
:1018700003F0FEFB05EB0802611E20462D2302F853
:10188000013BC1E7941E002C53DD012CB8BF01249D
:101890002246254403F0ECFB2D2305F8013BA01C58
:1018A000CBE7264BA3FB06384FEA5818B8F1090FCF
:1018B000A2F1030923D8B9F1000F31DD4A4603F044
:1018C000D7FB05EB090EA21E611E20461A4BA3FB97
:1018D0000843DB0803EB8303A8EB430330332A44BC
:1018E0008EF8003090E7154BA3FB06235B09A21E80
:1018F0005B42FFF76DFF2A18411C023084E7104B52
:10190000A3FB06239B094A46FFF762FF05EB000E87
:10191000421C811C0330D9E702460121022073E7F3
:101920008646022103200122D0E70246022103203D
:10193000A4E70024B0E700BFCDCCCCCC1F85EB5191
:10194000D34D62102DE9F04383B015460A9C5FEA3F
:10195000141806461F461CD1013A002AD8BF0120A0
:1019600003DD164403F084FB284604F00F04092C21
:101970000AD927B95734347003B0BDE8F08337343F
:10198000347003B0BDE8F0833034347003B0BDE888
:10199000F083A2F10209220A17D1B9F1000F22DD6A
:1019A0004A4603F065FBB1446A1E284608F00F035F
:1019B000092B05D997B9573389F800301644D4E775
:1019C000303389F800301644CFE700924A46FFF7DB
:1019D000B9FF06EB0009421C0230E7E7373389F80C
:1019E00000301644C1E7814601220220DEE700BF35
:1019F0002DE9F04F884689B01446054608B100220B
:101A0000027000269946217859B1464580F002813E
:101A100025290ED00134297021780136013500299D
:101A2000F3D1B04540F2F6803046297009B0BDE8E8
:101A3000F08F6178252938D030293BD00846A0F1B5
:101A40003003092B04F101044FF0200139D80023A1
:101A500003EB830300EB430314F8010FA0F1300202
:101A6000303B092A03F0FF03F2D91A46324490456D
:101A700038BFC6EB0803A0F1580038BFDBB22028FE
:101A800000F2CF80DFE800F0A5CDCDCDCDCDCDCD1E
:101A9000CDCDCD9D79CDCDCDCD79CDCDCDCDCDCD4E
:101AA000CDCDCD66CD3FCDCD20002970023401369D
:101AB0000135A8E7A078A0F13003092B04F1020456
:101AC000C5D900221346D1E7D9F800705FEA171A8A
:101AD00009F104099B4640F0CD8003F1FF3ABAF1C9
:101AE000000F40F3848152462846029303F0C0FA67
:101AF000029BAA441A469B4607F00F07092F40F2A3
:101B00008580573783E0D9F800A0BAF1090F09F1B1
:101B100004091F4603F1FF3B00F20681BBF1000FF1
:101B200040F35D815A462846029303F0A1FA029BD6
:101B300005EB0B001A469B46C84BA3FB0A13DB08B8
:101B400003EB8303AAEB43033033037001341544E2
:101B50005E4458E7D9F800100B7809F10409002B0E
:101B600000F022812A4602F8013B11F8013FC5EB43
:101B7000020B002BF7D15A46E8E7D9F80020002ADB
:101B800009F104091F46C0F2B480092A92464DDCCF
:101B90005F1E002F40F32F81012FB8BF01273A4667
:101BA000284603F065FA7A1CEB199346AB49A1FB72
:101BB0000A01C90801EB8101AAEB4101303119701A
:101BC000C4E7D9F800302B70012209F104099346CB
:101BD000BCE7D9F800705FEA171A09F104099B46BF
:101BE00068D103F1FF3ABAF1000F40F3FC8052468E
:101BF0002846029303F03CFA029BAA441A469B46ED
:101C000007F00F07092F01D9373700E030378AF87E
:101C100000709BE70023701E05F8013C09B0BDE889
:101C2000F08F4FF0FF3009B0BDE8F08F8B4BA3FB76
:101C3000023B4FEADB0BBBF1090FA7F1020300F2F5
:101C40009480002B40F3FB801A462846029303F051
:101C50000FFA029B781E2B443A468049A1FB0BE108
:101C6000C90801EB8101ABEB4101303119702B1830
:101C7000BB469BE73A0AA3F1020340F0A480002B85
:101C800040F3E2801A462846029303F0F1F9029BE2
:101C90000BF1FF312B445A460AF00F0ABAF1090F33
:101CA00094BF0AF1300A0AF1570A83F800A005EB45
:101CB000010A21E73A0AA3F1020378D1002B40F38D
:101CC000C8801A462846029303F0D2F9029B0BF112
:101CD000FF312B445A460AF00F0ABAF1090F94BF9C
:101CE0000AF1300A0AF1370A83F800A005EB010A6D
:101CF00086E7C2F1000ABAF1090F03F1FF3241DCB5
:101D00009F1E002F40F3D280012FB8BF01273A4613
:101D100007F1020B284603F0ABF92F445A463B4625
:101D20002D2103F8011B41E74C4BA3FB0A23DB08E1
:101D3000BA1E092B0393029261D8002A2DDD284692
:101D400003F096F9029B03982B4419463A46434BFD
:101D5000A3FB00E3DB0803EB8303A0EB4303303377
:101D600005EB0B000B70BB46E6E63D4AA2FB0A20E2
:101D70001A4643092846FFF72BFD871C2B183A46C5
:101D800001306AE7354BA3FB0A03DB085B422846B8
:101D9000FFF71EFD471C3A4669E70222174629460F
:101DA0004FF0010B1846D2E71A469B46CEE600924A
:101DB00028461A460123FFF7C5FD00F1020B5A46DB
:101DC0002B18411C87E7009228461A460023FFF78C
:101DD000B9FD00F1020B5A462B18411C5CE70122A9
:101DE00093462846A8E601229346AA4608E7012220
:101DF0009346AA4680E6012293462B46D6E6184B28
:101E0000A3FB0A235B09FA1E092B0593049229D828
:101E1000002A4FDD284603F02BF9049B3A462B4459
:101E200005990E48A0FB01E0C00800EB8000A1EB83
:101E300040000299303018702944039887E7022245
:101E400017462B46012008E7022293462B46012124
:101E500022E7022293462B4601213CE7CDCCCCCC95
:101E60001F85EB51254BA3FB0A239B091A46092A20
:101E70000693A7F104032ED8002B23DD1A4628462B
:101E8000079303F0F5F8079B05EB030E049B3A4616
:101E900006991B48A0FB01C0C00800EB8000A1EB25
:101EA000400030302B448EF80000B9E70222934600
:101EB0002F4634E70322012117462B464FF0020B31
:101EC0000291ADE70223042202931746AE464FF07B
:101ED000030B0123DCE70B4AA2FB0A201A46430B43
:101EE0002846FFF723FC071D811C3A4605EB000E30
:101EF000431C029100F1030BCAE700BFD34D6210EF
:101F0000CDCCCCCC5917B7D10EB400B582B003AB51
:101F1000642153F8042B0193FFF76AFD02B05DF8CA
:101F200004EB03B0704700BF30B51248124D134C9C
:101F300083B0FEF7CBFF1248FEF7C8FF1E20FEF766
:101F4000ADF9FFF7F5F8FF280DF107018DF807004F
:101F5000F4D0286802F034FB23689B07EED50948CB
:101F6000FEF7B4FF9DF80700FEF7A0FF0648FEF756
:101F7000ADFFE3E7A85500088C1A0020E000002020
:101F8000C8550008F0550008145900082DE9F04123
:101F90005448554E554CDFF88081554F82B0FEF7BE
:101FA00095FF5448FEF792FF0DF1070200213068BB
:101FB00002F09EFA0378313B0546422B25D8DFE834
:101FC00003F07181615141312424242424242424E8
:101FD00024242424242424242424242424242424C1
:101FE00024242424222424242424242424242424B3
:101FF00024242424242424242424242424242424A1
:10200000242424242200FFF7F7F823689B07CBD56C
:102010003948FEF75BFF2878FEF748FF3748FEF7A0
:1020200055FFC1E72368364883F020032360FEF79D
:102030004DFF236813F0200F14BF40463846FEF7CB
:1020400045FFE2E723682F4883F010032360FEF783
:102050003DFF236813F0100F14BF40463846FEF7CB
:1020600035FFD2E72368284883F008032360FEF792
:102070002DFF236813F0080F14BF40463846FEF7C3
:1020800025FFC2E72368214883F004032360FEF79D
:102090001DFF236813F0040F14BF40463846FEF7B7
:1020A00015FFB2E723681A4883F001032360FEF7A7
:1020B0000DFF236813F0010F14BF40463846FEF7AA
:1020C00005FFA2E72368134883F002032360FEF7AD
:1020D000FDFE236813F0020F14BF40463846FEF79A
:1020E000F5FE92E7B85500088C1A0020E0000020A9
:1020F00010560008D45100089C56000814590008D6
:1021000080560008685600085456000840560008DB
:10211000185600082C5600080856000810B5054C43
:10212000FEF7ECF8236801332360FEF7E9F8FEF7C9
:1021300063FAF5E7301C0020F0B589B0FEF742FAEB
:102140003F49404A4048414B414F424E424D002496
:102150000C60147004701C604049414B414A424875
:102160003C7034702C60414F414E424D1C605C60AD
:102170000C701470214604704FF4E7623E483C70C6
:1021800034602C6002F074FF21464FF480723B48AB
:102190003B4C02F06DFF3B4B03F5DC6143F8084C10
:1021A00043F8443C58338B42354AF7D1324B364FD3
:1021B000364EC3F8302700254FF4F062C3F8F456CA
:1021C00033483B602946356002F052FF314B2A46C6
:1021D00003F5ED6003F8182C43F8044C43F8143C65
:1021E000183398424FF000052549F3D1284B2A4A6D
:1021F00083F86857C3F86C57C3F87C171360FEF771
:102200007FFD00F0E5FB00F0DBFD244A0192032492
:1022100080204FF6FF7329460290009303953F23D9
:1022200002F5FE7204941E4800F0CEFE0DF11F026E
:102230001C493F2000F034FFFEF7D8F909B0F0BD8B
:102240009C1D0020941D00202C1C0020301C002010
:10225000141D00202E1C00200C1D00202D1C002011
:10226000881D0020841D0020881C0020341C0020B4
:102270007C1D0020981D0020202700205C2E0020BF
:102280000C51000878270020101D00208C1C002015
:10229000A01F0020B81F0020901D0020A01D0020BE
:1022A0001D210008BC5700081C4B1B78012B00D0D7
:1022B000704770B582B0FEF721F8194A13783BBB1E
:1022C000184B1B78FBB9184A184B1278184C9A5CBB
:1022D0001849A45C184D1B5D0978184E184C03EB87
:1022E000C203DBB2994255F82320337022600AD032
:1022F000144CD16B2368019001310133D163236009
:10230000FEF719F8019802B0BDE87040FDF7F8BF7C
:10231000013BDBB21370002BF5D1D1E72E1C00205E
:10232000941D00202C1C0020841D0020BC56000899
:10233000881D0020881C00205C2E0020341C0020FA
:102340007C1D00200C1D00200E4B1B7803B1704734
:1023500070B40D4A0D4B12780D499A5C0D4D895C95
:102360000D4E5B5C0D4C0E480E4903EBC203DBB215
:10237000337055F82320237070BC02600A60FDF7AB
:10238000C1BF00BF2E1C0020841D0020BC560008C9
:10239000881D00205C2E0020341C0020881C00209A
:1023A0007C1D0020981D0020F8B5FEF771F9FDF79F
:1023B000A5FF234A136801331360FDF7A1FF214BEA
:1023C0001B78012B00D0F8BD1F490A78012AFAD0EA
:1023D00003D3022A18BF00230B701C4B1C6894F80F
:1023E00036303F2BEFD01A4E1A4DFDF787FF236B87
:1023F0005A1EEBB12263DAB994F8343013F0370285
:1024000004D003F0C80384F8343001221B0784F899
:1024100035200DD494F8381094F8392015F801E0DF
:10242000337894F83A704EEA02023B436A543370B0
:102430006469FDF765FF94F836303F2BD5D1F8BDC0
:102440009C1D00202E1C0020081D00208C1C00203C
:10245000841D0020881D002047F21720704700BF10
:10246000704700BFF0B507462D48BD7A2D4C465D3C
:10247000BD194FF0000EED7A405D00EBC600C0B212
:1024800054F8205095F8344085F8353024EA02029B
:1024900013076962C5F830E085F8342028D595F82F
:1024A000391095F838203A44D37A23EA0103D372DD
:1024B0007BB32C6ADCB1226895F838E095F83AC015
:1024C00095F839608AB1F643F6B26FEA0C0C02EB6C
:1024D0000E01CB7A3340CB721BB9937A03EA0C031B
:1024E000937254F8042F002AF1D1EF61F0BDF0BDD2
:1024F000DFF838E00C4C1EF80620237895F83910E8
:1025000095F83AC00A434CEA03030EF806202370FC
:10251000C7E795F83A20BB7A23EA0203BB72C8E703
:10252000BC5600085C2E0020841D0020881D002061
:1025300030B4114B114C1B6893F83820D861024419
:1025400093F83910D57A2943D172817A93F83A20D9
:102550000A43827293F8381093F83900625C22EAD9
:102560000002625432B9064A93F83A10137823EA0B
:102570000103137030BC7047981D0020881D002097
:10258000841D002010B490F8382090F839400A4497
:10259000D37A23EA0403D3722BB990F83A208B7ACA
:1025A00023EA02038B7210BC704700BF70B40A6844
:1025B00090F8385090F83A6090F8394072B1E4439E
:1025C000E4B2F6435019C37A2340C37213B9937A25
:1025D0003340937251F8042F002AF3D170BC704736
:1025E00000238372C0F80B30C0F80F30704700BF73
:1025F00029B101398AB20132002102F039BD704798
:1026000070B582B0FDF77AFE154B1B7813BB154BE6
:102610001B78FBB9144A154B1278154C9A5C154976
:10262000A45C154D1B5D0978144E154C03EBC203D9
:10263000DBB2994255F82320337022600AD0114C46
:10264000D16B2368019001310133D1632360FDF721
:102650006DFE019802B0BDE87040FDF751BE00BFAD
:10266000941D00202C1C0020841D0020BC56000856
:10267000881D0020881C00205C2E0020341C0020B7
:102680007C1D00200C1D00202DE9F8431F46064646
:102690000D469146BDF82880FDF730FE364B1C688C
:1026A000002C63D062691A60FDF72AFE0998606009
:1026B00006F00702F108089825600123002503FAB7
:1026C00001FEE06093402D4884F8372084F83810EC
:1026D00084F83AE084F83930206584F83660204682
:1026E000C4F80890A4F81080678284F8345084F805
:1026F0003550256384F83B50E5612562A56265622B
:10270000E56365642564A564E5646565FDF7BEFF62
:10271000FDF7F4FD1A4B43F82640FDF7F1FD204686
:10272000FDF766FFFDF7EAFD164AA56113686361D0
:1027300003B19C61DFF858E094F83860124F134DF4
:102740009EF8001094F83AC02B78146094F8392061
:10275000BC5D4CEA0101224301338EF80010BA55EA
:102760002B70FDF7CDFD0020BDE8F883FDF7C8FD17
:102770004220BDE8F88300BF101D00200C51000866
:102780005C2E00208C1C0020881D0020141D0020C1
:10279000841D0020F0B5012183B002AC0846FEF78D
:1027A000A9FF4FF4004701210220FEF7A3FF44F8E0
:1027B000087D00230122214602251F488DF806309E
:1027C0008DF807308DF804204FF480768DF8055091
:1027D00000F022F921461948009600F01DF9214623
:1027E0001648009500F018F93946134800F06EF9C4
:1027F0003146124800F06AF92946104800F064F9A1
:1028000008244FF400410C4800F060F94FF4807147
:102810000A4800F059F94FF48071084800F056F961
:10282000013CEED10221054800F04EF90221034897
:1028300000F04CF903B0F0BD00000240000402407B
:1028400070B50646082580240FE000F03DF94FF4EE
:102850008071104800F038F94FF480710D4800F095
:1028600035F9013D4FEA54040AD034424FF4004197
:102870000948EAD14FF40041074800F027F9E6E79C
:102880000221044800F020F902210248BDE870400E
:1028900000F01CB9000402400000024010B5012104
:1028A00084B00846FEF734FF4AF20F44002340F29A
:1028B000CF7201A94FF08040ADF80630ADF80C3072
:1028C0008DF80E300292ADF8044001F0D9FE0121DE
:1028D0004FF0804001F020FF012211464FF0804070
:1028E00001F028FF04B010BD10B5012182B04FF0F7
:1028F000804001F029FF08B902B010BD01214FF05E
:10290000804001F02DFF0E4C0E4B217818680122FB
:102910000DF10703FEF73EF90B4B1B68DB0604D4F1
:1029200023780133237002B010BD0848FEF7CEFAB9
:102930002078FEF72FFB0648FEF7C8FAF0E700BF45
:102940000C010020281C0020E0000020DC570008BB
:1029500014590008F0B51848184F194E85B0FEF705
:10296000B5FA03AD1748FEF7B1FAFFF797FF012359
:102970001C21002228468DF80C108DF80D208DF8B2
:102980000E308DF80F3001F055FD386800950023AA
:1029900083224FF6FF71FDF7BFFF3368DB06044665
:1029A000F3D50948FEF792FA2046FEF7F3FA0748F6
:1029B000FEF78CFAE9E700BFCC570008281C00207E
:1029C000E0000020D4510008FC570008145900080A
:1029D00070B50E4C78212046FFF70AFE0C4A0D4BCD
:1029E000146004F1180604F1300504F1480004F104
:1029F000600100226660E5616063E16462666361B4
:102A0000E3626364E365636770BD00BF901C0020F0
:102A1000181D00200C51000800222DE9F047134634
:102A2000D1F800E001274FF0030C04E00133102B34
:102A300002F1020229D007FA03F434EA0E05F5D1B7
:102A4000D0F800800E790CFA02F5ED4308EA05088B
:102A5000C0F80080D0F8009006FA02FA013E4AEA77
:102A60000909012E0CFA02F8C0F800900FD9C568C8
:102A7000CC7925EA0805C560C568944001332C432C
:102A8000102BC46002F10202D5D1BDE8F087866840
:102A900091F805903540856086688D7909FA02F9CC
:102AA00049EA06068660466826EA040444604668E9
:102AB00005FA03F4A4B234434460D8E70369194229
:102AC00014BF012000207047018370474183704785
:102AD000CB0800EB830001F0070110B48900046A01
:102AE0000F238B4024EA03030362036A10BC8A406D
:102AF00042EA030101627047364B37481A680021E9
:102B000042F001021A6099601A6822F0847222F47D
:102B100080321A6058601A6882B022F480221A60EB
:102B2000D960009101911A6842F480321A601A4605
:102B300003E0009BB3F5A06F09D0136803F40033E2
:102B40000193009B01330093019B002BF1D0214B9B
:102B50001B6813F4003318BF01230193019B012B61
:102B600005D01E4B4FF000629A6002B07047194BBF
:102B70001B491A6C1B4842F080521A640A6842F4DE
:102B800080420A609A689A609A6842F400429A60A9
:102B90009A6842F4A0529A6058601A6842F08072B3
:102BA0001A601A4611680B4B8901FBD50E4A40F298
:102BB000056111609A6822F003029A609A6842F0F7
:102BC00002029A601A46936803F00C03082BFAD1AC
:102BD000C7E700BF003802401030002400ED00E0DD
:102BE0000070004008544007003C02400378022B6C
:102BF0001FD170B504460D46FDF780FB6268D38A8D
:102C000033B91F221C462A70FDF77AFB204670BD9F
:102C100014699668211D1161013BB1422468D38279
:102C200004BF5368136100232B70FDF769FB204636
:102C300070BD01230B700020704700BF2DE9F843E1
:102C4000204B93F80090B9F1000F2AD11E4F88460F
:102C50000646FDF753FB3C6834B363683B60FDF701
:102C60004FFBFDF74BFB194B1D6815B32A681A6023
:102C7000FDF746FB06EB88010222154B6E60EE6005
:102C80002E61A960A5F81480A5F816902046A4F836
:102C90000890656022706361FFF7A2FC2046BDE8E2
:102CA000F8830020BDE8F883FDF72AFB2046BDE845
:102CB000F8833B6863603C60FDF722FB2846BDE873
:102CC000F88300BF941D0020901D0020801D00206F
:102CD0000C510008F8B50378022B02D001252846D4
:102CE000F8BD04460E46FDF709FBA57A0746C5B9AF
:102CF0006368DA8A998A91420FD9D968081DD86029
:102D00000E60D868996801328842DA8204BF5A6836
:102D1000DA603846FDF7F4FAE1E7FDF7F1FA1E252F
:102D2000DDE73146002304222046FFF79BFB3846AF
:102D3000FDF7E6FA0025FFF763FCD0E70378022BE6
:102D400001D00120704770B504460D46FDF7D6FA54
:102D5000A37A2B7404F10B0205F1080304F10F06AA
:102D600005F10C018A4238BFB34217D313439B07C6
:102D700014D1D4F80B30AB60D4F80F30EB6062683C
:102D8000D38A4BB111690968928AEA802960AB80C5
:102D9000FDF7B6FA002070BD1946F5E7E37A2B720D
:102DA000237B6B72637BAB72A37BEB72E37B2B7336
:102DB000237C6B73637CAB73A37CEB73DFE700BF97
:102DC00010B5094C60212046FFF712FC234604F1A0
:102DD000180143F8301B054AA36104F148000021A3
:102DE0002063A164146010BD1C1D0020801D002004
:102DF0002DE9F0410546FDF781FAFF2D074667D022
:102E0000424E56F82540002C6BD0012C78D094F817
:102E100038203F4994F839008B5C23EA00038B5437
:102E2000002B4DD0E16911B12046FFF7ABFB216AC1
:102E300011B12046FFF7BAFBA06A08B1FDF78CFF7D
:102E4000DFF8D08098F800300022FF2B18BF013344
:102E5000226384F8342084F83520384618BF88F877
:102E60000030FDF74DFAFFF7FBFAFDF747FA98F847
:102E70000030284A074603BB2046FDF7BBFB264926
:102E8000002346F825300B78A269013B0B7063697B
:102E9000002A31D0536163699A61204B204A196836
:102EA0006161384622651C60FDF72AFA1D4B1B78CC
:102EB000012B1CD00020BDE8F081013B1370DBE743
:102EC000194A94F83A10137823EA01031370A9E71A
:102ED000164B0E4E1B6893F8365056F82540002CC2
:102EE00093D13846FDF70CFA4320BDE8F081FFF797
:102EF00087FB0020BDE8F0810D499A610B60CCE7AB
:102F00003846FDF7FDF93D20BDE8F0815C2E00203C
:102F1000881D00202C1C0020141D0020101D0020E6
:102F20000C5100082E1C0020841D0020981D00203C
:102F30008C1C00202DE9F04385B01D4607468846CD
:102F40009146FDF7DBF91D4B1C7854B91C4E56F821
:102F500025306BB1FDF7D4F92824204605B0BDE833
:102F6000F083FDF7CDF93C24204605B0BDE8F083A1
:102F7000012346F82530FDF7C3F923464A4641466A
:102F80003846FDF73DFB0294014601940094234628
:102F900022462846FFF778FB074630B9094B1B78D5
:102FA000012BDAD1FFF72CFBD7E7FDF7A7F946F89D
:102FB0002540FDF7A5F93C46CFE700BF941D002052
:102FC0005C2E00202E1C00202DE9F04F85B01D4600
:102FD000074688469146BDF838A0BDF84860FDF721
:102FE0008DF9254B1C785CB9DFF894B05BF825307F
:102FF0006BB1FDF785F92824204605B0BDE8F08FB8
:10300000FDF77EF93C24204605B0BDE8F08F012392
:103010004BF82530FDF774F906F00303032B19D0A4
:1030200033464A4641463846FDF7EAFA119B01937A
:10303000109B0296014600930F9A53462846FFF7CD
:1030400023FB064678B90D4B1B78012BD4D1FFF733
:10305000D7FAD1E7109B002BE2D09A0021460F98B7
:1030600002F006F8DCE7FDF749F9002334464BF897
:103070002530FDF745F9BFE7941D00202E1C0020E8
:103080005C2E0020054B1B780BB1402070473F2879
:1030900001D13E207047FFF7ABBE00BF941D00205A
:1030A00070B5114B1B78144613B11223137070BD09
:1030B00005460E46FDF722F9FF2D0BD00B4B53F8BA
:1030C000253063B1012B0AD01E65FDF719F90023E5
:1030D000237070BD064B1B6893F83650EEE7FDF782
:1030E0000FF94323237070BD941D00205C2E002037
:1030F000981D0020002370B50B6004464B600D4600
:10310000FDF7FCF8FF2C0CD0164B53F824308BB194
:10311000012B0FD01A8AD20710D4FDF7F1F8452001
:1031200070BD114B1B6893F836400E4B53F824309A
:10313000002BEDD1FDF7E4F8432070BD9C68DE68FC
:10314000FDF7DEF82368221D4BB952F8040B01335A
:103150000028FAD0F61A85E84800002070BD002348
:10316000F8E700BF5C2E0020981D002008B5064B34
:103170001868FDF743FA054B1B7803B108BDFF2023
:10318000BDE80840FFF734BE981D0020941D0020C4
:103190002DE9F84F3148324FDFF8E8A0DFF8E8B00A
:1031A000FDF794FE2F48FDF791FE4FF00109002432
:1031B00004EB440507EBC5064FF4C87006F104089C
:1031C000FDF76CF823464A464046274947F8354004
:1031D000FEF79AFEDAF800301A0708D43146DBF819
:1031E0000000FFF777FD092C27D00134E0E71F48E6
:1031F000FDF76CFE1948FDF769FE1D48FDF766FEF8
:103200001C48FDF763FE57F83500FDF7C3FE18486C
:10321000FDF75CFE1848FDF759FE4046FDF756FEE7
:103220001348FDF753FE1548FDF750FE3146DBF815
:103230000000FFF74FFD092CD7D1DAF800301B074B
:1032400009F1010905D44FF44870FDF727F800246F
:10325000AEE70B48FDF73AFEF5E700BF1858000847
:1032600098190020D45100089458000838580008D4
:10327000145900085C580008685800087458000881
:10328000A0580008E0000020881A002070B51F48F0
:103290001F4D204E86B0FDF719FE1F48FDF716FEA4
:1032A0001E20FCF7FBFF01A92868FFF747FDBDF8CA
:1032B0000830092BF4D90DF103012868FFF796FCBB
:1032C00004460028ECD033681B07F4D51348FDF7FB
:1032D000FDFD0E48FDF7FAFD1148FDF7F7FD114819
:1032E000FDF7F4FD54F8040BFDF754FE0C48FDF710
:1032F000EDFD0D48FDF7EAFD2046FDF7E7FD084826
:10330000FDF7E4FD0948FDF7E1FDD4E72858000882
:10331000881A0020E0000020D45100083858000826
:10332000145900085C5800086858000874580008D0
:1033300070B51448144E154D82B0FDF7C7FD144802
:10334000FDF7C4FD0320FCF7A9FFFDF72DF80446A7
:103350000028F7D00DF1070381B201223068FDF794
:1033600019FC2B685B0703D41E20FCF797FFE9E7E5
:103370000848FDF7ABFD2046FDF70CFE0648FDF7BB
:10338000A5FDF1E7CC580008201C0020E00000203B
:10339000EC5800081859000814590008F0B51348F3
:1033A000134F144E85B0FDF791FD1348FDF78EFDC8
:1033B0000DF10F05002383224FF6FF713868009549
:1033C000FDF7AAFA0446C0B2FFF73AFA204600F029
:1033D000A3FE33685B07EDD50848FDF777FD20466F
:1033E000FDF7D8FD0648FDF771FDE3E7DC5800085E
:1033F000201C0020E0000020D451000834590008AF
:1034000014590008F8B5204B1C7884BB0E460546BD
:10341000FCF774FFFF2D01461ED01C4A52F82530E0
:103420004BBB1B4B1C68012042F825004CB30846DF
:1034300062681A602D02FCF763FF00270422154B17
:10344000227045F0FF052046258167606361FFF724
:10345000C7F837702046F8BD0D4B1C68002CE6D12C
:103460000846FCF74DFF042333700020F8BD1023FD
:103470000B700020F8BDFCF743FF28233370204673
:10348000F8BD42F82540EBE7941D00205C2E00209B
:10349000901D00200C5100080378042B02D001235A
:1034A00013707047834B1B78002B40F09580824B44
:1034B0001B7813B10D23137070472DE9F04F0446AC
:1034C00085B015460E46FCF719FF23895FFA83FE87
:1034D0001A0ABEF1FF0F8046D1B200F08880FF2AA1
:1034E000764F7CD0626892F836308B4277D93B6851
:1034F00093F83600704544D292F838C0DFF8C8E13E
:1035000092F839901EF80C0010EA090F00F08C8038
:1035100020EA09000EF80C00002840F0C580684839
:10352000039092F83AB0007820EA0B0B4FEAD10CE6
:1035300001F007004FF0010A0AFA00F902900AFAB6
:103540000CF0C0B21EF80CA001904BEA000B9DF8E5
:10355000080082F837005FFA89F9039882F836107C
:1035600049EA0A0A80F800B00EF80CA09DF80400A1
:1035700082F838C082F83A0082F83990514840F811
:10358000212093F834201E6342F01002002183F8BA
:10359000342083F835102046FEF7CAFF4046FCF77A
:1035A000AFFEFFF72DF8FCF7A9FE0646386890F845
:1035B0003530D3B1022B14D10E232B703B6800227F
:1035C000304683F8342083F83520DA611A6205B07A
:1035D000BDE8F04FFCF794BE0223137070473B68C0
:1035E000CFE72146FEF7CEFF0A232B70E6E7334EE6
:1035F00003F47F433768238197F83660676033436D
:10360000FF2A238103D097F836308B4207D94046F2
:10361000FCF776FE00232B7005B0BDE8F08FFCF7B9
:103620006FFE78232B70F7E7D06990B184449CF843
:103630000BE02EEA09098CF80B90B9F1000F07D1C5
:1036400092F83AC090F80AE02EEA0C0E80F80AE0F0
:10365000D06982F836104FEAD10A4FF0010E0EFA07
:103660000AFC01F007095FFA8CFC0EFA09FE82F8E9
:1036700038A082F83AC082F839E082F83790002802
:103680003FF47CAF90F80AE04CEA0E0C80F80AC0D8
:1036900092F838E092F839C0704490F80BE04EEAA6
:1036A0000C0E80F80BE069E70548039090F800B035
:1036B0003CE700BF941D00202C1C0020981D00201A
:1036C000841D00205C2E0020881D00202DE9F84F6D
:1036D000544B1C781CB105242046BDE8F88F0378B4
:1036E000042B03D001242046BDE8F88F0546FCF7E3
:1036F00005FE4D4A6B6812689342064603D0FCF7FC
:10370000FFFD6424E8E72A89110AFF2923D093F8F2
:103710003600CFB2B84233D0DFF814C1DFF81081E1
:1037200001234CF82130AB7A0BB300231946102249
:103730002846FEF797FE2B8958F820206A6023F070
:10374000FF03034387422B8113D23046FCF7D8FD99
:10375000FEF756FFC0E7AB7A002B53D142F0FF02D1
:1037600000232A8130466B60FCF7CAFDB4E72A8942
:10377000F4E73046FCF7C4FD7824FEF741FFABE7E1
:1037800093F838E0DFF8AC8093F839C018F80E00F1
:1037900020EA0C0008F80E00DFF89CE038B99EF82B
:1037A000000093F83AC020EA0C008EF80000D2B274
:1037B000C2F3C20C02F0070B012000FA0BF918F853
:1037C0000CA083F837B000FA0CF05FFA89F9C0B2A8
:1037D00049EA0A0A83F8399083469EF8009083F8F4
:1037E0003A00124883F838C008F80CA0DFF840C04F
:1037F00002704BEA090083F836208EF800004CF87E
:1038000022308BE72346102221462846FEF72AFE67
:103810002B89074A23F0FF0352F820206A600343F4
:103820002B8192E7941D0020981D0020881C002009
:103830005C2E0020881D0020841D00202DE9F04F03
:10384000012185B01020FDF755FF0DF1100A01216F
:1038500004204FF07808FDF74DFF01210820F74CB8
:10386000DFF8E0B3F64FFDF745FF4AF8108D01256C
:1038700000264FF00209514620468DF804508DF87D
:1038800006608DF807608DF80590FFF7C5F84FF4D6
:103890002053514658460093FFF7BEF8514638462C
:1038A0000095FFF7B9F858464FF40051FFF70EF9AD
:1038B00029463846FFF70AF958464FF40061FFF7EA
:1038C00005F90F20FCF7CEFC29463846FFF7FCF837
:1038D00020460821FFF7FAF820461021FFF7F6F8F6
:1038E00020462021FFF7F2F820464021FFF7EEF8AE
:1038F00020464021FFF7E8F820462021FFF7E4F8B2
:1039000029463846FFF7E2F802A92046CDF808809C
:103910008DF80C508DF80E608DF80F608DF80D90BD
:10392000FFF77AF82846FCF79DFC29463846FFF752
:10393000CBF820460821FFF7C9F820461021FFF7F1
:10394000C5F820462021FFF7C1F820464021FFF7A7
:10395000BDF829463846FFF7B9F802A92046CDF848
:1039600008808DF80C508DF80E608DF80F608DF882
:103970000D90FFF751F82846FCF774FC3220FCF755
:1039800071FC29463846FFF79FF820460821FFF7CB
:103990009DF820461021FFF799F820462021FFF7D7
:1039A00095F820464021FFF791F820464021FFF787
:1039B0008BF820462021FFF787F829463846FFF785
:1039C00085F802A92046CDF808808DF80C508DF8B6
:1039D0000E608DF80F608DF80D90FFF71DF82846EA
:1039E000FCF740FC29463846FFF76EF820460821D0
:1039F000FFF76CF820461021FFF768F820462021D9
:103A0000FFF764F820464021FFF760F82946384662
:103A1000FFF75CF802A92046CDF808808DF80C501D
:103A20008DF80E608DF80F608DF80D90FEF7F4FFA5
:103A30002846FCF717FC29463846FFF745F820468C
:103A40000821FFF743F820461021FFF73FF82046F2
:103A50002021FFF73BF820464021FFF737F82046AA
:103A60004021FFF731F820462021FFF72DF82946A5
:103A70003846FFF72BF802A92046CDF808808DF8CC
:103A80000C508DF80E608DF80F608DF80D90FEF7DC
:103A9000C3FF2846FCF7E6FB29463846FFF714F833
:103AA00020460821FFF712F820461021FFF70EF8F4
:103AB00020462021FFF70AF820464021FFF706F8AC
:103AC00029463846FFF702F802A92046CDF80880BB
:103AD0008DF80C508DF80E608DF80F608DF80D90FC
:103AE000FEF79AFF2846FCF7BDFB29463846FEF74D
:103AF000EBFF20460821FEF7E9FF20461021FEF7E4
:103B0000E5FF20462021FEF7E1FF20464021FEF799
:103B1000DDFF29463846FEF7D9FF02A92046CDF839
:103B200008808DF80C508DF80E608DF80F608DF8C0
:103B30000D90FEF771FF2846FCF794FB29463846A6
:103B4000FEF7C2FF20460821FEF7C0FF20461021E5
:103B5000FEF7BCFF20462021FEF7B8FF204640219B
:103B6000FEF7B4FF20462021FEF7AEFF2946384677
:103B7000FEF7ACFF02A92046CDF808808DF80C5066
:103B80008DF80E608DF80F608DF80D90FEF744FFF4
:103B90002846FCF767FB0520FCF764FB29463846FE
:103BA000FEF792FF20460821FEF790FF20461021E5
:103BB000FEF78CFF20462021FEF788FF204640219B
:103BC000FEF784FF20462021FEF77EFF2946384677
:103BD000FEF77CFF02A92046CDF808808DF80C5036
:103BE0008DF80E608DF80F608DF80D90FEF714FFC4
:103BF0002846FCF737FB29463846FEF765FF204686
:103C00000821FEF763FF20461021FEF75FFF2046E4
:103C10002021FEF75BFF20464021FEF757FF20469C
:103C20001021FEF751FF20460821FEF74DFF2946DF
:103C30003846FEF74BFF02A9204605E0001002407F
:103C4000000C024000080240CDF808808DF80C50AE
:103C50008DF80E608DF80F608DF80D90FEF7DCFE8C
:103C60002846FCF7FFFA0F20FCF7FCFA29463846F5
:103C7000FEF72AFF20460821FEF728FF20461021E4
:103C8000FEF724FF20462021FEF720FF204640219A
:103C9000FEF71CFF29463846FEF718FF02A920460A
:103CA000CDF808808DF80C508DF80E608DF80F60FF
:103CB0008DF80D90FEF7B0FE2846FCF7D3FA2946A2
:103CC0003846FEF701FF20460821FEF7FFFE20469A
:103CD0001021FEF7FBFE20462021FEF7F7FE2046CE
:103CE0004021FEF7F3FE20462021FEF7EDFE2046A0
:103CF0001021FEF7E9FE20460821FEF7E5FE2946E1
:103D00003846FEF7E3FE02A92046CDF808808DF87C
:103D10000C508DF80E608DF80F608DF80D90FEF749
:103D20007BFE2846FCF79EFA0F20FCF79BFA2946FB
:103D30003846FEF7C9FE20460821FEF7C7FE20469A
:103D40001021FEF7C3FE20462021FEF7BFFE2046CD
:103D50004021FEF7BBFE29463846FEF7B7FE02A912
:103D60002046CDF808808DF80C508DF80E608DF847
:103D70000F608DF80D90FEF74FFE2846FCF772FAA3
:103D800029463846FEF7A0FE20460821FEF79EFE93
:103D900020461021FEF79AFE20462021FEF796FECF
:103DA00020464021FEF792FE20464021FEF78CFE81
:103DB00029463846FEF78AFE02A92046CDF808803B
:103DC0008DF80C508DF80E608DF80F608DF80D9009
:103DD000FEF722FE2846FCF745FA0F20FCF742FAD0
:103DE00029463846FEF770FE20460821FEF76EFE93
:103DF00020461021FEF76AFE20462021FEF766FECF
:103E000020464021FEF762FE29463846FEF75EFE58
:103E100002A92046CDF808808DF80C508DF80E6070
:103E20008DF80F608DF80D90FEF7F6FD2846FCF733
:103E300019FA29463846FEF747FE20460821FEF7C4
:103E400045FE20461021FEF741FE20462021FEF7C8
:103E50003DFE20464021FEF739FE20462021FEF798
:103E600033FE20461021FEF72FFE29463846FEF786
:103E70002DFE02A920468DF80D908DF80E608DF86C
:103E80000F608DF80C50CDF80880FEF7C5FD284670
:103E9000FCF7E8F90F20FCF7E5F905B0BDE8F08F75
:103EA0002DE9F0434FF4005183B007469648DFF800
:103EB0006482FEF70BFE01219448FEF705FE0821FF
:103EC0009348FEF703FE10219148FEF7FFFD2021E5
:103ED0008F48FEF7FBFD40218D48FEF7F7FD0121DD
:103EE0008A48FEF7F3FD0126002502244FF07809E9
:103EF000694687488DF80540CDF800908DF804603C
:103F00008DF806508DF80750FEF786FD3046FCF719
:103F1000A9F931467D48FEF7D7FD08217C48FEF718
:103F2000D5FD10217A48FEF7D1FD20217848FEF713
:103F3000CDFD40217648FEF7C9FD40217448FEF7CB
:103F4000C3FD31467148FEF7C1FD694670488DF8E2
:103F50000540CDF800908DF804608DF806508DF87E
:103F60000750FEF759FD3046FCF77CF9052088F82C
:103F70000050FCF777F9694665488DF80540CDF8A3
:103F800000908DF804608DF806508DF80750FEF70C
:103F900043FD3046FCF766F93C78002C6DD1B0E06B
:103FA00019F0020F40F0908019F0040F40F0948057
:103FB00019F0080F03D008215548FEF785FD0121AF
:103FC0005248FEF783FD00234FF0780E0222694627
:103FD0004F48CDF800E08DF806308DF807308DF8A9
:103FE00005208DF80460FEF717FD0120FCF73AF973
:103FF00001214648FEF768FD08214548FEF766FDA9
:1040000010214348FEF762FD20214148FEF75EFD86
:104010003F484021FEF75AFDE0076DD4A10760D468
:10402000620764D4230703D508213948FEF74CFD05
:1040300001213648FEF74AFD002478220223694612
:10404000334800928DF805308DF806408DF8074012
:104050008DF80460FEF7E0FC0120FCF703F998F806
:1040600000302C4A0133DBB20135202BEDB214BFF6
:10407000137014707C5D002C43D04FF40051224823
:10408000FEF722FD01212148FEF71EFD08212048F0
:10409000FEF71CFD10211E48FEF718FD20211C48CC
:1040A000FEF714FD4FEA141940211948FEF70EFDE2
:1040B00019F0010F3FF474AF40211548FEF704FDDD
:1040C00019F0020F3FF470AF20211148FEF7FCFCFD
:1040D00019F0040F3FF46CAF10210D48FEF7F4FC0B
:1040E00066E720210A48FEF7EFFC62079AD5102107
:1040F0000748FEF7E9FC95E740210548FEF7E4FC98
:104100008CE703B0BDE8F08300080240000C0240D9
:10411000001002400D0100202DE9F04389B000237A
:104120008DF81C30002840F0BC8008AF302407F820
:10413000054DDFF8D082002501266EE019F0020F50
:1041400040F0928019F0040F40F0968019F0080FAB
:1041500003D00821A948FEF7B7FC0121A848FEF7C3
:10416000B5FC00234FF0780E022201A9A348CDF838
:1041700004E08DF80A308DF80B308DF809208DF8A9
:104180000860FEF749FC0120FCF76CF801219C480F
:10419000FEF79AFC08219948FEF798FC10219748F1
:1041A000FEF794FC20219548FEF790FC93484021AF
:1041B000FEF78CFCE0076FD4A10762D4620766D4D7
:1041C000230703D508218D48FEF77EFC01218C488A
:1041D000FEF77CFC00247822022301A98748019283
:1041E0008DF809308DF80A408DF80B408DF8086085
:1041F000FEF712FC0120FCF735F898F80030814AF0
:1042000001330135DBB2EDB2202B08BF14707C5DA9
:1042100018BF1370002C00F0DB804FF400517A4877
:10422000FEF752FC01217648FEF74EFC0821734848
:10423000FEF74CFC10217148FEF748FC20216F4826
:10424000FEF744FC4FEA141940216C48FEF73EFC8F
:1042500019F0010F3FF472AF40216848FEF734FCBB
:1042600019F0020F3FF46EAF20216448FEF72CFCDA
:1042700019F0040F3FF46AAF10216048FEF724FCE8
:1042800064E720215D48FEF71FFC620798D51021E6
:104290005A48FEF719FC93E740215848FEF714FCF2
:1042A0008AE75A4B5A4DA3FB0012D20802EB820157
:1042B000A0EB41016C5C8DF81B40002A00F08B8064
:1042C000A3FB0241C90801EB8101A2EB4102514964
:1042D000AA5C8DF81A20A1FB001252097DD0A3FB25
:1042E0000241C90801EB8101A2EB41024A49AA5CE3
:1042F0008DF81920A1FB0012920970D0A3FB024196
:10430000C90801EB8101A2EB41024449AA5C8DF886
:104310001820A1FB0012520B63D0A3FB0241C90875
:1043200001EB8101A2EB41023D49AA5C8DF8172007
:104330004209A1FB0212D20955D0A3FB0241C908D0
:1043400001EB8101A2EB41023649AA5C8DF81620EF
:10435000A1FB0012920C48D0A3FB0241C90801EB5B
:104360008101A2EB41023049AA5C8DF81520A1FB26
:104370000012920D3BD0A3FB0241C90801EB810161
:10438000A2EB41022949AA5C8DF81420A1FB00127E
:10439000520E2ED0A3FB0213DB0803EB8303A2EB28
:1043A0004302234BAA5C8DF81320400AA3FB003084
:1043B000C00920D02B5C8DF812300527013708ABDF
:1043C0003B4413F8144C03AB1F44002C7FF4B1AEF4
:1043D00009B0BDE8F0830F27F5E70D27EEE70C27BE
:1043E000ECE70B27EAE70A27E8E70927E6E70827CB
:1043F000E4E70727E2E70627E0E700BF00100240F6
:10440000000C02400D01002000080240CDCCCCCCB5
:10441000505900081F85EB51D34D62105917B7D181
:10442000C55A7C0A83DE1B436BCA5F6B893BE6552A
:10443000834B0400C3785BB9037818485A092032CB
:1044400003F01F03012101FA03F340F82230704703
:10445000134BF0B4D9684778827804780F4EC9437B
:10446000C1F30221C1F10405EDB20F2307FA05F5EE
:104470000B41EDB213402B4304F1604202F561425F
:104480001B01DBB282F800330378012203F01F0125
:104490005B098A4046F82320F0BC704700E100E049
:1044A00000ED00E070B50F4B1E78A6B90546FBF78E
:1044B00025FF0D4B1C6884B162681A60FBF720FF72
:1044C00001220A4B26812046656022706361FEF757
:1044D00087F8204670BD002070BDFBF711FF204615
:1044E00070BD00BF941D0020901D00200C510008DD
:1044F0002DE9F8430378012B16D12E4B1B78002BA6
:104500004DD12D4C2678002E44D1054617468846BD
:10451000FBF7F4FE6C6881465CB16E60FBF7F0FE61
:104520003E702046BDE8F883012313700020BDE8EB
:10453000F883224E336893F83420C3F8308042F079
:10454000020283F8354083F834202846FDF7F0FF57
:104550004846FBF7D5FEFEF753F8FBF7CFFE804643
:10456000306890F8353013B3022B1DD02946FEF782
:1045700009F80A233B7033680022404683F8342050
:1045800083F83520DA611A625A62FBF7B9FE2046D9
:10459000BDE8F8830D2111701846BDE8F8830223A9
:1045A00013700020BDE8F8830E233B70E3E7446AF4
:1045B0003B70E0E7941D00202C1C0020981D00207B
:1045C000F8B50378012B02D001252846F8BD044632
:1045D0000E46FBF793FEA57A074635B963688BB1A3
:1045E0001425FBF78DFE2846F8BD31460023022234
:1045F0002046FDF737FF3846FBF782FE0025FDF722
:10460000FFFFE2E76660FBF77BFEDEE72DE9F041A6
:104610000378012B03D001252846BDE8F08104462C
:1046200017460E46FBF76AFEA57A8046ADB117F035
:10463000010318D00023022231462046FDF712FF65
:10464000A37A002BF6D14046FBF75AFE07F004028E
:1046500002F0FF056AB10025DEE7636863B1FBF78E
:104660004FFE1425D8E7314620460222FDF7FAFE18
:10467000E9E7FDF7C5FFCFE76660FBF741FECBE753
:10468000224A038890429BB212D002F58062904287
:104690000ED0B0F1804F0BD0A2F58032904207D0FF
:1046A00002F58062904203D002F58062904203D10D
:1046B0004A8823F070031343154A90421ED002F536
:1046C000806290421AD00A8970B423F440730F4C70
:1046D0004E680D889BB21343A0420380C6620585D5
:1046E00006D00C4B984203D00123838270BC7047E4
:1046F0008B7A03860123838270BC704703800B880A
:104700004A68C2620385012383827047000001402A
:104710000010004000040140038829B923F0010380
:104720001B041B0C038070479BB243F00103038002
:10473000704700BF83899BB21AB923EA01018181C6
:104740007047194381817047038A828911EA030007
:1047500092B203D0114214BF01200020704700BF65
:10476000C94389B20182704781F0004102E000BF75
:1047700083F0004330B54FEA41044FEA430594EA21
:10478000050F08BF90EA020F1FBF54EA000C55EA5C
:10479000020C7FEA645C7FEA655C00F0E2804FEA2D
:1047A0005454D4EB5555B8BF6D420CDD2C4480EA0F
:1047B000020281EA030382EA000083EA010180EA3F
:1047C000020281EA0303362D88BF30BD11F0004F8D
:1047D0004FEA01314FF4801C4CEA113102D04042C3
:1047E00061EB410113F0004F4FEA03334CEA1333FE
:1047F00002D0524263EB430394EA050F00F0A78016
:10480000A4F10104D5F1200E0DDB02FA0EFC22FA10
:1048100005F2801841F1000103FA0EF2801843FA04
:1048200005F359410EE0A5F120050EF1200E012AF5
:1048300003FA0EFC28BF4CF0020C43FA05F3C01833
:1048400051EBE37101F0004507D54FF0000EDCF1AC
:10485000000C7EEB00006EEB0101B1F5801F1BD355
:10486000B1F5001F0CD349085FEA30004FEA3C0C59
:1048700004F101044FEA445212F5800F80F09A804F
:10488000BCF1004F08BF5FEA500C50F1000041EB53
:10489000045141EA050130BD5FEA4C0C404141EB57
:1048A000010111F4801FA4F10104E9D191F0000F7E
:1048B00004BF01460020B1FA81F308BF2033A3F101
:1048C0000B03B3F120020CDA0C3208DD02F1140CF8
:1048D000C2F10C0201FA0CF021FA02F10CE002F133
:1048E0001402D8BFC2F1200C01FA02F120FA0CFC2C
:1048F000DCBF41EA0C019040E41AA2BF01EB045175
:10490000294330BD6FEA04041F3C1CDA0C340EDC72
:1049100004F11404C4F1200220FA04F001FA02F3B5
:1049200040EA030021FA04F345EA030130BDC4F173
:104930000C04C4F1200220FA02F001FA04F340EA68
:104940000300294630BD21FA04F0294630BD94F019
:10495000000F83F4801306BF81F480110134013D00
:104960004EE77FEA645C18BF7FEA655C29D094EA71
:10497000050F08BF90EA020F05D054EA000C04BFEF
:104980001946104630BD91EA030F1EBF00210020DA
:1049900030BD5FEA545C05D14000494128BF41F079
:1049A000004130BD14F580043CBF01F5801130BDDD
:1049B00001F0004545F0FE4141F470014FF0000068
:1049C00030BD7FEA645C1ABF194610467FEA655C19
:1049D0001CBF0B46024650EA013406BF52EA0335BB
:1049E00091EA030F41F4002130BD00BF90F0000FA9
:1049F00004BF0021704730B54FF4806404F13204E5
:104A00004FF000054FF0000150E700BF90F0000F9D
:104A100004BF0021704730B54FF4806404F13204C4
:104A200010F0004548BF40424FF000013EE700BF94
:104A300042004FEAE2014FEA31014FEA02701FBF24
:104A400012F07F4393F07F4F81F06051704792F0F6
:104A5000000F14BF93F07F4F704730B54FF4607470
:104A600001F0004521F0004120E700BF50EA0102BB
:104A700008BF704730B54FF000050AE050EA010268
:104A800008BF704730B511F0004502D5404261EBD8
:104A900041014FF4806404F132045FEA915C3FF419
:104AA000DCAE4FF003025FEADC0C18BF03325FEAB2
:104AB000DC0C18BF033202EBDC02C2F1200300FA67
:104AC00003FC20FA02F001FA03FE40EA0E0021FA8C
:104AD00002F11444C1E600BF70B54FF0FF0C4CF476
:104AE000E06C1CEA11541DBF1CEA135594EA0C0F2C
:104AF00095EA0C0F00F0DEF82C4481EA030621EA67
:104B00004C5123EA4C5350EA013518BF52EA0335A1
:104B100041F4801143F4801338D0A0FB02CE4FF053
:104B20000005E1FB02E506F00042E0FB03E54FF083
:104B30000006E1FB03569CF0000F18BF4EF0010E7B
:104B4000A4F1FF04B6F5007F64F5407404D25FEA77
:104B50004E0E6D4146EB060642EAC62141EA55512A
:104B60004FEAC52040EA5E504FEACE2EB4F1FD0C6C
:104B700088BFBCF5E06F1ED8BEF1004F08BF5FEAEA
:104B8000500E50F1000041EB045170BD06F000469C
:104B900046EA010140EA020081EA0301B4EB5C0449
:104BA000C2BFD4EB0C0541EA045170BD41F4801141
:104BB0004FF0000E013C00F3AB8014F1360FDEBF66
:104BC000002001F0004170BDC4F10004203C35DA42
:104BD0000C341BDC04F11404C4F1200500FA05F3C5
:104BE00020FA04F001FA05F240EA020001F0004266
:104BF00021F0004110EBD37021FA04F642EB0601DC
:104C00005EEA430E08BF20EAD37070BDC4F10C0405
:104C1000C4F1200500FA04F320FA05F001FA04F2C9
:104C200040EA020001F0004110EBD37041F10001B5
:104C30005EEA430E08BF20EAD37070BDC4F12005C0
:104C400000FA05F24EEA020E20FA04F301FA05F228
:104C500043EA020321FA04F001F0004121FA04F2D0
:104C600020EA020000EBD3705EEA430E08BF20EAA0
:104C7000D37070BD94F0000F0FD101F000464000DA
:104C800041EB010111F4801F08BF013CF7D041EA5C
:104C9000060195F0000F18BF704703F00046520060
:104CA00043EB030313F4801F08BF013DF7D043EA31
:104CB0000603704794EA0C0F0CEA135518BF95EAE7
:104CC0000C0F0CD050EA410618BF52EA4306D1D16E
:104CD00081EA030101F000414FF0000070BD50EA8D
:104CE000410606BF1046194652EA430619D094EA17
:104CF0000C0F02D150EA013613D195EA0C0F05D101
:104D000052EA03361CBF104619460AD181EA030154
:104D100001F0004141F0FE4141F470014FF000000C
:104D200070BD41F0FE4141F4780170BD70B54FF0A7
:104D3000FF0C4CF4E06C1CEA11541DBF1CEA135527
:104D400094EA0C0F95EA0C0F00F0A7F8A4EB050409
:104D500081EA030E52EA03354FEA013100F0888000
:104D60004FEA03334FF0805545EA131343EA1263C9
:104D70004FEA022245EA111545EA10654FEA00267E
:104D80000EF000419D4208BF964244F1FD0404F537
:104D9000407402D25B084FEA3202B61A65EB030593
:104DA0005B084FEA32024FF480104FF4002CB6EB50
:104DB000020E75EB030E22BFB61A754640EA0C00D0
:104DC0005B084FEA3202B6EB020E75EB030E22BF10
:104DD000B61A754640EA5C005B084FEA3202B6EB51
:104DE000020E75EB030E22BFB61A754640EA9C0010
:104DF0005B084FEA3202B6EB020E75EB030E22BFE0
:104E0000B61A754640EADC0055EA060E18D04FEA9D
:104E1000051545EA16754FEA06164FEAC30343EA3D
:104E200052734FEAC2025FEA1C1CC0D111F4801F0A
:104E30000BD141EA00014FF000004FF0004CB6E703
:104E400011F4801F04BF01430020B4F1FD0C88BFA2
:104E5000BCF5E06F3FF6AFAEB5EB030C04BFB6EBAD
:104E6000020C5FEA500C50F1000041EB045170BDA0
:104E70000EF0004E4EEA113114EB5C04C2BFD4EBCD
:104E80000C0541EA045170BD41F480114FF0000E51
:104E9000013C90E645EA060E8DE60CEA135594EACD
:104EA0000C0F08BF95EA0C0F3FF43BAF94EA0C0FD0
:104EB0000AD150EA01347FF434AF95EA0C0F7FF445
:104EC00025AF104619462CE795EA0C0F06D152EA99
:104ED00003353FF4FDAE1046194622E750EA41067D
:104EE00018BF52EA43067FF4C5AE50EA41047FF48E
:104EF0000DAF52EA43057FF4EBAE12E74A0011D240
:104F000012F5001211D20DD56FF47873B3EB625223
:104F10000ED44FEAC12343F0004343EA505323FA2F
:104F200002F070474FF00000704750EA013002D1A4
:104F30004FF0FF3070474FF000007047844641EA61
:104F4000000313F003036DD1403A41D351F8043B01
:104F500040F8043B51F8043B40F8043B51F8043B53
:104F600040F8043B51F8043B40F8043B51F8043B43
:104F700040F8043B51F8043B40F8043B51F8043B33
:104F800040F8043B51F8043B40F8043B51F8043B23
:104F900040F8043B51F8043B40F8043B51F8043B13
:104FA00040F8043B51F8043B40F8043B51F8043B03
:104FB00040F8043B51F8043B40F8043B51F8043BF3
:104FC00040F8043B51F8043B40F8043B403ABDD262
:104FD000303211D351F8043B40F8043B51F8043B04
:104FE00040F8043B51F8043B40F8043B51F8043BC3
:104FF00040F8043B103AEDD20C3205D351F8043B93
:1050000040F8043B043AF9D2043208D0D2071CBF5E
:1050100011F8013B00F8013B01D30B880380604687
:10502000704700BF082A13D38B078DD010F00303FD
:105030008AD0C3F10403D21ADB071CBF11F8013B6D
:1050400000F8013B80D331F8023B20F8023B7BE7BC
:10505000043AD9D3013A11F8013B00F8013BF9D2E7
:105060000B7803704B7843708B7883706046704781
:1050700070B4840746D0541E002A41D0CDB20346F6
:1050800002E0621EE4B3144603F8015B9A07F8D10C
:10509000032C2ED9CDB245EA05250F2C45EA05454E
:1050A00019D903F110022646103E0F2E42F8105C6B
:1050B00042F80C5C42F8085C42F8045C02F1100211
:1050C000F2D8A4F1100222F00F0204F00F04103203
:1050D000032C13440DD91E462246043A032A46F8EF
:1050E000045BFAD8221F22F003020432134404F0B6
:1050F00003042CB1C9B21C4403F8011BA342FBD129
:1051000070BC704714460346C2E700BF3F00000072
:1051100030313233343536373839414243444546ED
:105120000A0D537461636B4461746120666F722071
:1051300070726F6365737320000000002C2055733C
:105140006167653D00000000202D20467265653DC9
:10515000000000004D696A6E5461736B31000000FD
:105160004D696A6E5461736B32000000506F737446
:105170006D696A6E7461736B000000007374617214
:10518000746564000A0D206D696A6E7461736B3119
:10519000207265636569766564206120746F676756
:1051A0006C657374617465203A2000000A0D303A12
:1051B0006D7574657870656E64206572726F723D8E
:1051C00000000000526F756E643A202564000000F4
:1051D0000A000000737461727465640A0D000000B7
:1051E0000A0D206D696A6E7461736B32207265639B
:1051F0006569766564206120746F67676C65737498
:105200006174653A200000007374617274656420F3
:10521000707265737320627574746F6E20746F2082
:10522000746F67676C650A0D000000000A0D20624C
:105230007574746F6E2070726573736564200A20D4
:1052400063757272656E7420746F67676C65207326
:1052500074617465203D200055435F4D4554484FAF
:105260004453206C61617420646520626173616CD9
:1052700065207765726B696E672076616E20766552
:1052800072736368696C6C656E64652075432D6D1F
:10529000656368616E69736D656E207A69656E2EEF
:1052A000207A6F616C73207175657565696E672C06
:1052B000206D61696C626F78696E672C20666C6125
:1052C0006767696E672C2073656D6170686F7265C2
:1052D0007320656E20686F65206A65206D616B6B59
:1052E000656C696A6B207461736B732063726565AA
:1052F00065727420287461736B6372656174652EC6
:10530000632920656E206465206269646972656343
:1053100074696F6E656C65206F6D67616E67206D77
:10532000657420646520554152542D636F6D706F14
:1053300072742E200A0D6D61696E2E633A20202052
:10534000202020207374617274757020636F64650F
:105350002C20686172647761726520647269766579
:10536000727320696E697469616C697A6174696FBE
:105370006E20637265617469652076616E20686174
:105380006E646C6573206F70206765627275696BFF
:105390007465206D656368616E69736D656E200A62
:1053A0000D7461736B6372656174652E633A20617D
:1053B00075746F6D6174697363686520637265618C
:1053C0007469652076616E20616C6C65207573650B
:1053D000722D7461736B73200A0D6D757465782E70
:1053E000633A202020202020626173696373207655
:1053F000616E206D757465782073656D6170686F7E
:10540000726573200A0D6D626F782E633A2020203A
:10541000202020206261736963732076616E206DA5
:1054200061696C626F786573200A0D666C61672E26
:10543000633A20202020202020626173696373205A
:1054400076616E20666C616767696E67200A0D7110
:10545000756575652E633A202020202020626173D7
:105460006963732076616E20717565756573200AB6
:105470000D696E746572727570742E633A202062C5
:1054800061736963732076616E20696E74657272F0
:105490007570742D68616E646C696E67200A0D7397
:1054A000747564656E7473747566662E633A202035
:1054B00073696D706C652070726F67616D20746FB9
:1054C0002074657374206578616D706C6527732036
:1054D0000A0D7465726D696E616C2D6B6579732050
:1054E000312D363A20746F67676C6520646562758C
:1054F00067206F75747075742070657220746173A5
:105500006B200A0D4D69636869656C2053636167A0
:10551000657220286A756E652032303135290A0D92
:1055200000000000095B75432F4F532D4949207639
:10553000657273696520000020766F6F7220646564
:1055400020434F52544558204D34206F70200000A6
:10555000204D487A5D0A0D000A0D6D7574657863FB
:105560007265617465206572726F723D00000000A3
:105570000A0D666C6167637265617465206572729D
:105580006F723D000A0D666C6167696E74637265C7
:10559000617465206572726F723D000055435F4D06
:1055A0004554484F445300004D626F78506F7374F8
:1055B0005461736B000000004D626F7850656E643B
:1055C0005461736B00000000737461727465642C25
:1055D00020656E746572206B6579206F6E20796F1F
:1055E0007572206B6579626F6172640A0D0000004C
:1055F0004D626F78506F73745461736B2C20706FB1
:105600007374733A200000004F4E0A0D0000000032
:105610004F46460A0D0000000A0D6D75746578202E
:105620006F7574707574203D200000000A0D6D6167
:10563000696C626F78206F7574707574203D2000FE
:105640000A0D666C6167206F7574707574203D205B
:10565000000000000A0D7175657565206F75747026
:105660007574203D200000000A0D696E7465727229
:10567000757074206F7574707574203D2000000083
:105680000A0D73747564656E747373747566662041
:105690006F7574707574203D20000000526563655D
:1056A000697665642066726F6D204D626F78506F09
:1056B00073745461736B3A20000000000000010015
:1056C00002000100030001000200010004000100CB
:1056D00002000100030001000200010005000100BA
:1056E00002000100030001000200010004000100AB
:1056F0000200010003000100020001000600010099
:10570000020001000300010002000100040001008A
:105710000200010003000100020001000500010079
:10572000020001000300010002000100040001006A
:105730000200010003000100020001000700010057
:10574000020001000300010002000100040001004A
:105750000200010003000100020001000500010039
:10576000020001000300010002000100040001002A
:105770000200010003000100020001000600010018
:10578000020001000300010002000100040001000A
:1057900002000100030001000200010005000100F9
:1057A00002000100030001000200010004000100EA
:1057B00002000100030001000200010075432F4FA9
:1057C000532D49492049646C65000000496E746599
:1057D00072727570745461736B0000000A0D544945
:1057E0004D325F49525120696E74657272757074E2
:1057F00020706F737465643A200000000A0D496ED2
:10580000746572727570745461736B207265636530
:10581000697665643A2000005175657565506F734F
:10582000745461736B000000517565756550656E49
:10583000645461736B0000000A0D3D3D3D3D3D3DEC
:105840003D3D3D3D3D3D3D3D3D3D3D3D3D3D3D3D88
:105850003D3D3D3D3D3D3D3D0A0D0000712E6E72CA
:105860003A20202000000000712E746578743A20E0
:10587000000000003D3D3D3D3D3D3D3D3D3D3D3D4C
:105880003D3D3D3D3D3D3D3D3D3D3D3D3D3D3D3D48
:105890003D3D00007169643D25643A3A256400008D
:1058A0000A0D5175657565506F73745461736B3A69
:1058B00020646F6E652C2077616974696E67206162
:1058C000206269742E2E2E0A00000000466C61676B
:1058D000506F73745461736B00000000466C616715
:1058E00050656E645461736B0000000073746172E4
:1058F0007465642C2070726573732061206B657908
:10590000206F6E207468652041524D2D626F617268
:10591000642E2E2E0A0D00000A0D466C6167506F32
:1059200073745461736B20706F737473206B65793B
:105930003A2000000A0D466C616750656E64546140
:10594000736B207265616473206B65793A20000087
:0A5950003031323334353637383940
:10595A0069120008CC0900200E0000006400000053
:10596A0001000000551300083C0800200F00000049
:10597A006400000001000000111400089C110020BE
:10598A00100000006400000001000000291F000848
:10599A008C030020110000006400000001000000D8
:1059AA008D1F0008AC0600201200000064000000F1
:1059BA0001000000313300080C100020160000001E
:1059CA0064000000010000009D3300084C1600200E
:1059DA001700000064000000010000009131000877
:1059EA002C130020180000006400000001000000D1
:1059FA008D320008DC170020190000006400000046
:105A0A000100000055290008BC1400201A000000FB
:105A1A006400000001000000000000000000000017
:105A2A000000000000000000000000009C55000873
:105A3A00FFFF00000000000001020304010203044A
:105A4A000607080900000000000000000102030424
:085A5A0006070809007A030A9F
:0400000508000000EF
:00000001FF
