:020000040800F2
:10000000583600208D100008ED100008ED10000893
:10001000ED100008ED100008ED10000800000000D1
:10002000000000000000000000000000ED100008CB
:10003000ED1000080000000065060008B506000885
:10004000ED100008ED100008ED100008ED1000089C
:10005000ED100008ED100008ED100008ED1000088C
:10006000ED100008ED100008ED100008ED1000087C
:10007000ED100008ED100008ED100008ED1000086C
:10008000ED100008ED100008ED100008ED1000085C
:10009000ED100008ED100008ED100008ED1000084C
:1000A000ED100008ED100008ED100008ED1000083C
:1000B0002D210008ED100008ED100008ED100008DB
:1000C000ED100008ED100008ED100008ED1000081C
:1000D000ED100008ED100008F90E0008ED10000802
:1000E000ED100008ED100008ED100008ED100008FC
:1000F000ED100008ED100008ED100008ED100008EC
:10010000ED100008ED100008ED100008ED100008DB
:10011000ED100008ED100008ED100008ED100008CB
:10012000ED100008ED100008ED100008ED100008BB
:10013000ED100008ED100008ED100008ED100008AB
:10014000ED100008ED100008ED100008ED1000089B
:10015000ED100008ED100008ED100008ED1000088B
:10016000ED100008ED100008ED100008ED1000087B
:10017000ED100008ED100008ED100008ED1000086B
:10018000ED100008ED10000830B585B0684601F0AC
:1001900053F900981E4B186003F04CF900221D4BD8
:1001A00003F0BEF904460D4600221B4B03F0E2FAB1
:1001B00000221A4B03F0B4F903F0C4FB184B18608B
:1001C0000FA3D3E900232046294603F0D3FA0022E7
:1001D000124B03F0A5F903F0B5FB124B18600AA30C
:1001E000D3E900232046294603F0C4FA00220B4B32
:1001F00003F096F903F0A6FB0B4B186005B030BD79
:10020000000000000094C14000000000882A614105
:100210002C0300200000F43F000022400000E03FDB
:1002200030030020380300203403002084B0019004
:10023000019B93B10A4B1A6800210391039B9342DF
:1002400005D2039B01330393039B9342F9D3019B94
:10025000013B0193019B002BEFD104B0704700BF1D
:100260003403002084B00190019B93B10A4B1A68BB
:1002700000210391039B934205D2039B0133039317
:10028000039B9342F9D3019B013B0193019B002BFC
:10029000EFD104B0704700BF38030020124B1B7829
:1002A00003BB124B1B78EBB9E0B170B5044600F00C
:1002B00025F80F4B1A6892F8381092F839600D4DF6
:1002C0006B5C23EA06036B5433B90B4992F83A503E
:1002D0000B7823EA05030B70146300F011F801F0AA
:1002E000BDFD70BD704700BF901C0020281B002082
:1002F000941C0020841C0020801C002072B67047D3
:1003000062B6704772B60E48FF210170002080F37C
:1003100009880C48016881F308880B4801210170A5
:100320000A484FF08051016062B6FEE707484FF07F
:1003300080510160704705484FF08051016070475F
:1003400022ED00E03C0300202A1B002004ED00E029
:10035000F0B583B00121082001F0C0F800258DF828
:1003600006508DF8075002278DF8057040F60E06EE
:10037000009601238DF804300A4C6946204601F0AE
:1003800065FF4FF4707300938DF804508DF807707B
:100390006946204601F05AFF3146204601F0A6FF8B
:1003A00003B0F0BD000C024038B5124D4021284684
:1003B00001F094FF04468021284601F08FFF0128B8
:1003C00004D0012C14BF0024012400E002244FF4C7
:1003D0008071084801F082FF012808BF03244FF410
:1003E0000071044801F07AFF012814BF2046042060
:1003F00038BD00BF000C024038B51E4C4FF4006100
:10040000204601F073FF0821204601F06DFFFFF741
:10041000CBFF10B104460C3400E00024154D082138
:10042000284601F063FF0421284601F05DFFFFF735
:10043000BBFF08B100F108040E4D0421284601F06D
:1004400055FF0221284601F04FFFFFF7ADFF00B135
:10045000041D084D0221284601F048FF4FF40061B9
:10046000284601F041FFFFF79FFF002808BF204604
:1004700038BD00BF000C024000B583B0012102204E
:1004800001F02CF84FF48073009301238DF80430B1
:1004900002238DF8053000238DF806308DF80730E3
:1004A0006946034801F0D2FE03B05DF804FB00BFCB
:1004B00000080240B8B1F8B504460B4F4FF48076FF
:1004C0004FF48C753146384601F010FF2846FFF78F
:1004D000ADFE3146384601F007FF2846FFF7A6FE7D
:1004E000013CEFD1F8BD70470008024070B58AB0FA
:1004F0004FF40055089501238DF8243000268DF81F
:1005000026608DF8276002238DF82530104C08A94D
:10051000204601F09BFE2946204601F0E5FE2946D3
:10052000204601F0E3FE4FF4FA70FFF79BFE2946E8
:10053000204601F0D9FE3146684600F091FD05489D
:1005400000F0AEFC684600F0ABFC0AB070BD00BF26
:10055000000402408439000840F22B13013B9BB297
:10056000002BFBD110B500F0B1FC034C002120465C
:1005700000F076FD204610BDCC00002040F22B1389
:10058000013B9BB2002BFBD110B5034C0021204650
:1005900000F066FD204610BDF8010020064B00214A
:1005A00003F5007243F8041B9342FBD1034B23F085
:1005B0000703034A136070474003002040050020F2
:1005C0003C030020704700BF704700BF704700BF6A
:1005D000704700BF704700BF043222F007024FF09F
:1005E000807342F8043C42F8080C1B4B42F80C3C68
:1005F0004FF0123342F8103C4FF0033342F8143CF2
:100600004FF0023342F8183C4FF0013342F81C3CE3
:1006100042F8201C4FF0113342F8243C4FF01033C5
:1006200042F8283C4FF0093342F82C3C4FF0083395
:1006300042F8303C4FF0073342F8343C4FF0063379
:1006400042F8383C4FF0053342F83C3C10464FF03E
:10065000043340F8403D70476D280008704700BFE4
:10066000704700BF72B6EFF3098028B1203880E8E8
:10067000F00F0C49096808600B480C490A780270B1
:1006800008480B490A680260106890E8F00F2030B3
:1006900080F309884EF0040E7FF0020E62B67047B8
:1006A00070470000941C0020841B0020301B002099
:1006B000781C002008B572B600B5FFF71FFE084A87
:1006C000137801331370FFF71BFE01F0FDF901F001
:1006D000BDF95DF804EB4EF0040E62B608BD00BF34
:1006E000901C00200138084B1860084A136823F05A
:1006F0007F431360064B1A6842F005021A601A68BD
:1007000042F002021A60704714E000E020ED00E0C1
:1007100010E000E030B585B004460D46038A9BB278
:1007200023F44053CA881343038283899BB223F482
:10073000B05323F00C0289882B890B4369890B4342
:100740009BB213438381838A9BB223F44073AA89AB
:1007500013438382684600F06FFE1C4B9C4203D01B
:1007600003F580639C4201D1039B00E0029BA289B8
:1007700012F4004F03EB830303EB8303296814BFD8
:1007800049008900B3FBF1F1114BA3FB0123580988
:100790000501642300FB1313A28912F4004F09D052
:1007A000D90032310A4AA2FB0131C1F3421242EAB6
:1007B000050307E01B013233054AA2FB0323C3F301
:1007C00043132B439BB2238105B030BD0010014081
:1007D0001F85EB5129B183899BB243F40053838178
:1007E0007047838923F400531B041B0C83817047DB
:1007F000C1F308018180704710B4C1F3421401F0C5
:100800001F01012303FA01F19C4201D10C3003E0E6
:10081000022C0CBF103014301AB103681943016068
:1008200003E0036823EA0101016010BC704700BFC8
:100830000388194214BF01200020704710B4C1F38F
:10084000421201F01F040123A340012A03D182892F
:1008500092B2134005E0022A0CBF028A828A92B249
:100860001340028892B243B1090A012303FA01F14D
:100870000A4214BF1846002000E0002010BC704758
:10088000090A012303FA01F1C94389B201807047C3
:1008900070B4174C246894F8345045F0200584F85F
:1008A0003450002584F83550039E2663A1620A82E5
:1008B0008B748C6043680B604D60C860436803B103
:1008C000596041600A4B1A6892F8381092F8394022
:1008D0000848435C23EA0403435433B9064992F8B9
:1008E0003A200B7823EA02030B7070BC704700BFFC
:1008F000941C0020841C0020801C0020114B1B78BD
:100900001BB110230B700020704770B50E460546D2
:10091000FFF7F4FC0C4B1C686CB162681A6005238D
:100920002370258100256560084BE360FFF7E8FC34
:100930003570204670BDFFF7E3FC72233370002052
:1009400070BD00BF901C0020542D0020AC39000861
:1009500010B50F4C5021204601F0B8F904F11003F6
:1009600004F1500000210B4A03F8101C43F80C3C22
:1009700043F8042C10338342F6D1054B002283F850
:1009800040205A64034ADA64034A136010BD00BF72
:10099000341B0020AC390008542D00204268036845
:1009A0002AB9C26853602BB100225A6002E013607A
:1009B00003B15A60836800229A62704710B5836859
:1009C00000241C63998593F8341001F0DF0183F84B
:1009D000341083F8352079B90A4993F83A400A78F7
:1009E00022430A7093F8382007498C5C93F8393019
:1009F00023438B54012400E00024FFF7CFFF20465F
:100A000010BD00BF801C0020841C00202DE9F8438D
:100A10000478052C04D001221A700020BDE8F88368
:100A20001E4614460F460546FFF768FC804614B183
:100A3000012C05D008E0298921EA070129810AE073
:100A400029893943298106E0FFF75AFC7123337065
:100A50000020BDE8F8836C68002C56D00027B9460A
:100A6000A37C032B35D8DFE803F01B27020F218A74
:100A70002B8931EA030334D14A462046FFF79EFF13
:100A8000012808BF01272CE0218A2B89194028D092
:100A90004A462046FFF792FF012808BF012720E0C1
:100AA000218A2B8919421CD14A462046FFF786FF2E
:100AB000012808BF012714E02989238A33EA0101AC
:100AC0000FD04A462046FFF779FF012808BF0127CB
:100AD00007E04046FFF714FC6F2333700020BDE8A9
:100AE000F8832468002CBBD14046FFF709FC012F96
:100AF00001D101F0B3F9FFF701FC2C89FFF700FCED
:100B0000002333702046BDE8F8834046FFF7F8FB2A
:100B1000F1E700BF2DE9F04788B098467E4B1B787F
:100B200023B10223109A13700020F2E006460F460C
:100B300015467A4B1B7823B10D23109A13700020B1
:100B4000E7E00378052B04D00123109A13700020EE
:100B5000DFE012F0800F1ABF02F07F054FF00109AD
:100B60004FF00009FFF7CAFB8246032D00F2868092
:100B7000DFE805F044630223338937EA030210D12A
:100B8000B9F1000F02D023EA07033381644B1B68DD
:100B90009F855046FFF7B4FB0023109A1370384628
:100BA000B7E0CDF8008002233A4603A93046FFF7AC
:100BB0006FFE5046FFF7A4FB67E0338917EA030492
:100BC00010D0B9F1000F02D023EA04033381544B53
:100BD0001B689C855046FFF793FB0023109A137007
:100BE000204696E0CDF8008003233A4603A930461C
:100BF000FFF74EFE5046FFF783FB46E033893B424A
:100C00000FD1B9F1000F01D03B433381444B1B6836
:100C10009F855046FFF774FB0023109A13703846E7
:100C200077E0CDF8008000233A4603A93046FFF76D
:100C30002FFE5046FFF764FB27E0338937EA0304B1
:100C400010D0B9F1000F02D047EA03003081344BD5
:100C50001B689C855046FFF753FB0023109A1370C6
:100C6000204656E0CDF8008001233A4603A93046DD
:100C7000FFF70EFE5046FFF743FB06E0FFF740FB91
:100C80006F23109A1370002043E001F0E7F8FFF79C
:100C900035FB0746224B1B6893F83540C4B100254D
:100CA00083F8355003A8FFF779FE1D4B1B6883F8C6
:100CB00034503846FFF724FB022C04D10E23109A3F
:100CC0001370284625E00A23109A1370002020E0B4
:100CD0009C8DB9F1000F15D0032D0CD8DFE805F07D
:100CE00007070202338923EA040333810AE03389C8
:100CF0002343338106E0FFF703FB6F23109A137041
:100D0000002006E03846FFF7FBFA0023109A137024
:100D1000204608B0BDE8F087901C0020281B00206A
:100D2000941C00202DE9F04186B001214FF40030E1
:100D300000F0E2FB0121084600F0D0FB4FF00C0868
:100D4000CDF8108002278DF8147000248DF816401D
:100D500001258DF817508DF81570174E04A93046EF
:100D600001F074FA07223946304601F0C1FA072231
:100D70000321304601F0BCFA4FF4E1330093ADF8A3
:100D80000440ADF80640ADF80840ADF80C40ADF8B1
:100D90000A800A4C69462046FFF7BCFC2A4640F20E
:100DA00025512046FFF728FD29462046FFF712FD72
:100DB00006B0BDE8F08100BF0000024000440040E2
:100DC00070B586B001214FF4802000F095FB012121
:100DD000022000F083FB4FF44063049302238DF85C
:100DE000143000248DF8164001258DF817508DF829
:100DF0001530174E04A9304601F028FA07220A21BF
:100E0000304601F075FA07220B21304601F070FAE6
:100E10004FF461430093ADF80440ADF80640ADF8DF
:100E20000840ADF80C400C23ADF80A30094C694677
:100E30002046FFF76FFC2A4640F225512046FFF777
:100E4000DBFC29462046FFF7C5FC06B070BD00BF9D
:100E5000000402400048004070B50646064D80245C
:100E600021462846FFF7E4FC0028F9D03146024825
:100E7000FFF7BEFC70BD00BF0044004070B50646E1
:100E8000064D802421462846FFF7D2FC0028F9D0E1
:100E900031460248FFF7ACFC70BD00BF004800407F
:100EA00010B582B0044600230193019BC35C53B18B
:100EB000019BE05CFFF7D0FF019B01330193019B95
:100EC000E35C002BF4D102B010BD00BF10B582B0BE
:100ED000044600230193019BC35C53B1019BE05C7A
:100EE000FFF7CCFF019B01330193019BE35C002BD7
:100EF000F4D102B010BD00BF2DE9F04140F2255100
:100F00002248FFF79BFC00283DD0204C40F22551A1
:100F10002046FFF7B5FCB4F804805FFA88F8A8F122
:100F20004103DBB2192B9CBF08F120085FFA88F857
:100F3000B8F10D0F18D8164B1B68002B0CDD154DA2
:100F40000024124F124E15F8011F3846FFF750FCCF
:100F500001343368A342F6DC00220D4B1A6041468F
:100F60000A48FFF745FC06E0094A13680A4901F8F8
:100F7000038001331360054D402421462846FFF7C6
:100F800057FC0028F9D0BDE8F08100BF00440040C4
:100F9000240300204305002044050020F0B585B05F
:100FA00040BB30238DF80F300E260FE00E2E2FDCC5
:100FB0000CE0B3FBF0F200FB123413462A5D01F89B
:100FC000012D013E02D0002BF3D1EFE70DEB060718
:100FD0008025104C013629462046FFF729FC0028C1
:100FE000F9D017F9011F89B22046FFF701FC0E2E38
:100FF000F0DD0DE002460846B2FBF1F301FB1321E0
:10100000054A525C04A901F8012D0E26024DDAE7CB
:1010100005B0F0BD00440040B039000808B50A2111
:10102000FFF7BCFF08BD00BF08B520210448FFF74B
:10103000FFFB012803BF024B9888C0B2FF2008BD08
:101040000044004008B520210448FFF7F1FB0128C7
:1010500003BF024B9888C0B2FF2008BD0048004083
:1010600038B504460D46FFF7EDFF2070FF28FAD093
:101070000A28F8D00DB1FFF701FF23780D2B02D11C
:101080000023237038BD0134EDE700BF08B5114BD4
:10109000114A9A420CD2581E801A20F003000430E4
:1010A0000E4B184453F8041B42F8041B8342F9D139
:1010B0000B480C494FF000028842B8BF40F8042B9F
:1010C000FADBDFF82400016841F47001016000F0F0
:1010D00025F908BDCC00002000000020BA4100081E
:1010E000CC000020582E002088ED00E008B5322505
:1010F0004FF4FA742846FFF7DDF92046FFF7B2F8FF
:10110000F8E700BF104B1868E0B1F0B587B01C4697
:101110006FF0404700256268E168237ACE19B4F881
:1011200010E0CDF810E0039502910192009302EBDC
:101130008602294601F0B2FB54F8140F0028EAD1C8
:1011400007B0F0BD704700BF0000002010B582B0AE
:1011500004466946C0B201F04DFBC8B90D48FFF71F
:101160009FFE2046FFF75AFF0B48FFF799FE0198B4
:101170000028B8BF03308010FFF750FF0748FFF783
:101180008FFE00980028B8BF03308010FFF746FF9D
:1011900002B010BDC0390008DC390008E839000889
:1011A000064B1B684BB110B5044C207AFFF7CEFFFD
:1011B00054F8143F002BF8D110BD704700000020F8
:1011C00008B50C48FFF76CFE0B48FFF769FE00F00E
:1011D000D9FCFFF723FF0948FFF762FE084B1B68A5
:1011E0000848A0FB0330800CFFF718FF0648FFF704
:1011F00057FE08BDFC390008C83C0008DC3C00086C
:10120000B800002083DE1B43F43C000800B583B027
:101210000DF10701082001F0B7FC254B18609DF87F
:1012200007304BB12348FFF73BFE9DF80700FFF75F
:10123000F5FE2148FFF734FE002001F091FE1F4B20
:101240001860002001F08CFE1D4B18600DF10701A5
:101250000020FFF753FB1B4B18609DF807304BB184
:101260001948FFF71DFE9DF80700FFF7D7FE12484B
:10127000FFF716FE0DF107010020FFF73FFB134BB0
:1012800018609DF807304BB11148FFF709FE9DF833
:101290000700FFF7C3FE0848FFF702FE0A210D48CA
:1012A00001F0D8F80C4B186003B05DF804FB00BFE8
:1012B00068180020FC3C00087441000888190020D0
:1012C000201B00201C1B0020143D0008241B0020B4
:1012D000283D00086C1800208419002010B572B653
:1012E0000B4C206801F0FCFD2068FFF7D9FD094890
:1012F000FFF7D6FDFFF764FFFFF788FFFFF702FF58
:101300000548FFF7EFF962B6FF2001F0A5F910BD1F
:10131000A00000207441000840D10C0008B500F086
:10132000FBFFFEF731FFFFF7FDFCFFF749FD01F082
:10133000EDFC00F079FEFFF79FF8FFF709F8FFF7E3
:10134000D5F800F0CFFC0121082000F0C7F82C4BA5
:101350001A6842F080721A601A6842F080621A605D
:101360001A6842F080521A601A6842F080421A608D
:101370000523244A0021244801F024F92348FFF7DB
:101380008FFD2348FFF78CFD2248FFF789FD224897
:1013900001F04EFD2148FFF7DFF8FFF781FD2048FF
:1013A000FFF7DAF8FFF77CFD1E48FFF7D5F8FFF7E7
:1013B00077FD1D48FFF7D0F8FFF772FD4FF4FA7084
:1013C000FEF750FF1948FFF7C7F8FFF769FD184C03
:1013D0002046FFF765FDFFF7D1F8FFF761FD1548DF
:1013E000FFF7BAF8FFF75CFD2046FFF759FDFFF75E
:1013F000C5F8FFF755FDFFF7C1F8FFF751FDFEE710
:10140000000C0240181B0020DD1200087441000887
:10141000F4390008403D0008483D0008583D0008E8
:10142000683D00089C3D0008C03D0008CC3D000818
:10143000C83D0008DC3D000810B4244B9B6803F055
:101440000C03042B05D0082B06D00BBB204B0360EC
:1014500020E0204B03601DE01C4B5A685B6803F0E2
:101460003F0312F4800F194A5268C2F3881214BF66
:1014700018491749B1FBF3F303FB02F2134B5B6806
:10148000C3F3014301335B00B2FBF3F3036001E0FC
:101490000F4B03600D4CA368C3F303130E49CB5CE1
:1014A000DAB20368D3404360A268C2F382228A5C46
:1014B000D2B223FA02F28260A268C2F342328A5C9C
:1014C000D2B2D340C36010BC704700BF00380240A6
:1014D0000024F40000127A00A800002021B1054B7E
:1014E0001A6B104318637047024A136B23EA00001B
:1014F000106370470038024021B1054B1A6C10434D
:1015000018647047024A136C23EA000010647047A5
:101510000038024010B40B7843B1024602F8013B98
:10152000141A11F8013F002BF8D100E000242046E6
:1015300010BC704770B504461E46501E092B04D8D7
:1015400000280CDC254600200FE00E4BA3FB0623F1
:10155000DB0802462046FFF7EDFF251805E0551E83
:10156000254404F8011BA542FBD1064BA3FB06232F
:10157000DB0803EB8303A6EB430330332B7001300E
:1015800070BD00BFCDCCCCCC70B50446002B04DAC6
:101590005D42501E092D05D82FE01D46013A092B4A
:1015A0000AD825E01D4BA3FB0523DB085B4202465E
:1015B0002046FFF7E9FF06E01848A0FB0303DB081D
:1015C0002046FFF7E1FF04441CE01046264606F8DB
:1015D000011B01380028FADC013A22EAE272501CB1
:1015E0000444002B0EDA2D2304F8013B013009E0FE
:1015F000002AD8BF002005DDE7E7023A002AE4DC34
:101600000020F0E7054BA3FB0523DB0803EB830376
:10161000A5EB430330332370013070BDCDCCCCCC6F
:1016200070B582B004461E46069D501E2B0904D19B
:1016300000280ADC234600200DE0009333460246D2
:101640002046FFF7EDFF231805E0531E234404F85E
:10165000011BA342FBD105F00F02092A03D815464E
:1016600030351D7009E026B105F00F0537351D70C6
:1016700003E005F00F0557351D70013002B070BD55
:101680002DE9F04F83B00F46064608B100210170E6
:1016900000254FF0010AA8464FF030097CE02529CB
:1016A00004D0013231700135013675E051782529B9
:1016B00004D131700232013501366DE0302919BF95
:1016C000541C2021941C494694F800E0AEF13002ED
:1016D000D2B2092A0FD8424602EB82020EEB420236
:1016E000303A02F0FF0214F801EFAEF13000C0B260
:1016F0000928F1D900E04246501987423CBF7A1BC5
:10170000D2B2AEF1580EBEF1200F56D8DFE80EF07F
:101710002B555555555555555555553D11555555FF
:101720005511555555555555555555355519555509
:10173000210003F1040B1B683046FFF725FF5B46D1
:1017400027E003F1040B1B683046FFF7F3FE5B460E
:101750001FE003F1040B1B68009343463046FFF77C
:101760005FFF5B4615E003F1040B1B6800935346D3
:101770003046FFF755FF5B460BE003F1040B196899
:101780003046FFF7C7FE5B4603E01A683270043349
:101790005046621C06440544117819B1BD42FFF45D
:1017A0007EAF05E0AF4203D900233370284606E040
:1017B000002306F8013C681E01E04FF0FF3003B043
:1017C000BDE8F08F08B513460A466421FFF758FFBD
:1017D00008BD00BF0EB400B582B003AA52F8041BC6
:1017E0000192FFF7EFFF02B05DF804EB03B0704722
:1017F00070B582B01248FFF753FB1248FFF750FB59
:10180000114D124C124E1E20FEF748FDFFF70CFC46
:101810008DF80700FF28F6D00DF10701286801F0C8
:1018200033FC236813F0020FEDD03046FFF738FB8E
:101830009DF80700FFF710FB0648FFF731FBE2E7D2
:10184000FC3D00081C3E000888190020A400002070
:10185000443E0008744100082DE9F04182B05C4824
:10186000FFF71EFB5B48FFF71BFB5B4E5B4CDFF893
:1018700094815B4F0DF107020021306801F096FB67
:1018800005460378313B422B00F29280DFE803F0FB
:10189000223446586A7C90909090909090909090CE
:1018A0009090909090909090909090909090909038
:1018B00090908E909090909090909090909090902A
:1018C0009090909090909090909090909090909018
:1018D00090908E00236883F0010323604148FFF756
:1018E000DFFA206800F001003F4B002814BF3846A3
:1018F0001846FFF7D5FA5BE0236883F00203236004
:101900003A48FFF7CDFA206800F00200364B002875
:1019100014BF38461846FFF7C3FA49E0236883F03E
:10192000040323603248FFF7BBFA206800F004008C
:101930002D4B002814BF38461846FFF7B1FA37E0A0
:10194000236883F0080323602A48FFF7A9FA206878
:1019500000F00800244B002814BF38461846FFF753
:101960009FFA25E0236883F0100323602248FFF7E5
:1019700097FA206800F010001B4B002814BF38466F
:101980001846FFF78DFA13E0236883F020032360E5
:101990004046FFF785FA206800F02000124B00282F
:1019A00014BF38461846FFF77BFA01E0FFF7F8FB53
:1019B000236813F0020F3FF45DAF1048FFF770FA91
:1019C0002878FFF749FA0E48FFF76AFA52E700BF96
:1019D0000C3E00086C3E000888190020A40000207E
:1019E0005C3E0008783E0008643E00088C3E00081B
:1019F000A03E0008B43E0008C83E0008FC3E0008B7
:101A000074410008E03E0008054B064A12789A5CD3
:101A10000549895C5B5C03EBC203044A13707047A1
:101A20001C3F0008801C0020841C0020301B00206C
:101A300010B5054CFEF762FC236801332360FEF706
:101A40005FFCFEF7C5FDF5E72C1B0020164B1B784D
:101A5000012B28D110B5FEF751FC0446134B1B781F
:101A600023B1013BDBB2114A1370C3B9104B1B7891
:101A7000ABB9FFF7C9FF0F4B1A780F4B53F8223061
:101A80000E490B600E490978914208D0DA6B013299
:101A9000DA630C4A136801331360FEF74CFC2046EE
:101AA000FEF72EFC10BD70472A1B0020901C002062
:101AB000281B0020301B0020582D0020781C0020FF
:101AC000841B0020081C0020F8B5FEF7C9FDFEF7B6
:101AD00015FC264A136801331360FEF711FC244BF2
:101AE0001B78012B41D1234B1B78012B3DD02BB10F
:101AF000022B0CBF012200221E4B1A701E4B1C68C9
:101B000094F836303F2B30D01C4E1D4D0027FEF789
:101B1000F5FB236B13B3013B2363FBB994F834301B
:101B200013F0370F07D023F0370384F83430012344
:101B300084F8353001E084F8357094F8343013F0CF
:101B4000080F0BD194F83A2033781343337094F88C
:101B50003820A95C94F839300B43AB546469FEF724
:101B6000CFFB94F836303F2BD1D1F8BD981C002024
:101B70002A1B0020041C0020881B0020801C002041
:101B8000841C002047F21720704700BF704700BF39
:101B900010B4114B1B68D86193F838200244D47AF2
:101BA00093F839102143D172817A93F83A200A438D
:101BB000827293F8381093F839400848425C22EA60
:101BC0000402425432B9064A93F83A10137823EAD1
:101BD0000103137010BC7047941C0020841C00206B
:101BE000801C002010B490F8382090F839400A4446
:101BF000D37A23EA0403D3722BB990F83A208B7A74
:101C000023EA02038B7210BC704700BF70B490F8D7
:101C1000385090F83A6090F839400A686AB1E44365
:101C2000F6435019C37A2340C37213B9937A3340F1
:101C3000937251F8042F002AF3D170BC704700BF93
:101C4000F8B50646184C807A205C3518ED7A655D4B
:101C500005EBC005EDB2154C54F82540002727636D
:101C6000616294F8341021EA020284F8342084F886
:101C7000353012F0080F0BD10D4A94F83A10137852
:101C80000B4313700B4A115C94F839300B43135417
:101C900031462046FFF7A6FF216A19B12046FFF71B
:101CA000B5FFE6612846F8BD1C3F0008582D00200E
:101CB000801C0020841C00200346002203F80A2F09
:101CC000123003F8012F8342FBD1704741B1431E0C
:101CD0004A1E10FA82F0002203F8012F8342FBD142
:101CE000704700BF10B588B0FEF758FC0023434A88
:101CF0001360434A1370434A1370434A1370434AB4
:101D00001370434A1360434A1360434A1370434AB3
:101D10001370434B03F10801002203F8012F8B429B
:101D2000FBD100233F4A13703F4A13703F4A1360B0
:101D30003F4A13603F4C4FF4E7612046FFF7C6FF70
:101D40004FF480713C48FFF7C1FF04F1580304F5DC
:101D5000E7623A4943F8443C43F8081C58339A4236
:101D6000F8D1344B0022C3F8F4263449C3F83017B5
:101D700033490A60334A1360334C4FF4F061204614
:101D8000FFF7A4FF04F1180304F5F06200202B49CB
:101D900003F8180C43F8143C43F8041C183393421E
:101DA000F6D1294B002483F86847C3F86C47234ACF
:101DB000C3F87C27254A1360FEF7CAFD00F022FA1B
:101DC00000F0E8FB224A0323049303948023029348
:101DD000A2F5FE7301934FF6FF7300933F23214654
:101DE0001C4800F05BFD0DF11F021B493F2000F075
:101DF000D3FCFEF7E7FB08B010BD00BF981C002025
:101E0000901C0020281B0020101C00202A1B0020F2
:101E1000081C00202C1B0020291B0020801C0020F7
:101E2000831C0020841B0020301B0020781C002015
:101E3000941C00201C260020582D0020AC390008DE
:101E4000881B00200C1C00209C1E00208C1C0020E5
:101E5000981E0020311A00081C40000810B5FEF73B
:101E60004DFA04460F4B1B78C3B90F4B1B78ABB927
:101E7000FFF7CAFD0D4B1A780D4B53F822300D4970
:101E80000B600D490978914208D0DA6B0132DA63B0
:101E90000A4A136801331360FEF748FA2046FEF73A
:101EA0002FFA10BD901C0020281B0020301B0020A2
:101EB000582D0020781C0020841B0020081C0020C6
:101EC0002DE9F04106460D4690461F46FEF716FAEC
:101ED000354B1C68002C61D062691A60FEF710FA5D
:101EE000256084F83660002584F8345084F8355035
:101EF0002563079B6360069BE360C4F80880BDF818
:101F000020302382678284F83B50F20884F838201E
:101F100006F0070184F83710012303FA02F284F86F
:101F20003A208B4084F83930E5612562A56265620C
:101F3000E56365642564A564E5641C4B23656565FC
:101F40002046FEF78BFBFEF7D9F9194B43F82640E4
:101F5000FEF7D6F92046FEF737FBFEF7CFF9154B13
:101F60001B686361A56103B19C61124B1C60124A3E
:101F700094F83A1013780B43137094F838200F49F3
:101F80008D5C94F839302B438B540D4A1378013310
:101F90001370FEF7B5F90020BDE8F081FEF7B0F947
:101FA0004220BDE8F08100BF0C1C0020AC390008C5
:101FB000582D0020881B0020801C0020841C00203D
:101FC000101C00202DE9F843814608248025DFF805
:101FD0005480134F4FF4807619EA050F05D04FF463
:101FE0000041404600F080F904E04FF400414046D3
:101FF00000F07CF93146384600F076F93146384633
:1020000000F074F96D08013CE6D1054C0221204630
:1020100000F06AF90221204600F068F9BDE8F88373
:1020200000040240000002402DE9F04782B0012187
:102030000846FFF753FA01210220FFF74FFA002666
:102040008DF806608DF8076002278DF80570012372
:102050008DF804304FF4004A02AC44F808ADDFF8C4
:1020600050902146484600F0F1F84FF48078CDF8C2
:1020700000800E4D2146284600F0E8F800972146E2
:10208000284600F0E3F85146484600F02FF9414653
:10209000284600F02BF93946284600F025F930464D
:1020A000FFF790FF02B0BDE8F08700BF00040240D8
:1020B0000000024000B585B001210846FFF71CFA78
:1020C0004AF20F43ADF804300023ADF8063040F279
:1020D000CF720292ADF80C308DF80E3001A94FF09E
:1020E000804000F0F7FF01214FF0804001F036F80A
:1020F000012211464FF0804001F03EF805B05DF836
:1021000004FB00BF00B583B01C238DF8043000230E
:102110008DF8053001238DF806308DF8073001A8C1
:1021200000F0E6FE03B05DF804FB00BF00B583B02D
:1021300001214FF0804001F02BF800B301214FF056
:10214000804001F031F80DF1070301220D490978B3
:102150000D480068FEF75AFC0C4B1B6813F0100F7B
:1021600009D00B48FEF79CFE064B1878FEF756FF89
:102170000848FEF795FE034A13780133137003B045
:102180005DF804FB28030020241B0020A40000208D
:102190003C400008744100082DE9F04184B0134828
:1021A000FEF77EFE1248FEF77BFEFFF783FFFFF788
:1021B000A9FF104F104E0DF10F05DFF84480009578
:1021C000002383224FF6FF713868FEF7A3FC044614
:1021D000336813F0100FF2D04046FEF761FE204640
:1021E000FEF71CFF0548FEF75BFEE8E72C40000801
:1021F0006C3E0008241B0020A4000020744100084D
:102200005C40000810B50E4C78212046FFF75EFDBB
:1022100004F1180363600B4B636104F13002E26167
:10222000E36204F148026263636404F16002E26401
:10223000E365002262666367034B1C6010BD00BF4C
:102240008C1B0020AC390008141C0020F0B50023C2
:102250000125032605FA03F20C68A24339D102686E
:102260005C0006FA04F7FF433A400260026891F806
:1022700004E00EFA04FE4EEA020202600A79013A14
:10228000D2B2012A17D882681740876087684A79D6
:10229000A2403A43826047689AB205FA02FE27EAF2
:1022A0000E074760D0F804E08F7907FA02F292B285
:1022B00042EA0E024260C7689AB2520006FA02F27F
:1022C00027EA0202C260C268CF7907FA04F4144315
:1022D000C4600133102BBDD1F0BD00BF03691942AA
:1022E00014BF01200020704701837047418370476D
:1022F00010B401F007039B00C90800EB8100046AD9
:102300000F21994024EA01010162016A9A400A43BF
:10231000026210BC704700BF82B0364B1A6842F0B0
:1023200001021A60002199601A6822F0847222F476
:1023300080321A60304A5A601A6822F480221A6089
:10234000D960009101911A6842F480321A601A46ED
:10235000136803F400330193009B01330093019B46
:102360001BB9009BB3F5A06FF2D1224B1B6813F48D
:10237000003F14BF012300230193019B012B32D1A5
:102380001C4B1A6C42F080521A641C490A6842F4D1
:1023900080420A609A689A609A6842F400429A60A1
:1023A0009A6842F4A0529A60154A5A601A6842F03C
:1023B00080721A601A46136813F0007FFBD040F257
:1023C0000562104B1A60A3F580639A6822F003023D
:1023D0009A609A6842F002029A601A46936803F083
:1023E0000C03082BFAD14FF00062074B9A6002B041
:1023F000704700BF003802401030002400700040D9
:1024000008544007003C024000ED00E038B5037876
:10241000022B03D001230B70002038BD0D4604466B
:10242000FDF76CFF6368DA8A6AB11C69211D1961C6
:102430002468013ADA829A68914204BF5A681A61A4
:1024400000232B7002E01F232B700024FDF758FFA0
:10245000204638BDF8B51D4B1B78002B30D10F46F8
:102460000646FDF74BFF1A4B1C68002C2AD0626809
:102470001A60FDF745FFFDF741FF164B1D68BDB122
:102480002A681A60FDF73CFF6E6006EB8703AB60BD
:10249000EE602E61AF820023EB8202222270238144
:1024A00065600D4B63612046FFF706FC2046F8BDD2
:1024B000074B1A6862601C60FDF722FF0020F8BD20
:1024C0000020F8BDFDF71CFF0020F8BD901C002087
:1024D0008C1C00207C1C0020AC390008F8B5037867
:1024E000022B2CD10E460446FDF708FF0746A57ABD
:1024F00065B10023042231462046FFF7A1FB384690
:10250000FDF7FEFEFFF7AAFC002519E06368D98AF3
:102510009A8A914203D3FDF7F3FE1E2510E0DA6894
:10252000111DD9601660DA8A0132DA82D9689A6898
:10253000914204BF5A68DA60FDF7E2FE00E001252F
:102540002846F8BDF8B50378022B21D10F46044682
:10255000FDF7D4FEA37A3B7404F10B03FA1D04F1DA
:10256000130613F8015B02F8015FB342F9D1636807
:10257000DA8A1AB11A6912683A6001E000223A60F8
:10258000DA8ABA809B8AFB80FDF7BAFE0020F8BD8C
:102590000120F8BD10B5094C60212046FFF796FBDD
:1025A00004F11802234643F8302BA36104F14803D9
:1025B00023630023A364024B1C6010BD181C002081
:1025C0007C1C00202DE9F04184B006460F46904661
:1025D0001D46FDF793FE1D4B1C781CB1FDF790FEC8
:1025E0003C242EE01A4B53F825303BBB0122184BFC
:1025F00043F82520FDF784FE002342463946304645
:10260000FDF7EAFF00220292019200921346014672
:102610002846FFF755FC064630B90E4B1B78012BB8
:102620000FD1FFF71BFC0CE0FDF768FE0022084B02
:1026300043F82520FDF764FE344602E0FDF760FE16
:102640002824204604B0BDE8F08100BF901C002083
:10265000582D00202A1B0020F8B5444B1C78002C74
:102660007ED105463F287DD0FDF748FE0646FF2D6A
:1026700003D13F4B1B6893F836502F463D4B53F820
:10268000255025B93046FDF73BFE43246BE0012D74
:1026900004D13046FDF734FE3D2464E095F838203F
:1026A00095F8390034498B5C23EA00038B5433B925
:1026B000324A95F83A10137823EA01031370E96956
:1026C00011B12846FFF78EFA296A11B12846FFF7A3
:1026D0009DFAA86A08B1FEF761F900232B6385F81B
:1026E000343085F83530264B1B78FF2B02D0013370
:1026F000234A13703046FDF703FEFFF747FAFDF754
:10270000FDFD06461E4B1B7813B1013B1C4A13709E
:102710002846FDF75BFF1B4A1378013B137000222C
:10272000144B43F82720AB692BB96B699A616A692E
:10273000154B1A6004E06A695A616B69AA699A616B
:10274000124B1A686A611D60114B2B653046FDF70C
:10275000D7FD104B1B78012B05D1FFF77FFB02E063
:10276000402400E03E242046F8BD00BF901C00201D
:10277000941C0020582D0020841C0020801C002068
:10278000281B0020101C0020881B00200C1C00208F
:10279000AC3900082A1B002070B51446124B1B7878
:1027A00013B11223137070BD05460E46FDF7A6FD4A
:1027B000FF2D03D10D4B1B6893F836500C4B53F88B
:1027C000253023B9FDF79CFD4323237070BD012BF9
:1027D00004D1FDF795FD4323237070BD1E65FDF701
:1027E0008FFD0023237070BD901C0020941C0020DE
:1027F000582D002070B505460C4600230B604B6039
:10280000FDF77CFDFF2D03D1164B1B6893F8365066
:10281000154B53F825301BB9FDF772FD432070BDF1
:10282000012B03D1FDF76CFD432070BD1A8A12F015
:10283000010F03D1FDF764FD452070BDDD689E6882
:10284000FDF75EFD321D33682BB9013352F8041BCE
:102850000029FAD000E000232360EB1A6360002017
:1028600070BD00BF941C0020582D002008B5044BFB
:102870001868FDF7AFFEFF20FFF7EEFE08BD00BFB2
:10288000941C002002F00302032A05D121B1002389
:1028900040F8043B0139FBD1704700BF2DE9F043FC
:1028A00085B00746884691461D46BDF84060FDF755
:1028B00025FD214B1C781CB1FDF722FD3C2436E0A0
:1028C0001E4B53F825307BBB01221C4B43F82520BF
:1028D000FDF716FD32460E990D98FFF7D3FF3346EC
:1028E0004A4641463846FDF777FE02960F9B019314
:1028F0000E9B0093BDF830300D9A01462846FFF735
:10290000DFFA064630B90E4B1B78012B0FD1FFF7CB
:10291000A5FA0CE0FDF7F2FC0022084B43F8252055
:10292000FDF7EEFC344602E0FDF7EAFC28242046E1
:1029300005B0BDE8F08300BF901C0020582D00209A
:102940002A1B002038B504460D461048FEF7A8FAA9
:102950002846FEF7A5FA0E4D2846FEF7A1FA0D48C7
:10296000FEF79EFA54F8040BFEF758FB2846FEF7D4
:1029700097FA0948FEF794FA2046FEF791FA28469E
:10298000FEF78EFA0548FEF78BFA38BD984000082E
:1029900074410008BC400008C8400008D44000084A
:1029A0002DE9F8431E48FEF77BFA1E48FEF778FA39
:1029B000012700241C4EDFF87C90DFF87C804FF468
:1029C000C870FDF76BFC04EB440306EBC30546F847
:1029D000334023463A464946281DFEF7FBFED8F809
:1029E000003013F0080F03D00D492846FFF7AAFF67
:1029F00029460E4B1868FFF771FD092C0ED10137DF
:102A0000D8F8003013F0080F02D00948FEF748FA52
:102A10004FF44870FDF742FC0024D0E70134CEE7C4
:102A2000784000086C3E00089418002084190020AB
:102A300000410008F4400008A400002070B586B0F2
:102A40001348FEF72DFA1348FEF72AFA124C134DDD
:102A5000134E1E20FDF722FC69462068FFF772FD29
:102A6000BDF80430092BF4D908E02B6813F0080FE7
:102A700004D006F110011046FFF764FF0DF11701B5
:102A80002068FFF7C3FC02460028EED1E1E700BF53
:102A9000884000086C3E000884190020A400002033
:102AA00078400008F0B583B01448FEF7F9F91448EF
:102AB000FEF7F6F9134E144D144F0320FDF7EEFB0D
:102AC000FDF79AFC04460028F7D00DF10703012218
:102AD00081B23068FDF79AFF2B6813F0040F08D01D
:102AE0003846FEF7DDF92046FEF798FA0848FEF76B
:102AF000D7F91E20FDF7D2FBDFE700BF2C4100080D
:102B00004C4100081C1B0020A40000207841000854
:102B1000744100082DE9F04385B01548FEF7C0F96F
:102B20001448FEF7BDF9DFF85880134F0DF10F067A
:102B3000DFF850900096002383224FF6FF71D8F8FB
:102B40000000FDF7E7FF0446C0B2FFF73BFA20465E
:102B500000F07CF93B6813F0040FEBD04846FEF719
:102B60009FF92046FEF75AFA0448FEF799F9E1E783
:102B70003C4100086C3E0008A4000020744100089D
:102B80001C1B002094410008214B1B781BB1102313
:102B90000B700020704770B50E460446FDF7AEFB83
:102BA000FF2C2FD01B4B53F824302BB1FDF7A8FB83
:102BB00028233370002070BD0122164B43F82420D7
:102BC000154B1D684DB90022124B43F82420FDF728
:102BD00097FB04233370002070BD6A680E4B1A60A7
:102BE000FDF78EFB04232B70240244F0FF042C819C
:102BF00000246C60094B6B612846FFF75DF8347068
:102C0000284670BD044B1D68002DE6D1DFE700BFEC
:102C1000901C0020582D00208C1C0020AC3900088E
:102C200010B5094C08212046FFF760FB1021204613
:102C3000FFF75CFB20212046FFF758FB4021204690
:102C4000FFF754FB10BD00BF0010024010B5044652
:102C5000FFF7E6FF14F0010F03D040210C48FFF707
:102C600043FB14F0020F03D020210948FFF73CFB7F
:102C700014F0040F03D010210548FFF735FB14F0C2
:102C8000080F03D008210248FFF72EFB10BD00BF3C
:102C90000010024010B582B07823009301248DF813
:102CA000044000238DF806308DF8073002238DF89C
:102CB000053069460348FFF7C9FA2046FDF7D2FA06
:102CC00002B010BD0010024038B505460E4C01217F
:102CD0002046FFF709FB2809FFF7B8FF012120462E
:102CE000FFF704FBFFF7D6FF01212046FFF7FCFAB0
:102CF00005F00F00FFF7AAFF01212046FFF7F6FAC3
:102D0000FFF7C8FF38BD00BF000C02402DE9F041BD
:102D100082B001211020FEF7E1FB01210420FEF723
:102D2000DDFB01210820FEF7D9FB01258DF80450B9
:102D300000238DF806308DF8073002278DF80570D6
:102D400002AC782344F8083D21462848FFF77EFA74
:102D50004FF420530093264E21463046FFF776FA73
:102D60000095DFF8908021464046FFF76FFA4FF458
:102D700000513046FFF7BAFA29464046FFF7B6FA47
:102D80004FF400613046FFF7B1FA0F20FDF76AFA01
:102D90003020FFF799FF3220FDF764FA3020FFF76B
:102DA00093FF3020FFF790FF3846FFF78DFF052097
:102DB000FDF758FA2C20FFF787FF0F20FDF752FA96
:102DC0000E20FFF781FF0F20FDF74CFA2846FFF792
:102DD0007BFF0F20FDF746FA0620FFF775FF0F2057
:102DE000FDF740FA02B0BDE8F08100BF00100240DC
:102DF00000080240000C024010B504464FF4005198
:102E00000948FFF771FA2046FFF75EFF074B1B7872
:102E10000133DBB2202B02D0044A137010BD002214
:102E2000024B1A7010BD00BF0008024029030020A9
:102E300038B50546007838B10024FFF7DDFF0134CE
:102E4000E4B2285D0028F8D138BD00BF70B586B067
:102E500000238DF8143020B930238DF813300E2064
:102E600014E0024605AC0F200C4E0D4DA6FB0213DC
:102E7000DB08194603EB8303A2EB43030A46013840
:102E8000EB5C04F8013D09B10028EFD106AB184412
:102E90001338FFF7CDFF06B070BD00BFCDCCCCCC52
:102EA000B041000810B504464FF400510348FFF745
:102EB0001DFA2046FFF708FF10BD00BF00080240C2
:102EC00008B50120FFF7EEFF0022044B1A70052021
:102ED000FDF7C8F9FFF7DEFE08BD00BF290300209B
:102EE00010B50446FFF7ECFF2046FFF7A1FF10BD29
:102EF000C37813B310B4184BDA68D243C2F302227A
:102F00004478C2F10403DBB204FA03F3D9B20F230D
:102F10001341827813400B431B01DBB202780F4947
:102F20000A4482F800330378580903F01F03012292
:102F300002FA03F341F820300BE003785A0903F05A
:102F40001F03012101FA03F32032044941F8223022
:102F5000704710BC704700BF00ED00E000E100E0EA
:102F600038B50F4B1B78ABB90546FDF7C7F90D4BCC
:102F70001C688CB162681A60FDF7C2F901232370E6
:102F8000002323816560084B63612046FEF794FEB1
:102F9000204638BD002038BDFDF7B2F9002038BD0D
:102FA000901C00208C1C0020AC3900082DE9F8434F
:102FB0000378012B04D0012313700020BDE8F883AF
:102FC0002E4B1B7823B1022313700020BDE8F88339
:102FD0002B4B1B7823B10D2313700020BDE8F88321
:102FE00016460F460446FDF789F9804665683DB1EF
:102FF00000276760FDF784F937702846BDE8F8833D
:10300000DFF88090D9F8003093F8342042F00202C3
:1030100083F83420002283F835201F632046FEF712
:10302000B7FD4046FDF76CF9FEF718FFFDF766F9AE
:103030000746D9F8000090F8353013B1022B04D0C0
:1030400006E0456A0023337007E00E23337004E086
:103050002146FEF7C7FD0A2333700A4B1B68002286
:1030600083F8342083F83520DA611A625A623846D0
:10307000FDF746F92846BDE8F88300BF901C002004
:10308000281B0020941C0020F8B50378012B1DD1CB
:103090000E460446FDF732F90746A57A65B10023CE
:1030A000022231462046FEF7CBFD3846FDF728F9CF
:1030B000FEF7D4FE00250AE063681BB1FDF720F996
:1030C000142504E06660FDF71BF900E001252846A1
:1030D000F8BD00BF03889BB21E4A904212D002F591
:1030E000806290420ED0B0F1804F0BD0A2F58032BA
:1030F000904207D002F58062904203D002F58062D0
:10310000904203D123F070034A881343124A90423D
:1031100019D002F58062904215D023F440739BB21F
:103120000A89134303804B68C3620B880385094BEC
:10313000984203D003F58063984201D18B7A0386CD
:1031400001238382704703804B68C3620B88038529
:10315000F6E700BF000001400010004029B10388DD
:103160009BB243F0010303807047038823F00103FF
:103170001B041B0C0380704722B183899BB2194347
:103180008181704783899BB223EA01018181704765
:10319000028A83899BB2114204D0194214BF0120D4
:1031A0000020704700207047C94389B201827047F0
:1031B00081F0004102E000BF83F0004330B54FEAE8
:1031C00041044FEA430594EA050F08BF90EA020F55
:1031D0001FBF54EA000C55EA020C7FEA645C7FEAE8
:1031E000655C00F0E2804FEA5454D4EB5555B8BF0B
:1031F0006D420CDD2C4480EA020281EA030382EA7C
:10320000000083EA010180EA020281EA0303362D0D
:1032100088BF30BD11F0004F4FEA01314FF4801CE0
:103220004CEA113102D0404261EB410113F0004FF2
:103230004FEA03334CEA133302D0524263EB4303A9
:1032400094EA050F00F0A780A4F10104D5F1200E47
:103250000DDB02FA0EFC22FA05F2801841F10001A2
:1032600003FA0EF2801843FA05F359410EE0A5F176
:1032700020050EF1200E012A03FA0EFC28BF4CF0A7
:10328000020C43FA05F3C01851EBE37101F000455D
:1032900007D54FF0000EDCF1000C7EEB00006EEB6A
:1032A0000101B1F5801F1BD3B1F5001F0CD34908F4
:1032B0005FEA30004FEA3C0C04F101044FEA44524B
:1032C00012F5800F80F09A80BCF1004F08BF5FEAD2
:1032D000500C50F1000041EB045141EA050130BDB2
:1032E0005FEA4C0C404141EB010111F4801FA4F155
:1032F0000104E9D191F0000F04BF01460020B1FAAA
:1033000081F308BF2033A3F10B03B3F120020CDAE1
:103310000C3208DD02F1140CC2F10C0201FA0CF0BF
:1033200021FA02F10CE002F11402D8BFC2F1200C24
:1033300001FA02F120FA0CFCDCBF41EA0C019040DA
:10334000E41AA2BF01EB0451294330BD6FEA040423
:103350001F3C1CDA0C340EDC04F11404C4F120020E
:1033600020FA04F001FA02F340EA030021FA04F320
:1033700045EA030130BDC4F10C04C4F1200220FA77
:1033800002F001FA04F340EA0300294630BD21FAB5
:1033900004F0294630BD94F0000F83F4801306BF7B
:1033A00081F480110134013D4EE77FEA645C18BF6F
:1033B0007FEA655C29D094EA050F08BF90EA020F06
:1033C00005D054EA000C04BF1946104630BD91EAFE
:1033D000030F1EBF0021002030BD5FEA545C05D101
:1033E0004000494128BF41F0004130BD14F5800440
:1033F0003CBF01F5801130BD01F0004545F0FE41B4
:1034000041F470014FF0000030BD7FEA645C1ABFE8
:10341000194610467FEA655C1CBF0B46024650EA1F
:10342000013406BF52EA033591EA030F41F400214B
:1034300030BD00BF90F0000F04BF0021704730B5D1
:103440004FF4806404F132044FF000054FF00001A6
:1034500050E700BF90F0000F04BF0021704730B567
:103460004FF4806404F1320410F0004548BF40423C
:103470004FF000013EE700BF42004FEAE2014FEA91
:1034800031014FEA02701FBF12F07F4393F07F4F6C
:1034900081F06051704792F0000F14BF93F07F4F9E
:1034A000704730B54FF4607401F0004521F00041E1
:1034B00020E700BF50EA010208BF704730B54FF067
:1034C00000050AE050EA010208BF704730B511F06C
:1034D000004502D5404261EB41014FF4806404F1A4
:1034E00032045FEA915C3FF4DCAE4FF003025FEA26
:1034F000DC0C18BF03325FEADC0C18BF033202EBAE
:10350000DC02C2F1200300FA03FC20FA02F001FA07
:1035100003FE40EA0E0021FA02F11444C1E600BFA6
:1035200070B54FF0FF0C4CF4E06C1CEA11541DBF59
:103530001CEA135594EA0C0F95EA0C0F00F0DEF824
:103540002C4481EA030621EA4C5123EA4C5350EA09
:10355000013518BF52EA033541F4801143F480135A
:1035600038D0A0FB02CE4FF00005E1FB02E506F0EB
:103570000042E0FB03E54FF00006E1FB03569CF040
:10358000000F18BF4EF0010EA4F1FF04B6F5007F46
:1035900064F5407404D25FEA4E0E6D4146EB0606B8
:1035A00042EAC62141EA55514FEAC52040EA5E5041
:1035B0004FEACE2EB4F1FD0C88BFBCF5E06F1ED8EB
:1035C000BEF1004F08BF5FEA500E50F1000041EB22
:1035D000045170BD06F0004646EA010140EA0200CF
:1035E00081EA0301B4EB5C04C2BFD4EB0C0541EAF1
:1035F000045170BD41F480114FF0000E013C00F306
:10360000AB8014F1360FDEBF002001F0004170BD29
:10361000C4F10004203C35DA0C341BDC04F1140442
:10362000C4F1200500FA05F320FA04F001FA05F2CE
:1036300040EA020001F0004221F0004110EBD3709B
:1036400021FA04F642EB06015EEA430E08BF20EAC7
:10365000D37070BDC4F10C04C4F1200500FA04F36A
:1036600020FA05F001FA04F240EA020001F00041FC
:1036700010EBD37041F100015EEA430E08BF20EA6F
:10368000D37070BDC4F1200500FA05F24EEA020EB7
:1036900020FA04F301FA05F243EA020321FA04F0E6
:1036A00001F0004121FA04F220EA020000EBD3709D
:1036B0005EEA430E08BF20EAD37070BD94F0000F9D
:1036C0000FD101F00046400041EB010111F4801FD1
:1036D00008BF013CF7D041EA060195F0000F18BF82
:1036E000704703F00046520043EB030313F4801FBE
:1036F00008BF013DF7D043EA0603704794EA0C0F78
:103700000CEA135518BF95EA0C0F0CD050EA41068D
:1037100018BF52EA4306D1D181EA030101F000410A
:103720004FF0000070BD50EA410606BF1046194632
:1037300052EA430619D094EA0C0F02D150EA01363E
:1037400013D195EA0C0F05D152EA03361CBF10467F
:1037500019460AD181EA030101F0004141F0FE411E
:1037600041F470014FF0000070BD41F0FE4141F4A2
:10377000780170BD70B54FF0FF0C4CF4E06C1CEAA2
:1037800011541DBF1CEA135594EA0C0F95EA0C0F57
:1037900000F0A7F8A4EB050481EA030E52EA033512
:1037A0004FEA013100F088804FEA03334FF0805533
:1037B00045EA131343EA12634FEA022245EA111560
:1037C00045EA10654FEA00260EF000419D4208BF11
:1037D000964244F1FD0404F5407402D25B084FEABE
:1037E0003202B61A65EB03055B084FEA32024FF46A
:1037F00080104FF4002CB6EB020E75EB030E22BFC7
:10380000B61A754640EA0C005B084FEA3202B6EB86
:10381000020E75EB030E22BFB61A754640EA5C0035
:103820005B084FEA3202B6EB020E75EB030E22BFC5
:10383000B61A754640EA9C005B084FEA3202B6EBC6
:10384000020E75EB030E22BFB61A754640EADC0085
:1038500055EA060E18D04FEA051545EA16754FEAE7
:1038600006164FEAC30343EA52734FEAC2025FEA05
:103870001C1CC0D111F4801F0BD141EA00014FF094
:1038800000004FF0004CB6E711F4801F04BF014365
:103890000020B4F1FD0C88BFBCF5E06F3FF6AFAE81
:1038A000B5EB030C04BFB6EB020C5FEA500C50F111
:1038B000000041EB045170BD0EF0004E4EEA113194
:1038C00014EB5C04C2BFD4EB0C0541EA045170BD9B
:1038D00041F480114FF0000E013C90E645EA060EDF
:1038E0008DE60CEA135594EA0C0F08BF95EA0C0F0D
:1038F0003FF43BAF94EA0C0F0AD150EA01347FF455
:1039000034AF95EA0C0F7FF425AF104619462CE72B
:1039100095EA0C0F06D152EA03353FF4FDAE10468E
:10392000194622E750EA410618BF52EA43067FF4DF
:10393000C5AE50EA41047FF40DAF52EA43057FF46F
:10394000EBAE12E74A0011D212F5001211D20DD5DA
:103950006FF47873B3EB62520ED44FEAC12343F095
:10396000004343EA505323FA02F070474FF000003F
:10397000704750EA013002D14FF0FF3070474FF0EE
:10398000000070470D0A524E3234383320496E69B8
:10399000743A206F6E7476616E67656E3A2000002F
:1039A0007379732072657365740D0A003F0000001F
:1039B0003031323334353637383941424344454665
:1039C0000A0D537461636B4461746120666F7220E9
:1039D00070726F6365737320000000002C205573B4
:1039E0006167653D00000000202D20467265653D41
:1039F000000000006D61696E0000000055435F4DDE
:103A00004554484F4453206C6161742064652062C2
:103A10006173616C65207765726B696E6720766192
:103A20006E20766572736368696C6C656E64652080
:103A300075432D6D656368616E69736D656E207A7F
:103A400069656E2E207A6F616C732071756575657E
:103A5000696E672C206D61696C626F78696E672C86
:103A600020666C616767696E672C2073656D617095
:103A7000686F72657320656E20686F65206A6520C7
:103A80006D616B6B656C696A6B207461736B73201D
:103A90006372656565727420287461736B63726507
:103AA0006174652E632920656E20646520626964F7
:103AB0006972656374696F6E656C65206F6D6761AF
:103AC0006E67206D657420646520554152542D63E6
:103AD0006F6D706F72742E200A0D6D61696E2E63AA
:103AE0003A20202020202020737461727475702089
:103AF000636F64652C20686172647761726520640D
:103B000072697665727320696E697469616C697A2D
:103B10006174696F6E206372656174696520766196
:103B20006E2068616E646C6573206F7020676562DB
:103B30007275696B7465206D656368616E69736D1C
:103B4000656E200A0D7461736B6372656174652E16
:103B5000633A206175746F6D617469736368652081
:103B6000637265617469652076616E20616C6C6555
:103B700020757365722D7461736B73200A0D6D75FA
:103B80007465782E633A20202020202062617369BA
:103B900063732076616E206D757465782073656D32
:103BA0006170686F726573200A0D6D626F782E63A5
:103BB0003A202020202020206261736963732076E0
:103BC000616E206D61696C626F786573200A0D66A5
:103BD0006C61672E633A20202020202020626173D0
:103BE0006963732076616E20666C616767696E67D2
:103BF000200A0D71756575652E633A2020202020FE
:103C0000206261736963732076616E2071756575DA
:103C10006573200A0D696E746572727570742E6317
:103C20003A20206261736963732076616E20696E49
:103C3000746572727570742D68616E646C696E67FC
:103C4000200A0D73747564656E7473747566662EE0
:103C5000633A202073696D706C652070726F6761C4
:103C60006D20746F2074657374206578616D706C5D
:103C7000652773200A0D7465726D696E616C2D6B1A
:103C800065797320312D363A20746F67676C652033
:103C90006465627567206F757470757420706572E5
:103CA000207461736B200A0D4D69636869656C202F
:103CB00053636167657220286A756E652032303102
:103CC00035290A0D00000000095B75432F4F532D65
:103CD00049492076657273696520000020766F6F10
:103CE0007220646520434F52544558204D34206F54
:103CF00070200000204D487A5D0A0D000A0D6D7598
:103D0000746578637265617465206572726F723D67
:103D1000000000000A0D666C61676372656174657E
:103D2000206572726F723D000A0D666C6167696E84
:103D300074637265617465206572726F723D000014
:103D4000737461727465640066756E63746965206E
:103D50007374617274000000737973206765742056
:103D600068776575690D0A006D616320736574205D
:103D70006170706B6579204430413631353343389A
:103D800039363746433035303831353746453030AF
:103D9000313644444532410D0A0000006D61632014
:103DA00073657420617070657569203730423344E3
:103DB00035374544303032324332410D0A0000007D
:103DC0006D616320736176650D0A00006D6163208B
:103DD0006A6F696E206F7461610D0A006D61632006
:103DE000747820636E66203120354135410D0A001C
:103DF00055435F4D4554484F445300004D626F7822
:103E0000506F73745461736B000000004D626F78E3
:103E100050656E645461736B0000000073746172CE
:103E20007465642C20656E746572206B6579206FF3
:103E30006E20796F7572206B6579626F6172640AAA
:103E40000D0000004D626F78506F73745461736B96
:103E50002C20706F7374733A200000004F4E0A0DCF
:103E6000000000004F46460A0D00000073746172A6
:103E70007465640A0D0000000A0D6D757465782084
:103E80006F7574707574203D200000000A0D6D611F
:103E9000696C626F78206F7574707574203D2000B6
:103EA0000A0D666C6167206F7574707574203D2013
:103EB000000000000A0D7175657565206F757470DE
:103EC0007574203D200000000A0D696E74657272E1
:103ED000757074206F7574707574203D200000003B
:103EE0000A0D73747564656E7473737475666620F9
:103EF0006F7574707574203D200000005265636515
:103F0000697665642066726F6D204D626F78506FC0
:103F100073745461736B3A200000000000000100CC
:103F20000200010003000100020001000400010082
:103F30000200010003000100020001000500010071
:103F40000200010003000100020001000400010062
:103F50000200010003000100020001000600010050
:103F60000200010003000100020001000400010042
:103F70000200010003000100020001000500010031
:103F80000200010003000100020001000400010022
:103F9000020001000300010002000100070001000F
:103FA0000200010003000100020001000400010002
:103FB00002000100030001000200010005000100F1
:103FC00002000100030001000200010004000100E2
:103FD00002000100030001000200010006000100D0
:103FE00002000100030001000200010004000100C2
:103FF00002000100030001000200010005000100B1
:1040000002000100030001000200010004000100A1
:1040100002000100030001000200010075432F4F60
:10402000532D49492049646C65000000496E746550
:1040300072727570745461736B0000000A0D5449FC
:104040004D325F49525120696E7465727275707499
:1040500020706F737465643A200000000A0D496E89
:10406000746572727570745461736B2072656365E8
:10407000697665643A2000005175657565506F7307
:10408000745461736B000000517565756550656E01
:10409000645461736B0000000A0D3D3D3D3D3D3DA4
:1040A0003D3D3D3D3D3D3D3D3D3D3D3D3D3D3D3D40
:1040B0003D3D3D3D3D3D3D3D0A0D0000712E6E7282
:1040C0003A20202000000000712E746578743A2098
:1040D000000000003D3D3D3D3D3D3D3D3D3D3D3D04
:1040E0003D3D3D3D3D3D3D3D3D3D3D3D3D3D3D3D00
:1040F0003D3D00007169643D25643A3A2564000045
:104100000A0D5175657565506F73745461736B3A20
:1041100020646F6E652C2077616974696E67206119
:10412000206269742E2E2E0A00000000466C616722
:10413000506F73745461736B00000000466C6167CC
:1041400050656E645461736B00000000737461729B
:104150007465642C2070726573732061206B6579BF
:10416000206F6E207468652041524D2D626F617220
:10417000642E2E2E0A0D00000A0D466C6167506FEA
:1041800073745461736B20706F737473206B6579F3
:104190003A2000000A0D466C616750656E645461F8
:1041A000736B207265616473206B65793A2000003F
:0A41B00030313233343536373839F8
:1041BA00F1170008A80500200F00000064000000A5
:1041CA000100000059180008C8080020100000006B
:1041DA006400000001000000A52A000898100020D1
:1041EA00160000006400000001000000152B000802
:1041FA0048150020170000006400000001000000BC
:10420A00A1290008281200201800000064000000FC
:10421A00010000003D2A0008D816002019000000FD
:10422A00640000000100000099210008B813002072
:10423A001A000000640000000100000000000000F5
:10424A000000000000000000000000000000000064
:10425A00F03D0008FFFF0000000000000102030417
:10426A000102030406070809007A030A0000000095
:0C427A0000000000010203040607080910
:0400000508000000EF
:00000001FF
